:100000000C940A010C9472090C944B090C94240969
:100010000C94FD080C9432010C9432010C94D60817
:100020000C9432010C9432010C94EB050C945A069A
:100030000C9432010C9432010C9432010C94320174
:100040000C9432010C9432010C9432010C94320164
:100050000C9432010C9432010C9432010C948C08F3
:100060000C9432010C9432010C9432010C94320144
:100070000C9432010C9432010C9432010C94320134
:100080000C9432010C9432010C9432010C94320124
:100090000C9432010C9432010C9432010C94320114
:1000A0000C9432010C9432010C94320100000000D7
:1000B000240027002A002D00300000000000250049
:1000C00028002B002E003100000000002300260035
:1000D00029002C002F000404040404030405020278
:1000E00002020403020202020606060606060404D1
:1000F0000202020404040802011040804010204063
:10010000804080080204018040201002011080100D
:10011000204040200000000200090F0000030401FD
:10012000000C0000000000000000000000000000C3
:10013000000000080B000202020000090400000198
:10014000020200000524001001052401010104241D
:10015000020605240600010705810310004009047A
:100160000100020A00000007050202400000070526
:1001700083024000000403090412010002EF02019F
:100180004041233780000101020301417264756917
:100190006E6F204C4C430041726475696E6F204D48
:1001A0006963726F005E01011F01030301008A028F
:1001B000010A010202010064001E47040B09060047
:1001C0007C0101060103030100F401060E01020295
:1001D0000100C201170101020201019600023E0165
:1001E00006060100C80003820710031000C8008241
:1001F0000710071003016D01120103010103010E35
:100200000124010102020101400124010102020155
:100210000100990911241FBECFEFDAE0DEBFCDBF88
:1002200011E0A0E0B1E0E8E5F8E102C005900D9230
:10023000A233B107D9F722E0A2E3B1E001C01D92D9
:10024000A236B207E1F711E0CAE0D1E004C021977D
:10025000FE010E94240CC930D107C9F70E94F6099B
:100260000C942A0C0C940000FC018091E801882376
:1002700011F13FB7F89482E08093E9002091F200F9
:10028000822F90E01816190614F481E090E088237C
:1002900039F0289A44E64093E7014091F100408309
:1002A000222339F02091F200211103C02BE6209384
:1002B000E8003FBF08958FEF9FEF08952FB7F894A0
:1002C00083E08093E9009091E800892F807295FF88
:1002D00004C09091F20080E4891B2FBF08958091A3
:1002E000DF0181110DC082E08093DB0184E0809307
:1002F000DC011092DE011092DD0181E08093DF01CC
:100300008BED91E00895CF93DF931F92CDB7DEB7C9
:100310006983DC01ED91FC910280F381E02D41E0E5
:1003200050E0BE016F5F7F4F09950F90DF91CF9135
:10033000089583E08093E9008091F200882319F00A
:100340008AE38093E80008950E945E0190E008959A
:10035000CF93DF931F92CDB7DEB7FC0184859585DF
:1003600097FD08C02FEF3FEF358724870F90DF916F
:10037000CF910895CE0101960E943401019719F49E
:10038000898190E0F3CF8FEF9FEFF0CF0F931F9312
:10039000CF93DF931F92CDB7DEB78C01FC0184852C
:1003A000958597FF0BC0CE0101960E9434010197FD
:1003B00071F4898190E0F80195878487F80184853C
:1003C00095850F90DF91CF911F910F9108958FEF39
:1003D0009FEFF1CFFC018485958597FD0BC09FB7FA
:1003E000F89482E08093E9008091F2009FBF90E052
:1003F000019608959FB7F89482E08093E900809178
:10040000F2009FBF90E008954091D5015091D60130
:100410002091D3013091D40142175307B4F4909145
:10042000E8009570E1F39091E80092FD19C0809387
:10043000F1008091D5019091D60101968F73992793
:10044000892B19F48EEF8093E8008091D50190916B
:10045000D60101969093D6018093D50181E008954D
:1004600080E00895EF92FF920F931F93CF93DF9355
:10047000F82E192FE62E042F81E0860F880F0E9498
:10048000040283E00E940402CF2DD12FEC0EFD2E3A
:10049000F11CCE15DF05B9F007FF13C0FE018491F2
:1004A0000E940402182F80E00E94040281232196FA
:1004B0008111EFCFDF91CF911F910F91FF90EF90BE
:1004C00008958881EDCF81E0F5CFDF92EF92FF9222
:1004D0000F931F93CF93DF93D82E8A01EB017B01FB
:1004E000E40EF51ECE15DF0559F0D7FE12C0FE0151
:1004F00084910E94040221968111F4CF0FEF1FEF27
:10050000C801DF91CF911F910F91FF90EF90DF9085
:1005100008958881EECF0F931F93CF93DF931F929F
:10052000CDB7DEB782E0898342E450E063E371E057
:1005300080E80E9465020E946F01DC0112960D9115
:100540001C910115110589F0D801ED91FC910280F3
:10055000F381E02DBE016F5F7F4FC801099597FDC4
:1005600004C0F80100851185ECCF89810F90DF91DF
:10057000CF911F910F910895615030F02091F100BB
:10058000FC0120830196F8CF289A84E68093E70146
:10059000089581508F3008F047C0E82FF0E0ED5209
:1005A000FD4F0C94240CF002F402E202E802EC028B
:1005B000140314031403F702FD02010305030B03E4
:1005C00014030F03809180008F778093800008953B
:1005D000809180008F7DF9CF80918000877FF5CF5B
:1005E00084B58F7784BD089584B58F7DFBCF8091CE
:1005F00090008F77809390000895809190008F7D78
:10060000F9CF80919000877FF5CF8091C0008F77E0
:100610008093C00008958091C0008F7DF9CF8091B4
:10062000C200877F8093C2000895CF93DF93282F65
:1006300030E0F901EC5EFE4F8491F901EB50FF4F81
:10064000D491F901EA52FF4FC491CC23A1F081115A
:100650000E94C902EC2FF0E0EE0FFF1FE853FF4F9E
:10066000A591B491EC91ED2381E090E009F480E054
:10067000DF91CF91089580E090E0FACF1F93CF9360
:10068000DF93282F30E0F901EC5EFE4F8491F901F1
:10069000EB50FF4FD491F901EA52FF4FC491CC23A4
:1006A000A9F0162F81110E94C902EC2FF0E0EE0F85
:1006B000FF1FE654FF4FA591B4918FB7F894EC91CA
:1006C000111108C0D095DE23DC938FBFDF91CF914D
:1006D0001F910895DE2BF8CFCF93DF9390E0FC01BC
:1006E000EB50FF4F24918A529F4FFC018491882345
:1006F000C9F090E0880F991FFC01E455FF4FA591C8
:10070000B491FC01E654FF4FC591D49161110DC025
:100710009FB7F8948C91209582238C93888128230D
:1007200028839FBFDF91CF910895623051F49FB726
:10073000F8943C91822F809583238C93E8812E2B13
:10074000EFCF8FB7F894EC912E2B2C938FBFEACF7D
:100750003FB7F8948091C5019091C601A091C7015F
:10076000B091C80126B5A89B05C02F3F19F001968E
:10077000A11DB11D3FBFBA2FA92F982F8827BC01FB
:10078000CD01620F711D811D911D42E0660F771F23
:10079000881F991F4A95D1F708958F929F92AF9223
:1007A000BF92CF92DF92EF92FF924B015C010E94C9
:1007B000A8036B017C010E94A8036C197D098E09B6
:1007C0009F09683E734081059105A8F321E0821AD4
:1007D0009108A108B10888EEC80E83E0D81EE11C7C
:1007E000F11C81149104A104B10429F7FF90EF904A
:1007F000DF90CF90BF90AF909F908F9008958F9291
:100800009F92AF92BF92CF92DF92EF92FF920F939F
:100810001F93CF93DF936C017B018A0180911501B7
:10082000882309F45CC08091E801882309F457C04B
:100830008091DA0180FF05C08091E00082608093A2
:10084000E000E801B12C8AEFA82E93E0892E2AE37C
:10085000922E209711F4BB20D9F10E945E018111E4
:100860000AC0AA94AA20D9F161E070E080E090E08B
:100870000E94CD03EECF8C171D0611F00CF08C2FCB
:100880009FB7F8948092E9002091E80025FD02C00E
:100890009FBFDFCF282F30E0C21BD30BF701815061
:1008A00020F041914093F100FACFE20EF31EBB20FD
:1008B00021F09092E800B12CEBCF8091E80085FD0B
:1008C000E7CF9092E800BB24B394209709F3F3CFCD
:1008D0005D9A84E68093D901101611063CF081E000
:1008E00090E0F6019383828310E000E0C801DF917D
:1008F000CF911F910F91FF90EF90DF90CF90BF901D
:10090000AF909F908F90089508952F923F924F92AD
:100910005F926F927F928F929F92AF92BF92CF928F
:10092000DF92EF92FF920F931F93CF93DF93CDB798
:10093000DEB765970FB6F894DEBF0FBECDBF0E943D
:10094000A8036B017C018091C0019091C101260137
:10095000481A590A4DEC441640E1540608F4E0C028
:100960008091BE019091BF01009789F020913801DC
:10097000309139011201221A330A910137FE03C066
:10098000319521953109283C31050CF0C5C00196FF
:100990009093BF018093BE01029709F0BDC095EA14
:1009A000692E91E0792E01E010E020903601309020
:1009B00037013B862A8649E050E0B301CE0101961B
:1009C0000E94070C8B816C81681708F4682F70E017
:1009D00080913801909139010E94100C9B01409147
:1009E000160150911701649FC001659F900D749F7F
:1009F000900D112464E670E00E94100C8985A1E03E
:100A0000B0E0882311F0A2E0B0E08D81829FA001C8
:100A1000839F500D11245D874C878E81829F10012A
:100A2000839F300C11243F862E868F81829FA001E8
:100A3000839F500D1124598B488B8885829F10010C
:100A4000839F300C11243B8A2A8AFD01EE0FFF1F81
:100A5000E85CFE4F812C912C54014A855B85415006
:100A600051095D8B4C8B8C899D89A817B90708F0BB
:100A700040C0880C991CAA1CBB1C80819181AC01D0
:100A80002C843D844219530957FF03C05195419569
:100A900051094617570770F4428153812E843F84D1
:100AA0004219530957FF03C0519541955109461703
:100AB0005707E0F048895989841B950B97FF03C0BD
:100AC00091958195910986179707C8F48281938142
:100AD0002A883B888219930997FF03C091958195D5
:100AE00091098617970758F4689480F812963496FF
:100AF000BACF4A855B854830510508F053C00F5F77
:100B00001F4F59E0650E711C0D30110509F04DCFD6
:100B10001092BF011092BE0110923701109236015F
:100B200080913601909137018334910540F0109205
:100B30003701109236011092BF011092BE018091D0
:100B40003601909137019C012F5F3F4F3093370161
:100B500020933601880F991FFC01E85CFE4F5182FB
:100B60004082C092C001D092C101E092C201F092D5
:100B7000C30165960FB6F894DEBF0FBECDBFDF91FF
:100B8000CF911F910F91FF90EF90DF90CF90BF908A
:100B9000AF909F908F907F906F905F904F903F901D
:100BA0002F9008958092390290923A02A0923B02CF
:100BB000B0923C022C883D88369427943092CA012A
:100BC0002092C901309335012093340110933301F1
:100BD000009332019DCF1F920F920FB60F921124F6
:100BE0008F939F938091E1009091E100937F909388
:100BF000E10083FF0FC01092E90091E09093EB00B9
:100C00001092EC0092E39093ED001092E80198E0CE
:100C10009093F00082FF22C093E09093E9009091BE
:100C2000F200992319F09AE39093E8009091D9018A
:100C3000992341F09091D90191509093D90191114C
:100C400001C05D989091E701992341F09091E701EF
:100C500091509093E701911101C0289884FF18C02A
:100C60008091E2008E7E81608093E2008091E100BD
:100C70008F7E8093E1008091DA018E7E8061809387
:100C8000DA019F918F910F900FBE0F901F901895D2
:100C900080FFF7CF8091E2008E7E80618093E2003A
:100CA0008091E1008E7E8093E1008091DA018E7E5A
:100CB0008160E5CF1F920F920FB60F921124CF9251
:100CC000DF92EF92FF920F931F932F933F934F93D7
:100CD0005F936F937F938F939F93AF93BF93EF93A4
:100CE000FF93CF93DF93CDB7DEB76C97DEBFCDBF59
:100CF0001092E9008091E80083FF25C068E0CE01F2
:100D000045960E94BC0282EF8093E8008D8987FFA0
:100D100039C09091E80090FFFCCF982F907609F0B1
:100D200034C19E894F89588D2F89F88C911131C01B
:100D3000803861F58091D8018093F1001092F10024
:100D40008EEF8093E8006C960FB6F894DEBF0FBE6E
:100D5000CDBFDF91CF91FF91EF91BF91AF919F9167
:100D60008F917F916F915F914F913F912F911F9143
:100D70000F91FF90EF90DF90CF900F900FBE0F90EC
:100D80001F9018959EEF9093E800C7CF1092F10046
:100D9000D5CF913059F48111D3CF4130510581F62F
:100DA0008091D8018D7F8093D801CACF933049F4C8
:100DB0008111C6CF4130510519F68091D80182606A
:100DC000F2CF953041F48091E80080FFFCCF20689D
:100DD0002093E300B5CF963009F0A9C00B8D1C8D90
:100DE00022E01092E9001092D6011092D501F21281
:100DF0002EC01092D4011092D3010E948B021F8248
:100E000099E09983FA8291E09E8390EA98879AEF1D
:100E100099872091D5013091D601275F3F4F3C83C0
:100E20002B838D831092E9001092D6011092D50188
:100E30001093D4010093D30149E050E0BE016F5FED
:100E40007F4F80E00E9465020E948B0279CF109351
:100E5000D4010093D3010E946F01DC0112960D9121
:100E60001C910115110509F451C1D801ED91FC91B6
:100E70000480F581E02DBE016B5E7F4FC8010995AE
:100E8000009709F03EC1F80100851185EACFF3E033
:100E9000FF120EC08F89882309F440C0823061F4AC
:100EA00040E86DE087E991E00E943202811148CF6D
:100EB00081E28093EB0047CF813029F440E86BE07A
:100EC0008BE891E0F1CF833099F70E946F01DC014C
:100ED0001296ED90FC908E010F5F1F4F6801E11498
:100EE000F10479F0D701ED91FC910680F781E02DB6
:100EF000B801C7010995080F111DF701E084F184BD
:100F0000EECFD8011C92F60101900020E9F731974D
:100F1000BF016C197D0940E0C601C6CF65E771E0ED
:100F2000FB01449150E080E80E94650209CF9730B0
:100F300009F4BECF983021F481E08093F10000CF16
:100F4000993009F0FDCE837009F0B2CFE9E1F1E00C
:100F500081E031E096E32191222371F08093E90052
:100F60003093EB00DF0111972C912093EC009093CC
:100F7000ED008F5F873079F78EE78093EA0010925B
:100F8000EA008F898093E801DBCE8B8D9C8D1092D7
:100F9000E9001092D6011092D5019093D40180936C
:100FA000D301898D811192C08E899D89913A49F42E
:100FB000813209F07DCF47E050E06EE071E080E0E3
:100FC000B3CF913209F074CF833269F48F89988D51
:100FD000B0E0A0E080930A0190930B01A0930C0174
:100FE000B0930D01ADCE803269F48091E80082FFAC
:100FF000FCCF67E08EE091E00E94BC028BEF809313
:10100000E8009ECE823209F09BCE8F898093150135
:10101000EEEFFFE7859194918B3F9C4D51F1E0E01D
:10102000F8E080910E0190910F01A0911001B09114
:101030001101803B9440A105B105F1F480911501A7
:1010400080FD1AC0EE3F8AE0F80789F587E797E749
:1010500091838083809160008093D70188E19BE039
:101060000FB6F894A895809360000FBE909360002F
:1010700067CEEEEFFAE0D5CF808191818737974731
:1010800009F05ECEA8958091600088618093600031
:101090008091D70180936000EE3F2AE0F20789F04B
:1010A0008091FE0A9091FF0A9183808349CE8081CE
:1010B00091818737980751F29093FF0A8093FE0A37
:1010C000C5CF1092FF0A1092FE0A3ACE0E946F011D
:1010D000DC0112960D911C910115110509F4E8CE61
:1010E000D801ED91FC910190F081E02DBE016B5E85
:1010F0007F4FC8010995811123CEF8010085118524
:10110000EBCF181619060CF41BCED2CEF1E0FF126D
:10111000BECE69E771E004CF1F920F920FB60F9217
:1011200011242F933F938F939F93AF93BF938091FD
:10113000CB019091CC01A091CD01B091CE01309125
:10114000C40123E0230F2D3758F50196A11DB11DD1
:101150002093C4018093CB019093CC01A093CD0147
:10116000B093CE018091C5019091C601A091C701B5
:10117000B091C8010196A11DB11D8093C501909346
:10118000C601A093C701B093C801BF91AF919F91D1
:101190008F913F912F910F900FBE0F901F90189538
:1011A00026E8230F0296A11DB11DD2CF1F920F92E8
:1011B0000FB60F9211242F933F934F935F936F932A
:1011C0007F938F939F93AF93BF93EF93FF93E091A0
:1011D0000801F09109010995FF91EF91BF91AF913D
:1011E0009F918F917F916F915F914F913F912F913F
:1011F0000F900FBE0F901F9018951F920F920FB671
:101200000F9211242F933F934F935F936F937F938C
:101210008F939F93AF93BF93EF93FF93E09106015A
:10122000F09107010995FF91EF91BF91AF919F91C7
:101230008F917F916F915F914F913F912F910F907F
:101240000FBE0F901F9018951F920F920FB60F921E
:1012500011242F933F934F935F936F937F938F93BB
:101260009F93AF93BF93EF93FF93E0910401F091AD
:1012700005010995FF91EF91BF91AF919F918F91DA
:101280007F916F915F914F913F912F910F900FBE82
:101290000F901F9018951F920F920FB60F92112466
:1012A0002F933F934F935F936F937F938F939F936E
:1012B000AF93BF93EF93FF93E0910201F09103018D
:1012C0000995FF91EF91BF91AF919F918F917F9180
:1012D0006F915F914F913F912F910F900FBE0F90A3
:1012E0001F9018951F920F920FB60F9211242F93F3
:1012F0003F934F935F936F937F938F939F93AF939E
:10130000BF93EF93FF93E0910001F09101010995E4
:10131000FF91EF91BF91AF919F918F917F916F91CD
:101320005F914F913F912F910F900FBE0F901F90A3
:1013300018950F931F93CF93DF93E9EEF1E013829B
:10134000128288EE93E0A0E0B0E084839583A683C8
:10135000B78383E291E0918380830FEF1FEF1587BE
:101360000487C3E5D2E01B830A838AE090E09D8373
:101370008C8349E050E065EA71E089E592E00E94E3
:10138000070C198308838CE390E0909317018093F6
:1013900016011092390210923A0210923B021092FA
:1013A0003C02CDE3D2E086E090E0998388831A8204
:1013B0001B821C821D821E821F82188619861B8634
:1013C0001A8662E00E946C0388810E9415039D8743
:1013D0008C879F878E87998B888B1A8A1B8A1C8A99
:1013E0001D8ADF91CF911F910F910895789484B554
:1013F000826084BD84B5816084BD85B5826085BD11
:1014000085B5816085BD80916E00816080936E009E
:101410001092810080918100826080938100809190
:101420008100816080938100809180008160809341
:101430008000809191008260809391008091910062
:1014400081608093910080919000816080939000F2
:101450008091C10084608093C1008091C10082604E
:101460008093C1008091C10081608093C100809110
:10147000C30081608093C3008091C000826080932C
:10148000C0008091C20081608093C20080917A0088
:10149000846080937A0080917A00826080937A00E1
:1014A00080917A00816080937A0080917A008068D0
:1014B00080937A001092E8011092D8011092DA011C
:1014C0008091D70081608093D70080EA8093D80014
:1014D00089B5806189BD89B5826089BD09B400FE86
:1014E000FDCF61E070E080E090E00E94CD0380914C
:1014F000D8008F7C80618093D8008091E000807F4D
:101500008093E0008091E1008E7E8093E1008DE089
:101510008093E200559A209A5D98289880E88093FD
:10152000610081E08093610062E086E00E946C03CC
:1015300082E390E0A0E0B0E080933F02909340020D
:10154000A0934102B093420261E084E00E946C03E8
:1015500061E08DE00E946C0360E084E00E943E0345
:1015600061E08DE00E943E0364EF71E080E090E076
:101570000E94CD031092540210925302109239022D
:1015800010923A0210923B0210923C021092CA0151
:101590001092C90185E894E09093010180930001C5
:1015A000809169008C7F816080936900E89A49E0AE
:1015B00050E065EA71E089E592E00E94070C87EB54
:1015C00090E090935A028093590260E08DE00E946F
:1015D0003E0300E010E0C1E0D0E080913D020E94B7
:1015E00015032FB7F8944091CB015091CC01609135
:1015F000CD017091CE012FBF20914D0230914E024E
:101600008217930761F040934F025093500260930A
:1016100051027093520290934E0280934D02C090FB
:101620004F02D0905002E0905102F09052024C19BB
:101630005D096E097F09C0903F02D0904002E090A2
:101640004102F09042024C155D056E057F0560F089
:1016500020914B0230914C0230934A022093490270
:1016600090934C0280934B022091490230914A02A0
:1016700080914B0290914C0228173907E1F140917B
:1016800047025091480242305105C9F4409143024B
:101690005091440260914502709146024F5F5F4F46
:1016A0006F4F7F4F40934302509344026093450233
:1016B00070934602232BF9F40197E9F486C0411593
:1016C000510509F065C021303105A1F7892B99F446
:1016D0008091430290914402A0914502B09146024C
:1016E0000196A11DB11D8093430290934402A093E3
:1016F0004502B09346028091390290913A02A0913E
:101700003B02B0913C02892B8A2B8B2B01F18091FB
:10171000390290913A02A0913B02B0913C028F3C79
:101720002BEB92072CE0A207B10509F061C0D09322
:10173000D201C093D101D093D001C093CF011092B8
:10174000390210923A0210923B0210923C028091B0
:10175000D1019091D2010197A1F4F090CF016F2DAA
:1017600084E00E943E036F2D8DE00E943E0364E6FC
:1017700070E080E090E00E94CD031092D2011092C0
:10178000D1010115110509F428CF0E94000025CFD1
:101790004130510509F08ECF232B09F0ACCF0197D2
:1017A00009F0A9CF8091430290914402A091450293
:1017B000B09146020196A11DB11D80934302909302
:1017C0004402A0934502B093460281E090E020914C
:1017D000CF013091D001232B11F090E080E0909365
:1017E000D0018093CF01D093D201C093D10183CF98
:1017F000803D9B4BAC40B10509F0A1CFD093D20105
:10180000C093D1011092D0011092CF0198CFFB016B
:10181000DC0102C005900D9241505040D8F7089568
:10182000AA1BBB1B51E107C0AA1FBB1FA617B70706
:1018300010F0A61BB70B881F991F5A95A9F7809522
:101840009095BC01CD010895EE0FFF1F0590F49116
:08185000E02D0994F894FFCF8C
:1018580084048404840484048404FFFFFFFF00E1FB
:101868000000000000003C0000C180810000000072
:101878000000008301FF03A4019901EA01A801C641
:0218880001005D
:00000001FF
