:100000000C9463000C9485080C945E080C948B008F
:100010000C948B000C948B000C948B000C94AC080B
:100020000C948B000C948B000C948B000C948B0024
:100030000C948B000C948B000C948B000C948B0014
:100040000C9414080C948B000C94E2070C94BC07DD
:100050000C948B000C948B000C948B000C948B00F4
:100060000C948B000C948B000000000023002600F1
:10007000290000000008000201000003040700003E
:1000800000000000000000000000250028002B00F8
:1000900000000000240027002A00040404040404D3
:1000A0000404020202020202030303030303010227
:1000B00004081020408001020408102001020408F6
:1000C00010208909D80C11241FBECFEFD8E0DEBF65
:1000D000CDBF23E0AEE4B1E001C01D92AB3AB20760
:1000E000E1F711E0A0E0B1E0E4E8F1E202C0059040
:1000F0000D92AE34B107D9F710E0C2E6D0E004C0EB
:100100002197FE010E94A30EC136D107C9F70E94B4
:10011000D9090C94B5100C94000090E0FC01E25554
:10012000FF4F249186569F4FFC018491882399F0BC
:1001300090E0880F991FFC01E057FF4FA591B49103
:10014000FC01EA57FF4F859194918FB7F894EC9199
:10015000E22BEC938FBF08950895AF92BF92CF9298
:10016000DF92EF92FF920F931F93CF93DF936C0177
:100170007B018B01040F151FEB015E01AE18BF0858
:10018000C017D10759F06991D601ED91FC9101900A
:10019000F081E02DC6010995892B79F7C501DF9122
:1001A000CF911F910F91FF90EF90DF90CF90BF9074
:1001B000AF900895FC01538D448D252F30E0842F9E
:1001C00090E0821B930B541710F0CF96089501977F
:1001D0000895FC01918D828D981761F0A28DAE0F6C
:1001E000BF2FB11D5D968C91928D9F5F9F73928FF3
:1001F00090E008958FEF9FEF0895FC01918D828D1F
:10020000981731F0828DE80FF11D858D90E00895EB
:100210008FEF9FEF0895FC01918D228D892F90E043
:10022000805C9F4F821B91098F739927089589EFF6
:1002300092E00E940B0121E0892B09F420E0822F3B
:10024000089580E090E0892B29F00E941701811128
:100250000C9400000895FC01A48DA80FB92FB11DC6
:10026000A35ABF4F2C91848D90E001968F739927EC
:10027000848FA689B7892C93A089B1898C918370CA
:1002800080648C93938D848D981306C00288F389C3
:10029000E02D80818F7D80830895EF92FF920F93F0
:1002A0001F93CF93DF93EC0181E0888F9B8D8C8D22
:1002B00098131AC0E889F989808185FF15C09FB716
:1002C000F894EE89FF896083E889F98980818370D9
:1002D000806480839FBF81E090E0DF91CF911F9188
:1002E0000F91FF90EF900895F62E0B8D10E00F5FA9
:1002F0001F4F0F731127E02E8C8D8E110CC00FB67F
:1003000007FCFACFE889F989808185FFF5CFCE0116
:100310000E942B01F1CFEB8DEC0FFD2FF11DE35A65
:10032000FF4FF0829FB7F8940B8FEA89FB89808199
:100330008062CFCFCF93DF93EC01888D8823B9F013
:10034000AA89BB89E889F9898C9185FD03C08081E0
:1003500086FD0DC00FB607FCF7CF8C9185FFF2CF5D
:10036000808185FFEDCFCE010E942B01E9CFDF9187
:10037000CF910895833081F028F4813099F0823054
:10038000A9F008958730A9F08830C9F08430B1F41D
:10039000809180008F7D03C0809180008F77809353
:1003A0008000089584B58F7784BD089584B58F7DCE
:1003B000FBCF8091B0008F778093B000089580913B
:1003C000B0008F7DF9CF1F93CF93DF93282F30E0BC
:1003D000F901EE58FF4F8491F901E255FF4FD49196
:1003E000F901E656FF4FC491CC23A9F0162F8111D5
:1003F0000E94BA01EC2FF0E0EE0FFF1FEA57FF4F0B
:10040000A591B4918FB7F894EC91111108C0D095D3
:10041000DE23DC938FBFDF91CF911F910895DE2BF8
:10042000F8CFCF92DF92FF920F931F93CF93DF937A
:1004300020919E0330919F032F3F3F4F09F475C0D9
:10044000C0919C03D0919D03F12CCF3FDC07C1F0FC
:10045000C23070F4FE01FF27C13009F46EC0E89885
:10046000EE0FFF1FE050FF4F2CEA30E03183208376
:100470002FEF3FEF30939D0320939C03FF24F394D1
:100480008B016C0161E080919E030E94E3018091E9
:10049000A0039091A103C89E9001C99E300DD89EE3
:1004A000300D11242230310540F0C901880F991F09
:1004B000880F991F05970197F1F760E080919E03DF
:1004C0000E94E3012091A0033091A103029FC0018B
:1004D000039F900D129F900D11248230910538F0EA
:1004E000880F991F880F991F05970197F1F7FF2033
:1004F000E1F0D0939D03C0939C03CF3FDC07A9F0AC
:100500008C2FC23090F4DD27CC0FDD1FC050DF4FA1
:100510002EEF32E039832883813089F080916900A1
:100520008C7F816080936900E89ADF91CF911F9161
:100530000F91FF90DF90CF900895E99891CF80912F
:100540006900837F846080936900E99AEECF3FB7AA
:10055000F8948091B5029091B602A091B702B09143
:10056000B80226B5A89B05C02F3F19F00196A11D22
:10057000B11D3FBFBA2FA92F982F8827BC01CD01ED
:10058000620F711D811D911D42E0660F771F881F4C
:10059000991F4A95D1F708958F929F92AF92BF927B
:1005A000CF92DF92EF92FF924B015C010E94A70273
:1005B0006B017C010E94A7026C197D098E099F09BD
:1005C000683E734081059105A8F321E0821A9108E5
:1005D000A108B10888EEC80E83E0D81EE11CF11C0A
:1005E00081149104A104B10429F7FF90EF90DF90EA
:1005F000CF90BF90AF909F908F9008952F923F9291
:100600004F925F926F927F928F929F92AF92BF9222
:10061000CF92DF92EF92FF920F931F93CF93DF93CE
:10062000CDB7DEB7A2970FB6F894DEBF0FBECDBF31
:100630000E94A7026D877E878F87988B8091AC027E
:100640009091AD025B01A81AB90AB092AB02A092D8
:10065000AA0229E8A21623E1B20608F4AEC200916C
:10066000240210912502C801885C91098A159B0516
:1006700008F09FC280579E4FA816B90608F099C28D
:1006800080912202909123020196909323028093FD
:100690002202209020023090210231E0231A3108FA
:1006A000029709F086C2C8016FE170E00E94880ECF
:1006B0007A8369836B01F12CE12C80900401909086
:1006C00005019B01D4010E949C0E0E94180D2AE096
:1006D00037ED43E25CE30E94550D0E94590E2B0159
:1006E0003C0129813A81A3E0B0E00E944A0E9B01BF
:1006F000AC01241935094609570929833A834B83EC
:100700005C83A3019201260F371F481F591F2D83B9
:100710003E834F83588721E030E080E090E0DC01A9
:10072000B701A601441955096609770949875A870F
:100730006B877C87B701A601440D551D661D771D8B
:10074000498B5A8B6B8B7C8B2215330508F073C059
:10075000F901EE0FFF1FEC5DFD4F4081518170E00C
:1007600060E049845A846B847C844416550666068E
:10077000770658F5C988DA88EB88FC884C155D0542
:100780006E057F0510F5F901EE0FFF1FEA5DFD4FC5
:1007900040805180712C612CC980DA80EB80FC8014
:1007A000C414D504E604F70480F4CD80DE80EF8025
:1007B000F8844C145D046E047F0438F4880F991F8C
:1007C000AA1FBB1F2E5F3F4FBFCF49805A806B804F
:1007D0007C80441655066606770640F5CD80DE809F
:1007E000EF80F8844C155D056E057F05F8F4F9017E
:1007F000EE0FFF1FEA5DFD4F4081518170E060E028
:1008000049845A846B847C844416550666067706B0
:1008100068F4C988DA88EB88FC884C155D056E059C
:100820007F0520F40196A11DB11DC8CF910180E084
:1008300090E0DC01C7CF892B8A2B8B2B09F0B5C147
:10084000C8016AE070E00E94880E9B016B01F12CE8
:10085000E12CD4010E949C0E0E94180D2AE037ED75
:1008600043E25CE30E94550D0E94590E2B013C01AE
:10087000B701A601440F551F661F771FDB01CA0190
:1008800084199509A609B7098D839E83AF83B8871C
:10089000DB01CA01840D951DA61DB71D898B9A8B9E
:1008A000AB8BBC8B80E090E0DC0121E030E0B70155
:1008B000A601441955096609770949875A876B8744
:1008C0007C8749885A886B887C884C185D086E083C
:1008D0007F084D8A5E8A6F8A788E2215330508F06C
:1008E00079C0F901EE0FFF1FEC5DFD4FC080D18094
:1008F000F12CE12C49855A856B857C854C155D056D
:100900006E057F0588F54D885E886F88788CC414E5
:10091000D504E604F70440F5F901EE0FFF1FEA5D88
:10092000FD4F0190F081E02DAF0170E060E0498360
:100930005A836B837C834D805E806F8078844416FD
:1009400055066606770680F449885A886B887C8845
:10095000441555056605770538F4880F991FAA1FB9
:10096000BB1F2E5F3F4FB9CF4D815E816F81788570
:100970004C155D056E057F0540F549885A886B88E2
:100980007C88C414D504E604F704F8F4F901EE0FEA
:10099000FF1FEA5DFD4FC080D180F12CE12C49851D
:1009A0005A856B857C854C155D056E057F0568F461
:1009B0004D885E886F88788CC414D504E604F704EB
:1009C00020F40196A11DB11DC8CF910180E090E0F7
:1009D000DC01C7CF892B8A2B8B2B09F0E6C0C8011D
:1009E00067E470E00E94880E7E8F6D8F9B01D401BA
:1009F0000E949C0E0E94180D2AE037ED43E25CE352
:100A00000E94550D0E94590E6B017C016D8C7E8CED
:100A1000C301B0E0A0E072E0880F991FAA1FBB1FBE
:100A20007A95D1F7AC01BD014C195D096E097F09BA
:100A300049835A836B837C8326013701480E591EF4
:100A40006A1E7B1E4D825E826F8278862D8D3E8D62
:100A5000ABE0B0E00E944A0E3B014C016C187D08EF
:100A60008E089F0869867A868B869C8626013701C8
:100A7000460E571E681E791E498A5A8A6B8A7C8ADE
:100A8000A9E0B0E00E944A0E3B014C016C187D08C1
:100A90008E089F086D8A7E8A8F8A988E260137017C
:100AA000460E571E681E791E498E5A8E6B8E7C8E9E
:100AB000A6E0B0E00E944A0E3B014C016C187D0894
:100AC0008E089F086F8E78A289A29AA2DC01CB01C2
:100AD0008C0D9D1DAE1DBF1D21E030E0221533059C
:100AE00008F063C0F901EE0FFF1FEC5DFD4FC08001
:100AF000D180F12CE12C49815A816B817C814C158C
:100B00005D056E057F0520F54D805E806F807884E1
:100B1000C414D504E604F704D8F4F901EE0FFF1F5E
:100B2000EA5DFD4F4081518170E060E069847A8424
:100B30008B849C84641675068606970648F449885B
:100B40005A886B887C88441555056605770550F1F1
:100B50006D887E888F88988C6C147D048E049F0429
:100B600000F5498D5A8D6B8D7C8DC416D506E60631
:100B7000F706B8F4F901EE0FFF1FEA5DFD4FC080E4
:100B8000D180F12CE12C4F8C58A069A07AA04C1494
:100B90005D046E047F0428F4C816D906EA06FB0635
:100BA00008F091012E5F3F4F99CF109223021092CF
:100BB0002202109221021092200280912002909134
:100BC00021028334910540F01092210210922002FC
:100BD0001092230210922202809120029091210211
:100BE0009C012F5F3F4F3093210220932002880FFA
:100BF000991FFC01EC5DFD4FB182A0826D847E8463
:100C00008F8498886092AC027092AD028092AE029E
:100C10009092AF02A2960FB6F894DEBF0FBECDBF82
:100C2000DF91CF911F910F91FF90EF90DF90CF90C8
:100C3000BF90AF909F908F907F906F905F904F90FC
:100C40003F902F9008958F929F92AF92BF92CF9234
:100C5000DF92EF92FF926B017C010E94A7024B0191
:100C60005C0184E0C81AD108E108F108C80CD91C5D
:100C7000EA1CFB1CC814D904EA04FB0438F40E94E3
:100C8000A70286169706A806B906C8F30E94A7020F
:100C90006C157D058E059F05C8F3FF90EF90DF90E2
:100CA000CF90BF90AF909F908F900895E0EBF0E0D1
:100CB000208120622083BC0190E080E00C94230618
:100CC0002091B0002F7D2093B0008530910528F051
:100CD000BC0190E080E00C94230608958F929F92CF
:100CE000AF92BF92CF92DF92EF92FF924B015C01E5
:100CF0007A01109270008091A5030E948D0060E03F
:100D00008091A5030E94E30181E08093B00089E017
:100D10008093B10088EC8093B30082E48093B400A8
:100D200080E699E00E94560688E592E00E946006FF
:100D3000C7010197C12CD12C7601C39404C0CC0CFF
:100D4000DD1CEE1CFF1C8A95D2F7D501C4018C2155
:100D50009D21AE21BF21892B8A2B8B2BD1F080EBDB
:100D600094E00E94560688E592E00E946006F694A0
:100D7000E794D794C794C114D104E104F10429F78E
:100D8000FF90EF90DF90CF90BF90AF909F908F90AB
:100D9000089588E592E0E5CFCF93DF9320919A0301
:100DA00030919B03232B89F0FC01C0919603D091D5
:100DB000970360817181CE010E949B10009729F0FA
:100DC0008C1B9D0BDF91CF9108958FEF9FEFFACF92
:100DD000FC0180819181009711F00C94450F0895DA
:100DE000FC0180819181009711F00C94DC0C60E093
:100DF00070E0CB0108950F931F93CF93DF93EC0125
:100E000088819981009759F02A813B8126173707FD
:100E100030F081E0DF91CF911F910F9108958B0108
:100E20006F5F7F4F0E94CE0F009759F099838883A0
:100E30001B830A832C813D81232B59F7FC011082EF
:100E4000E8CF80E0E7CFEF92FF920F931F93CF930D
:100E5000DF93EC017B018A01BA010E94FB06288125
:100E60003981811114C02115310519F0C9010E9481
:100E7000450F198218821D821C821B821A82CE01A4
:100E8000DF91CF911F910F91FF90EF9008951D83F7
:100E90000C83B701C9010E949410F1CFFC011182AB
:100EA00010821382128215821482FB0101900020AD
:100EB000E9F73197AF01461B570B0C942307CF92EC
:100EC000DF92EF92FF920F931F93CF93DF93EC018A
:100ED0006B017A014617570720F48D2D6A01E62E23
:100EE000F82E60E371E0CE010E944E0700919A0354
:100EF00010919B03C016D10640F5E016F10608F4E8
:100F00008701E0919603F0919703E00FF11FF080C5
:100F1000108260919603709197036C0D7D1D611591
:100F20007105E9F0FB0101900020E9F73197AF016D
:100F3000461B570BCE010E94230780919603909188
:100F40009703080F191FF801F082CE01DF91CF91AE
:100F50001F910F91FF90EF90DF90CF9008958881BF
:100F60009981009711F00E94450F198218821D8205
:100F70001C821B821A82E1CF1F920F920FB60F9232
:100F800011242F933F934F935F936F937F938F938E
:100F90009F93AF93BF93EF93FF9389EF92E00E94EB
:100FA0002B01FF91EF91BF91AF919F918F917F9115
:100FB0006F915F914F913F912F910F900FBE0F90C6
:100FC0001F9018951F920F920FB60F9211242F9316
:100FD0008F939F93EF93FF93E0910903F0910A039E
:100FE0008081E0910F03F091100382FD1BC090817E
:100FF000809112038F5F8F7320911303821741F04A
:10100000E0911203F0E0E750FD4F958F80931203BB
:10101000FF91EF919F918F912F910F900FBE0F90A5
:101020001F9018958081F4CF1F920F920FB60F92E8
:1010300011242F933F938F939F93AF93BF938091EE
:10104000B1029091B202A091B302B091B40230917A
:10105000B00223E0230F2D3758F50196A11DB11DD5
:101060002093B0028093B1029093B202A093B30296
:10107000B093B4028091B5029091B602A091B702EC
:10108000B091B8020196A11DB11D8093B502909355
:10109000B602A093B702B093B802BF91AF919F91EF
:1010A0008F913F912F910F900FBE0F901F90189529
:1010B00026E8230F0296A11DB11DD2CF1F920F92D9
:1010C0000FB60F9211242F933F934F935F936F931B
:1010D0007F938F939F93AF93BF93EF93FF93E09191
:1010E0000201F09103010995FF91EF91BF91AF913A
:1010F0009F918F917F916F915F914F913F912F9130
:101100000F900FBE0F901F9018951F920F920FB661
:101110000F9211242F933F934F935F936F937F937D
:101120008F939F93AF93BF93EF93FF93E091000151
:10113000F09101010995FF91EF91BF91AF919F91BE
:101140008F917F916F915F914F913F912F910F9070
:101150000FBE0F901F9018951F920F920FB60F920F
:1011600011242F933F934F935F936F937F938F93AC
:101170009F93AF93BF93CF93DF93EF93FF93209110
:101180004F0130E0F901EE58FF4F8491F901E2552B
:10119000FF4FD491F901E656FF4FC491CC2379F06B
:1011A00081110E94BA01EC2FF0E0EE0FFF1FE85909
:1011B000FF4FA591B491EC91ED2381E009F480E01B
:1011C00020915301309154012F5F3F4F30935401D0
:1011D0002093530190915201953618F096E0909328
:1011E0004E0190914E01943009F466C0B8F49230EB
:1011F000F1F0933009F444C090915101992309F41E
:101200006BC081117CC080915001882309F463C0B8
:101210008091500161E00E94E3015EC0953009F4C5
:1012200057C0963049F791E090931F024FC081114B
:10123000E3CF20915301309154012436310528F435
:101240001092540110925301D7CF10921F021092A6
:101250005201E091520191E09E0F90935201F0E013
:101260002091530130915401EE0FFF1FE25BFE4FBE
:1012700030872783109254011092530193E019C0D4
:10128000813009F0B9CFE091520191E09E0F909327
:101290005201F0E02091530130915401EE0FFF1FF5
:1012A000E25BFE4F30872783109254011092530166
:1012B00094E090934E01A0CF882359F220915301DE
:1012C000309154012536310508F496CF95E0F1CFE1
:1012D000811192CFB5CF2D9AFF91EF91DF91CF91F0
:1012E000BF91AF919F918F917F916F915F914F913E
:1012F0003F912F910F900FBE0F901F9018958091E6
:101300005001882321F08091500160E084CF2D9816
:10131000E3CFE9EFF2E01382128288EE93E0A0E0DF
:10132000B0E084839583A683B78380E191E09183C5
:10133000808385EC90E09587848784EC90E09787A4
:10134000868780EC90E0918B808B81EC90E0938B92
:10135000828B82EC90E0958B848B86EC90E0978B6F
:10136000868B118E128E138E148E83E090E09093F4
:10137000A6038093A503ECE9F3E08FEF9FEF93833F
:1013800082832EE531E0358324832AE030E0378301
:10139000268321E02087918380838CE390E09093E3
:1013A00005018093040160E371E086E993E00C9409
:1013B0004E07CF93DF9300D000D000D0CDB7DEB77B
:1013C000789484B5826084BD84B5816084BD85B520
:1013D000826085BD85B5816085BD80916E0081602C
:1013E00080936E00109281008091810082608093D2
:1013F00081008091810081608093810080918000D4
:101400008160809380008091B10084608093B100FE
:101410008091B00081608093B00080917A008460F8
:1014200080937A0080917A00826080937A00809124
:101430007A00816080937A0080917A00806880933E
:101440007A001092C100E0910903F0910A0382E052
:101450008083E0910503F09106031082E091070379
:10146000F09108038FEC808310921103E0910D033B
:10147000F0910E0386E08083E0910B03F0910C0362
:10148000808180618083E0910B03F0910C03808167
:1014900088608083E0910B03F0910C038081806869
:1014A0008083E0910B03F0910C0380818F7D80831A
:1014B0008DE00E948D0060E08DE00E94E30185E0F8
:1014C0000E948D0060E085E00E94E30186E00E94BA
:1014D0008D0060E086E00E94E30187E00E948D00BD
:1014E00061E087E00E94E3018AE090E090939F032F
:1014F00080939E030E948D0081E08093A4038EE57B
:1015000091E09093A1038093A00368E1262E312CF3
:1015100070E0C72E70E0D72E89EF92E00E940B0199
:101520008C01892B69F163E070E080E090E00E941B
:10153000CC0289EF92E00E94E90089831A8200912F
:101540009A0310919B030F5F1F4FB80186E993E048
:101550000E94FB06882301F32091960330919703A4
:1015600080919A0390919B03BE016F5F7F4F820F22
:10157000931F0E94941010939B0300939A03CCCF67
:1015800080919A0390919B03892B09F405C26EE127
:1015900071E0CE0101960E944E07CE0101960E9495
:1015A000CC067C01CE0101960E94E806F7FCD1C072
:1015B00064E271E0CE0101960E944E07CE010196D1
:1015C0000E94CC067C01CE0101960E94E80644E010
:1015D000E416F1040CF463C04BE150E069E070E004
:1015E000CE0101960E945F07CE0101960E94F0068F
:1015F0002B013C01109270008091A5030E948D0088
:1016000060E08091A5030E94E30181E08093B00037
:1016100059E05093B10082ED8093B300E6E4E0938B
:10162000B40088E293E20E94560684E991E10E94A8
:10163000600640E2E42EF12C812C912CA12C50E884
:10164000B52ED301C20188219921AA21BB21892B62
:101650008A2B8B2B09F419C180E392E00E94560675
:101660008AE996E00E946006B694A79497948794BE
:10167000F1E0EF1AF10829F780E392E00E945606A4
:101680008091B0008F7D8093B0006EE170E080E0CB
:1016900090E00E94CC02CE0101960E94E80669E229
:1016A00071E0CE0101960E944E07CE0101960E9484
:1016B000CC067C01CE0101960E94E80644E0E416C7
:1016C000F104D4F04EE150E06CE070E0CE01019600
:1016D0000E945F07CE0101960E94F00644E150E0AF
:1016E0000E946E066EE170E080E090E00E94CC0205
:1016F000CE0101960E94E80661E371E0CE010196F9
:101700000E944E07CE0101960E94CC067C01CE01BC
:1017100001960E94E80654E0E516F104D4F04EE18B
:1017200050E06CE070E0CE0101960E945F07CE01B0
:1017300001960E94F0064CE050E00E946E066EE1B9
:1017400070E080E090E00E94CC02CE0101960E9401
:10175000E80669E371E0CE0101960E944E07CE01D2
:1017600001960E94CC067C01CE0101960E94E806FB
:10177000F7FC5AC06EE371E0CE0101960E944E075D
:10178000CE0101960E94CC067C01CE0101960E94FA
:10179000E80683E0E816F104D4F049E050E067E0A1
:1017A00070E0CE0101960E945F07CE0101960E9473
:1017B000F006862F61E00E94E3016EE170E080E0B8
:1017C00090E00E94CC02CE0101960E94E80662E4FD
:1017D00071E0CE0101960E944E07CE0101960E9453
:1017E000CC067C01CE0101960E94E806E3E0EE16ED
:1017F000F104D4F04AE050E068E070E0CE010196D8
:101800000E945F07CE0101960E94F006862F60E0DD
:101810000E94E3016EE170E080E090E00E94CC0263
:10182000CE0101960E94E80667E471E0CE010196C0
:101830000E944E07CE0101960E94CC067C01CE018B
:1018400001960E94E806F7FC9FC044E150E065E085
:1018500070E0CE0101960E945F07CE0101960E94C2
:10186000F006E9EBF2E09F01295B3240611571055A
:101870008105910589F020E360FD21E320A3969581
:101880008795779567953196EECF80E392E00E9439
:10189000560680E392E0E6CEE9EBF2E0DF0190E06D
:1018A00080E0A101421B530B9A018217930750F16C
:1018B000D7964C91D79740830196119731968831EE
:1018C000910599F71092D1028091A2039091A30300
:1018D000081719070CF04EC089EBE82E82E0F82EAD
:1018E000F70191917F018091A403992381F19033B5
:1018F00061F09133A9F78130E1F461E070E083E0B9
:1019000090E00DC050E35083D7CF63E070E08130AA
:1019100021F0823039F462E070E081E090E00E94D2
:101920001102DECF8330E1F66BE070E084E090E0FE
:10193000F6CF823029F461E070E082E090E0EFCFF2
:10194000833071F666E070E089E090E0E8CF6FE107
:1019500070E0813041F06AE070E0823021F0833045
:1019600031F467E470E081E090E00E9411020F5FC3
:101970001F4FAACF6EE170E080E090E00E94CC02A1
:10198000CE0101960E94E80650E040E060E371E07D
:1019900086E993E00E942307C114D10409F4BCCD69
:1019A0000E941701882309F4B7CD0E940000B4CD2E
:1019B00086E993E00C94E8061F93FC019927882799
:1019C000BC01E89411911032E9F3193010F01E3087
:1019D000C8F31B3251F01D3249F4689406C00E94CE
:1019E000030D610F711D811D911D119110531A304E
:1019F000B0F33EF490958095709561957F4F8F4F31
:101A00009F4F1F910895592F482F372F262F660F6C
:101A1000771F881F991F660F771F881F991F620FF6
:101A2000731F841F951F660F771F881F991F0895C6
:101A3000E89409C097FB3EF4909580957095619568
:101A40007F4F8F4F9F4F9923A9F0F92F96E9BB271E
:101A50009395F695879577956795B795F111F8CF9A
:101A6000FAF4BB0F11F460FF1BC06F5F7F4F8F4F05
:101A70009F4F16C0882311F096E911C0772321F0FB
:101A80009EE8872F762F05C0662371F096E8862F93
:101A900070E060E02AF09A95660F771F881FDAF7EA
:101AA000880F9695879597F908950E94680D0C9474
:101AB000D90D0E94CB0D38F00E94D20D20F0952355
:101AC00011F00C94C20D0C94C80D11240C940D0E41
:101AD0000E94EA0D70F3959FC1F3950F50E0551FDA
:101AE000629FF001729FBB27F00DB11D639FAA2773
:101AF000F00DB11DAA1F649F6627B00DA11D661FC2
:101B0000829F2227B00DA11D621F739FB00DA11DE2
:101B1000621F839FA00D611D221F749F3327A00D9C
:101B2000611D231F849F600D211D822F762F6A2F38
:101B300011249F5750409AF0F1F088234AF0EE0F9D
:101B4000FF1FBB1F661F771F881F91505040A9F7CA
:101B50009E3F510580F00C94C20D0C940D0E5F3F1A
:101B6000E4F3983ED4F3869577956795B795F79506
:101B7000E7959F5FC1F7FE2B880F911D969587957E
:101B800097F9089597F99F6780E870E060E00895FD
:101B90009FEF80EC089500240A9416161706180685
:101BA0000906089500240A94121613061406050661
:101BB0000895092E0394000C11F4882352F0BB0FF2
:101BC00040F4BF2B11F460FF04C06F5F7F4F8F4F55
:101BD0009F4F089557FD9058440F551F59F05F3F90
:101BE00071F04795880F97FB991F61F09F3F79F03F
:101BF00087950895121613061406551FF2CF4695C1
:101C0000F1DF08C0161617061806991FF1CF869542
:101C10007105610508940895E894BB276627772726
:101C2000CB0197F908952F923F924F925F926F9256
:101C30007F928F929F92AF92BF92CF92DF92EF925C
:101C4000FF920F931F93CF93DF93CDB7DEB7CA1BDD
:101C5000DB0B0FB6F894DEBF0FBECDBF09942A8808
:101C6000398848885F846E847D848C849B84AA84B0
:101C7000B984C884DF80EE80FD800C811B81AA813D
:101C8000B981CE0FD11D0FB6F894DEBF0FBECDBF08
:101C9000ED010895A29FB001B39FC001A39F700DF5
:101CA000811D1124911DB29F700D811D1124911D64
:101CB00008950E94F20D88F09F5798F0B92F992748
:101CC000B751B0F0E1F0660F771F881F991F1AF027
:101CD000BA95C9F714C0B13091F00E940C0EB1E072
:101CE00008950C940C0E672F782F8827B85F39F071
:101CF000B93FCCF3869577956795B395D9F73EF4C0
:101D000090958095709561957F4F8F4F9F4F089567
:101D1000AA1BBB1B51E107C0AA1FBB1FA617B70711
:101D200010F0A61BB70B881F991F5A95A9F780952D
:101D30009095BC01CD0108950E944A0EB7FF089509
:101D4000821B930B0895EE0FFF1F0590F491E02D79
:101D500009940F931F93CF93DF938230910510F472
:101D600082E090E0E091A903F091AA0330E020E046
:101D7000B0E0A0E0309799F42115310509F44AC08C
:101D8000281B390B24303105D8F58A819B816115D8
:101D9000710589F1FB0193838283FE0111C04081AB
:101DA00051810281138148175907E0F048175907FC
:101DB00099F4109761F012960C93129713961C9356
:101DC0003296CF01DF91CF911F910F91089500932B
:101DD000A9031093AA03F4CF2115310551F042173E
:101DE000530738F0A901DB019A01BD01DF01F801B9
:101DF000C1CFEF01F9CF9093AA038093A903CDCF70
:101E0000FE01E20FF31F8193919322503109398330
:101E10002883D7CF2091A7033091A803232B41F427
:101E200020910801309109013093A8032093A70362
:101E300020910601309107012115310541F42DB79C
:101E40003EB740910A0150910B01241B350BE091E4
:101E5000A703F091A803E217F307A0F42E1B3F0B92
:101E60002817390778F0AC014E5F5F4F241735070C
:101E700048F04E0F5F1F5093A8034093A703819330
:101E800091939FCFF0E0E0E09CCFCF93DF9300975A
:101E9000E9F0FC01329713821282A091A903B0915C
:101EA000AA03ED0130E020E01097A1F420813181F8
:101EB000820F931F2091A7033091A8032817390799
:101EC00009F061C0F093A803E093A703DF91CF91DD
:101ED0000895EA01CE17DF07E8F54A815B819E018C
:101EE00041155105B1F7E901FB83EA834991599105
:101EF000C40FD51FEC17FD0761F480819181029614
:101F0000840F951FE90199838883828193819B8344
:101F10008A83F0E0E0E012968D919C9113970097F0
:101F2000B9F52D913C911197CD010296820F931F27
:101F30002091A7033091A8032817390739F6309765
:101F400051F51092AA031092A903B093A803A0938D
:101F5000A703BCCFD383C28340815181840F951FD7
:101F6000C817D90761F44E5F5F4F88819981480F88
:101F7000591F518340838A819B81938382832115DA
:101F8000310509F0B0CFF093AA03E093A9039ECFE7
:101F9000FD01DC01C0CF13821282D7CFB0E0A0E0F8
:101FA000E4EDFFE00C94150E8C01009751F4CB0189
:101FB0000E94A90E8C01C801CDB7DEB7E0E10C94F8
:101FC000310EFC01E60FF71F9C0122503109E21788
:101FD000F30708F49DC0D901CD91DC911197C61784
:101FE000D70798F0C530D10530F3CE010497861796
:101FF000970708F3C61BD70B2297C193D1936D9314
:102000007C93CF010E94450FD6CF5B01AC1ABD0A6D
:102010004C018C0E9D1EA091A903B091AA03512CD6
:10202000412CF12CE12C109731F58091A703909170
:10203000A8038815990509F05CC04616570608F0F4
:1020400058C08091060190910701009741F48DB727
:102050009EB740910A0150910B01841B950BE81724
:10206000F90708F055C0F093A803E093A703F9011E
:1020700071836083A0CF8D919C91119712966C9083
:10208000129713967C901397A815B90559F56C0112
:1020900042E0C40ED11CCA14DB0420F1AC014A1981
:1020A0005B09DA011296159780F062827382518380
:1020B0004083D9016D937C93E114F10471F0D70151
:1020C0001396FC93EE93129776CF22968C0F9D1F5A
:1020D000F90191838083F301EFCFF093AA03E0939A
:1020E000A90369CF4816590608F42C017D01D301D4
:1020F0009ACFCB010E94A90E7C01009749F0AE0156
:10210000B8010E948B10C8010E94450F870153CF70
:1021100010E000E050CFFB01DC0102C001900D9205
:1021200041505040D8F70895FB01DC0101900D9219
:102130000020E1F70895FB0151915523A9F0BF015B
:10214000DC014D9145174111E1F759F4CD010190A2
:10215000002049F04D9140154111C9F3FB01411197
:10216000EFCF81E090E00197089510E0C2E6D0E063
:1021700004C0FE010E94A30E2196C336D107C9F701
:04218000F894FFCF01
:10218400AC00AC003C000000AB0380000000000089
:102194004D01AD00DA009A010B01E900FD006972FE
:1021A40074782E006E65632E00736F6E7932302E54
:1021B40000736F6E7931322E006665742E006F6E77
:0E21C4002E006F66662E00726674782E000084
:107E0000112484B714BE81FFF0D085E080938100F7
:107E100082E08093C00088E18093C10086E0809377
:107E2000C20080E18093C4008EE0C9D0259A86E02C
:107E300020E33CEF91E0309385002093840096BBD3
:107E4000B09BFECF1D9AA8958150A9F7CC24DD24C4
:107E500088248394B5E0AB2EA1E19A2EF3E0BF2EE7
:107E6000A2D0813461F49FD0082FAFD0023811F036
:107E7000013811F484E001C083E08DD089C08234E0
:107E800011F484E103C0853419F485E0A6D080C0E4
:107E9000853579F488D0E82EFF2485D0082F10E0AE
:107EA000102F00270E291F29000F111F8ED06801E7
:107EB0006FC0863521F484E090D080E0DECF843638
:107EC00009F040C070D06FD0082F6DD080E0C81688
:107ED00080E7D80618F4F601B7BEE895C0E0D1E017
:107EE00062D089930C17E1F7F0E0CF16F0E7DF06D8
:107EF00018F0F601B7BEE89568D007B600FCFDCFD4
:107F0000A601A0E0B1E02C9130E011968C91119780
:107F100090E0982F8827822B932B1296FA010C0160
:107F200087BEE89511244E5F5F4FF1E0A038BF0790
:107F300051F7F601A7BEE89507B600FCFDCF97BE46
:107F4000E89526C08437B1F42ED02DD0F82E2BD052
:107F50003CD0F601EF2C8F010F5F1F4F84911BD097
:107F6000EA94F801C1F70894C11CD11CFA94CF0C13
:107F7000D11C0EC0853739F428D08EE10CD085E9AC
:107F80000AD08FE07ACF813511F488E018D01DD067
:107F900080E101D065CF982F8091C00085FFFCCF94
:107FA0009093C60008958091C00087FFFCCF809118
:107FB000C00084FD01C0A8958091C6000895E0E648
:107FC000F0E098E1908380830895EDDF803219F02E
:107FD00088E0F5DFFFCF84E1DECF1F93182FE3DFCA
:107FE0001150E9F7F2DF1F91089580E0E8DFEE27F6
:047FF000FF270994CA
:027FFE00040479
:0400000300007E007B
:00000001FF
