:100000000C9498000C94B1030C948A030C94C000D7
:100010000C94C0000C94C0000C94C0000C94C00060
:100020000C94C0000C94C0000C94C0000C94C00050
:100030000C94C0000C94C0000C94C0000C94C00040
:100040000C9440030C94C0000C94C0000C94C000AD
:100050000C94C0000C94C0000C94C0000C94C00020
:100060000C94C0000C94C000000000002400270085
:100070002A0000000000250028002B0000000000DE
:1000800023002600290004040404040404040202DA
:100090000202020203030303030301020408102007
:1000A0004080010204081020010204081020000012
:1000B0000008000201000003040700000000000027
:1000C00000005E01011F01030301008A02010A0111
:1000D0000202010064001E47040B0906007C0101B6
:1000E000060103030100F401060E0102020100C231
:1000F00001170101020201019600023E01060601FC
:1001000000C80003820710031000C8008207100710
:100110001003016D01120103010103010E0124010D
:1001200001020201014001240101020201015B05FB
:1001300011241FBECFEFD8E0DEBFCDBF11E0A0E09D
:10014000B1E0EEE7FBE002C005900D92A630B107EA
:10015000D9F721E0A6E0B1E001C01D92A23CB207B0
:10016000E1F710E0C8E9D0E004C02197FE010E9449
:10017000B705C739D107C9F70E94D8030C94BD054C
:100180000C940000833081F028F4813099F08230A3
:10019000A9F008958730A9F08830C9F08430B1F40F
:1001A000809180008F7D03C0809180008F77809345
:1001B0008000089584B58F7784BD089584B58F7DC0
:1001C000FBCF8091B0008F778093B000089580912D
:1001D000B0008F7DF9CFCF93DF93282F30E0F90166
:1001E000E255FF4F8491F901E656FF4FD491F90192
:1001F000EA57FF4FC491CC23A1F081110E94C200A5
:10020000EC2FF0E0EE0FFF1FE458FF4FA591B491E3
:10021000EC91ED2381E090E009F480E0DF91CF9153
:10022000089580E090E0FACF1F93CF93DF93282FBB
:1002300030E0F901E255FF4F8491F901E656FF4F96
:10024000D491F901EA57FF4FC491CC23A9F0162F9E
:1002500081110E94C200EC2FF0E0EE0FFF1FEE585C
:10026000FF4FA591B4918FB7F894EC91111108C08C
:10027000D095DE23DC938FBFDF91CF911F9108953E
:10028000DE2BF8CFCF93DF9390E0FC01E656FF4FD3
:1002900024918A579F4FFC0184918823D1F090E0EC
:1002A000880F991FFC01E859FF4FA591B491FC01FB
:1002B000EE58FF4FC591D491623071F49FB7F89416
:1002C0003C91822F809583238C93E8812E2B288369
:1002D0009FBFDF91CF9108958FB7F894EC912E2BAB
:1002E0002C938FBFF6CF3FB7F89480919D019091EA
:1002F0009E01A0919F01B091A00126B5A89B05C0C9
:100300002F3F19F00196A11DB11D3FBFBA2FA92F94
:10031000982F8827BC01CD01620F711D811D911D91
:1003200042E0660F771F881F991F4A95D1F70895FD
:100330008F929F92AF92BF92CF92DF92EF92FF92F5
:100340000E9473014B015C0182E3C82ED12CE12C89
:10035000F12C0E947301681979098A099B09683E8A
:10036000734081059105A8F321E0C21AD108E10884
:10037000F10888EE880E83E0981EA11CB11CC11400
:10038000D104E104F10429F7FF90EF90DF90CF90C2
:10039000BF90AF909F908F9008952FB7F894609181
:1003A000990170919A0180919B0190919C012FBFBE
:1003B000089508952F923F924F925F926F927F928D
:1003C0008F929F92AF92BF92CF92DF92EF92FF9265
:1003D0000F931F93CF93DF93CDB7DEB765970FB61B
:1003E000F894DEBF0FBECDBF0E9473016B017C018C
:1003F00080919401909195012601481A590A4DEC7B
:10040000441640E1540608F4E0C0809192019091B6
:100410009301009789F020910C0130910D01120198
:10042000221A330A910137FE03C031952195310913
:10043000283C31050CF0C5C0019690939301809340
:100440009201029709F0BDC092EC692E90E0792EDE
:1004500001E010E020900A0130900B013B862A86D3
:1004600049E050E0B301CE0101960E949A058B81CC
:100470006C81681708F4682F70E080910C019091EE
:100480000D010E94A3059B014091000150910101C3
:10049000649FC001659F900D749F900D112464E6C8
:1004A00070E00E94A3058985A1E0B0E0882311F0E7
:1004B000A2E0B0E08D81829FA001839F500D1124A6
:1004C0005D874C878E81829F1001839F300C1124A1
:1004D0003F862E868F81829FA001839F500D11241D
:1004E000598B488B8885829F1001839F300C112483
:1004F0003B8A2A8AFD01EE0FFF1FE45FFE4F812C2D
:10050000912C54014A855B85415051095D8B4C8B80
:100510008C899D89A817B90708F040C0880C991CE0
:10052000AA1CBB1C80819181AC012C843D844219A2
:10053000530957FF03C05195419551094617570775
:1005400070F4428153812E843F844219530957FF2E
:1005500003C051954195510946175707E0F0488966
:100560005989841B950B97FF03C09195819591093B
:1005700086179707C8F4828193812A883B8882195D
:10058000930997FF03C09195819591098617970765
:1005900058F4689480F812963496BACF4A855B85F1
:1005A0004830510508F053C00F5F1F4F59E0650EEA
:1005B000711C0D30110509F04DCF1092930110926E
:1005C000920110920B0110920A0180910A01909100
:1005D0000B018334910540F010920B0110920A0137
:1005E000109293011092920180910A0190910B0157
:1005F0009C012F5F3F4F30930B0120930A01880F1E
:10060000991FFC01E45FFE4F51824082C092940129
:10061000D0929501E0929601F092970165960FB6FF
:10062000F894DEBF0FBECDBFDF91CF911F910F9128
:10063000FF90EF90DF90CF90BF90AF909F908F9002
:100640007F906F905F904F903F902F900895809291
:10065000A3019092A401A092A501B092A6012C88BA
:100660003D88369427943092A2012092A1013093C4
:1006700009012093080110930701009306019DCF03
:100680001F920F920FB60F9211242F933F938F93C7
:100690009F93AF93BF938091990190919A01A091FC
:1006A0009B01B0919C013091980123E0230F2D37DD
:1006B00058F50196A11DB11D2093980180939901D1
:1006C00090939A01A0939B01B0939C0180919D010E
:1006D00090919E01A0919F01B091A0010196A11D52
:1006E000B11D80939D0190939E01A0939F01B093B3
:1006F000A001BF91AF919F918F913F912F910F904A
:100700000FBE0F901F90189526E8230F0296A11D8B
:10071000B11DD2CF1F920F920FB60F9211242F93BB
:100720003F934F935F936F937F938F939F93AF9379
:10073000BF93EF93FF93E0910401F09105010995B8
:10074000FF91EF91BF91AF919F918F917F916F91A9
:100750005F914F913F912F910F900FBE0F901F907F
:1007600018951F920F920FB60F9211242F933F935B
:100770004F935F936F937F938F939F93AF93BF93A9
:10078000EF93FF93E0910201F09103010995FF912E
:10079000EF91BF91AF919F918F917F916F915F91F9
:1007A0004F913F912F910F900FBE0F901F90189572
:1007B000789484B5826084BD84B5816084BD85B53C
:1007C000826085BD85B5816085BD80916E00816048
:1007D00080936E00109281008091810082608093EE
:1007E00081008091810081608093810080918000F0
:1007F0008160809380008091B10084608093B1001B
:100800008091B00081608093B00080917A00846014
:1008100080937A0080917A00826080937A00809140
:100820007A00816080937A0080917A00806880935A
:100830007A001092C1001092A8011092A7011092A4
:10084000A3011092A4011092A5011092A60110928A
:10085000A2011092A1018AED91E09093030180938F
:100860000201809169008C7F816080936900E89A21
:1008700049E050E062EC70E08DEA91E00E949A0558
:1008800087EB90E09093AE018093AD0161E089E049
:100890000E94420161E08AE00E94420161E08BE037
:1008A0000E94420162E085E00E94420162E086E02F
:1008B0000E94420160E089E00E94140160E08AE049
:1008C0000E94140160E08BE00E941401C0E0D0E0BF
:1008D00011E085E00E94EB007C0181E0E114F1046D
:1008E00009F480E08093C1010E94CD018090BD0198
:1008F0009090BE01A090BF01B090C0016819790925
:100900008A099B096536710581059105B8F08091CA
:10091000BC01EF2809F4ADC0811110C01093BC01D7
:100920000E94CD016093BD017093BE018093BF0111
:100930009093C00161E089E00E94140186E00E946A
:10094000EB007C0181E0E114F10409F480E0809384
:10095000BB010E94CD018090B7019090B801A0909A
:10096000B901B090BA01681979098A099B096536FD
:10097000710581059105B8F08091B601EF2809F461
:1009800089C0811110C01093B6010E94CD016093FF
:10099000B7017093B8018093B9019093BA0161E0F7
:1009A0008AE00E9414018091A3019091A401A0917A
:1009B000A501B091A601892B8A2B8B2B09F448C085
:1009C000C090A301D090A401E090A501F090A601F1
:1009D00061E085E5C81680E3D8068DE0E806F104FD
:1009E00049F086E5C81680E3D8068DE0E806F104F4
:1009F00081F460E089E00E9414010E9498018AE578
:100A0000C81680E3D8068DE0E806F104C9F460E07A
:100A10002EC061E087E5C81680E3D8068DE0E806C1
:100A2000F10449F088E5C81680E3D8068DE0E806B1
:100A3000F104A1F460E08AE00E9414010E94980190
:100A40001092A3011092A4011092A5011092A60188
:100A5000209709F43ECF0E9400003BCF61E089E57A
:100A6000C81680E3D8068DE0E806F10441F68BE075
:100A7000E3CF882309F462CF1092BC010E94CD011C
:100A80006093BD017093BE018093BF019093C0013C
:100A900060E051CF882309F486CF1092B6010E94FE
:100AA000CD016093B7017093B8018093B901909321
:100AB000BA0160E075CF0F931F93CF93DF93C7EA1E
:100AC000D1E00FEF1FEF1B830A838AE090E09D8344
:100AD0008C8349E050E062EC70E08DEA91E00E9486
:100AE0009A05198308838CE390E090930101809329
:100AF00000011092A3011092A4011092A50110927E
:100B0000A6010E94CD016093BD017093BE01809348
:100B1000BF019093C0010E94CD016093B701709313
:100B2000B8018093B9019093BA01DF91CF911F91E1
:100B30000F910895FB01DC0102C005900D92415018
:100B40005040D8F70895AA1BBB1B51E107C0AA1F4C
:100B5000BB1FA617B70710F0A61BB70B881F991F5E
:100B60005A95A9F780959095BC01CD010895EE0F97
:0E0B7000FF1F0590F491E02D0994F894FFCF3B
:060B7E003C00D901D90181
:00000001FF
