:100000000C94CD000C94EC0A0C94C50A0C949E0A36
:100010000C94770A0C94F5000C94F5000C94500A9B
:100020000C94F5000C94F5000C9465070C94D4071F
:100030000C94F5000C94F5000C94F5000C94F5006C
:100040000C94F5000C94F5000C94F5000C94F5005C
:100050000C94F5000C94F5000C94F5000C94060A31
:100060000C94F5000C94F5000C94F5000C94F5003C
:100070000C94F5000C94F5000C94F5000C94F5002C
:100080000C94F5000C94F5000C94F5000C94F5001C
:100090000C94F5000C94F5000C94F5000C94F5000C
:1000A0000C94F5000C94F5000C94F500000000028F
:1000B00000090F0000030401000C00000000000014
:1000C0000000000000000000000000080B00020219
:1000D00002000009040000010202000005240010D3
:1000E000010524010101042402060524060001077C
:1000F00005810310004009040100020A0000000706
:1001000005020240000007058302400000040309C5
:100110000412010002EF0201404123378000010177
:1001200002030141726475696E6F204C4C430041BB
:10013000726475696E6F204D6963726F0000000014
:1001400000250028002B002E0031000000000024B4
:100150000027002A002D00300004040404040304D6
:100160000502020202040302020202060606060655
:100170000604040202020404040802011040804044
:1001800010204080408008020401804020100201BD
:100190001080102040402000130B11241FBECFEF11
:1001A000DAE0DEBFCDBF11E0A0E0B1E0E0EAFEE1C1
:1001B00002C005900D92A233B107D9F722E0A2E365
:1001C000B1E001C01D92AE33B207E1F710E0CDEC13
:1001D000D0E004C02197FE010E94320FCC3CD10731
:1001E000C9F70E94460B0C944E0F0C94000090E04F
:1001F000FC01E858FE4F2491875A9E4FFC018491E0
:10020000882399F090E0880F991FFC01E55BFE4F71
:10021000A591B491FC01E35CFE4F859194918FB759
:10022000F894EC91E22BEC938FBF0895FC01809140
:10023000E001882311F13FB7F89482E08093E90050
:100240002091F200822F90E01816190614F481E034
:1002500090E0882339F0289A44E64093DF014091EA
:10026000F1004083222339F02091F200211103C0D4
:100270002BE62093E8003FBF08958FEF9FEF08958E
:100280002FB7F89483E08093E9009091E800892FDC
:10029000807295FF04C09091F20080E4891B2FBF0B
:1002A00008958091D70181110DC082E08093D30120
:1002B00084E08093D4011092D6011092D50181E0A0
:1002C0008093D70183ED91E008954091CD01509145
:1002D000CE012091CB013091CC0142175307B4F4E9
:1002E0009091E8009570E1F39091E80092FD19C0BB
:1002F0008093F1008091CD019091CE0101968F7392
:100300009927892B19F48EEF8093E8008091CD0115
:100310009091CE0101969093CE018093CD0181E022
:10032000089580E00895EF92FF920F931F93CF936B
:10033000DF93F82E192FE62E042F81E0860F880F09
:100340000E94650183E00E946501CF2DD12FEC0E44
:10035000FD2EF11CCE15DF05B9F007FF13C0FE011D
:1003600084910E946501182F80E00E94650181231D
:1003700021968111EFCFDF91CF911F910F91FF90C7
:10038000EF9008958881EDCF81E0F5CFDF92EF9275
:10039000FF920F931F93CF93DF93D82E8A01EB0127
:1003A0007B01E40EF51ECE15DF0559F0D7FE12C015
:1003B000FE0184910E94650121968111F4CF0FEF17
:1003C0001FEFC801DF91CF911F910F91FF90EF9028
:1003D000DF9008958881EECF0F931F93CF93DF9323
:1003E0001F92CDB7DEB782E0898342E450E06BEC28
:1003F00070E080E80E94C6010E945101DC01129663
:100400000D911C910115110589F0D801ED91FC9118
:100410000280F381E02DBE016F5F7F4FC801099517
:1004200097FD04C0F80100851185ECCF89810F90FC
:10043000DF91CF911F910F910895615030F020917D
:10044000F100FC0120830196F8CF289A84E680937E
:10045000DF010895CF93DF931F92CDB7DEB7698395
:10046000DC01ED91FC910280F381E02D41E050E050
:10047000BE016F5F7F4F09950F90DF91CF91089577
:1004800083E08093E9008091F200882319F08AE3E9
:100490008093E80008950E94400190E00895CF9372
:1004A000DF931F92CDB7DEB7FC018485958597FD5C
:1004B00008C02FEF3FEF358724870F90DF91CF9152
:1004C0000895CE0101960E941601019719F48981C1
:1004D00090E0F3CF8FEF9FEFF0CF0F931F93CF9369
:1004E000DF931F92CDB7DEB78C01FC018485958523
:1004F00097FF0BC0CE0101960E941601019771F47F
:10050000898190E0F80195878487F8018485958535
:100510000F90DF91CF911F910F9108958FEF9FEF73
:10052000F1CFFC018485958597FD0BC09FB7F894AA
:1005300082E08093E9008091F2009FBF90E00196F5
:1005400008959FB7F89482E08093E9008091F200CB
:100550009FBF90E00895282F30E0F901E455FF4F48
:100560009491F901E858FE4F8491275A3E4FF901C2
:100570002491222309F430C09923E9F091509F304F
:10058000D0F4E92FF0E0E953FD4F0C94320FF5025F
:10059000F902D602ED02F102DB02DB02DB02FC0211
:1005A000020306030A031003DB0214039091800088
:1005B0009F7790938000E22FF0E0EE0FFF1FE35C47
:1005C000FE4FA591B4919FB7F894EC91611132C0A0
:1005D00080958E238C939FBF0895909180009F7D7E
:1005E000E8CF90918000977FE4CF94B59F7794BD3A
:1005F000E2CF94B59F7DFBCF909190009F77909331
:100600009000D9CF909190009F7DF9CF909190006C
:10061000977FF5CF9091C0009F779093C000CBCF8C
:100620009091C0009F7DF9CF9091C200977F9093E9
:10063000C200C1CF8E2BCECF3FB7F8948091C701B7
:100640009091C801A091C901B091CA0126B5A89B9B
:1006500005C02F3F19F00196A11DB11D3FBFBA2F54
:10066000A92F982F8827BC01CD01620F711D811D14
:10067000911D42E0660F771F881F991F4A95D1F799
:1006800008958F929F92AF92BF92CF92DF92EF9296
:10069000FF924B015C010E941C036B017C010E94D4
:1006A0001C036C197D098E099F09683E7340810502
:1006B0009105A8F321E0821A9108A108B10888EEFB
:1006C000C80E83E0D81EE11CF11C81149104A10422
:1006D000B10429F7FF90EF90DF90CF90BF90AF90DB
:1006E0009F908F9008958F929F92AF92BF92CF92DA
:1006F000DF92EF92FF920F931F93CF93DF936C01E2
:100700007B018A0180910B01882309F45CC08091F0
:10071000E001882309F457C08091D10180FF05C012
:100720008091E00082608093E000E801B12C8AEFC4
:10073000A82E93E0892E2AE3922E209711F4BB2055
:10074000D9F10E94400181110AC0AA94AA20D9F1CE
:1007500061E070E080E090E00E944103EECF8C17F2
:100760001D0611F00CF08C2F9FB7F8948092E900D1
:100770002091E80025FD02C09FBFDFCF282F30E089
:10078000C21BD30BF701815020F041914093F1003F
:10079000FACFE20EF31EBB2021F09092E800B12CBC
:1007A000EBCF8091E80085FDE7CF9092E800BB2475
:1007B000B394209709F3F3CF5D9A84E68093D00138
:1007C000101611063CF081E090E0F60193838283DD
:1007D00010E000E0C801DF91CF911F910F91FF90D1
:1007E000EF90DF90CF90BF90AF909F908F90089543
:1007F00008952F923F924F925F926F927F928F92C5
:100800009F92AF92BF92CF92DF92EF92FF920F939F
:100810001F93CF93DF93CDB7DEB7A4970FB6F894AD
:10082000DEBF0FBECDBF0E941C036D877E878F8702
:10083000988B8091BE019091BF013B01681A790AA3
:100840007092BD016092BC0129E8621623E1720634
:1008500008F4F5C20091360110913701C801885C97
:1008600091098615970508F0E6C280579E4F6816D5
:10087000790608F0E0C2809134019091350101962B
:1008800090933501809334012090320130903301F0
:1008900031E0231A3108029709F0CDC2C8016FE197
:1008A00070E00E941E0F7A8369836B01F12CE12CAA
:1008B00040901601509017019B01D2010E94470FF2
:1008C0000E94230E2AE037ED43E25CE30E94890E8A
:1008D0000E94F40D4B015C0129813A81A3E0B0E054
:1008E0000E94380F9B01AC01281939094A095B099C
:1008F00029833A834B835C83A5019401260F371F1C
:10090000481F591F2D833E834F83588721E030E0D5
:1009100080E090E0DC01B701A601481959096A0995
:100920007B0949875A876B877C87B701A601480DE9
:10093000591D6A1D7B1D498B5A8B6B8B7C8B221535
:10094000330508F073C0F901EE0FFF1FEA5CFE4F9C
:100950004081518170E060E089849A84AB84BC84DA
:1009600084169506A606B70658F5A988BA88CB88D6
:10097000DC884A155B056C057D0510F5F901EE0F65
:10098000FF1FE85CFE4F80809180B12CA12CC980B4
:10099000DA80EB80FC80C814D904EA04FB0480F4FC
:1009A000CD80DE80EF80F8848C149D04AE04BF04FB
:1009B00038F4880F991FAA1FBB1F2E5F3F4FBFCF70
:1009C00089809A80AB80BC8084169506A606B706FF
:1009D00040F5AD80BE80CF80D8844A155B056C059C
:1009E0007D05F8F4F901EE0FFF1FE85CFE4F408132
:1009F000518170E060E0C984DA84EB84FC84C41621
:100A0000D506E606F70668F489889A88AB88BC881C
:100A1000481559056A057B0520F40196A11DB11DF5
:100A2000C8CF910180E090E0DC01C7CFB695A795D3
:100A30009795879527E02216310440F08093310284
:100A400090933202A0933302B0933402892B8A2B05
:100A50008B2B09F0ECC1C8016AE070E00E941E0F08
:100A60009B016B01F12CE12CD2010E94470F0E94E7
:100A7000230E2AE037ED43E25CE30E94890E0E94D8
:100A8000F40D4B015C01B701A601440F551F661F11
:100A9000771FDB01CA0188199909AA09BB098D834F
:100AA0009E83AF83B887DB01CA01880D991DAA1DFB
:100AB000BB1D898B9A8BAB8BBC8B80E090E0DC01FB
:100AC00021E030E0B701A601481959096A097B09FC
:100AD00049875A876B877C8789889A88AB88BC88C6
:100AE0008C189D08AE08BF088D8A9E8AAF8AB88E82
:100AF0002215330508F079C0F901EE0FFF1FEA5CFB
:100B0000FE4FC080D180F12CE12C49855A856B8540
:100B10007C854C155D056E057F0588F58D889E8862
:100B2000AF88B88CC814D904EA04FB0440F5F90175
:100B3000EE0FFF1FE85CFE4F0190F081E02DAF014A
:100B400070E060E049835A836B837C838D809E8054
:100B5000AF80B88484169506A606B70680F4898807
:100B60009A88AB88BC88481559056A057B0538F416
:100B7000880F991FAA1FBB1F2E5F3F4FB9CF4D8112
:100B80005E816F8178854C155D056E057F0540F5AA
:100B900089889A88AB88BC88C814D904EA04FB0405
:100BA000F8F4F901EE0FFF1FE85CFE4FC080D18022
:100BB000F12CE12C49855A856B857C854C155D05AA
:100BC0006E057F0568F48D889E88AF88B88CC81440
:100BD000D904EA04FB0420F40196A11DB11DC8CF7D
:100BE000910180E090E0DC01C7CFB695A79597957D
:100BF000879527E02216310440F0809331029093CC
:100C00003202A0933302B0933402892B8A2B8B2BB0
:100C100009F00DC1C80167E470E00E941E0F7E8FCD
:100C20006D8F9B01D2010E94470F0E94230E2AE084
:100C300037ED43E25CE30E94890E0E94F40D6B01E4
:100C40007C018D8C9E8CC401B0E0A0E0E2E0880FB6
:100C5000991FAA1FBB1FEA95D1F7AC01BD014C1922
:100C60005D096E097F0949835A836B837C83460142
:100C70005701880E991EAA1EBB1E8D829E82AF82CE
:100C8000B8862D8D3E8DABE0B0E00E94380F4B0151
:100C90005C018C189D08AE08BF0889869A86AB86D1
:100CA000BC8646015701860E971EA81EB91E898A6A
:100CB0009A8AAB8ABC8AA9E0B0E00E94380F4B0147
:100CC0005C018C189D08AE08BF088D8A9E8AAF8A89
:100CD000B88E46015701860E971EA81EB91E898E32
:100CE0009A8EAB8EBC8EA6E0B0E00E94380F9B01BE
:100CF000AC012C193D094E095F0929A33AA34BA366
:100D00005CA346015701860E971EA81EB91E8D8E44
:100D10009E8EAF8EB8A280E090E0DC0121E030E052
:100D20002215330508F073C0F901EE0FFF1FEA5CCE
:100D3000FE4FC080D180F12CE12C49815A816B811A
:100D40007C814C155D056E057F0558F58D809E8074
:100D5000AF80B884C814D904EA04FB0410F5F90183
:100D6000EE0FFF1FE85CFE4F4081518170E060E0B4
:100D700089849A84AB84BC8484169506A606B7063B
:100D800080F489889A88AB88BC88481559056A051B
:100D90007B0538F4880F991FAA1FBB1F2E5F3F4F9A
:100DA000BFCF4D895E896F89788D4C155D056E05C5
:100DB0007F0540F5898C9A8CAB8CBC8CC814D90407
:100DC000EA04FB04F8F4F901EE0FFF1FE85CFE4FA4
:100DD000C080D180F12CE12C49A15AA16BA17CA14A
:100DE0004C155D056E057F0568F48D8C9E8CAF8C6F
:100DF000B8A0C814D904EA04FB0420F40196A11D8C
:100E0000B11DC8CF910180E090E0DC01C7CF27E0A1
:100E10002216310460F0B695A79597958795809333
:100E2000310290933202A0933302B09334021092B5
:100E300035011092340110923301109232018091E9
:100E40003201909133018334910540F010923301C7
:100E500010923201109235011092340180913201CA
:100E6000909133019C012F5F3F4F309333012093CA
:100E70003201880F991FFC01EA5CFE4F718260828B
:100E80008D849E84AF84B8888092BE019092BF0109
:100E9000A092C001B092C101A4960FB6F894DEBF33
:100EA0000FBECDBFDF91CF911F910F91FF90EF90BB
:100EB000DF90CF90BF90AF909F908F907F906F907A
:100EC0005F904F903F902F9008951F920F920FB612
:100ED0000F9211248F939F938091E1009091E100F4
:100EE000937F9093E10083FF0FC01092E90091E09F
:100EF0009093EB001092EC0092E39093ED0010922F
:100F0000E00198E09093F00082FF22C093E090937C
:100F1000E9009091F200992319F09AE39093E80088
:100F20009091D001992341F09091D00191509093EC
:100F3000D001911101C05D989091DF01992341F09A
:100F40009091DF0191509093DF01911101C0289899
:100F500084FF18C08091E2008E7E81608093E20061
:100F60008091E1008F7E8093E1008091D1018E7E9F
:100F700080618093D1019F918F910F900FBE0F9050
:100F80001F90189580FFF7CF8091E2008E7E8061E0
:100F90008093E2008091E1008E7E8093E100809159
:100FA000D1018E7E8160E5CF1F920F920FB60F9216
:100FB0001124CF92DF92EF92FF920F931F932F9302
:100FC0003F934F935F936F937F938F939F93AF93D1
:100FD000BF93EF93FF93CF93DF93CDB7DEB76C97BB
:100FE000DEBFCDBF1092E9008091E80083FF25C0ED
:100FF00068E0CE0145960E941D0282EF8093E800D2
:101000008D8987FF39C09091E80090FFFCCF982F21
:10101000907609F034C19E894F89588D2F89F88CBC
:10102000911131C0803861F58091D2018093F10037
:101030001092F1008EEF8093E8006C960FB6F89452
:10104000DEBF0FBECDBFDF91CF91FF91EF91BF917A
:10105000AF919F918F917F916F915F914F913F9150
:101060002F911F910F91FF90EF90DF90CF900F90F5
:101070000FBE0F901F9018959EEF9093E800C7CF7A
:101080001092F100D5CF913059F48111D3CF413076
:10109000510581F68091D2018D7F8093D201CACF14
:1010A000933049F48111C6CF4130510519F6809132
:1010B000D2018260F2CF953041F48091E80080FF48
:1010C000FCCF20682093E300B5CF963009F0A9C08B
:1010D0000B8D1C8D22E01092E9001092CE0110922F
:1010E000CD01F2122EC01092CC011092CB010E94C1
:1010F000EC011F8299E09983FA8291E09E8390EA45
:1011000098879AEF99872091CD013091CE01275F82
:101110003F4F3C832B838D831092E9001092CE01C8
:101120001092CD011093CC010093CB0149E050E027
:10113000BE016F5F7F4F80E00E94C6010E94EC01FC
:1011400079CF1093CC010093CB010E945101DC01B7
:1011500012960D911C910115110509F451C1D80188
:10116000ED91FC910480F581E02DBE016B5E7F4F17
:10117000C8010995009709F03EC1F8010085118565
:10118000EACFF3E0FF120EC08F89882309F440C034
:10119000823061F440E86DE08FE291E00E949301BB
:1011A000811148CF81E28093EB0047CF813029F451
:1011B00040E86BE083E291E0F1CF833099F70E9441
:1011C0005101DC011296ED90FC908E010F5F1F4FD4
:1011D0006801E114F10479F0D701ED91FC910680EA
:1011E000F781E02DB801C7010995080F111DF7011E
:1011F000E084F184EECFD8011C92F601019000202A
:10120000E9F73197BF016C197D0940E0C601C6CFEF
:101210006DE071E0FB01449150E080E80E94C6015E
:1012200009CF973009F4BECF983021F481E0809344
:10123000F10000CF993009F0FDCE837009F0B2CFF4
:10124000E9E1F1E081E031E096E32191222371F0C0
:101250008093E9003093EB00DF0111972C912093EC
:10126000EC009093ED008F5F873079F78EE78093E5
:10127000EA001092EA008F898093E001DBCE8B8D2B
:101280009C8D1092E9001092CE011092CD019093A6
:10129000CC018093CB01898D811192C08E899D896B
:1012A000913A49F4813209F07DCF47E050E064E0A3
:1012B00071E080E0B3CF913209F074CF833269F4EA
:1012C0008F89988DB0E0A0E0809300019093010198
:1012D000A0930201B0930301ADCE803269F48091F6
:1012E000E80082FFFCCF67E084E091E00E941D02ED
:1012F0008BEF8093E8009ECE823209F09BCE8F89DF
:1013000080930B01EEEFFFE7859194918B3F9C4D0D
:1013100051F1E0E0F8E08091040190910501A09185
:101320000601B0910701803B9440A105B105F1F49D
:1013300080910B0180FD1AC0EE3F8AE0F80789F525
:1013400087E797E791838083809160008093CF0146
:1013500088E19BE00FB6F894A895809360000FBEDB
:101360009093600067CEEEEFFAE0D5CF8081918157
:101370008737974709F05ECEA89580916000886115
:10138000809360008091CF0180936000EE3F2AE05F
:10139000F20789F08091FE0A9091FF0A9183808381
:1013A00049CE808191818737980751F29093FF0A47
:1013B0008093FE0AC5CF1092FF0A1092FE0A3ACE21
:1013C0000E945101DC0112960D911C91011511052D
:1013D00009F4E8CED801ED91FC910190F081E02D67
:1013E000BE016B5E7F4FC8010995811123CEF801C4
:1013F00000851185EBCF181619060CF41BCED2CE42
:10140000F1E0FF12BECE61E171E004CF1F920F92B6
:101410000FB60F9211242F933F938F939F93AF9307
:10142000BF938091C3019091C401A091C501B09177
:10143000C6013091C20123E0230F2D3758F50196E4
:10144000A11DB11D2093C2018093C3019093C401DB
:10145000A093C501B093C6018091C7019091C801C6
:10146000A091C901B091CA010196A11DB11D80933F
:10147000C7019093C801A093C901B093CA01BF915D
:10148000AF919F918F913F912F910F900FBE0F9031
:101490001F90189526E8230F0296A11DB11DD2CFEB
:1014A0001F920F920FB60F9211242F933F934F93D9
:1014B0005F936F937F938F939F93AF93BF93EF93BC
:1014C000FF93E0911401F09115010995FF91EF91BF
:1014D000BF91AF919F918F917F916F915F914F914C
:1014E0003F912F910F900FBE0F901F9018951F9254
:1014F0000F920FB60F9211242F933F934F935F9348
:101500006F937F938F939F93AF93BF93EF93FF93CB
:10151000E0911201F09113010995FF91EF91BF91B4
:10152000AF919F918F917F916F915F914F913F917B
:101530002F910F900FBE0F901F9018951F920F9232
:101540000FB60F9211242F933F934F935F936F9396
:101550007F938F939F93AF93BF93EF93FF93E0910C
:101560001001F09111010995FF91EF91BF91AF9199
:101570009F918F917F916F915F914F913F912F91AB
:101580000F900FBE0F901F9018951F920F920FB6DD
:101590000F9211242F933F934F935F936F937F93F9
:1015A0008F939F93AF93BF93EF93FF93E0910E01BF
:1015B000F0910F010995FF91EF91BF91AF919F912C
:1015C0008F917F916F915F914F913F912F910F90EC
:1015D0000FBE0F901F9018951F920F920FB60F928B
:1015E00011242F933F934F935F936F937F938F9328
:1015F0009F93AF93BF93EF93FF93E0910C01F09112
:101600000D010995FF91EF91BF91AF919F918F913E
:101610007F916F915F914F913F912F910F900FBEEE
:101620000F901F901895E1EEF1E01382128288EE80
:1016300093E0A0E0B0E084839583A683B78383E240
:1016400091E0918380838FEF9FEF95878487E5E317
:10165000F2E0938382832EE531E0358324832AE010
:1016600030E03783268321E02087918380838CE3D9
:1016700090E090931701809316011092310210921E
:10168000320210923302109234020895789484B595
:10169000826084BD84B5816084BD85B5826085BD6E
:1016A00085B5816085BD80916E00816080936E00FC
:1016B00010928100809181008260809381008091EE
:1016C000810081608093810080918000816080939F
:1016D00080008091910082608093910080919100C0
:1016E0008160809391008091900081608093900050
:1016F0008091C10084608093C1008091C1008260AC
:101700008093C1008091C10081608093C10080916D
:10171000C30081608093C3008091C0008260809389
:10172000C0008091C20081608093C20080917A00E5
:10173000846080937A0080917A00826080937A003E
:1017400080917A00816080937A0080917A0080682D
:1017500080937A001092E0011092D2011092D10190
:101760008091D70081608093D70080EA8093D80071
:1017700089B5806189BD89B5826089BD09B400FEE3
:10178000FDCF61E070E080E090E00E944103809135
:10179000D8008F7C80618093D8008091E000807FAA
:1017A0008093E0008091E1008E7E8093E1008DE0E7
:1017B0008093E200559A209A5D9828988FEF9FEFCA
:1017C0009093EE018093ED01109236021092350253
:1017D00010923102109232021092330210923402AF
:1017E00089EF93E090930D0180930C018091690043
:1017F0008C7F816080936900E89A81E080933D024C
:1018000087EB90E090933A028093390285E00E9442
:10181000F70086E00E94F70087E00E94F70088E06A
:101820000E94F70089E00E94F7008AE00E94F7001A
:101830008BE00E94F7008CE00E94F7008DE00E9490
:10184000F700C0E0D0E0C0903102D0903202E090CA
:101850003302F0903402C114D104E104F10409F41C
:10186000E3C088ECC81682E5D8068DE0E806F104EE
:1018700009F069C061E08DE00E94AB0261E085E0A3
:101880000E94AB026CE271E080E090E00E944103B4
:1018900060E08DE00E94AB026CE271E080E090E0DD
:1018A0000E9441038DECC81682E5D8068DE0E8065B
:1018B000F10409F077C061E08DE00E94AB0260E0C6
:1018C00087E00E94AB026CE271E080E090E00E9451
:1018D000410360E08DE00E94AB026CE271E080E0C9
:1018E00090E00E94410382EDC81682E5D8068DE0A3
:1018F000E806F10409F077C061E08DE00E94AB02D8
:1019000061E08AE00E94AB026CE271E080E090E06E
:101910000E94410360E08DE00E94AB026CE271E046
:1019200080E090E00E94410387EDC81682E5D8066A
:101930008DE0E806F10409F077C061E08DE00E94D7
:10194000AB0260E021C189ECC81682E5D8068DE0C3
:10195000E806F10431F461E08DE00E94AB0260E042
:101960008ECF8AECC81682E5D8068DE0E806F10431
:1019700009F068C061E08DE00E94AB0261E086E0A2
:101980000E94AB026CE271E080E090E00E944103B3
:1019900060E08DE00E94AB026CE271E080E090E0DC
:1019A0000E9441038EECC81682E5D8068DE0E80659
:1019B000F10409F068C061E08DE00E94AB0261E0D3
:1019C00088E00E94AB026CE271E080E090E00E944F
:1019D000410360E08DE00E94AB026CE271E080E0C8
:1019E00090E00E94410383EDC81682E5D8068DE0A1
:1019F000E806F10409F068C061E08DE00E94AB02E6
:101A000060E08AE00E94AB026CE271E080E090E06E
:101A10000E94410360E08DE00E94AB026CE271E045
:101A200080E090E00E944103109231021092320255
:101A30001092330210923402209709F404CF0E94CE
:101A4000000001CF8BECC81682E5D8068DE0E806D1
:101A5000F10409F049C061E08DE00E94AB0260E052
:101A600086E00E94AB026CE271E080E090E00E94B0
:101A7000410360E08DE00E94AB026CE271E080E027
:101A800090E00E9441038FECC81682E5D8068DE0F5
:101A9000E806F10409F07AC061E08DE00E94AB0233
:101AA00060E088E00E94AB026CE271E080E090E0D0
:101AB0000E94410360E08DE00E94AB026CE271E0A5
:101AC00080E090E00E94410384EDC81682E5D806CC
:101AD0008DE0E806F10409F079C061E08DE00E9434
:101AE000AB0261E08BE08ECF8CECC81682E5D806A5
:101AF0008DE0E806F10409F0D5CE61E08DE00E94AA
:101B0000AB0261E087E00E94AB026CE271E080E032
:101B100090E00E94410360E08DE00E94AB026CE225
:101B200071E080E090E00E94410381EDC81682E5FB
:101B3000D8068DE0E806F10409F0D5CE61E08DE02D
:101B40000E94AB0260E089E00E94AB026CE271E0AF
:101B500080E090E00E94410360E08DE00E94AB02D3
:101B60006CE271E080E090E00E94410386EDC816CF
:101B700082E5D8068DE0E806F10409F0D5CE61E0F3
:101B80008DE00E94AB0261E08CE03CCF80EDC81696
:101B900082E5D8068DE0E806F10439F661E08DE0D3
:101BA0000E94AB0261E089E00E94AB026CE271E04E
:101BB00080E090E00E94410360E08DE00E94AB0273
:101BC0006CE271E080E090E00E94410385EDC81670
:101BD00082E5D8068DE0E806F10441F661E08DE08B
:101BE0000E94AB0260E07ECF0E94680E88F09F5793
:101BF00098F0B92F9927B751B0F0E1F0660F771F31
:101C0000881F991F1AF0BA95C9F714C0B13091F026
:101C10000E94820EB1E008950C94820E672F782FF7
:101C20008827B85F39F0B93FCCF3869577956795EB
:101C3000B395D9F73EF490958095709561957F4F57
:101C40008F4F9F4F0895E89409C097FB3EF49095FD
:101C50008095709561957F4F8F4F9F4F9923A9F085
:101C6000F92F96E9BB279395F69587957795679514
:101C7000B795F111F8CFFAF4BB0F11F460FF1BC058
:101C80006F5F7F4F8F4F9F4F16C0882311F096E9EB
:101C900011C0772321F09EE8872F762F05C0662399
:101CA00071F096E8862F70E060E02AF09A95660F52
:101CB000771F881FDAF7880F9695879597F908950B
:101CC00057FD9058440F551F59F05F3F71F04795ED
:101CD000880F97FB991F61F09F3F79F087950895D2
:101CE000121613061406551FF2CF4695F1DF08C0F1
:101CF000161617061806991FF1CF8695710561050E
:101D000008940895E894BB2766277727CB0197F9B5
:101D100008950E949C0E0C940D0F0E94FF0E38F047
:101D20000E94060F20F0952311F00C94F60E0C94EF
:101D3000FC0E11240C94830E0E94600E70F3959F8C
:101D4000C1F3950F50E0551F629FF001729FBB27B2
:101D5000F00DB11D639FAA27F00DB11DAA1F649F4E
:101D60006627B00DA11D661F829F2227B00DA11D01
:101D7000621F739FB00DA11D621F839FA00D611D87
:101D8000221F749F3327A00D611D231F849F600DA8
:101D9000211D822F762F6A2F11249F5750409AF0D1
:101DA000F1F088234AF0EE0FFF1FBB1F661F771F5D
:101DB000881F91505040A9F79E3F510580F00C9428
:101DC000F60E0C94830E5F3FE4F3983ED4F38695B1
:101DD00077956795B795F795E7959F5FC1F7FE2BC8
:101DE000880F911D9695879597F9089597F99F67A4
:101DF00080E870E060E008959FEF80EC0895002493
:101E00000A941616170618060906089500240A945F
:101E100012161306140605060895092E0394000CE5
:101E200011F4882352F0BB0F40F4BF2B11F460FF74
:101E300004C06F5F7F4F8F4F9F4F0895AA1BBB1B3E
:101E400051E107C0AA1FBB1FA617B70710F0A61BBA
:101E5000B70B881F991F5A95A9F780959095BC01DB
:101E6000CD010895EE0FFF1F0590F491E02D099428
:101E7000A29FB001B39FC001A39F700D811D1124CB
:101E8000911DB29F700D811D1124911D08950E9416
:101E9000380FB7FF0895821B930B0895F894FFCF76
:101EA000FFFFFFFF00E1000000000000F803F8035F
:101EB000F803F803F8033C0000C180810000000033
:101EC0000000002A0273034B02400291024F026D90
:021ED00002000E
:00000001FF
