:100000000C940E020C9436020C9436020C943602B8
:100010000C9436020C9436020C9436020C94360280
:100020000C9436020C94EE080C9436020C943602B2
:100030000C9436020C9436020C9436020C94360260
:100040000C94BD200C9436020C9436020C943602AB
:100050000C9436020C9436020C9436020C94360240
:100060000C9407210C943602300039003800370018
:1000700036003500340033003200310044697370BB
:100080006C6179004D656E7500446F776E20416C30
:1000900069617300557020416C696173004D75741E
:1000A00065004C656674204172726F770052696713
:1000B0006874204172726F7700446F776E204172CE
:1000C000726F77005570204172726F7700000000E8
:1000D00000230026002900506F77657200C400B924
:1000E00000AD00A2009D0094008900D70084009616
:1000F000028C027C007A0078007600740072007036
:10010000006E006C006A00680073013302436F6D7B
:10011000706C657465642E004B657920536B697053
:100120007065642E004C6561726E20495200556EF8
:100130006368616E6765642E00496E697420454589
:1001400050524F4D206E6F772E00526573746F7250
:10015000652044656661756C743F00436F6E666927
:1001600067204D6F64652100476F6F64206E69677B
:100170006874004D756C74692D4F7574002041755D
:10018000746F00204F66662000204F6E2020008094
:10019000809F9F9F9F808080809E9F9F9E80808069
:1001A000809C9D9D9C80808080989D9D9880808073
:1001B00080909595908080808080959580808080CB
:1001C000809F9F9F9F80808E95959791918E801F95
:1001D000001F1F001F001F1F001F001F1F00000027
:1001E000001F000000001F00001F1F1F0E001F1F28
:1001F0001F0E001F1F1F0E0402040204020402024D
:100200000202042020040202040402042020040448
:100210000204020204040104010420030304010394
:10022000040402040403030403030101040403049B
:100230000403040020002000200064322D320064FA
:10024000322D310064312D320064312D31003A00FD
:1002500042616E6E657220320042616E6E65722080
:1002600031004869466920507265616D7020342EF6
:1002700030320050726F44657369676E73004D6170
:1002800078566F6C004D696E566F6C004261636BFF
:100290006C6967687400536C65657000416D70200F
:1002A00044656C617900492F4F2073656C00566F6F
:1002B0006C756D6500506F72742D3800506F7274DC
:1002C0002D3700506F72742D3600506F72742D35BB
:1002D00000506F72742D3400506F72742D330050C3
:1002E0006F72742D3200506F72742D31004D617831
:1002F000004D696E00436F6172736500566F6C75D7
:100300006D65205374657000436C6F636B00506FB4
:1003100074004D6F746F720064422F5374657000E7
:1003200064312052656C617973002003000018036A
:1003300012030E0308030000000000000000FC028E
:100340000000F502F102ED02E602DF02D802D1025E
:10035000CA02C302BC02B502AE02A60200009C02A1
:1003600096028C0285027E027302620259025002DA
:100370004E02490244023F023A0238023602340277
:1003800033024D5554450032206432202020003184
:1003900020643220202000496E707574004F7574FF
:1003A00070757400322064312020003120643120C7
:1003B00020006E2F61003120644200302E35206411
:1003C0004200302E3120644200000000002400274B
:1003D000002A0000000000250028002B000404046F
:1003E00004040404040202020202020303030303DE
:1003F00003010204081020408001020408102001BB
:10040000020408102000000008000201000003049C
:10041000070000000000000000001A2911241FBE80
:10042000CFEFD8E0DEBFCDBF15E0A0E0B1E0ECE952
:10043000FAE502C005900D92A231B107D9F727E085
:10044000A2E1B5E001C01D92A832B207E1F712E0C7
:10045000CEE0D2E004C02197FE010E94F429CD3005
:10046000D107C9F70E94BD220C944C2D0C940000BA
:100470000C94FF2C80917605882331F10E94ED12B7
:1004800080915905811119C0809155058823E1F0AB
:1004900060E081E10E94AC1F60E080E10E94AC1F3F
:1004A00061E0809178050E94B32281E08093590534
:1004B00061E0809177050C946A151092590561E00E
:1004C000809177050C94B32208951F93CF93DF9307
:1004D0001F92CDB7DEB790917A05913009F446C0EE
:1004E00020914A0530914B054091A5065091A606F2
:1004F0002417350711F48130C9F53093A6062093EF
:10050000A5060E94D51080EC0E94B510809175055B
:100510008130F9F488E090E00E94121820914A0599
:1005200030914B0537FF02C02F5F3F4F3595279520
:10053000182F121B83E50E94A510812F6AE00E94EC
:100540007029805D99830E94A510998180E3890FAD
:1005500007C083E50E94A5108DE20E94A5108DE2E0
:100560000F90DF91CF911F910C94A5100F90DF9108
:10057000CF911F9108954F925F926F927F928F92C9
:100580009F92AF92BF92CF92DF92EF92FF920F9322
:100590001F93CF93DF931F92CDB7DEB7782E6B01F9
:1005A0002B0191E000E010E087E0A82EB12C882418
:1005B0008394912C3DE2F32E49E4642E802F99839D
:1005C0000E9408189981813059F420910501022E6A
:1005D000000C330BF20102171307B1F4608215C04F
:1005E000823089F09501201B310BA40102C0440F19
:1005F000551F2A95E2F79A01272129F021E3200FC0
:10060000F201208302C0F201F0820F5F1F4F9F5F53
:10061000FFEF4F1A5F0A993089F6F60110860F90A6
:10062000DF91CF911F910F91FF90EF90DF90CF90CE
:10063000BF90AF909F908F907F906F905F904F9002
:1006400008958AE190E00E94121880935805823044
:1006500039F481E080937A0510925F050C94CC13F5
:10066000813061F08350823030F410927A0581E05D
:1006700080935F0507C081E08093580510927A054A
:1006800010925F050C940614109271051092750576
:1006900010924B0510924A051092A6061092A506DC
:1006A00060E081E10E94AC1F60E080E10E94AC1F2D
:1006B000809174058150823020F480E00E943522C0
:1006C00009C0809176058150833020F461E080E09C
:1006D0000E94CD170E944A120E94ED1263E887ED36
:1006E00090E00E94F61060E083E891E00E94F6102E
:1006F00060E273E080E090E00E94772060E087E0B5
:100700000E94AC1F0E9406140E944A1280918E061D
:10071000813031F081E00E94A21C82E00C94A21C86
:1007200008952D9A08950C94072D8F929F92AF9261
:10073000BF92CF92DF92EF92FF920F931F93CF93CE
:10074000DF9300D000D0CDB7DEB78BEE95E090936D
:100750006E0580936D058091830690E090937005FF
:1007600080936F058091E705853009F07CC1809109
:1007700083068A3108F450C08091ED059091EE0512
:10078000859708F449C08091ED059091EE0580347D
:10079000910508F041C0E1EFF5E082E090E040E033
:1007A00050E0BA012091830630E0DC011196A217D7
:1007B000B30744F4DF0112972D913C911197273034
:1007C000310570F401979595879590936C0580930A
:1007D0006B050C975CF410926C0510926B051CC0B5
:1007E0002D913C912E30310558F0ECCF40936705A8
:1007F000509368056093690570936A0582E091C122
:10080000208131812331310508F031C120813181CE
:100810002A30310508F039C18091ED059091EE053F
:1008200088389105F0F08091ED059091EE05853EB8
:100830009105B8F480918306843039F48091EF05F6
:100840009091F005809708F02BC180918306843445
:1008500040F08091EF059091F0058234910508F009
:1008600034C1809183068D3048F480916F0590915A
:100870007005181619060CF482C08DC081E090E056
:100880009C838B831A82198249E753E0BE016F5F14
:100890007F4FCE0103960E942B13882321F080E026
:1008A00090E0DC0166C049E753E0BE016F5F7F4F17
:1008B000CE0103960E942B13813089F749E753E05C
:1008C000BE016F5F7F4FCE0103960E942B138111F3
:1008D000E6CF00E010E0C12CD12C76018091830698
:1008E00090E02B813C812817390784F549E753E0D4
:1008F000BE016F5F7F4FCE0103960E942B13A82E7F
:10090000B12C49E753E0BE016F5F7F4FCE010396E4
:100910000E942B1390E021E0A216B10451F4892B20
:1009200009F0BDCFCC0CDD1CEE1CFF1C6894C0F898
:100930000AC0AB2809F0B3CF019709F0B0CFCC0CB7
:10094000DD1CEE1CFF1C0F5F1F4FC8CF10936C0502
:1009500000936B05C0926705D0926805E092690527
:10096000F0926A0583E08093660581E090E0A0E064
:10097000B0E0892B8A2B8B2B09F05BC176CF81E00D
:1009800090E09C838B83E0916D05F0916E058281F0
:100990009381899720F480E090E0DC014FC0828150
:1009A000938187349105B8F782E090E09C838B8334
:1009B000848195810B9778F384819581459758F7C9
:1009C00083E090E09C838B831A8219824CEB51E088
:1009D000BE016F5F7F4FCE0103960E942B138111E2
:1009E000DACF4CEB51E0BE016F5F7F4FCE01039633
:1009F0000E942B13813079F600E010E0812C912CBD
:100A000054012B813C8180916F05909170052817CE
:100A100039070CF4B8C010936C0500936B058092F5
:100A2000670590926805A0926905B0926A0584E016
:100A30008093660581E090E0A0E0B0E0892B8A2BEE
:100A40008B2B09F0F6C08FEF8093660510926C0532
:100A500010926B0510926705109268051092690557
:100A600010926A05E6C060E070E0CB014DC12081C4
:100A700031812232310508F0C9CE440F551F661F5F
:100A8000771F4160029634968DCE208131812331CB
:100A9000310508F0C1CE440F551F661F771FF2CFF6
:100AA0008091EF059091F005C79708F0CECE809128
:100AB000F1059091F205099708F4C7CE8091F105F0
:100AC0009091F2054297E8F0C0CE8091EF059091A9
:100AD000F0058037910508F0C4CE20E030E080E0DA
:100AE00090E0DC01F901EF50FA4F4081518149302B
:100AF000510508F4B6CE4081518142315105A0F034
:100B0000B0CE10926C0510926B058FEF9FEFDC0159
:100B10008093670590936805A0936905B0936A0573
:100B200081E08093660585C0F901ED50FA4F408160
:100B3000518146315105B0F0408151814732510514
:100B400088F4880F991FAA1FBB1F81602C5F3F4F3D
:100B50002038310539F620E230E030936C052093DF
:100B60006B05D6CF408151814630510508F479CECE
:100B7000408151814D30510508F073CE880F991F87
:100B8000AA1FBB1FE3CF4CEB51E0BE016F5F7F4F4D
:100B9000CE0103960E942B13E82EF12C0330110591
:100BA00079F04CEB51E0BE016F5F7F4FCE010396B1
:100BB0000E942B13C82ED12C03301105F1F40EC066
:100BC0004CEB51E0BE016F5F7F4FCE0103960E9458
:100BD0002B1390E0E816F90621F3DDCE4CEB51E043
:100BE000BE016F5F7F4FCE0103960E942B13282F0B
:100BF00030E0C216D30609F0CECEE114F10459F468
:100C0000CA94CD2809F0C7CE880C991CAA1CBB1C1D
:100C1000689480F80BC0EA94EF2809F0BCCECD2888
:100C200009F0B9CE880C991CAA1CBB1C0F5F1F4F82
:100C3000E8CE209166052130E1F58091670590911D
:100C40006805A0916905B0916A058F3F3FEF930752
:100C5000A307B30731F58091120590911305A09178
:100C60001405B09115058F3F9F4FAF4FBF4F41F413
:100C7000109212051092130510921405109215058A
:100C80008091120590911305A0911405B09115055E
:100C90008093670590936805A0936905B0936A05F2
:100CA00008C08093120590931305A0931405B09388
:100CB00015058091670590916805A0916905B0912F
:100CC0006A050097A105B10579F0233011F49770FA
:100CD00003C0243049F4A1608093670590936805B0
:100CE000A0936905B0936A0564E170E080E090E04C
:100CF0000E9477200E94EA0F609167057091680555
:100D00008091690590916A050F900F900F900F9058
:100D1000DF91CF911F910F91FF90EF90DF90CF90D7
:100D2000BF90AF909F908F900895CF92DF92EF92F7
:100D3000FF920F931F93CF93DF930E944A128FEF7E
:100D40000E94FB0FC4E0D0E060E88BE591E00E94D8
:100D5000F610219779F06CE271E080E090E00E945B
:100D600077200E944A1266E470E080E090E00E94E2
:100D70007720EACF68EE73E080E090E00E94772071
:100D80000E944A1260E88AE491E00E94F6100E94F4
:100D9000661C813059F482E00E94581260EC89E3AD
:100DA00091E00E94F6100E94FD1C08C082E00E94A3
:100DB000581260EC8EE291E00E94F61068EE73E04B
:100DC00080E090E00E9477200E944A1260E885E26D
:100DD00091E00E94F6108FE30E94A5100E94661C0D
:100DE000813079F082E00E94581260EC8EE291E04E
:100DF0000E94F61068EE73E080E090E00E94772099
:100E00006BC00E94EA0F0E944A1260E885E291E0FE
:100E10000E94F6108AE30E94A51060ED77E080E062
:100E200090E00E9477200DED10E0C8ECD0E082E069
:100E30000E945812F8018591949161EC0E94F6107D
:100E4000E12CFF24F3940E94950360933B0570937B
:100E50003C0580933D0590933E05672B682B692BDD
:100E600009F084C00E94EA0F81E0F81253C082E0CA
:100E70000E94581266E970E080E090E00E947720BE
:100E8000F12C0E94F71B813009F054C082E00E94CF
:100E9000581261EC88E191E00E94F61064EF71E075
:100EA00080E090E00E9477201092120510921305C6
:100EB000109214051092150568EE73E080E090E042
:100EC0000E9477200E94EA0F0E5F1F4F2496C432C3
:100ED00081E0D80709F0ABCF81E0809379050E94CB
:100EE000DE0B0E944A120E94ED1260E88DE091E054
:100EF0000E94F61064EF71E080E090E00E9477209D
:100F0000DF91CF911F910F91FF90EF90DF90CF90E5
:100F10000C944A12E394F8018591949161EC0E943B
:100F2000F6106CE271E080E090E00E947720FF24F0
:100F3000F394A7CF87E28E1508F085CF81E08093E8
:100F400079050E944A1260EC8DE091E00E94F61053
:100F500068EE73E080E090E0DF91CF911F910F91F8
:100F6000FF90EF90DF90CF900C94772060EC84E9B5
:100F700094E00E94C810F8018591949161EC0E9460
:100F8000F610C0903B05D0903C05E0903D05F090F8
:100F90003E056C2DCE010E94930399278F2D7E2D47
:100FA0006D2DCE0101960E949303B70188279927E2
:100FB000CE0102960E9493036F2D772788279927E9
:100FC000CE0103960E9493036FCFEF92FF920F938F
:100FD0001F93CF93DF93D82F0E944A1260918D0602
:100FE00070E0809192060E9418200E944A120E948E
:100FF0006A120E94ED1260E087E00E94AC1F90919F
:1010000074059150923020F480E00E94352209C08E
:10101000909176059150933020F461E080E00E9439
:10102000CD1761E087E00E94AC1F0E944A120E9427
:10103000ED1263E887ED90E00E94F61060E089E829
:1010400091E00E94F61060E273E080E090E00E9480
:1010500077200E944A1263E88CE992E00E94F61021
:1010600089E090E00E941218C82F06E914E08DE78D
:10107000E82E85E0F82ECC2321F11F92CF931F9309
:101080000F93FF92EF920E94482A67EC8DE795E05C
:101090000E94C8100E94F71B0F900F900F900F90A6
:1010A0000F900F90813029F40E9495060E94D71C62
:1010B00008C068EE73E080E090E00E947720C150A5
:1010C000DACF80915605813051F0809157058130FB
:1010D00031F40E9406159093520580935105DD234B
:1010E00091F10E944A12C0918C06D0E080918D0649
:1010F00090E0C817D9075CF48C2F0E94FB0F62E0C8
:1011000070E080E090E00E9477202196EFCF10926F
:101110008B0610928906109288060E94B120609377
:10112000840670938506809386069093870681E0F7
:101130000E94A21C82E00E94A21C0E94661C8130B8
:1011400011F40E9495060E94D71C0E944A12109228
:101150007705809176058150833020F461E080E04E
:101160000E94CD17809156058130F9F483E0809379
:1011700054058FEF9FEF909352058093510564E6DD
:1011800070E080E090E00E94772082E08093540538
:101190006AEF70E080E090E00E9477208091530534
:1011A0008093770561E00E94CD17809156058111EB
:1011B0000CC08FEF9FEF909352058093510584E60A
:1011C0008093770561E00E94CD1710920501DF91B1
:1011D000CF911F910F91FF90EF9008951F920F9262
:1011E0000FB60F9211242F933F934F935F936F93FA
:1011F0007F938F939F93AF93BF93CF93DF93EF939F
:10120000FF938091D90581119BC081EA8093B20040
:101210002091E60530E0F901EB5FFB4F8491F90185
:10122000EF50FC4FD491F901E352FC4FC491CC2311
:10123000A1F081110E94831FEC2FF0E0EE0FFF1F41
:10124000E353FF4FA591B491EC91ED2331E020E001
:1012500009F430E0832F922F02C080E090E02091CB
:10126000E9053091EA052F5F3F4F3093EA0520935F
:10127000E905209183062C3418F025E02093E7053A
:101280002091E7052330C1F018F4223039F058C01E
:10129000243061F1253009F44DC052C0892B09F08A
:1012A0004FC08091E9059091EA058436910508F4D4
:1012B00043C0109283061CC0019709F041C0E09121
:1012C000830681E08E0F80938306F0E08091E9052C
:1012D0009091EA05EE0FFF1FEA51FA4F968385833E
:1012E0001092EA051092E90584E021C0892BB9F437
:1012F000E091830681E08E0F80938306F0E0809179
:10130000E9059091EA05EE0FFF1FEA51FA4F968327
:1013100085831092EA051092E90583E008C0809168
:10132000E9059091EA058536910550F085E08093B6
:10133000E70506C0892B21F41092EA051092E90511
:10134000FF91EF91DF91CF91BF91AF919F918F91DD
:101350007F916F915F914F913F912F910F900FBEB1
:101360000F901F901895FF920F931F93CF93DF93C9
:101370008C010E943802D82FC80101960E943802C1
:10138000C82FC80102960E943802F82EC8010396A1
:101390000E943802682F70E0762F66276F0D711D4E
:1013A000CB01A0E0B0E0DC01992788272C2F30E0AA
:1013B000322F22272D0F311DBC01CD01620F731F6B
:1013C000811D911DDF91CF911F910F91FF90089585
:1013D000FF920F931F93CF93DF9323E0880F991F02
:1013E0002A95E1F7EC01CA5BDF4F0DE715E0F80144
:1013F00080E238E0F32EF00E8193FE12FDCF1092C2
:101400008505CE010E943802882331F0F8018193CE
:101410008F012196FE12F5CFDF91CF911F910F9191
:10142000FF900895CF93C82F80E88C0F0E94B510CD
:1014300082E00E94A51082E00E94A51080EC8C0F33
:101440000E94B51081E00E94A51081E0CF910C941C
:10145000A510CF93DF931F92CDB7DEB791E09093A5
:10146000B5058093D7051092B6051092D8058AED80
:1014700095E049830E94521F4981642F8AED95E0CF
:101480000E94521F81E00F90DF91CF910C940110C8
:10149000CF93DF931F92CDB7DEB789830E9491036C
:1014A000909172058981682F70E0911113C080932B
:1014B000040147E050E0461B570B21E030E001C03B
:1014C000220F4A95EAF72093730580930301209336
:1014D000650517C027E030E0261B370B81E090E060
:1014E00001C0880F2A95EAF720917305322F38231F
:1014F00029F0982F9095892F822301C0822B809309
:10150000730560917305809104010F90DF91CF9175
:101510000C9473220F931F93CF93DF938C01EB01F5
:101520000E94ED120E944A1260E88BE994E00E944A
:10153000C81068E8C8010E94C81060EC80EA94E016
:101540000E94C81068ECCE01DF91CF911F910F91DE
:101550000C94C810EF92FF921F93CF93DF93CDB7F7
:10156000DEB762970FB6F894DEBF0FBECDBF909185
:101570007105992309F4BEC0182F0E94ED128091C5
:101580007405882309F4B6C048E050E060E270E0DA
:10159000CE010A960E94192A1A8A48E050E060E2B9
:1015A00070E0CE0101960E94192A1986812F0E94AF
:1015B000081881115FC0809104018093020190910D
:1015C000720591113BC0082E000C990BE12EF12CF5
:1015D0008E159F0509F48EC020917A05213051F4B3
:1015E0000E94E80948E050E06DE775E0CE010A96F8
:1015F0000E94392A812F0E94480A80917A05813001
:10160000D1F4C7010E94E80948E050E06DE775E0B9
:10161000CE0101960E94392ABE016F5F7F4FCE0135
:101620000A960E948A0A68EE73E080E090E00E94C9
:1016300077200E944A120E946A1256C080917A0551
:10164000813049F48091730580936005BE01665F27
:101650007F4F0E94BB02812F0E94480A80917A0529
:10166000813049F7BE016F5F7F4F809173050E9403
:10167000BB02D2CF8130C1F520910501822F022E0D
:10168000000C990BE12EF12C8E159F0599F13091EC
:101690007A053130F1F4209302010E94E80948E014
:1016A00050E06DE775E0CE010A960E94392AC70125
:1016B0000E94E80948E050E06DE775E0CE01019630
:1016C0000E94392ABE016F5F7F4FCE010A960E94A9
:1016D0008A0A0E949103812F0E948E2280917A05AE
:1016E000813009F0A8CF9FCF60E971E080E090E001
:1016F0000E94772062960FB6F894DEBF0FBECDBF72
:10170000DF91CF911F91FF90EF900895CF93DF93DA
:101710001F92CDB7DEB78AE090E00E941218809346
:10172000980661E070E001C0660F8A95EAF76150A3
:1017300060937C058BE090E069830E94121880938F
:101740007B058FE190E00E9412188093780580E27B
:1017500090E00E9412186981681718F08093500574
:1017600006C06093500580E290E00E9410189091AE
:10177000780580915005891778F41092780560E01B
:101780008FE190E00E94101860917C0560935005F5
:1017900080E290E00E9410188091500590E0209126
:1017A0007805821B910997FF03C091958195910956
:1017B000809355050F90DF91CF9108950F931F935C
:1017C000CF93DF9306E215E0C8ECD0E0CE010E9493
:1017D000B309F80161937193819391938F012496DA
:1017E000CC3DD10599F7DF91CF911F910F910895CD
:1017F000CF92DF92EF92FF920F931F93CF93DF93DD
:10180000C0903B05D0903C05E0903D05F0903E0532
:101810000CED10E0C5E0D0E0C8010E94B309C61687
:10182000D706E806F90649F021960C5F1F4FC7312D
:10183000D10591F78FEF9FEF01C0CE01DF91CF91DE
:101840001F910F91FF90EF90DF90CF900895FF923E
:101850000F931F93CF93DF9324E0880F991F2A954E
:10186000E1F7CDE7D5E08C0109581340FC2E80E16B
:10187000F80EC8018C0F9D1F0E9412188993FC124C
:10188000F8CF10928D05DF91CF911F910F91FF90AE
:10189000089581E090E00E94270C4CE050E065EA5A
:1018A00074E08DE795E00E942B2A892B71F48091DA
:1018B0008905803351F480918A058E3231F480910C
:1018C0008B0580538A3008F4ADC00E94860B8EE1F0
:1018D00090E00E9412188093970689E090E00E94A1
:1018E00012188F3128F06EE189E090E00E94101804
:1018F0001092A40684E090E00E94121888301CF434
:101900008093050102C01092050110927705809125
:101910007805811180937705109204011092730568
:1019200010927205109203011092650581E190E01A
:101930000E941218833018F48093760508C081E065
:101940008093760561E081E190E00E94101882E1C9
:1019500090E00E941218833018F48093740508C038
:1019600081E08093740561E082E190E00E941018AC
:101970008CE090E00E941218809356058DE090E074
:101980000E9412188093570581E08093540560E00F
:1019900081E10E94AC1F60E080E10E94AC1F86E9FB
:1019A00090E00E94121880931A0587E990E00E9447
:1019B000121880931B0588E990E00E94121880930A
:1019C0001C0589E990E00E94121880931D058AE9A0
:1019D00090E00E94121880931E058BE990E00E940F
:1019E000121880931F058CE990E00E9412188093D2
:1019F00020058DE990E00E9412188093210587E16F
:101A000090E00E94121880938C0688E190E00E947A
:101A1000121880938D0689E190E00E94121880933D
:101A20008E060895EAE6F3E06591749184E092E011
:101A30000E940C134ACFCF92DF92EF92FF92CF9386
:101A4000DF93809171058130D1F40E94F71B8823C8
:101A500071F1C4E1D0E00E94F71B882309F44BC068
:101A600064E670E080E090E00E947720219799F78B
:101A70000E94440368EE73E080E090E044C00E945E
:101A8000F71B8823A1F066E970E080E090E00E94F7
:101A9000772081E0809371050E94E5078091050120
:101AA0000E948E220E9421030E946A122EC00E9470
:101AB00095036B017C0160933B0570933C0580931B
:101AC0003D0590933E05672B682B692B09F47BC27B
:101AD00080912E0590912F05A0913005B091310590
:101AE000C816D906EA06FB06C1F00E94F80B85303D
:101AF0009105E1F412C00E94ED120E943A026AEFD1
:101B000070E080E090E00E947720DF91CF91FF901D
:101B1000EF90DF90CF900C94EA0F809171058823AD
:101B200009F451C20E94910361E027C0409132053F
:101B3000509133056091340570913505C416D50672
:101B4000E606F70609F445C08630910509F441C060
:101B5000409126055091270560912805709129052F
:101B6000C416D506E606F70691F480917105882320
:101B700009F429C20E94910362E082E00E94A0164B
:101B800064E170E080E090E00E94772020C0409106
:101B90002A0550912B0560912C0570912D05C416D6
:101BA000D506E606F706F9F040913605509137055F
:101BB0006091380570913905C416D506E606F7061A
:101BC000D9F08C30910521F580E00E94AA0A2D9869
:101BD0009CCF80917105882309F4F5C10E9491037F
:101BE00061E081E0CBCF80917105882309F4EBC1DE
:101BF0000E94910362E0F5CF80917105882309F47A
:101C0000E2C10E94ED120E9491030E943A0275C047
:101C10008D30910511F481E0D8CF8E30910511F40B
:101C200082E0D3CF8F30910511F483E0CECF8031A5
:101C3000910511F484E0C9CF8131910511F485E05B
:101C4000C4CF8231910511F486E0BFCF8331910575
:101C500011F487E0BACF8830910599F5809171052C
:101C6000882309F4B0C10E9491030E94ED1282E022
:101C70008093790560E081E10E94AC1F60E080E123
:101C80000E94AC1F6EEE72E080E090E00E94772030
:101C900064E670E080E090E00E9477200E94EA0F06
:101CA00080915705813031F40E94061590935205BA
:101CB000809351050E944A1280913A050E94F718BC
:101CC00086CF87309105F1F40E94ED120E949103B6
:101CD0008091710581110DC081E08093710580E0D4
:101CE0000E94E507809105010E948E220E94210337
:101CF000E2C0109271050E94440360E971E080E047
:101D000090E042CF86319105E1F5809171058823FD
:101D100009F459C10E94ED120E94910383E791E0FA
:101D20000E945E2980917205811113C081E0809329
:101D3000720560E089E891E00E94F61068EE73E0B9
:101D400080E090E00E94772060917305809104010B
:101D500015C01092720560E083E891E00E94F610D1
:101D600068EE73E080E090E00E94772080910301AC
:101D70008093040160916505609373050E9473224E
:101D80004DC08930910509F04EC0809171058823BE
:101D900009F419C10E94ED120E94910386E992E0B4
:101DA0000E945E2980917505813091F4109275052D
:101DB00010924B0510924A0510924C0510924D0559
:101DC00010924E0510924F0560E083E891E01AC032
:101DD00081E08093750510924B0510924A058FEFB4
:101DE0009FEF9093A6068093A5060E94B120609372
:101DF0004C0570934D0580934E0590934F0560E020
:101E000089E891E00E94F61068EE73E080E090E0CF
:101E10000E94772080917A05813011F40E944A1245
:101E20000E946A12D4CE8B30910509F073C0809164
:101E30007105882309F4C7C00E94ED120E94910326
:101E4000C0915805C13019F580917605882389F035
:101E500082E08093580562E08AE190E00E941018C9
:101E6000C0937A0510925F050E944A120E94CC131B
:101E700020C083E08093580563E08AE190E00E94EF
:101E8000101810927A0582E080935F053DC0C23041
:101E9000A9F483E08093580563E08AE190E00E9412
:101EA000101810927A05C0935F050E944A120E9492
:101EB00006140E944A120E946A121FCFC330A9F46E
:101EC00081E08093580510925F0561E08AE190E01F
:101ED0000E94101810927A05109261051092620506
:101EE00010926305109264050FC0C43009F005CF4D
:101EF00081E08093580561E08AE190E00E9410182B
:101F000010927A0510925F0561E0809177050E943A
:101F10006A15F3CE0A9709F05ACE0E94ED120E947C
:101F2000910380918E068130F9F483E080938E06D0
:101F30008CE892E00E945E2960E089E891E00E94CE
:101F4000F6106CEB72E080E090E00E9477208091C8
:101F5000710581115FCF0E944A1281E00E94A21C8C
:101F600082E00E94A21C33CE8230F9F481E080939B
:101F70008E068CE892E00E945E2960E083E891E0A2
:101F80000E94F6106CEB72E080E090E00E947720F7
:101F90000E944A1280917105813021F40E94210330
:101FA0000E946A120E946A1412CE833009F00FCE8A
:101FB00082E080938E068CE892E00E945E2960E0C9
:101FC0008DE791E0BCCFDF91CF91FF90EF90DF9054
:101FD000CF9008958091D90581110CC081EA80933A
:101FE000B20082E08093E705109283061092EA0522
:101FF0001092E9050895682F70E0809192060C9484
:102000001820382F2091D8059091D705213208F05B
:1020100049C08091B4058111FCCF42E04093B405E2
:102020003093B3053FEF3093B2051092B105209382
:10203000B005A7EBB5E040E955E0FA013E2F341BAF
:10204000321718F43D913193F9CF10928F052091FA
:102050008F05990F922B90938F0590918E0591305B
:1020600061F410928E0590918F059093BB00909132
:10207000BC0093FDF8CF95EC01C095EE9093BC00A9
:102080009091B4059230E1F39091B2059F3F79F0C1
:102090008091B205803241F08091B205803331F0F9
:1020A00084E005C081E003C082E001C083E01092BB
:1020B000B6051092D8051092B5050895EF92FF92DB
:1020C0001F93CF93DF9394E8E92E96E0F92EF70162
:1020D0001785182B412F6AE083850E94290ACFE1DA
:1020E000D0E0CE010197F1F740E8410F6AE0F70137
:1020F00083850E94290ACE010197F1F7412F6AE0FA
:10210000F70183850E94290A2197F1F7DF91CF918A
:102110001F91FF90EF9008951F93CF93DF93182F97
:1021200082958F700E945E10CFE1D0E0CE010197C2
:10213000F1F7812F8F700E945E102197F1F71092B6
:10214000D905DF91CF911F910895CF93DF93C4E814
:10215000D6E09F8590619F870E948C109F8580E1CB
:1021600089278F87DF91CF9108950E948C108BE78C
:102170009CE00197F1F70895CF93DF93EC018991EB
:10218000882319F00E94A510FACFDF91CF9108950E
:10219000CF93DF93EC01662319F0862F0E94B510D0
:1021A000CE01DF91CF910C94BC10CF93DF93CDB7CC
:1021B000DEB729970FB6F894DEBF0FBECDBF48E05B
:1021C00050E060E270E0CE0101960E94192A198663
:1021D00060ECCE0101960E94C81029960FB6F894C3
:1021E000DEBF0FBECDBFDF91CF910895CF93DF93B8
:1021F000EC01862F61110E94B51040E150E0BE0154
:102200008DE795E00E94F02C10928E058DE795E009
:10221000DF91CF910C94BC1090E020917C05821B43
:10222000910911F420E201C02DE297FF03C09195BE
:102230008195910930917B0531113EC030917A052D
:102240006AE070E00E947C293130E9F43091790530
:102250003130C9F49F938F937F936F931F922F9385
:1022600082EB94E09F938F938DE795E09F938F93FC
:102270000E94482A8DB79EB70A960FB6F8949EBF63
:102280000FBE8DBFB4C09F938F937F936F931F92A8
:102290002F938AEB94E09F938F938DE795E09F9324
:1022A0008F930E94482A8DB79EB70A960FB6F8946E
:1022B0009EBF0FBE8DBF9BC0313009F05CC080FD5A
:1022C00002C030E301C035E39595879540917A05CA
:1022D0004130C1F5409179054130A1F54091780533
:1022E0004833C8F01F923F939F938F931F922F9371
:1022F00083EC94E09F938F938DE795E09F938F936A
:102300000E94482A8DB79EB70A960FB6F8949EBFD2
:102310000FBE8DBF6CC01F923F939F938F938BEC2A
:1023200094E09F938F938DE795E09F938F930E9406
:10233000482A8DB79EB708960FB6F8949EBF0FBE79
:102340008DBF55C01F923F939F938F931F922F93E2
:1023500081ED94E09F938F938DE795E09F938F930A
:102360000E94482A8DB79EB70A960FB6F8949EBF72
:102370000FBE8DBF3CC03230D1F530917905313080
:1023800019F04DEE54E002C04FEE54E00097B9F45E
:102390001F921F925F934F938AED94E09F938F93C8
:1023A0008DE795E09F938F930E94482A8DB79EB743
:1023B00008960FB6F8949EBF0FBE8DBF18C09F93AE
:1023C0008F931F922F935F934F9381EE94E09F938F
:1023D0008F938DE795E09F938F930E94482A8DB746
:1023E0009EB70A960FB6F8949EBF0FBE8DBF69EEDA
:1023F00074E08DE795E00C94202AFF920F931F93D1
:10240000CF93DF93C82FF62E80E8860FC03299F461
:102410000E94B5108CEE94E00E94BC1080EC8F0DF1
:102420000E94B5108CEE94E0DF91CF911F910F9137
:10243000FF900C94BC10C0539C2F990FC90F0E94A1
:10244000B51000E010E0D0E0F801EC0FFD1FEB5EEE
:10245000FD4F84910E94A5100F5F1F4F033011059F
:1024600099F780EC8F0D0E94B51000E010E0F801A4
:10247000EC0FFD1FE950FE4F84910E94A5100F5FE5
:102480001F4F0330110599F7DF91CF911F910F91E5
:10249000FF90089581E00C94B510E82FF0E0EE0F66
:1024A000FF1FE450FD4F8081860F80680C94B510AB
:1024B000CF93823010F480E803C0823019F480ECAE
:1024C0000E94B510C0E180E20E94A510C150D9F76A
:1024D000CF9108950F931F93CF93DF93CDB7DEB7BE
:1024E00029970FB6F894DEBF0FBECDBF80917A0555
:1024F000813009F44EC081E00E9458128091740529
:10250000882309F446C010910501812F0E94081804
:10251000813061F4812F110F990B0E94E80910920C
:10252000850560E88DE795E00E94C81085E090E0A1
:102530000E941218182F8093040186E090E00E94F8
:102540001218082F80937305812F0E94081881119B
:1025500020C08091720581110EC0812F110F990B3F
:102560000E94E8091092850568E080E00E944D1203
:102570008DE795E00CC068E080E00E944D12BE013E
:102580006F5F7F4F802F0E94BB02CE0101960E9499
:10259000BC1061E0809177050E946A1580917605F4
:1025A000882381F080917A05813061F48FEC0E945C
:1025B000B51080917505813011F480E001C080E292
:1025C0000E94A51029960FB6F894DEBF0FBECDBFAE
:1025D000DF91CF911F910F91089580918B068823F1
:1025E00061F080918D060E94FB0F80917105813012
:1025F00011F40E946A1210928B06109289061092B2
:1026000088060E94B12060938406709385068093AB
:102610008606909387060895EF92FF920F931F937B
:10262000CF93DF938B01005F1F4FEB017C01E61A14
:10263000F70AFE016491C7018C0F9D1F0E9493034E
:102640002196C017D107A9F7DF91CF911F910F9164
:10265000FF90EF900895AF92BF92CF92DF92EF92EA
:10266000FF920F931F93CF93DF938C017B015A014D
:10267000DC01ED91FC9180916F0590917005E81758
:10268000F9070CF07BC0CF01880F991FA0916D0551
:10269000B0916E05A80FB91FCD90DC90CF0181706D
:1026A0009927EC01B1E0CB27209719F02CE93FEFF7
:1026B00002C024E630E0F501E20FF31FCF01880FDE
:1026C000991F8E0F9F1F68EC70E00E947C29C61630
:1026D000D70654F0CF0168E270E00E947C296F5F5A
:1026E0007F4F6C157D05A4F59F012A0D3B1DC90187
:1026F000880F991F820F931F68EC70E00E947C295D
:10270000C616D70654F0C90168E270E00E947C2921
:102710006F5F7F4F6C157D05F4F42A0D3B1DC901D9
:10272000880F991F820F931F68EC70E00E947C292C
:10273000C616D7062CF1C90168E270E00E947C2918
:102740006F5F7F4F6C157D05DCF023E030E005C046
:1027500021E030E002C022E030E0F7018081918189
:1027600001968217930734F011821082F80180815C
:1027700091810196918380838C2F03C081E001C0F9
:102780008FEFDF91CF911F910F91FF90EF90DF902E
:10279000CF90BF90AF900895DF92EF92FF920F938A
:1027A0001F93CF93DF9380E40E94B510C0E0D0E088
:1027B0007E018FEFE81AF80AC70123E0880F991FFE
:1027C0002A95E1F7806400E010E0DD24D394D80E70
:1027D0000E94B510F801EC0FFD1FE153FE4F8491EC
:1027E0000E94A5100B5F1F4F8D2D0832110569F750
:1027F000E701C530D105E1F680E8DF91CF911F9167
:102800000F91FF90EF90DF900C94B5101F93CF9332
:10281000DF9380E40E94B510C7ECD1E01C2F185F55
:10282000FE0184910E94A51021961C13F9CFCFEBD5
:10283000D1E01C2F185FFE0184910E94A510219603
:102840001C13F9CFC7EBD1E01C2F185FFE01849158
:102850000E94A51021961C13F9CFCFEAD1E01C2FBE
:10286000185FFE0184910E94A51021961C13F9CFD8
:10287000C7EAD1E01C2F185FFE0184910E94A510C9
:1028800021961C13F9CFCFE9D1E01C2F185FFE0170
:1028900084910E94A51021961C13F9CFC7E9D1E0BD
:1028A0001C2F185FFE0184910E94A51021961C1315
:1028B000F9CFCFE8D1E01C2F185FFE0184910E9470
:1028C000A51021961C13F9CF80E8DF91CF911F91BD
:1028D0000C94B510CF93DF93C0918D06D0E0209774
:1028E00059F08C2F0E94FB0F62E070E080E090E0D6
:1028F0000E9477202197F3CF82E080938B06DF91AF
:10290000CF910C944A12CF92DF92EF92FF92CF9325
:10291000DF9380918B06811172C00E94B1206B0100
:102920007C018091840690918506A0918606B091E5
:102930008706C816D906EA06FB06B1F00E94B12048
:10294000C0908406D0908506E0908606F0908706B9
:10295000DC01CB018C199D09AE09BF09883E93406B
:10296000A105B10570F420C00E94B120C61AD70A93
:10297000E80AF90A88EEC81683E0D806E104F104F3
:1029800098F0809188069091890601969093890627
:10299000809388060E94B120609384067093850618
:1029A0008093860690938706809188069091890689
:1029B0000A972CF180918E06813041F4DF91CF91FE
:1029C000FF90EF90DF90CF900C946A148230B9F4AE
:1029D000C0918D06D0E080918C0690E08C179D0709
:1029E0005CF48C2F0E94FB0F62E070E080E090E0CE
:1029F0000E9477202197EFCF81E080938B06DF91B3
:102A0000CF91FF90EF90DF90CF9008954AE080E063
:102A100090E061E460937C0020917A002064209330
:102A20007A0020917A0026FDFCCF20917800509109
:102A3000790030E0352B820F931F415059F76AE03F
:102A400070E00E947C29CB0108951F93CF93DF9300
:102A5000162FD42FC22FEBECF9E33197F1F7E82FC3
:102A6000F0E0E65EFA4F40E060E080810E94290AD3
:102A7000E12FF0E0E65EFA4F40E060E080810E94E6
:102A8000290ADF3FA1F0CF3F91F0ED2FF0E0E65EA5
:102A9000FA4F40E060E080810E94290AEC2FF0E0CC
:102AA000E65EFA4F40E060E080810E94290A8BECEC
:102AB00099E30197F1F7DF91CF911F9108959091DC
:102AC0004405933011F40C94BC1B923011F40C9417
:102AD000F0190895FF920F931F93CF93DF931F92E6
:102AE000CDB7DEB7182F90917A0580917605913099
:102AF00009F069C0882309F41CC1812F0E940C11C0
:102B0000809159058130C9F40E944A1280E00E94E8
:102B1000120A84E00E94120A88E00E94120A809140
:102B20007B05823031F08BEC0E94B51081EA0E9467
:102B3000A5108CE00E94120A34C080917D0510918E
:102B40007E05F0907F05009180058D3221F480E0B4
:102B50000E94120A03C060E00E94FD111D3221F4A0
:102B600084E00E94120A04C064E0812F0E94FD11DB
:102B70002DE2F21204C088E00E94120A04C068E04C
:102B80008F2D0E94FD1180917B05823031F08BECFE
:102B90000E94B51081EA0E94A5106CE0802F0E946F
:102BA000FD118FEC0E94B51080917505813011F4F4
:102BB00080E001C080E20F90DF91CF911F910F91D3
:102BC000FF900C94A5108823A9F0812F69830E949F
:102BD0000C11EDE7F5E001900020E9F73197ED5792
:102BE000F54080ED8E1B0E94B5108DE795E00E94A8
:102BF000BC106981613099F480915905813041F4AC
:102C00000E94D51060EC82E893E00E94F61007C0A5
:102C100080915805833019F481E00E94650280910B
:102C20005805813009F085C080915905813009F43B
:102C300080C080917605811108C00F90DF91CF91FF
:102C40001F910F91FF900C94D51060915505611163
:102C500007C024E6129FC00111246FEF70E012C07C
:102C6000212F30E080917805281B310937FF03C000
:102C700031952195310944E6429FC001439F900D53
:102C8000112470E00E947C2987E0869F8001879F45
:102C9000100D1124C80164E670E00E947C299B019C
:102CA00040E050E081E04217530744F4FA01FF2767
:102CB000E358FA4F80834F5F5F4FF5CFA90137FF8D
:102CC00002C040E050E0F42E47305105BCF4FF2430
:102CD000F394F40E5527FA01E358FA4F45E0409F6C
:102CE000C001419F900D112464E670E00E947C2990
:102CF00085E0289F601911246D5F6083F21A82E0DD
:102D0000EF2DE20F2F5F3F4F273031052CF4F0E01D
:102D1000E358FA4F8083F4CF1092840560EC8DE77E
:102D200095E00F90DF91CF911F910F91FF900C9440
:102D3000C8100F90DF91CF911F910F91FF900895D0
:102D4000CF93DF9390917605992309F487C09091F2
:102D50007105992309F482C0823039F420917705F6
:102D600090915005291750F079C0813039F42091A5
:102D7000770590917805921708F070C0D62FC82F6C
:102D80000E94ED1280915905813051F4C23099F5BD
:102D90001092590561E0809177050E946A1502C082
:102DA000C23049F5D13099F4809177059091500562
:102DB000891708F04AC0282F30E02F5F3F4F492F76
:102DC00050E0241735070CF040C08F5F3BC0D23075
:102DD00009F044C080917705909150054091970685
:102DE000682F70E0292F30E0241B31096217730728
:102DF00064F5840F27C0C13089F5D13089F4809102
:102E0000770590917805981700F5282F30E021502C
:102E10003109492F50E042175307BCF4815012C0CA
:102E2000D230E1F480917705909178054091970632
:102E3000682F70E0242F30E0290F311D2617370747
:102E400024F4841B8093770502C09093770560E09B
:102E500080917705DF91CF910C94B322DF91CF91D0
:102E600008959F92AF92BF92CF92DF92EF92FF921E
:102E70000F931F93CF93DF93A82E962EC42FD22F9C
:102E8000F12C21E0E21AF1083091A306B12C10E0F8
:102E900041E050E0EFEFEE16FE06C1F0CA010E2C45
:102EA00001C0880F0A94EAF7202F2823632F682394
:102EB000621303C061E0C61205C0222311F0182B73
:102EC00001C0B82A81E0E81AF108E4CF892D90E02A
:102ED0009C01265E3A4F79014B2D60E0F90180811B
:102EE0000E94290A8A2D90E09C01265E3A4F6901D2
:102EF00040E060E0F90180810E94290ACF3FA1F003
:102F0000DF3F91F0ED2FF0E0E65EFA4F4B2D60E0F1
:102F100080810E94290AEC2FF0E0E65EFA4F40E043
:102F200060E080810E94290A2D2F4C2F692D8A2D67
:102F30000E942515412F60E0F60180810E94290A38
:102F400040E060E0F70180810E94290ACF3FA1F0B4
:102F5000DF3F91F0EC2FF0E0E65EFA4F412F60E0AA
:102F600080810E94290AED2FF0E0E65EFA4F40E0F2
:102F700060E080810E94290A2D2F4C2F692D8A2D17
:102F8000DF91CF911F910F91FF90EF90DF90CF9045
:102F9000BF90AF909F900C942515CF92EF920F9316
:102FA000CF9390915905913071F1C62EC82F809121
:102FB000A306C81302C06623B9F08091760581305C
:102FC00031F4E09098060C2F2FEF4FEF07C08230BE
:102FD00049F4E09098060C2F23E042E061E080E0A5
:102FE0000E943117C093A30681E080939D060E9442
:102FF000B1206093990670939A0680939B069093F4
:103000009C06C093A206CF910F91EF90CF900895A8
:10301000883020F490E0CC960C94FF2C82E0089548
:103020000C94072D0C94FF2CE0911805F0911905D4
:10303000EE0FFF1FEA52FC4F208120934405809140
:10304000420590914305223059F42BE0289FF0016E
:10305000299FF00D1124E057FE4F818592850AC00B
:1030600025E0289FF001299FF00D1124EC55FC4F1D
:103070008381948190934105809340050895CF9377
:10308000DF931F92CDB7DEB7682F809142059091F4
:1030900043052BE0289FF001299FF00D1124E057F4
:1030A000FE4F25813681462F50E0241735070CF45A
:1030B000622F2BE0289FF001299FF00D1124E0578B
:1030C000FE4F83819481262F30E0281739070CF4B6
:1030D000682F80914005909141058F31910529F429
:1030E00080915005861758F507C08032910531F45C
:1030F00080917805681718F5682F21C087319105F0
:1031000089F480918D06482F50E0262F30E0241757
:10311000350714F06FEF680F862F69830E94FB0F4D
:1031200069810DC0489759F480918C06482F50E072
:10313000262F30E04217530714F061E0680F8091AA
:103140004005909141050E94101880914005909192
:103150004105479721F080918D060E94FB0F80E08A
:103160000F90DF91CF910C94F019809140059091D0
:103170004105609124058A30910529F460939806F1
:103180008AE090E007C08B30910521F460937B05C5
:103190008BE090E00E9410180E94860B0C94490C62
:1031A0000E94B120609345057093460580934705C2
:1031B0009093480580914905811104C081E0809376
:1031C000490502C010924905809149050C945F158C
:1031D0000E94B12060934505709346058093470592
:1031E000909348051092490580E00C945F15BF92BA
:1031F000CF92DF92EF92FF920F931F93CF93DF93C3
:10320000C82F0E944A1280918D060E94FB0FC09326
:103210003A0586E0C89FF0011124EA5FFE4F8481E1
:1032200090E09093A1068093A006858190E0909312
:103230009F0680939E06828190E09093190580936B
:103240001805038110E0C0914205D0914305CC0FD1
:10325000DD1FCC0FDD1FCC5EDC4F7E01AFEFEA1A25
:10326000FA0A6E01B2E0CB0ED11C8DE795E021E1A8
:10327000B22EB80E809118059091190508171907FC
:103280000CF43EC00E94141880914405813019F559
:10329000F70160816150888181500E944D12D601F2
:1032A000ED91FC91FF27EE0FFF1FE65DFC4F85912E
:1032B0009491ADE7B5E08D579540FC01EA0FFB1FF7
:1032C000E491ED93EE2311F0BA12F7CF8DE795E07C
:1032D0000E94BC100BC0823021F480E00E94F019E3
:1032E00005C0833019F480E00E94BC1B8091180552
:1032F0009091190501969093190580931805BACFFE
:103300008091A0069091A1069093190580931805CD
:103310000E94141880914405823031F410923F05C8
:1033200080E00E94F01907C0833029F410923F0515
:1033300080E00E94BC1B80915605813051F0809145
:103340005705813031F40E94061590935205809301
:103350005105DF91CF911F910F91FF90EF90DF907A
:10336000CF90BF90089510923F05809118059091DD
:1033700019052091A0063091A1068217930729F420
:1033800080919E0690919F0601C001979093190528
:1033900080931805089580914405823069F48091E6
:1033A0004205909143052BE0289FF001299FF00DE5
:1033B0001124E057FE4F0EC0833079F4809142050E
:1033C0009091430525E0289FF001299FF00D1124DD
:1033D000EC55FC4F828190E0089580E090E00895E4
:1033E000DF92EF92FF920F931F93CF93DF93F82E0C
:1033F00080914005909141050E94121890E09093B1
:1034000025058093240580918D060E94FB0F8091F5
:103410004005909141058731910539F4809124054B
:1034200080938C060E94FB0F06C0489721F4809180
:10343000240580938D0620914005309141052E3161
:10344000310509F068C080917B05813021F09091B1
:103450007605933011F5209124053091250520FD46
:1034600002C080E301C085E31F928F9335952795B5
:103470003F932F9383ED94E09F938F938DE795E097
:103480009F938F930E94482A8DB79EB708960FB6D8
:10349000F8949EBF0FBE8DBF37C08230B9F48091C3
:1034A00025058F93809124058F9380EF94E09F935F
:1034B0008F938DE795E09F938F930E94482A0F90FA
:1034C0000F900F900F900F900F901EC080912405C9
:1034D000909125056AE070E00E947C299F938F936C
:1034E0007F936F9386EF94E09F938F938DE795E0A2
:1034F0009F938F930E94482AEDB7FEB738960FB678
:10350000F894FEBF0FBEEDBF69EE74E08DE795E065
:103510000E94202AD3C0C9014F97029728F48091B6
:1035200024050E940C11CAC02B303105C9F48091CA
:10353000240590912505009719F462EC73E005C00D
:103540008130910539F46BEB73E08DE795E00E94D3
:10355000E92CB4C0029709F0B1C066EB73E0F5CF77
:1035600021313105A9F4809124059091250500971A
:1035700019F462EB73E0E9CF8130910519F46BEA3D
:1035800073E0E3CF029709F099C064EA73E0DDCFFE
:10359000C901CC97089770F4809124059091250576
:1035A000009719F46DE973E0D0CF019711F767E93F
:1035B00073E0CBCF2231310591F4809124059091B5
:1035C00025050097B1F28130910519F46FE873E099
:1035D000BCCF029709F072C067E873E0B6CF2659F6
:1035E00031092830310578F5909124054091250561
:1035F000892FEDEAF6E020E331E380FF02C030835B
:1036000001C020838695319756E0E63AF507A9F781
:1036100027EA36E01092AE063F932F934F939F9385
:103620008EEF94E09F938F938DE795E09F938F9318
:103630000E94482A8DB79EB708960FB6F8949EBF91
:103640000FBE8DBF3BC080914205909143052BE09A
:10365000289FF001299FF00D1124E057FE4F828131
:10366000813049F4809125058F93809124058F93B3
:103670008BEF94E015C0823049F4809125058F933B
:10368000809124058F9386E994E00AC08330B1F4D9
:10369000809125058F93809124058F9386E095E096
:1036A0009F938F938DE795E09F938F930E94482A75
:1036B0000F900F900F900F900F900F9080914205F8
:1036C000909143052BE0289F8001299F100D112424
:1036D00000571E4FF801E180DD24DA94DE0CC08132
:1036E000C1506D2D8C2F0E944D12D0E0F801128137
:1036F000D11728F480E20E94A510DF5FF9CF6D2D6D
:103700008C2F0E944D128DE795E00E94BC10F1E0D5
:10371000FF122AC080913F056E2D680F61508C2FDB
:103720000E944D12809144058230A1F4C0E00DE763
:1037300015E0F80101900020E9F73197ED57F540C9
:103740008C2F90E08E179F0778F48FEF0E94A510C2
:10375000CF5FEFCF8FEFDF91CF911F910F91FF9050
:10376000EF90DF900C94A510DF91CF911F910F91F6
:10377000FF90EF90DF9008951F93CF93DF93182F62
:10378000C0914205D0914305C830D10518F4CE014F
:103790000E94E809CE0108978230910510F40E943A
:1037A000270C85E08C9FF0018D9FF00D1124EC55C6
:1037B000FC4FC081C150D181D1506D2F8C2F0E9400
:1037C0004D128DE795E00E94BC10113061F46091BC
:1037D0003F056D0F8C2F0E944D128FEFDF91CF911F
:1037E0001F910C94A510DF91CF911F910895CF9355
:1037F000DF93D0918F0681E08093B505D093D705F4
:103800001092B6051092D80569E08AED95E00E9405
:10381000521F81E00E940110811150C08091B405B7
:103820008111FCCF81E08093B4058093B3059FEFB5
:103830009093B2051092B1051092B00580938F0558
:1038400080918F05DD0FD82BD0938F0580918E0549
:10385000813061F410928E0580918F058093BB00BA
:103860008091BC0083FDF8CF85EC01C085EE80938C
:10387000BC008091B4058130E1F38091B1058111E4
:1038800003C08091B10501C081E0A0E9B5E028EB5B
:1038900036E0F9019E2F921B981718F49D91919391
:1038A000F9CF1092170580931605882331F08AED21
:1038B00095E00E94061FC82F01C0C0E0C07681E0DD
:1038C000C03609F480E0DF91CF910895CF92DF9266
:1038D000EF92FF920E94B1206B017C010E94B12007
:1038E0006C157D058E059F05C1F00E94B120DC019D
:1038F000CB018C199D09AE09BF09893B9B40A105ED
:10390000B105D0F40E94F71B8130B9F064E170E09A
:1039100080E090E00E947720E1CF0E94B120A701D3
:103920009601261B370B480B590BDA01C901893B5D
:103930009B40A105B10530F380E0FF90EF90DF9050
:10394000CF900895EF92FF920F931F93CF93DF9341
:10395000182F20E1829FC0011124CDE7D5E09C0102
:103960002959334079010C2F005FC7018C0F9D1F2F
:103970000E94121889930C13F8CF10928D05113004
:1039800011F460E803C0123059F460EC8DE795E063
:10399000DF91CF911F910F91FF90EF900C94C81081
:1039A000DF91CF911F910F91FF90EF9008950E94AA
:1039B000DE0B0E94490C1092750510924B05109277
:1039C0004A051092A6061092A50681E0809379051B
:1039D00010929D061092990610929A0610929B06DC
:1039E00010929C0680915705813031F40E94061593
:1039F000909352058093510508957F928F929F92E4
:103A0000AF92BF92CF92DF92EF92FF920F931F93EC
:103A1000CF93DF9361E080E090E00E941018C1E056
:103A2000C09371051092050160E084E090E00E946F
:103A30001018D7E0D0930401C093730567E085E0C8
:103A400090E00E9410186091730586E090E00E945B
:103A500010181092720560E087E090E00E94101844
:103A600082E080937B0562E08BE090E00E9410187A
:103A700086E08093970666E08EE190E00E94101841
:103A8000D093980667E08AE090E00E94101881E0E9
:103A900090E00090980602C0880F991F0A94E2F700
:103AA000815080937C051092780560E08FE190E072
:103AB0000E94101860917C056093500580E290E0B0
:103AC0000E9410181092A40660E08EE090E00E9420
:103AD000101884E680938C0664E687E190E00E94EB
:103AE00010188FEF80938D066FEF88E190E00E94B1
:103AF000101880918D060E94FB0F83E080938E0644
:103B000063E089E190E00E941018C093560561E0DF
:103B10008CE090E00E941018C093570561E08DE0A2
:103B200090E00E941018C093760561E081E190E07A
:103B30000E9410188FE380931A058EE380931B0573
:103B40008DE380931C058CE380931D056FE386E96C
:103B500090E00E94101860911B0587E990E00E9498
:103B6000101860911C0588E990E00E94101860917F
:103B70001D0589E990E00E941018C093740561E06A
:103B800082E190E00E9410188BE380931E058AE387
:103B900080931F0589E38093200588E380932105A6
:103BA0006BE38AE990E00E94101860911F058BE991
:103BB00090E00E941018609120058CE990E00E942E
:103BC0001018609121058DE990E00E941018C093B3
:103BD000580561E08AE190E00E94101860E083E1FE
:103BE00090E00E94101860E084E190E00E941018BC
:103BF0006CE388E090E00E94101867E089E090E0B4
:103C00000E941018E8E6F3E06591749184EF91E06A
:103C10000E940C13EAE6F3E06591749184E092E06F
:103C20000E940C13CCE3D0E096E4E92EF12C0DE7D2
:103C300015E02BE0822E25E0922E38E0732E700ED8
:103C400060E0CE010A970E9410188C2F8C538430AC
:103C500038F461E0CE010E94101867E973E006C0F5
:103C600060E0CE010E9410186DE973E08DE795E0E9
:103C70000E94E92CCE010B979F938F931F930F9374
:103C80009F928F921F930F930E94482A8DB79EB7E1
:103C900008960FB6F8949EBF0FBE8DBF57018DE7F3
:103CA000C82E85E0D82EF60161916F01C5010E94F2
:103CB0009303FFEFAF1ABF0A7C10F5CF88E0E80E40
:103CC000F11C2196C434D10509F0BACFDF91CF9110
:103CD0001F910F91FF90EF90DF90CF90BF90AF902A
:103CE0009F908F907F900895CF92DF92EF92FF92F6
:103CF0000F931F93CF93DF936C017A018B01C0E088
:103D0000D0E0CE15DF0589F0D8016D918D01D60187
:103D1000ED91FC910190F081E02DC6010995892B70
:103D200011F47E0102C02196ECCFC701DF91CF9143
:103D30001F910F91FF90EF90DF90CF9008953FB7C4
:103D4000F8948091240790912507A0912607B091BF
:103D5000270726B5A89B05C02F3F19F00196A11D86
:103D6000B11D3FBFBA2FA92F982F8827820F911D11
:103D7000A11DB11DBC01CD0142E0660F771F881F58
:103D8000991F4A95D1F7089585ED8093BC008091E5
:103D9000BC0084FDFCCF1092B40508954091FA0652
:103DA000262F30E0240F311D21323105DCF4209123
:103DB000B4052430C9F4FC0180E090E0861758F483
:103DC0003091FA062191DC01A852B94FA30FB11D21
:103DD0002C930196F3CF8091FA06680F6093FA0650
:103DE00080E0089581E0089582E008950895E091CB
:103DF000170580911605E81730F4F0E0E854F94F04
:103E0000808190E008958FEF9FEF089590911705BE
:103E100080911605981750F4E92FF0E0E854F94F17
:103E2000208130E09F5F9093170502C02FEF3FEF96
:103E3000C90108958091160590E020911705821B15
:103E400091090895CF92DF92EF92FF920F931F9303
:103E5000CF93DF937C01262F972F8A018091B505A0
:103E6000882391F0C62FD72F6E01C40ED51ECC1516
:103E7000DD0571F06991D701ED91FC910190F08120
:103E8000E02DC7010995F3CF642F822F0E94CE1E2B
:103E9000C801DF91CF911F910F91FF90EF90DF90BC
:103EA000CF900895CF93DF931F92CDB7DEB769838C
:103EB0002091B5052223D1F02091D805203240F081
:103EC00021E030E0FC013383228380E090E015C0E4
:103ED0008091B605E82FF0E0E954FA4F998190837C
:103EE0008F5F8093B6058093D80505C061E0CE0151
:103EF00001960E94CE1E81E090E00F90DF91CF915D
:103F000008950E94142A833081F028F4813099F0BA
:103F10008230A1F008958730A9F08830B9F084305C
:103F2000D1F4809180008F7D03C0809180008F77D5
:103F300080938000089584B58F7702C084B58F7D0B
:103F400084BD08958091B0008F7703C08091B00048
:103F50008F7D8093B00008951F93CF93DF93282F18
:103F600030E0F901EB5FFB4F8491F901EF50FC4F1A
:103F7000D491F901E352FC4FC491CC23C9F0162F20
:103F800081110E94831FEC2FF0E0EE0FFF1FED5216
:103F9000FC4FA591B4918FB7F894111105C09C9175
:103FA000ED2FE095E92302C0EC91ED2BEC938FBF50
:103FB000DF91CF911F910895CF93DF9390E0FC01A3
:103FC000EF50FC4F2491FC01E352FC4F8491882375
:103FD00061F190E0880F991FFC01E753FC4FC591F8
:103FE000D491FC01ED52FC4FA591B491611109C02F
:103FF0009FB7F8948881209582238883EC912E23A3
:104000000BC0623061F49FB7F8943881822F80959D
:1040100083238883EC912E2B2C939FBF06C08FB7F0
:10402000F894E8812E2B28838FBFDF91CF910895DC
:104030001F93CF93DF93182FEB0161E00E94DC1FE9
:10404000209711F460E004C0CF3FD10539F461E05E
:10405000812FDF91CF911F910C94AC1FE12FF0E0E5
:10406000EB5FFB4FE491E330F9F048F4E130B9F055
:10407000E230A1F584B5806284BDC8BD34C0E730AC
:10408000E9F0E83019F1E43049F580918000806270
:1040900080938000D0938B00C0938A0024C084B5A5
:1040A000806884BDC7BD1FC08091800080688093F8
:1040B0008000D0938900C093880015C08091B00023
:1040C00080688093B000C093B3000DC08091B000B1
:1040D00080628093B000C093B40005C0C038D105A1
:1040E0000CF0B5CFAFCFDF91CF911F9108958F9294
:1040F0009F92AF92BF92CF92DF92EF92FF926B01AD
:104100007C010E949F1E4B015C01C114D104E1049B
:10411000F104F1F00E949F1EDC01CB01881999097E
:10412000AA09BB09883E9340A105B10570F321E0BF
:10413000C21AD108E108F10888EE880E83E0981EC3
:10414000A11CB11CC114D104E104F10419F7DDCFA5
:10415000FF90EF90DF90CF90BF90AF909F908F90A7
:1041600008952FB7F89460912007709121078091EE
:104170002207909123072FBF08951F920F920FB629
:104180000F9211242F933F938F939F93AF93BF93DD
:104190008091200790912107A0912207B0912307D9
:1041A00030911F0723E0230F2D3720F40196A11D26
:1041B000B11D05C026E8230F0296A11DB11D209355
:1041C0001F078093200790932107A0932207B093A5
:1041D00023078091240790912507A0912607B0918D
:1041E00027070196A11DB11D8093240790932507F1
:1041F000A0932607B0932707BF91AF919F918F910E
:104200003F912F910F900FBE0F901F9018951F9206
:104210000F920FB60F9211242F933F934F935F93FA
:104220006F937F938F939F93AF93BF93EF93FF937E
:104230008091B900887F803609F49CC068F5883287
:1042400009F45BC090F4803109F454C038F4882339
:1042500009F4F6C0883009F44DC0F6C0883109F47D
:104260004CC0803209F45DC0EFC0803409F468C0EE
:1042700048F4803309F455C0883309F0E5C08093D1
:10428000B205D8C0803509F44FC0883509F45DC047
:10429000883409F0D9C0D6C0883909F4C7C0A8F459
:1042A000883709F467C038F4883609F463C080376A
:1042B00009F460C0C9C0883809F4B8C0803909F46D
:1042C0005FC0803809F0C0C05BC0803B09F486C085
:1042D00038F4803A09F466C0883A09F47FC0B4C063
:1042E000803C09F4A7C0883C09F4A4C0883B09F4C9
:1042F0008AC0AAC080918F0510C09091B1058091AD
:10430000B005981770F5E091B10581E08E0F8093AC
:10431000B105F0E0E057FA4F80818093BB0085EC57
:1043200086C08093B2058EC0E091B10581E08E0F0A
:104330008093B1058091BB00F0E0E057FA4F808395
:104340009091B1058091B0056EC0E091B10581E01A
:104350008E0F8093B1058091BB00F0E0E057FA4FDB
:1043600080838091B30581116DC081E080938E05BB
:1043700084EA61C083E08093B40510921E07CFCF1A
:1043800080911E07803208F051C0E0911E0781E045
:104390008E0F80931E078091BB00F0E0E250F94F32
:1043A0008083BDCF85EC8093BC001092B4058091D2
:1043B0001E07803230F4E0911E07F0E0E250F94F22
:1043C000108260911E0770E0E091FC06F091FD06FE
:1043D0008EEF96E0099510921E0736C084E0809318
:1043E000B4051092FB061092FA06E091F806F091DF
:1043F000F90609958091FA06811105C081E0809344
:10440000FA061092D806E091FB0681E08E0F8093A9
:10441000FB06F0E0E852F94F80818093BB00909159
:10442000FB068091FA06981708F479CF85E8809307
:10443000BC000AC085EC8093BC001092B40504C097
:104440001092B2050E94C41EFF91EF91BF91AF91EF
:104450009F918F917F916F915F914F913F912F919C
:104460000F900FBE0F901F901895CF92EF920F9361
:1044700020E030E000E090E047E050E061E070E0F4
:10448000FC01022E02C0F595E7950A94E2F7E0FFE1
:104490000AC0FA01E21BF30BDB0102C0AA0FBB1F2B
:1044A000EA95E2F70A2B2F5F3F4F2830310541F79D
:1044B00080917405813039F4CC24C39498E0E92EBE
:1044C0002FEF4FEF08C0823051F4CC24C39488E022
:1044D000E82E27E046E065E084E00E9431170F9166
:1044E000EF90CF90089580930401609373059091AD
:1044F00074059150923088F48091050127E030E0F6
:10450000281B310987FD339581E090E001C0880FB9
:104510002A95EAF7862B0C9435220895809305019D
:104520008091740581508230E8F4809173050E9477
:10453000352262E070E080E090E00E947720809178
:10454000050127E030E0281B310987FD339581E024
:1045500090E001C0880F2A95EAF790917305892BA6
:104560000C9435220895CF93C62F0E94CD176C2F3F
:1045700080917705CF910C946A15CF93DF9300D08B
:1045800000D0CDB7DEB7789484B5826084BD84B5A1
:10459000816084BD85B5826085BD85B5816085BD3E
:1045A00080916E00816080936E00109281008091F6
:1045B000810082608093810080918100816080937E
:1045C0008100809180008160809380008091B100A3
:1045D00084608093B1008091B00081608093B000CE
:1045E00080917A00846080937A0080917A00826062
:1045F00080937A0080917A00816080937A00809124
:104600007A00806880937A001092C100109217059A
:10461000109216051092B6051092D8051092B405A6
:1046200081E08093B30510928E0561E082E10E94E3
:10463000AC1F61E083E10E94AC1F8091B9008E7FC6
:104640008093B9008091B9008D7F8093B90088E490
:104650008093B80085E48093BC0080917605833018
:1046600008F069C080917405823008F064C01FE3CF
:1046700001E00093B5051093D7051092B60510928E
:10468000D80560E08AED95E00E94521F81E00E940B
:1046900001101150173369F717E201E00093B505D7
:1046A0001093D7051092B6051092D80560E08AEDF8
:1046B00095E00E94521F81E00E94011011501F31AD
:1046C00069F7E0901E0540E060E08E2D0E94290A07
:1046D000F0901F054FEF60E08F2D0E94290A009196
:1046E000200540E060E0802F0E94290A10912105FA
:1046F0004FEF60E0812F0E94290AEBECCE2EE9E318
:10470000DE2EC6010197F1F740E060E08E2D0E9499
:10471000290A40E060E08F2D0E94290A40E060E015
:10472000802F0E94290A40E060E0812F0E94290A20
:10473000C6010197F1F761E087E00E94DC1F60E0AD
:1047400087E00E94AC1F81E090E00E941218823F37
:1047500039F00E94FD1C62EF81E090E00E94101889
:1047600060E081E00E94DC1F61E080E10E94DC1FCC
:1047700061E081E10E94DC1F60E080E10E94AC1FEB
:1047800060E081E10E94AC1F60E08DE00E94AC1F00
:104790000E94D71C0E944A1280E68093940681E012
:1047A0008093D905109293064CE065E080918F06C6
:1047B0000E94290A62E370E080E090E00E94772086
:1047C0004091940660E080918F060E94290A62E37E
:1047D00070E080E090E00E9477204091940666E0CF
:1047E00080918F060E94290A62E370E080E090E0E9
:1047F0000E94772083E00E945E1065E070E080E018
:1048000090E00E94772083E00E945E108BE891E0A8
:104810000197F1F783E00E945E1065E070E080E0B0
:1048200090E00E94772082E00E945E1088E20E9461
:104830008C108CE00E948C108BEE90E00197F1F7C9
:1048400081E00E94B5101092D9050E94061489E1FA
:1048500090E00E94121880938E0687E190E00E94FB
:10486000121880938C0688E190E00E9412188093C1
:104870008D0683E190E00E94121880933A0584E14E
:1048800090E00E94121890E090931905809318050B
:1048900010923F058091D905811124C01092B0007B
:1048A0008091B1008B7F8093B1008091B1008260D4
:1048B0008093B1008091B1008E7F8093B100809190
:1048C000700081608093700081EA8093B2007894D8
:1048D00082E08093E705109283068091E60560E010
:1048E0000E94DC1F809171058130A1F40E94E507D0
:1048F000809105010E948E220E9421030E946A126B
:10490000C12C64E0D62EE12CF12C72E0772E0FEF53
:104910001FEF63C00E944A1280918E06813081F39E
:1049200060918D0670E0809192060E94182081E0CF
:104930000E94A21C82E00E94A21C0E94ED12E0CF05
:1049400080917105882309F43EC4809179058230F5
:1049500009F0B4C20E94141880914905811138C42D
:104960000E94B1204B015C01209045053090460526
:1049700040904705509048056215730584059505DC
:1049800079F10E94B120DC01CB0182199309A409BD
:10499000B5098C329140A105B10508F03BC4809166
:1049A0005705813061F10E9495034B015C016093D2
:1049B0003B0570933C0580933D0590933E05672B26
:1049C000682B692B09F0B5C080E0482E80E0582E96
:1049D000452809F4B5CF0E94000056E0652EB0CFFF
:1049E0000E94B120861A970AA80AB90A3CE28316E7
:1049F00031E09306A104B10408F00CC4D0CF0E94AA
:104A00000615DC0180915105909152051D01281A6F
:104A1000390AC10137FE03C0919581959109049728
:104A200014F21093010100930001B0935205A0937A
:104A3000510580914405823019F58091400590918F
:104A400041054F97029720F420917C0530E002C089
:104A500028E030E0A901330F660B770B9A01AB0118
:104A600024503109410951090E94B629A701960134
:104A70000E949029DA01C9010596A11DB11D2FC020
:104A8000833089F580915A052AE130E081110DC00B
:104A90000E94AF29A70196010E949029DA01C9015D
:104AA0008F599F4FAF4FBF4F1AC0813069F40E949A
:104AB000AF29A70196010E949029DA01C9018F5BF5
:104AC0009F4FAF4FBF4F0BC00E94AF29A701960168
:104AD0000E949029DA01C9018096A11DB11D909311
:104AE0005C0580935B0580915B0590915C05019668
:104AF00009F459CF0E94E81880914405823029F4C6
:104B000080915B050E943F180DC0833059F4E091FD
:104B10003F05F0E0E358FA4F80915B05808380E029
:104B20000E94BC1B62E370E080E090E00E9477206E
:104B30003ACF0E94F80B8630910589F480914405A4
:104B4000823011F40E94B5180E94E818E0913A05ED
:104B50006E9EF0011124EA5FFE4F818113C0853003
:104B60009105D9F480914405823011F40E94B51862
:104B70000E94E818E0913A056E9EF0011124EA5F68
:104B8000FE4F808180933A050E94F7180E94D0184A
:104B900060E570E080E090E08CC18631910591F590
:104BA00080914405833009F086C180915A058111B6
:104BB00005C081E080935A0561E40DC0813021F485
:104BC00070925A0561E207C0823021F410925A05B2
:104BD00061E601C060E280913F0590E0FC01E3588E
:104BE000FA4F60832091400530914105820F931F59
:104BF0000E94101880E00E94BC1B68EC70E080E00E
:104C000090E057C1409136055091370560913805C5
:104C10007091390584169506A606B706A1F5809110
:104C200044058230A9F48091400590914105809718
:104C300021F480917C0590E002C088E090E09093A0
:104C4000250580932405809124050E943F1816C0F5
:104C50008330A1F480913F0590E0FC01E358FA4FC6
:104C600020E22083209140053091410560E2820FCF
:104C7000931F0E94101880E00E94BC1B66E970E040
:104C800080E090E016C1409132055091330560916B
:104C900034057091350584169506A606B70671F59C
:104CA0000E94E81880914405823019F40E94B518DA
:104CB0000AC08330E1F480913F05882321F08150C0
:104CC00080933F0514C00E94B3190E94141880916C
:104CD0004405823009F440C0833049F40E94CB1966
:104CE000815080933F05809149050E94BC1B0E9422
:104CF000D01868E770E080E090E0DBC040912E05BE
:104D000050912F05609130057091310584169506FC
:104D1000A606B70669F50E94E8188091440582301E
:104D200019F40E94B51810C0833009F7B0903F0500
:104D30000E94CB192B2D30E001972817390724F456
:104D4000B394B0923F05D3CF0E9446290E94141815
:104D500080914405823039F410923F0580914905D5
:104D60000E94F019C4CF833011F610923F05BBCFDB
:104D700040912A0550912B0560912C0570912D05CD
:104D800084169506A606B70609F044C00E94E818E6
:104D900080914405823079F4809124059091250515
:104DA000863091052CF0019790932505809324057A
:104DB000809124054BC0833041F580913F0590E000
:104DC000FC01E358FA4F60816150603288F06E3721
:104DD00080F03FC08330C9F480913F0590E0FC0132
:104DE000E358FA4F60816F5F6E3798F5603208F4D0
:104DF0006DE760832091400530914105820F931F3C
:104E00000E94101880E00E94BC1B68E270E080E005
:104E100090E04FC0409126055091270560912805EC
:104E20007091290584169506A606B706A1F40E947E
:104E3000E81880914405823069F6809124059091AC
:104E40002505019690932505809324050E943F181F
:104E5000DCCF60E2CECF089771F5809144058230B7
:104E600011F40E94B51881E0809379058091560570
:104E7000813039F433E03093540510935205009398
:104E800051050E944A1280918D060E94FB0F80916D
:104E90007A05813041F40E94CC1360E0809177055F
:104EA0000E94B32202C00E946A1264EF71E080E0A7
:104EB00090E00E9477200E94EA0F86CD80917505D0
:104EC000813009F04DC00E94B12080904C05909037
:104ED0004D05A0904E05B0904F05681579058A05DF
:104EE0009B05F1F0DC01CB0188199909AA09BB09DE
:104EF00081339547A105B10598F080914A059091BD
:104F00004B05019690934B0580934A050E94B12072
:104F100060934C0570934D0580934E0590934F051B
:104F2000A0904A05B0904B0588E090E00E941218CE
:104F300090E0880F991FA816B90694F00E944A12B3
:104F400060E888E691E00E94F61068EB7BE080E084
:104F500090E00E9477200E94440381E080937905CD
:104F600080915905813039F080915805833019F4CA
:104F700080E00E94650280915705813009F05BC096
:104F800080917105813009F056C08091540581509F
:104F9000823008F050C00E9406152C018091510506
:104FA000909152051201281A390AC10137FE03C037
:104FB0009195819591090497F4F13090770580904F
:104FC0007805912CA12CB12C20915005822F90E0D6
:104FD000A0E0B0E088199909AA09BB099C01AD01BC
:104FE0002F5F3F4F4F4F5F4FD2010E94B629A7015D
:104FF00096010E949029820E931EA41EB51E831452
:10500000D1F00E94ED1280927705381440F480911F
:105010005905813021F41092590561E001C060E02A
:10502000882D0E94B322809177058093530550927A
:1050300052054092510580915605813009F0C3C058
:1050400080917105882309F4BEC08091550588239D
:1050500009F4B9C080915405823069F030F4813090
:1050600009F0B1C07092540516C08330C9F0843085
:1050700009F480C0A8C090917705809153059817D6
:1050800051F033E0332E309254050E940615909370
:10509000520580935105809177058093530593C005
:1050A0000E94ED1210925E0510925D0580907805C9
:1050B000912CA12CB12C60917705862F90E0A0E077
:1050C000B0E088199909AA09BB09BC01CD012AE001
:1050D000660F771F881F991F2A95D1F720915005D9
:1050E00030E040E050E019012A01281839084A0848
:1050F0005B08A20191012F5F3F4F4F4F5F4F0E940E
:105100009029590129833A834B835C830E940615B9
:1051100029813A81281B390B285F3F4F2131310506
:1051200098F460E081E10E94AC1F60E080E10E94A1
:10513000AC1F94E0392E3092540565E070E080E0B9
:1051400090E00E9477203FC08A159B053CF460E008
:1051500081E10E94AC1F61E080E109C0A816B90698
:1051600094F560E080E10E94AC1F61E081E10E9463
:10517000AC1F29C00E94ED1264E170E080E090E075
:105180000E9477200E94061520915105309152050A
:105190008217930781F420915D0530915E052F5FA2
:1051A0003F4F30935E0520935D05253031053CF07F
:1051B0007092540504C010925E0510925D059093A4
:1051C0005205809351050E941B0D0E948314FCCB55
:1051D000813009F0E4CB0E94B1204B015C012090AA
:1051E00045053090460540904705509048056215AA
:1051F00073058405950589F00E94B120DC01CB017F
:1052000082199309A409B509883C9105A105B10546
:1052100008F4C5CB0E94D018C2CB0E94B120861AD8
:10522000970AA80AB90A88EC88169104A104B10467
:1052300088F7B5CBEAEDF5E01382128288EE93E0B1
:10524000A0E0B0E084839583A683B78388E093E0F1
:1052500091838083E6EEF5E088E080831282E4E8C3
:10526000F6E082E0848790E1958797E2938799E062
:10527000968782871782108211821282138215828A
:105280001482168261E089E00C94DC1F10923F05C5
:10529000809118059091190520919E0630919F06E6
:1052A0008217930729F48091A0069091A10601C06E
:1052B000019690931905809318050895CF93DF9375
:1052C00000D0CDB7DEB789839A830E944A1260E886
:1052D00089819A810F900F90DF91CF910C94F610F5
:1052E000991B79E004C0991F961708F0961B881F38
:1052F0007A95C9F78095089597FB072E16F40094C8
:1053000007D077FD09D00E94BE2907FC05D03EF4E6
:10531000909581959F4F0895709561957F4F089561
:10532000052E97FB1EF400940E94A72957FD07D075
:105330000E94D22907FC03D04EF40C94A729509563
:105340004095309521953F4F4F4F5F4F0895909571
:105350008095709561957F4F8F4F9F4F08950E9464
:10536000FA29B7FF0895821B930B0895B7FF0C9499
:10537000092A0E94092A821B930B0895AA1BBB1BB2
:1053800051E107C0AA1FBB1FA617B70710F0A61B45
:10539000B70B881F991F5A95A9F780959095BC0166
:1053A000CD010895A1E21A2EAA1BBB1BFD010DC061
:1053B000AA1FBB1FEE1FFF1FA217B307E407F507C5
:1053C00020F0A21BB30BE40BF50B661F771F881FA1
:1053D000991F1A9469F760957095809590959B0137
:1053E000AC01BD01CF010895EE0FFF1F0590F491B0
:1053F000E02D0994A29FB001B39FC001A39F700D3F
:10540000811D1124911DB29F700D811D1124911DCC
:1054100008950E94FA29A59F900DB49F900DA49F16
:10542000800D911D1124089581E090E0F8940C9472
:105430004C2DDC0101C06D9341505040E0F70895C0
:10544000FB01DC010D900020E9F7119701900D920E
:105450000020E1F70895FB01DC014150504030F09D
:105460008D910190801919F40020B9F7881B990BD0
:105470000895FB01DC014150504048F001900D922D
:105480000020C9F701C01D9241505040E0F7089537
:10549000AEE0B0E0EEE4FAE20C94232D0D891E8913
:1054A00086E08C831A8309838FEF9FE79E838D8329
:1054B000AE01475E5F4F6F89788DCE0101960E94E5
:1054C0006B2A2F813885F801E20FF31F10822E9688
:1054D000E4E00C943F2DACE0B0E0E1E7FAE20C949C
:1054E000152D7C016B018A01FC01178216828381D4
:1054F00081FFBDC1CE0101964C01F7019381F601F8
:1055000093FD859193FF81916F01882309F4ABC1CD
:10551000853239F493FD859193FF81916F01853236
:1055200029F4B70190E00E94532CE7CF512C312C85
:1055300020E02032A0F48B3269F030F4803259F050
:10554000833269F420612CC08D3239F0803339F414
:10555000216026C02260246023C0286021C027FD6E
:1055600027C030ED380F3A3078F426FF06C0FAE055
:105570005F9E300D1124532E13C08AE0389E300DEB
:105580001124332E20620CC08E3221F426FD6BC113
:10559000206406C08C3611F4206802C0883641F4BD
:1055A000F60193FD859193FF81916F018111C1CF28
:1055B000982F9F7D9554933028F40C5F1F4FFFE385
:1055C000F9830DC0833631F0833771F0833509F0EC
:1055D0005BC022C0F801808189830E5F1F4F442485
:1055E0004394512C540115C03801F2E06F0E711C28
:1055F000F801A080B18026FF03C0652D70E002C0D5
:105600006FEF7FEFC5012C870E94482C2C0183018E
:105610002C852F77222E17C03801F2E06F0E711CF7
:10562000F801A080B18026FF03C0652D70E002C0A4
:105630006FEF7FEFC5012C870E943D2C2C012C853C
:105640002068222E830123FC1BC0832D90E0481686
:105650005906B0F4B70180E290E00E94532C3A94CE
:10566000F4CFF50127FC859127FE81915F01B701F9
:1056700090E00E94532C31103A94F1E04F1A5108F7
:105680004114510471F7E5C0843611F0893639F5BB
:10569000F80127FF07C060817181828193810C5FCF
:1056A0001F4F08C060817181072E000C880B990B79
:1056B0000E5F1F4F2F76722E97FF09C09095809531
:1056C000709561957F4F8F4F9F4F2068722E2AE013
:1056D00030E0A4010E948B2CA82EA81844C0853766
:1056E00029F42F7EB22E2AE030E025C0F22FF97F78
:1056F000BF2E8F36C1F018F4883579F0B4C08037EA
:1057000019F0883721F0AFC02F2F2061B22EB4FEE0
:105710000DC08B2D8460B82E09C024FF0AC09F2FB6
:105720009660B92E06C028E030E005C020E130E0E8
:1057300002C020E132E0F801B7FE07C0608171814C
:10574000828193810C5F1F4F06C06081718180E070
:1057500090E00E5F1F4FA4010E948B2CA82EA8186A
:10576000FB2DFF777F2E76FE0BC0372D3E7FA514D5
:1057700050F474FE0AC072FC08C0372D3E7E05C08E
:10578000BA2C372D03C0BA2C01C0B52C34FF0DC084
:10579000FE01EA0DF11D8081803311F4397E09C0CC
:1057A00032FF06C0B394B39404C0832F867809F007
:1057B000B39433FD13C030FF06C05A2CB31418F451
:1057C000530C5B18B32CB31468F4B70180E290E07B
:1057D0003C870E94532CB3943C85F5CFB31410F44E
:1057E0003B1801C0312C34FF12C0B70180E390E0B8
:1057F0003C870E94532C3C8532FF17C031FD03C00B
:1058000088E790E002C088E590E0B7010CC0832FE4
:10581000867859F031FF02C08BE201C080E237FD8B
:105820008DE2B70190E00E94532CA51438F4B70123
:1058300080E390E00E94532C5A94F7CFAA94F4018D
:10584000EA0DF11D8081B70190E00E94532CA11058
:10585000F5CF332009F451CEB70180E290E00E94E9
:10586000532C3A94F6CFF7018681978102C08FEFCF
:105870009FEF2C96E2E10C94312DFC0105906150D4
:1058800070400110D8F7809590958E0F9F1F089556
:10589000FC016150704001900110D8F780959095FF
:1058A0008E0F9F1F08950F931F93CF93DF93FB01DC
:1058B000238121FD03C08FEF9FEF28C022FF16C078
:1058C00046815781248135814217530744F4A081D2
:1058D000B1819D012F5F3F4F318320838C932681BF
:1058E00037812F5F3F4F3783268310C0EB01092F8D
:1058F000182F0084F185E02D0995892BE1F68E8122
:105900009F8101969F838E83812F902FDF91CF916E
:105910001F910F910895FA01AA27283051F12031E3
:1059200081F1E8946F936E7F6E5F7F4F8F4F9F4F33
:10593000AF4FB1E03ED0B4E03CD0670F781F891F75
:105940009A1FA11D680F791F8A1F911DA11D6A0F43
:10595000711D811D911DA11D20D009F468943F91F6
:105960002AE0269F11243019305D3193DEF6CF01F5
:105970000895462F4770405D4193B3E00FD0C9F7BB
:10598000F6CF462F4F70405D4A3318F0495D31FD28
:105990004052419302D0A9F7EACFB4E0A69597957B
:1059A000879577956795BA95C9F700976105710551
:1059B00008959B01AC010A2E06945795479537959B
:1059C0002795BA95C9F7620F731F841F951FA01DF5
:1059D0000895FB01DC0105900D920020E1F7089588
:1059E000FB01DC014150504048F005900D92002031
:1059F000C9F701C01D9241505040E0F70895F99950
:105A0000FECF92BD81BDF89A992780B50895262FC3
:105A1000F999FECF1FBA92BD81BD20BD0FB6F89493
:105A2000FA9AF99A0FBE019608952F923F924F92DB
:105A30005F926F927F928F929F92AF92BF92CF921E
:105A4000DF92EF92FF920F931F93CF93DF93CDB727
:105A5000DEB7CA1BDB0B0FB6F894DEBF0FBECDBF9F
:105A600009942A88398848885F846E847D848C8470
:105A70009B84AA84B984C884DF80EE80FD800C8179
:105A80001B81AA81B981CE0FD11D0FB6F894DEBF5C
:0C5A90000FBECDBFED010895F894FFCFCC
:105A9C00FFFFFFFFFFFF15010003020300020409D3
:105AAC00070901030A0D0C0D02040E111011030558
:105ABC001216151604061719191905071A1D1C1D9F
:105ACC0006081E1F1F1F070920212121080A242751
