:100000000C9462000C94F9060C94D2060C948A00AD
:100010000C948A000C948A000C948A000C948A0038
:100020000C948A000C948A000C948A000C948A0028
:100030000C948A000C948A000C948A000C948A0018
:100040000C9488060C948A000C9456060C94300686
:100050000C948A000C948A000C948A000C948A00F8
:100060000C948A000C948A000000000024002700F1
:100070002A0000000000250028002B0000000000DE
:1000800023002600290004040404040404040202DA
:100090000202020203030303030301020408102007
:1000A0004080010204081020010204081020000012
:1000B0000008000201000003040700000000000027
:1000C0000000200711241FBECFEFD8E0DEBFCDBF58
:1000D00011E0A0E0B1E0EAE1F5E102C005900D9287
:1000E000A631B107D9F722E0A6E1B1E001C01D9227
:1000F000AB36B207E1F710E0C2E6D0E004C02197CA
:10010000FE010E945609C136D107C9F70E94810736
:100110000C948B0A0C940000CF92DF92EF92FF9226
:100120000F931F93CF93DF936C017A018B01C0E093
:10013000D0E0CE15DF0589F0D8016D918D01D60193
:10014000ED91FC910190F081E02DC6010995892B7C
:1001500011F47E0102C02196ECCFC701DF91CF914F
:100160001F910F91FF90EF90DF90CF900895FC01C9
:10017000918D828D981761F0828DDF01A80FB11DDE
:100180005D968C91928D9F5F9F73928F90E0089502
:100190008FEF9FEF0895FC01918D828D981731F0BC
:1001A000828DE80FF11D858D90E008958FEF9FEF10
:1001B0000895FC01918D228D892F90E0805C9F4FE6
:1001C000821B91098F739927089589EB91E00E9412
:1001D000D90021E0892B09F420E0822F0895FC0149
:1001E000848DDF01A80FB11DA35ABF4F2C91848DC0
:1001F00090E001968F739927848FA689B7892C93F5
:10020000A089B1898C9180648C93938D848D98138F
:1002100006C00288F389E02D80818F7D8083089558
:10022000EF92FF920F931F93CF93DF93EC0181E046
:10023000888F9B8D8C8D981305C0E889F989808102
:1002400085FD24C0F62E0B8D10E00F5F1F4F0F733E
:100250001127E02E8C8DE8120CC00FB607FCFACFE8
:10026000E889F989808185FFF5CFCE010E94EF00F2
:10027000F1CF8B8DFE01E80FF11DE35AFF4FF082A5
:100280000B8FEA89FB898081806207C0EE89FF8934
:100290006083E889F98980818064808381E090E0CF
:1002A000DF91CF911F910F91FF90EF900895CF9321
:1002B000DF93EC01888D8823C9F0EA89FB8980816E
:1002C00085FD05C0A889B9898C9186FD0FC00FB640
:1002D00007FCF5CF808185FFF2CFA889B9898C9181
:1002E00085FFEDCFCE010E94EF00E7CFDF91CF91E8
:1002F000089580E090E0892B29F00E94E5008111AB
:100300000C9400000895833081F028F4813099F036
:100310008230A1F008958730A9F08830B9F0843098
:10032000D1F4809180008F7D03C0809180008F7711
:1003300080938000089584B58F7702C084B58F7D47
:1003400084BD08958091B0008F7703C08091B00084
:100350008F7D8093B0000895CF93DF93282F30E0F6
:10036000F901E255FF4F8491F901E656FF4FD49110
:10037000F901EA57FF4FC491CC2391F081110E94FB
:100380008301EC2FF0E0EE0FFF1FE458FF4FA59123
:10039000B491EC91ED2381E090E021F480E002C083
:1003A00080E090E0DF91CF9108951F93CF93DF938A
:1003B000282F30E0F901E255FF4F8491F901E6560C
:1003C000FF4FD491F901EA57FF4FC491CC23C9F0F4
:1003D000162F81110E948301EC2FF0E0EE0FFF1F1A
:1003E000EE58FF4FA591B4918FB7F894111105C045
:1003F0009C91ED2FE095E92302C0EC91ED2BEC935D
:100400008FBFDF91CF911F910895CF93DF9390E03D
:10041000FC01E656FF4F2491FC01EA57FF4F8491FF
:10042000882361F190E0880F991FFC01E859FF4F84
:10043000C591D491FC01EE58FF4FA591B491611183
:1004400009C09FB7F8948881209582238883EC9116
:100450002E230BC0623061F49FB7F8943881822F4D
:10046000809583238883EC912E2B2C939FBF06C00D
:100470008FB7F894E8812E2B28838FBFDF91CF911F
:1004800008953FB7F8948091AF019091B001A09189
:10049000B101B091B20126B5A89B05C02F3F19F05C
:1004A0000196A11DB11D3FBFBA2FA92F982F8827F4
:1004B000820F911DA11DB11DBC01CD0142E0660F4F
:1004C000771F881F991F4A95D1F708958F929F92A1
:1004D000AF92BF92CF92DF92EF92FF920E944102C1
:1004E0004B015C0184E6C82ED12CE12CF12C0E943A
:1004F0004102DC01CB0188199909AA09BB09883E90
:100500009340A105B10558F021E0C21AD108E108D5
:10051000F10888EE880E83E0981EA11CB11CC1145E
:10052000D104E104F10419F7FF90EF90DF90CF9030
:10053000BF90AF909F908F9008952FB7F8946091DF
:10054000AB017091AC018091AD019091AE012FBFD4
:10055000089508952F923F924F925F926F927F92EB
:100560008F929F92AF92BF92CF92DF92EF92FF92C3
:100570000F931F93CF93DF93CDB7DEB7A2970FB63C
:10058000F894DEBF0FBECDBF0E944102698B7A8B0B
:100590008B8B9C8B8091A6019091A701681B790B96
:1005A0007AA369A37093A5016093A401693823E13C
:1005B000720708F473C120901E0130901F01C10121
:1005C000885C91098617970708F064C180579E4F91
:1005D0006817790708F05EC180911C0190911D0198
:1005E000019690931D0180931C0100911A011091B6
:1005F0001B0101501109029709F04CC1C1016FE1C3
:1006000070E00E942C097E8B6D8B6B01E12CF12C2C
:1006100040900401509005015E864D869B01D201F9
:100620000E944F090E948B092AE037ED43E25CE308
:100630000E94F1090E945C094B015C012D893E89F1
:10064000A3E0B0E00E9440099B01AC0128193909E0
:100650004A095B0929833A834B835C832401350172
:10066000460E571E681E791E4D825E826F82788606
:1006700021E030E080E090E0DC01B701A6014819FC
:1006800059096A097B0949875A876B877C87C80C97
:10069000D91CEA1CFB1C2017310708F06CC0F901BB
:1006A000EE0FFF1FE25EFE4F4081518160E070E07F
:1006B00049845A846B847C84441655066606770602
:1006C00010F54C155D056E057F05E8F4F901EE0F98
:1006D000FF1FE05EFE4F0190F081E02D4F01A12C45
:1006E000B12C49805A806B807C80481459046A047C
:1006F0007B0448F44D805E806F8078848414950478
:10070000A604B70460F169807A808B809C806416AF
:1007100075068606970640F58D809E80AF80B8846A
:10072000481559056A057B05F8F4F901EE0FFF1F1E
:10073000E05EFE4F4081518160E070E049845A8460
:100740006B847C84441655066606770668F44C155F
:100750005D056E057F0540F40196A11DB11D880F52
:10076000991FAA1FBB1F04C0980180E090E0DC0124
:100770002E5F3F4F90CFB695A795979587950730F9
:100780001105D8F08093560290935702A093580217
:10079000B09359029801369527953093B401209370
:1007A000B3016D887E88709219016092180121E072
:1007B00030E03093170120931601892B8A2B8B2B65
:1007C00009F064C0B3C0F901EE0FFF1FE25EFE4FF7
:1007D000C080D180E12CF12C4D855E856F857889B4
:1007E0004C155D056E057F0508F006C249805A80EC
:1007F0006B807C80C414D504E604F70408F0FCC1C7
:10080000F901EE0FFF1FE05EFE4F4081518160E075
:1008100070E04D805E806F807884441655066606D1
:10082000770608F0E9C149845A846B847C844415B6
:1008300055056605770508F0DFC1880F991FAA1FC7
:10084000BB1F2E5F3F4F2017310708F4BCCF073086
:100850001105E0F0B695A795979587958093560278
:1008600090935702A0935802B0935902169507959A
:100870001093B4010093B301309219012092180132
:1008800083E090E0909317018093160110921D0170
:1008900010921C0110921B0110921A0180911A01F2
:1008A00090911B018334910540F010921B0110922E
:1008B0001A0110921D0110921C0180911A01909151
:1008C0001B019C012F5F3F4F30931B0120931A01A6
:1008D000880F991FFC01E25EFE4FE9A0FAA0F182A9
:1008E000E08249885A886B887C884092A6015092A1
:1008F000A7016092A8017092A901A2960FB6F89480
:10090000DEBF0FBECDBFDF91CF911F910F91FF9042
:10091000EF90DF90CF90BF90AF909F908F907F909F
:100920006F905F904F903F902F900895C1016AE0C3
:1009300070E00E942C097E8B6D8B6B01E12CF12CF9
:100940009B01AD85BE850E944F090E948B092AE05C
:1009500037ED43E25CE30E94F1090E945C094B0120
:100960005C01B701A601440F551F661F771FDB010D
:10097000CA0188199909AA09BB098D839E83AF838F
:10098000B887480D591D6A1D7B1D21E030E080E0CD
:1009900090E0DC0126013701481859086A087B08F5
:1009A00049865A866B867C863A014B016C187D0815
:1009B0008E089F08698E7A8E8B8E9C8E2017310749
:1009C00008F073C0F901EE0FFF1FE25EFE4FC0801A
:1009D000D180E12CF12C89849A84AB84BC848C1462
:1009E0009D04AE04BF0438F5498C5A8C6B8C7C8C0A
:1009F000C414D504E604F704F0F4F901EE0FFF1F68
:100A0000E05EFE4FA080B1803501812C912C69827F
:100A10007A828B829C82540143014D805E806F807C
:100A20007884481459046A047B0428F484169506D3
:100A3000A606B70670F16D807E808F8098846C1456
:100A40007D048E049F0450F5C416D506E606F7060D
:100A500028F5F901EE0FFF1FE05EFE4F0190F081D7
:100A6000E02D6F01E12CF12C89849A84AB84BC8445
:100A70008C149D04AE04BF0488F4498C5A8C6B8C92
:100A80007C8CC414D504E604F70440F40196A11D3F
:100A9000B11D880F991FAA1FBB1F04C0980180E0D9
:100AA00090E0DC012E5F3F4F89CFB695A7959795D3
:100AB000879507301105D8F080935602909357021E
:100AC000A0935802B0935902980136952795309318
:100AD000B4012093B3016D887E88709219016092F1
:100AE000180122E030E03093170120931601892B82
:100AF0008A2B8B2B09F0CACEC10167E470E00E94FB
:100B00002C091B019B01AD85BE850E944F090E94E7
:100B10008B092AE037ED43E25CE30E94F1090E9471
:100B20005C096B017C01C101A0E0B0E022E0880F0C
:100B3000991FAA1FBB1F2A95D1F74C015D018C1884
:100B40009D08AE08BF088D869E86AF86B88AB7011D
:100B5000A601480F591F6A1F7B1F49835A836B8365
:100B60007C839101ABE0B0E00E9440092B013C0185
:100B70004C185D086E087F084D825E826F82788611
:100B800036014701660E771E881E991E69867A8691
:100B90008B869C86A9E0B0E00E9440094B015C0175
:100BA0008C189D08AE08BF088D8A9E8AAF8AB88EC1
:100BB00026013701460E571E681E791E498E5A8E31
:100BC0006B8E7C8EA6E0B0E00E9440093B014C0198
:100BD0006C187D088E089F086D8E7E8E8F8E98A271
:100BE00046015701860E971EA81EB91E21E030E06F
:100BF00080E090E0DC0127CE4D895E896F89788D99
:100C00004C155D056E057F0520F5498C5A8C6B8C63
:100C10007C8CC414D504E604F704D8F4F901EE0F73
:100C2000FF1FE05EFE4F4081518160E070E0CD8C9F
:100C3000DE8CEF8CF8A0C416D506E606F70648F45D
:100C4000481559056A057B0520F40196A11DB11DC3
:100C5000F4CD980180E090E0DC01F3CD0E94860A9B
:100C60001F920F920FB60F9211242F933F934F9321
:100C70005F936F937F938F939F93AF93BF93EF9304
:100C8000FF9389EB91E00E94EF00FF91EF91BF91FC
:100C9000AF919F918F917F916F915F914F913F9114
:100CA0002F910F900FBE0F901F9018951F920F92CB
:100CB0000FB60F9211242F938F939F93EF93FF936F
:100CC000E091C901F091CA018081E091CF01F091DA
:100CD000D00182FD12C090818091D2018F5F8F730D
:100CE0002091D301821751F0E091D201F0E0E75456
:100CF000FE4F958F8093D20101C08081FF91EF91CB
:100D00009F918F912F910F900FBE0F901F9018956C
:100D10001F920F920FB60F9211242F933F938F9330
:100D20009F93AF93BF938091AB019091AC01A09141
:100D3000AD01B091AE013091AA0123E0230F2D3710
:100D400020F40196A11DB11D05C026E8230F0296CF
:100D5000A11DB11D2093AA018093AB019093AC011A
:100D6000A093AD01B093AE018091AF019091B0011D
:100D7000A091B101B091B2010196A11DB11D809366
:100D8000AF019093B001A093B101B093B201BF91B4
:100D9000AF919F918F913F912F910F900FBE0F9028
:100DA0001F9018951F920F920FB60F9211242F9338
:100DB0003F934F935F936F937F938F939F93AF93E3
:100DC000BF93EF93FF93E0910201F0910301099526
:100DD000FF91EF91BF91AF919F918F917F916F9113
:100DE0005F914F913F912F910F900FBE0F901F90E9
:100DF00018951F920F920FB60F9211242F933F93C5
:100E00004F935F936F937F938F939F93AF93BF9312
:100E1000EF93FF93E0910001F09101010995FF919B
:100E2000EF91BF91AF919F918F917F916F915F9162
:100E30004F913F912F910F900FBE0F901F901895DB
:100E4000E9EBF1E01382128288EE93E0A0E0B0E0DB
:100E500084839583A683B7838AE091E0918380831E
:100E600085EC90E09587848784EC90E0978786876F
:100E700080EC90E0918B808B81EC90E0938B828B67
:100E800082EC90E0958B848B86EC90E0978B868B40
:100E9000118E128E138E148EE2E6F2E08FEF9FEF2A
:100EA000938382832EE531E0358324832AE030E08A
:100EB0003783268321E02087918380838CE390E031
:100EC00090930501809304011092560210925702EC
:100ED00010925802109259020E949D0260935E0285
:100EE00070935F0280936002909361020E949D0262
:100EF00060935A0270935B0280935C0290935D0250
:100F00000895789484B5826084BD84B5816084BD81
:100F100085B5826085BD85B5816085BD80916E0097
:100F2000816080936E0010928100809181008260C8
:100F30008093810080918100816080938100809105
:100F400080008160809380008091B10084608093F4
:100F5000B1008091B00081608093B00080917A00F0
:100F6000846080937A0080917A00826080937A0016
:100F700080917A00816080937A0080917A00806805
:100F800080937A001092C100E091C901F091CA01EA
:100F900082E08083E091C501F091C6011082E0916A
:100FA000C701F091C8018FEC80831092D101E091CC
:100FB000CD01F091CE0186E08083E091CB01F091EC
:100FC000CC01808180618083E091CB01F091CC01E4
:100FD000808188608083E091CB01F091CC01808199
:100FE00080688083E091CB01F091CC0180818F7D7E
:100FF0008083109263021092620210925602109245
:10100000570210925802109259021092B401109295
:10101000B3018AEA92E090930101809300018091EC
:1010200069008C7F816080936900E89A81E08093F9
:101030006A0287EB90E0909367028093660261E01A
:1010400089E00E94050261E08AE00E94050261E0F9
:101050008BE00E94050262E085E00E94050262E0EA
:1010600086E00E94050260E089E00E94D50160E010
:101070008AE00E94D50160E08BE00E94D501D1E0BA
:1010800085E00E94AC01C1E0892B09F4C0E0C09367
:10109000B8010E949D02C0905E02D0905F02E09075
:1010A0006002F0906102DC01CB018C199D09AE0950
:1010B000BF0985369105A105B10558F18091B701A9
:1010C000CC2389F0811125C0D093B7010E949D02E5
:1010D00060935E0270935F0280936002909361025E
:1010E00061E089E014C08823A1F01092B7010E944A
:1010F0009D0260935E0270935F0280936002909302
:10110000610260E089E00E94D50160E08BE00E940E
:10111000D50186E00E94AC01C1E0892B09F4C0E052
:10112000C093B6010E949D02C0905A02D0905B020B
:10113000E0905C02F0905D02DC01CB018C199D090E
:10114000AE09BF0985369105A105B10530F1809141
:10115000B501CC2381F0811120C0D093B5010E944C
:101160009D0260935A0270935B0280935C0290939D
:101170005D0261E00FC0882381F01092B5010E94EA
:101180009D0260935A0270935B0280935C0290937D
:101190005D0260E08AE00E94D501C0905602D090C6
:1011A0005702E0905802F0905902C114D104E104B2
:1011B000F10409F44EC08BE0C81686E3D8068BE034
:1011C000E806F10411F461E009C08CE0C81686E37A
:1011D000D8068BE0E806F10439F460E089E00E946B
:1011E000D5010E9466021FC08DE0C81686E3D806AE
:1011F0008BE0E806F10411F461E009C08EE0C81646
:1012000086E3D8068BE0E806F10419F460E08AE092
:1012100014C08FE0C81686E3D8068BE0E806F10418
:1012200011F461E009C080E1C81686E3D8068BE0BE
:10123000E806F10431F460E08BE00E94D5010E94E1
:1012400066021092560210925702109258021092A3
:1012500059020E94790114CFAA1BBB1B51E107C0A0
:10126000AA1FBB1FA617B70710F0A61BB70B881F36
:10127000991F5A95A9F780959095BC01CD010895C5
:10128000A29FB001B39FC001A39F700D811D1124C7
:10129000911DB29F700D811D1124911D08950E9412
:1012A0004009B7FF0895821B930B0895EE0FFF1FAF
:1012B0000590F491E02D09940E94D00988F09F5781
:1012C00098F0B92F9927B751B0F0E1F0660F771F6A
:1012D000881F991F1AF0BA95C9F714C0B13091F060
:1012E0000E94EA09B1E008950C94EA09672F782F6B
:1012F0008827B85F39F0B93FCCF386957795679525
:10130000B395D9F73EF490958095709561957F4F90
:101310008F4F9F4F0895E89409C097FB3EF4909536
:101320008095709561957F4F8F4F9F4F9923A9F0BE
:10133000F92F96E9BB279395F6958795779567954D
:10134000B795F111F8CFFAF4BB0F11F460FF1BC091
:101350006F5F7F4F8F4F9F4F16C0882311F096E924
:1013600011C0772321F09EE8872F762F05C06623D2
:1013700071F096E8862F70E060E02AF09A95660F8B
:10138000771F881FDAF7880F9695879597F9089544
:1013900057FD9058440F551F59F05F3F71F0479526
:1013A000880F97FB991F61F09F3F79F0879508950B
:1013B000121613061406551FF2CF4695F1DF08C02A
:1013C000161617061806991FF1CF86957105610547
:1013D00008940895E894BB2766277727CB0197F9EF
:1013E00008950E94040A0C94750A0E94670A38F056
:1013F0000E946E0A20F0952311F00C945E0A0C9462
:10140000640A11240C94EB090E94C80970F3959F9B
:10141000C1F3950F50E0551F629FF001729FBB27EB
:10142000F00DB11D639FAA27F00DB11DAA1F649F87
:101430006627B00DA11D661F829F2227B00DA11D3A
:10144000621F739FB00DA11D621F839FA00D611DC0
:10145000221F749F3327A00D611D231F849F600DE1
:10146000211D822F762F6A2F11249F5750409AF00A
:10147000F1F088234AF0EE0FFF1FBB1F661F771F96
:10148000881F91505040A9F79E3F510580F00C9461
:101490005E0A0C94EB095F3FE4F3983ED4F3869523
:1014A00077956795B795F795E7959F5FC1F7FE2B01
:1014B000880F911D9695879597F9089597F99F67DD
:1014C00080E870E060E008959FEF80EC08950024CC
:1014D0000A941616170618060906089500240A9499
:1014E00012161306140605060895092E0394000C1F
:1014F00011F4882352F0BB0F40F4BF2B11F460FFAE
:1015000004C06F5F7F4F8F4F9F4F089581E090E041
:0A151000F8940C948B0AF894FFCFB6
:10151A00A902A9023C000000000010018C00D900B9
:06152A00B700CB005701E1
:00000001FF
