:100000000C9493000C94C0040C9499040C94BB00C1
:100010000C94BB000C94BB000C94BB000C94BB0074
:100020000C94BB000C94BB000C94BB000C94BB0064
:100030000C94BB000C94BB000C94BB000C94BB0054
:100040000C944F040C94BB000C941D040C94F70307
:100050000C94BB000C94BB000C94BB000C94BB0034
:100060000C94BB000C94BB000000000800020100CF
:100070000003040700000000000000000000000072
:10008000250028002B0000000000240027002A0083
:10009000040404040404040402020202020203032E
:1000A0000303030301020408102040800102040836
:1000B00010200102040810205E01011F010303014A
:1000C000008A02010A010202010064001E47040BBB
:1000D0000906007C0101060103030100F401060E7C
:1000E0000102020100C20117010102020101960092
:1000F000023E0106060100C800038207100310003B
:10010000C800820710071003016D011201030101ED
:1001100003010E0124010102020101400124010139
:1001200002020101E70411241FBECFEFD8E0DEBFB9
:10013000CDBF11E0A0E0B1E0EEE4FFE002C0059029
:100140000D92A831B107D9F722E0A8E1B1E001C0D2
:100150001D92A536B207E1F710E0C3E9D0E004C074
:100160002197FE010E949F07C239D107C9F70E945B
:100170003E050C94A5070C94000090E0FC01EC55A2
:10018000FF4F249180579F4FFC018491882399F061
:1001900090E0880F991FFC01EA57FF4FA591B49199
:1001A000FC01E458FF4F859194918FB7F894EC913E
:1001B000E22BEC938FBF0895AF92BF92CF92DF9264
:1001C000EF92FF920F931F93CF93DF936C017B010C
:1001D0008B01040F151FEB015E01AE18BF08C0179D
:1001E000D10759F06991D601ED91FC910190F08110
:1001F000E02DC6010995892B79F7C501DF91CF91D3
:100200001F910F91FF90EF90DF90CF90BF90AF9034
:100210000895FC01538D448D252F30E0842F90E00C
:10022000821B930B541710F0CF96089501970895F1
:10023000FC01918D828D981761F0A28DAE0FBF2FBA
:10024000B11D5D968C91928D9F5F9F73928F90E010
:1002500008958FEF9FEF0895FC01918D828D98177F
:1002600031F0828DE80FF11D858D90E008958FEFBC
:100270009FEF0895FC01918D228D892F90E0805C85
:100280009F4F821B91098F739927089585EB91E009
:100290000E943A0121E0892B09F420E0822F089581
:1002A00080E090E0892B29F00E94460181110C9496
:1002B00000000895FC01A48DA80FB92FB11DA35A09
:1002C000BF4F2C91848D90E001968F739927848F76
:1002D000A689B7892C93A089B1898C918370806499
:1002E0008C93938D848D981306C00288F389E02D3A
:1002F00080818F7D80830895EF92FF920F931F93EB
:10030000CF93DF93EC0181E0888F9B8D8C8D9813C8
:100310001AC0E889F989808185FF15C09FB7F894D4
:10032000EE89FF896083E889F98980818370806420
:1003300080839FBF81E090E0DF91CF911F910F916B
:10034000FF90EF900895F62E0B8D10E00F5F1F4F7A
:100350000F731127E02E8C8D8E110CC00FB607FC89
:10036000FACFE889F989808185FFF5CFCE010E9417
:100370005A01F1CFEB8DEC0FFD2FF11DE35AFF4F2A
:10038000F0829FB7F8940B8FEA89FB8980818062A5
:10039000CFCFCF93DF93EC01888D8823B9F0AA8962
:1003A000BB89E889F9898C9185FD03C0808186FD30
:1003B0000DC00FB607FCF7CF8C9185FFF2CF80817F
:1003C00085FFEDCFCE010E945A01E9CFDF91CF9199
:1003D000089590E0FC01E859FF4F2491FC01EC5591
:1003E000FF4F3491FC01E057FF4FE491EE23C9F039
:1003F000222339F0233001F1A8F4213019F1223001
:1004000029F1F0E0EE0FFF1FE458FF4FA591B491E2
:100410008FB7F894EC91611126C030953E233C9340
:100420008FBF08952730A9F02830C9F0243049F74C
:10043000809180008F7D03C0809180008F778093B2
:100440008000DFCF84B58F7784BDDBCF84B58F7D0F
:10045000FBCF8091B0008F778093B000D2CF809196
:10046000B0008F7DF9CF3E2BDACF3FB7F894809163
:10047000AF019091B001A091B101B091B20126B548
:10048000A89B05C02F3F19F00196A11DB11D3FBFCC
:10049000BA2FA92F982F8827BC01CD01620F711D9B
:1004A000811D911D42E0660F771F881F991F4A9595
:1004B000D1F708958F929F92AF92BF92CF92DF9221
:1004C000EF92FF920E9435024B015C018CE2C82E34
:1004D000DD24D394E12CF12C0E94350268197909AE
:1004E0008A099B09683E734081059105A8F321E0C4
:1004F000C21AD108E108F10888EE880E83E0981E40
:10050000A11CB11CC114D104E104F10429F7FF902E
:10051000EF90DF90CF90BF90AF909F908F90089515
:1005200008952F923F924F925F926F927F928F9297
:100530009F92AF92BF92CF92DF92EF92FF920F9372
:100540001F93CF93DF93CDB7DEB765970FB6F894BF
:10055000DEBF0FBECDBF0E9435026B017C018091D2
:10056000A6019091A7012601481A590A4DEC44169C
:1005700040E1540608F4E0C08091A4019091A501E7
:10058000009789F020911E0130911F011201221A5B
:10059000330A910137FE03C0319521953109283C7A
:1005A00031050CF0C5C001969093A5018093A4017C
:1005B000029709F0BDC098EB692E90E0792E01E01A
:1005C00010E020901C0130901D013B862A8649E0F6
:1005D00050E0B301CE0101960E9482078B816C81AD
:1005E000681708F4682F70E080911E0190911F0138
:1005F0000E948B079B014091040150910501649F6B
:10060000C001659F900D749F900D112464E670E009
:100610000E948B078985A1E0B0E0882311F0A2E059
:10062000B0E08D81829FA001839F500D11245D87D2
:100630004C878E81829F1001839F300C11243F864E
:100640002E868F81829FA001839F500D1124598B8C
:10065000488B8885829F1001839F300C11243B8A30
:100660002A8AFD01EE0FFF1FE25EFE4F812C912CC6
:1006700054014A855B85415051095D8B4C8B8C89B7
:100680009D89A817B90708F040C0880C991CAA1CBE
:10069000BB1C80819181AC012C843D84421953099B
:1006A00057FF03C05195419551094617570770F4FC
:1006B000428153812E843F844219530957FF03C05E
:1006C00051954195510946175707E0F048895989D6
:1006D000841B950B97FF03C091958195910986170F
:1006E0009707C8F4828193812A883B8882199309ED
:1006F00097FF03C09195819591098617970758F444
:10070000689480F812963496BACF4A855B85483053
:10071000510508F053C00F5F1F4F59E0650E711C63
:100720000D30110509F04DCF1092A5011092A401D2
:1007300010921D0110921C0180911C0190911D01CD
:100740008334910540F010921D0110921C0110920B
:10075000A5011092A40180911C0190911D019C01A2
:100760002F5F3F4F30931D0120931C01880F991F6D
:10077000FC01E25EFE4F51824082C092A601D092FF
:10078000A701E092A801F092A90165960FB6F8942E
:10079000DEBF0FBECDBFDF91CF911F910F91FF90B4
:1007A000EF90DF90CF90BF90AF909F908F907F9011
:1007B0006F905F904F903F902F90089580925202DB
:1007C00090925302A0925402B09255022C883D8818
:1007D000369427943092B4012092B30130931B01D8
:1007E00020931A0110931901009318019DCF1F92B5
:1007F0000F920FB60F9211242F933F934F935F9355
:100800006F937F938F939F93AF93BF93EF93FF93D8
:1008100085EB91E00E945A01FF91EF91BF91AF915A
:100820009F918F917F916F915F914F913F912F9108
:100830000F900FBE0F901F9018951F920F920FB63A
:100840000F9211242F938F939F93EF93FF93E09137
:10085000C501F091C6018081E091CB01F091CC01FE
:1008600082FD1BC090818091CE018F5F8F7320919C
:10087000CF01821741F0E091CE01F0E0EB54FE4F42
:10088000958F8093CE01FF91EF919F918F912F9142
:100890000F900FBE0F901F9018958081F4CF1F927C
:1008A0000F920FB60F9211242F933F938F939F9324
:1008B000AF93BF938091AB019091AC01A091AD013A
:1008C000B091AE013091AA0123E0230F2D3758F5E6
:1008D0000196A11DB11D2093AA018093AB019093B5
:1008E000AC01A093AD01B093AE018091AF019091A6
:1008F000B001A091B101B091B2010196A11DB11D4D
:100900008093AF019093B001A093B101B093B20175
:10091000BF91AF919F918F913F912F910F900FBEFB
:100920000F901F90189526E8230F0296A11DB11D68
:10093000D2CF1F920F920FB60F9211242F933F9395
:100940004F935F936F937F938F939F93AF93BF93D7
:10095000EF93FF93E0910201F09103010995FF915C
:10096000EF91BF91AF919F918F917F916F915F9127
:100970004F913F912F910F900FBE0F901F901895A0
:100980001F920F920FB60F9211242F933F934F9304
:100990005F936F937F938F939F93AF93BF93EF93E7
:1009A000FF93E0910001F09101010995FF91EF9112
:1009B000BF91AF919F918F917F916F915F914F9177
:1009C0003F912F910F900FBE0F901F9018950F938E
:1009D0001F93CF93DF93E5EBF1E01382128288EE51
:1009E00093E0A0E0B0E084839583A683B7838AE098
:1009F00091E09183808385EC90E09587848784ECF7
:100A000090E09787868780EC90E0918B808B81ECDB
:100A100090E0938B828B82EC90E0958B848B86ECBC
:100A200090E0978B868B118E128E138E148EC6E5F6
:100A3000D2E00FEF1FEF1B830A838AE090E09D83D3
:100A40008C8349E050E068EB70E08CE592E00E9416
:100A50008207198308838CE390E0909305018093CB
:100A600004011092520210925302109254021092FA
:100A70005502DF91CF911F910F910895789484B51D
:100A8000826084BD84B5816084BD85B5826085BD8A
:100A900085B5816085BD80916E00816080936E0018
:100AA000109281008091810082608093810080910A
:100AB00081008160809381008091800081608093BB
:100AC00080008091B10084608093B1008091B0007B
:100AD00081608093B00080917A00846080937A0076
:100AE00080917A00826080937A0080917A008160A0
:100AF00080937A0080917A00806880937A001092C7
:100B0000C100E091C501F091C60182E08083E091CF
:100B1000C101F091C2011082E091C301F091C401C2
:100B20008FEC80831092CD01E091C901F091CA0150
:100B300086E08083E091C701F091C80180818061E7
:100B40008083E091C701F091C80180818860808333
:100B5000E091C701F091C801808180688083E091B5
:100B6000C701F091C80180818F7D80831092570268
:100B70001092560210925202109253021092540296
:100B8000109255021092B4011092B30181E992E0E3
:100B90009093010180930001809169008C7F8160B6
:100BA00080936900E89A49E050E068EB70E08CE5DA
:100BB00092E00E94820787EB90E090935D02809321
:100BC0005C0285E00E94BD0086E00E94BD0087E0D7
:100BD0000E94BD0088E00E94BD0089E00E94BD0027
:100BE0008AE00E94BD008BE00E94BD008CE00E9464
:100BF000BD008DE00E94BD00C0E0D0E080915202B7
:100C000090915302A0915402B0915502892B8A2BE6
:100C10008B2B09F4BBC0C0905202D0905302E090DD
:100C20005402F090550288ECC81682E5D8068DE093
:100C3000E806F10409F051C061E08DE00E94E9018D
:100C400061E085E00E94E9010E945A0260E08DE0C7
:100C50000E94E9010E945A028DECC81682E5D8066E
:100C60008DE0E806F10409F05FC061E08DE00E94CC
:100C7000E90160E087E00E94E9010E945A0260E019
:100C80008DE00E94E9010E945A0282EDC81682E5B9
:100C9000D8068DE0E806F10409F05FC061E08DE060
:100CA0000E94E90161E08AE00E94E9010E945A0283
:100CB00060E08DE00E94E9010E945A0287EDC816AB
:100CC00082E5D8068DE0E806F10409F05FC061E036
:100CD0008DE00E94E90160E0EDC089ECC81682E574
:100CE000D8068DE0E806F10431F461E08DE00E9461
:100CF000E90160E0A6CF8AECC81682E5D8068DE04F
:100D0000E806F10409F055C061E08DE00E94E901B8
:100D100061E086E00E94E9010E945A0260E08DE0F5
:100D20000E94E9010E945A028EECC81682E5D8069C
:100D30008DE0E806F10409F054C061E08DE00E9406
:100D4000E90161E088E00E94E9010E945A0260E046
:100D50008DE00E94E9010E945A0283EDC81682E5E7
:100D6000D8068DE0E806F10409F054C061E08DE09A
:100D70000E94E90160E08AE00E94E9010E945A02B3
:100D800060E08DE00E94E9010E945A021092520236
:100D9000109253021092540210925502209709F4B7
:100DA0002DCF0E944601882309F428CF0E9400001D
:100DB00025CF8BECC81682E5D8068DE0E806F10455
:100DC000C9F561E08DE00E94E90160E086E00E94E3
:100DD000E9010E945A0260E08DE00E94E9010E9450
:100DE0005A028FECC81682E5D8068DE0E806F104B9
:100DF00009F062C061E08DE00E94E90160E088E0F6
:100E00000E94E9010E945A0260E08DE00E94E9011F
:100E10000E945A0284EDC81682E5D8068DE0E806E5
:100E2000F10409F061C061E08DE00E94E90161E038
:100E30008BE0A2CF8CECC81682E5D8068DE0E806E0
:100E4000F10409F009CF61E08DE00E94E90161E061
:100E500087E00E94E9010E945A0260E08DE00E9452
:100E6000E9010E945A0281EDC81682E5D8068DE09C
:100E7000E806F10409F009CF61E08DE00E94E90184
:100E800060E089E00E94E9010E945A0260E08DE082
:100E90000E94E9010E945A0286EDC81682E5D80632
:100EA0008DE0E806F10409F009CF61E08DE00E94D1
:100EB000E90161E08CE060CF80EDC81682E5D806DC
:100EC0008DE0E806F10479F661E08DE00E94E90129
:100ED00061E089E00E94E9010E945A0260E08DE031
:100EE0000E94E9010E945A0285EDC81682E5D806E3
:100EF0008DE0E806F10481F661E08DE00E94E901F1
:100F000060E096CFFB01DC0102C005900D924150DC
:100F10005040D8F70895AA1BBB1B51E107C0AA1F78
:100F2000BB1FA617B70710F0A61BB70B881F991F8A
:100F30005A95A9F780959095BC01CD010895EE0FC3
:0E0F4000FF1F0590F491E02D0994F894FFCF67
:100F4E00900290023C00000000007C01DC000901D0
:080F5E00C9013A0118012C0140
:00000001FF
