:020000040000FA
:100000000C9498000C9474050C944D050C94C0004D
:100010000C94C0000C94C0000C94C0000C94C00060
:100020000C94C0000C94C0000C94C0000C94C00050
:100030000C94C0000C94C0000C94C0000C94C00040
:100040000C9403050C94C0000C94D1040C94AB04E4
:100050000C94C0000C94C0000C94C0000C94C00020
:100060000C94C0000C94C000000000002400270085
:100070002A0000000000250028002B0000000000DE
:1000800023002600290004040404040404040202DA
:100090000202020203030303030301020408102007
:1000A0004080010204081020010204081020000012
:1000B0000008000201000003040700000000000027
:1000C00000005E01011F01030301008A02010A0111
:1000D0000202010064001E47040B0906007C0101B6
:1000E000060103030100F401060E0102020100C231
:1000F00001170101020201019600023E01060601FC
:1001000000C80003820710031000C8008207100710
:100110001003016D01120103010103010E0124010D
:100120000102020101400124010102020101BE0598
:1001300011241FBECFEFD8E0DEBFCDBF11E0A0E09D
:10014000B1E0E8E0F1E102C005900D92AA31B107FB
:10015000D9F722E0AAE1B1E001C01D92A33AB207AB
:10016000E1F710E0C8E9D0E004C02197FE010E9449
:100170007C08C739D107C9F70E9420060C94820871
:100180000C940000AF92BF92CF92DF92EF92FF9259
:100190000F931F93CF93DF936C017B018B01040FAF
:1001A000151FEB015E01AE18BF08C017D10759F04B
:1001B0006991D601ED91FC910190F081E02DC6018D
:1001C0000995892B79F7C501DF91CF911F910F9187
:1001D000FF90EF90DF90CF90BF90AF900895FC011B
:1001E000538D448D252F30E0842F90E0821B930B9C
:1001F000541710F0CF96089501970895FC01918D42
:10020000828D981761F0A28DAE0FBF2FB11D5D9644
:100210008C91928D9F5F9F73928F90E008958FEFE6
:100220009FEF0895FC01918D828D981731F0828D9A
:10023000E80FF11D858D90E008958FEF9FEF0895F1
:10024000FC01918D228D892F90E0805C9F4F821B55
:1002500091098F739927089587EC91E00E942001FE
:1002600021E0892B09F420E0822F089580E090E0BE
:10027000892B29F00E942C0181110C940000089513
:10028000FC01A48DA80FB92FB11DA35ABF4F2C910B
:10029000848D90E001968F739927848FA689B78902
:1002A0002C93A089B1898C91837080648C93938DF9
:1002B000848D981306C00288F389E02D80818F7D9C
:1002C00080830895EF92FF920F931F93CF93DF9354
:1002D000EC0181E0888F9B8D8C8D98131AC0E88982
:1002E000F989808185FF15C09FB7F894EE89FF8951
:1002F0006083E889F98980818370806480839FBFEF
:1003000081E090E0DF91CF911F910F91FF90EF90EE
:100310000895F62E0B8D10E00F5F1F4F0F731127FE
:10032000E02E8C8D8E110CC00FB607FCFACFE88939
:10033000F989808185FFF5CFCE010E944001F1CF80
:10034000EB8DEC0FFD2FF11DE35AFF4FF0829FB7AD
:10035000F8940B8FEA89FB8980818062CFCFCF939D
:10036000DF93EC01888D8823B9F0AA89BB89E889DD
:10037000F9898C9185FD03C0808186FD0DC00FB683
:1003800007FCF7CF8C9185FFF2CF808185FFEDCF01
:10039000CE010E944001E9CFDF91CF9108958330D3
:1003A00081F028F4813099F08230A9F008958730E7
:1003B000A9F08830C9F08430B1F4809180008F7D3D
:1003C00003C0809180008F7780938000089584B56A
:1003D0008F7784BD089584B58F7DFBCF8091B00069
:1003E0008F778093B00008958091B0008F7DF9CF12
:1003F000CF93DF93282F30E0F901E255FF4F84912E
:10040000F901E656FF4FD491F901EA57FF4FC49125
:10041000CC23A1F081110E94CF01EC2FF0E0EE0F70
:10042000FF1FE458FF4FA591B491EC91ED2381E0BB
:1004300090E009F480E0DF91CF91089580E090E0B2
:10044000FACF1F93CF93DF93282F30E0F901E255C5
:10045000FF4F8491F901E656FF4FD491F901EA5715
:10046000FF4FC491CC23A9F0162F81110E94CF0118
:10047000EC2FF0E0EE0FFF1FEE58FF4FA591B49167
:100480008FB7F894EC91111108C0D095DE23DC935E
:100490008FBFDF91CF911F910895DE2BF8CFCF93BF
:1004A000DF9390E0FC01E656FF4F24918A579F4F5F
:1004B000FC0184918823C9F090E0880F991FFC010A
:1004C000E859FF4FA591B491FC01EE58FF4FC5913B
:1004D000D49161110DC09FB7F8948C91209582231F
:1004E0008C938881282328839FBFDF91CF91089523
:1004F000623051F49FB7F8943C91822F809583230A
:100500008C93E8812E2BEFCF8FB7F894EC912E2BA4
:100510002C938FBFEACF3FB7F8948091AD019091B3
:10052000AE01A091AF01B091B00126B5A89B05C066
:100530002F3F19F00196A11DB11D3FBFBA2FA92F62
:10054000982F8827BC01CD01620F711D811D911D5F
:1005500042E0660F771F881F991F4A95D1F70895CB
:100560008F929F92AF92BF92CF92DF92EF92FF92C3
:100570004B015C010E948B026B017C010E948B028B
:100580006C197D098E099F09683E734081059105AC
:10059000A8F321E0821A9108A108B10888EEC80EDC
:1005A00083E0D81EE11CF11C81149104A104B10464
:1005B00029F7FF90EF90DF90CF90BF90AF909F9082
:1005C0008F90089508950F931F93CF93DF93EC01BD
:1005D00088810E94F8012FB7F8944091B30150919F
:1005E000B4016091B5017091B6012FBF2889398996
:1005F0002817390731F04A8B5B8B6C8B7D8B998B7D
:10060000888B0A891B892C893D89401B510B620B01
:10061000730B0A811B812C813D81401751076207B2
:10062000730730F02E853F853D872C879F878E8707
:100630002C853D858E859F852817390781F04A8551
:100640005B854230510581F48E819F81A885B985F3
:100650000196A11DB11D8E839F83A887B987DF9165
:10066000CF911F910F9108954115510531F421301B
:100670003105A9F7892B41F3F2CF4130510579F7C4
:10068000232B69F7019759F7DFCF2F923F924F92B3
:100690005F926F927F928F929F92AF92BF92CF9212
:1006A000DF92EF92FF920F931F93CF93DF93CDB71B
:1006B000DEB765970FB6F894DEBF0FBECDBF0E94C0
:1006C0008B026B017C018091A8019091A901260108
:1006D000481A590A4DEC441640E1540608F4E0C0AB
:1006E0008091A6019091A701009789F020912001A7
:1006F000309121011201221A330A910137FE03C001
:10070000319521953109283C31050CF0C5C0019681
:100710009093A7018093A601029709F0BDC092ECC7
:10072000692E90E0792E01E010E020901E013090BB
:100730001F013B862A8649E050E0B301CE010196B5
:100740000E945F088B816C81681708F4682F70E045
:1007500080912001909121010E9468089B014091A5
:10076000060150910701649FC001659F900D749F21
:10077000900D112464E670E00E9468088985A1E06C
:10078000B0E0882311F0A2E0B0E08D81829FA0014B
:10079000839F500D11245D874C878E81829F1001AD
:1007A000839F300C11243F862E868F81829FA0016B
:1007B000839F500D1124598B488B8885829F10018F
:1007C000839F300C11243B8A2A8AFD01EE0FFF1F04
:1007D000E05EFE4F812C912C54014A855B8541508F
:1007E00051095D8B4C8B8C899D89A817B90708F03E
:1007F00040C0880C991CAA1CBB1C80819181AC0153
:100800002C843D844219530957FF03C051954195EB
:1008100051094617570770F4428153812E843F8453
:100820004219530957FF03C0519541955109461785
:100830005707E0F048895989841B950B97FF03C03F
:1008400091958195910986179707C8F482819381C4
:100850002A883B888219930997FF03C09195819557
:1008600091098617970758F4689480F81296349681
:10087000BACF4A855B854830510508F053C00F5FF9
:100880001F4F59E0650E711C0D30110509F04DCF59
:100890001092A7011092A60110921F0110921E0142
:1008A00080911E0190911F018334910540F01092B8
:1008B0001F0110921E011092A7011092A6018091B3
:1008C0001E0190911F019C012F5F3F4F30931F012C
:1008D00020931E01880F991FFC01E05EFE4F51829C
:1008E0004082C092A801D092A901E092AA01F092A0
:1008F000AB0165960FB6F894DEBF0FBECDBFDF919A
:10090000CF911F910F91FF90EF90DF90CF90BF900C
:10091000AF909F908F907F906F905F904F903F909F
:100920002F9008958092640290926502A0926602D0
:10093000B09267022C883D88369427943092B20199
:100940002092B10130931D0120931C0110931B01D3
:1009500000931A019DCF1F920F920FB60F92112490
:100960002F933F934F935F936F937F938F939F93B7
:10097000AF93BF93EF93FF9387EC91E00E94400108
:10098000FF91EF91BF91AF919F918F917F916F9167
:100990005F914F913F912F910F900FBE0F901F903D
:1009A00018951F920F920FB60F9211242F938F93C9
:1009B0009F93EF93FF93E091D701F091D80180814D
:1009C000E091DD01F091DE0182FD1BC090818091FC
:1009D000E0018F5F8F732091E101821741F0E09178
:1009E000E001F0E0E953FE4F958F8093E001FF9125
:1009F000EF919F918F912F910F900FBE0F901F90AD
:100A000018958081F4CF1F920F920FB60F92112488
:100A10002F933F938F939F93AF93BF938091B30195
:100A20009091B401A091B501B091B6013091AC01A3
:100A300023E0230F2D3758F50196A11DB11D2093FA
:100A4000AC018093B3019093B401A093B501B0932E
:100A5000B6018091AD019091AE01A091AF01B0912E
:100A6000B0010196A11DB11D8093AD019093AE011F
:100A7000A093AF01B093B001BF91AF919F918F91BF
:100A80003F912F910F900FBE0F901F90189526E861
:100A9000230F0296A11DB11DD2CF1F920F920FB648
:100AA0000F9211242F933F934F935F936F937F93F4
:100AB0008F939F93AF93BF93EF93FF93E0910201C6
:100AC000F09103010995FF91EF91BF91AF919F9133
:100AD0008F917F916F915F914F913F912F910F90E7
:100AE0000FBE0F901F9018951F920F920FB60F9286
:100AF00011242F933F934F935F936F937F938F9323
:100B00009F93AF93BF93EF93FF93E0910001F09118
:100B100001010995FF91EF91BF91AF919F918F9145
:100B20007F916F915F914F913F912F910F900FBEE9
:100B30000F901F901895CF93DF93EC01862F688359
:100B400079831A821B821C821D821E821F82188654
:100B500019861B861A8662E00E944F0288810E94D5
:100B6000F8019D878C879F878E87998B888B1A8A3F
:100B70001B8A1C8A1D8ADF91CF9108950F931F93C2
:100B8000CF93DF93E7ECF1E01382128288EE93E0DB
:100B9000A0E0B0E084839583A683B7838CE091E0E6
:100BA0009183808385EC90E09587848784EC90E046
:100BB0009787868780EC90E0918B808B81EC90E02A
:100BC000938B828B82EC90E0958B848B86EC90E00B
:100BD000978B868B118E128E138E148EC4E9D2E001
:100BE0000FEF1FEF1B830A838AE090E09D838C83C5
:100BF00049E050E062EC70E08AE992E00E945F0810
:100C0000198308838CE390E0909307018093060199
:100C100010926402109265021092660210926702AE
:100C200065E070E08EE792E00E949B0566E070E070
:100C300088E692E0DF91CF911F910F910C949B0574
:100C4000789484B5826084BD84B5816084BD85B5A7
:100C5000826085BD85B5816085BD80916E008160B3
:100C600080936E0010928100809181008260809359
:100C7000810080918100816080938100809180005B
:100C80008160809380008091B10084608093B10086
:100C90008091B00081608093B00080917A00846080
:100CA00080937A0080917A00826080937A008091AC
:100CB0007A00816080937A0080917A0080688093C6
:100CC0007A001092C100E091D701F091D80182E042
:100CD0008083E091D301F091D4011082E091D5019D
:100CE000F091D6018FEC80831092DF01E091DB015F
:100CF000F091DC0186E08083E091D901F091DA0186
:100D0000808180618083E091D901F091DA01808156
:100D100088608083E091D901F091DA018081806858
:100D20008083E091D901F091DA0180818F7D808309
:100D300061E089E00E944F0260E089E00E942102A8
:100D400061E08AE00E944F0260E08AE00E94210296
:100D500061E08BE00E944F0260E08BE00E94210284
:100D600064EF71E080E090E00E94B00262E085E014
:100D70000E944F0262E086E00E944F0282E390E010
:100D8000A0E0B0E08093800290938102A093820261
:100D9000B093830280936A0290936B02A0936C02DB
:100DA000B0936D0264EF71E080E090E00E94B002C9
:100DB00010929502109294021092640210926502B1
:100DC00010926602109267021092B2011092B10165
:100DD00085E493E090930101809300018091690084
:100DE0008C7F816080936900E89A49E050E062EC72
:100DF00070E08AE992E00E945F0887EB90E09093B0
:100E00009B0280939A0200E010E0C1E0D0E08EE700
:100E100092E00E94E30288E692E00E94E302809161
:100E20008C0290918D02880F991F2091760230914B
:100E30007702822B932B20910401309105018217B8
:100E40009307B9F02FB7F8944091B3015091B401D2
:100E50006091B5017091B6012FBF4093BB015093D3
:100E6000BC016093BD017093BE0190930501809316
:100E700004012FB7F8944091B3015091B4016091EF
:100E8000B5017091B6012FBFC090BB01D090BC01DD
:100E9000E090BD01F090BE014C195D096E097F091B
:100EA000403551056105710520F09093BA0180939A
:100EB000B9018091B9019091BA012091B7013091A7
:100EC000B80128173907B1F08130910509F04AC0FF
:100ED0009093C6018093C50121E030E04091C301A9
:100EE0005091C401452B11F030E020E03093C40153
:100EF0002093C3019093B8018093B701809164025D
:100F000090916502A0916602B0916702892B8A2BAD
:100F10008B2B09F47CC08091640290916502A091B2
:100F20006602B09167028B3026E392072BE0A2079E
:100F3000B10509F044C0D093C601C093C501D09358
:100F4000C401C093C30180319643AB40B10509F0A1
:100F500056C0D093C601C093C5011092C001109233
:100F6000BF014DC08230910599F4D093C601C09362
:100F7000C50121E030E04091C1015091C201452BF3
:100F800011F030E020E03093C2012093C101B2CFD4
:100F90008330910509F0AECFD093C601C093C5014F
:100FA00021E030E04091BF015091C001452B11F08C
:100FB00030E020E03093C0012093BF019BCF8C3004
:100FC00026E392072BE0A207B10549F4D093C601AE
:100FD000C093C5011092C4011092C301B4CF8D30EB
:100FE00026E392072BE0A207B10509F047C0D09392
:100FF000C601C093C501D093C201C093C101109234
:10100000640210926502109266021092670280914B
:10101000C5019091C601019729F56091C30189E04E
:101020000E9421026BE470E080E090E00E94B00238
:101030006091C1018AE00E9421026BE470E080E0CF
:1010400090E00E94B0026091BF018BE00E942102FB
:101050006BE470E080E090E00E94B0021092C60164
:101060001092C5010115110509F4D1CE0E942C0181
:10107000882309F4CCCE0E940000C9CE8E3026E32E
:1010800092072BE0A207B10549F4D093C601C093A3
:10109000C5011092C2011092C101B1CF8F3026E379
:1010A00092072BE0A207B10509F04DCFD093C601FE
:1010B000C093C501D093C001C093BF01A0CFFB0175
:1010C000DC0102C005900D9241505040D8F70895C0
:1010D000AA1BBB1B51E107C0AA1FBB1FA617B7075E
:1010E00010F0A61BB70B881F991F5A95A9F780957A
:1010F0009095BC01CD010895EE0FFF1F0590F4916E
:10110000E02D0994F894FFCFE202E202FFFF3C00D9
:10111000000000006201C200EF00AF012001FE00EC
:021120001201BA
:107E0000112484B714BE81FFF0D085E080938100F7
:107E100082E08093C00088E18093C10086E0809377
:107E2000C20080E18093C4008EE0C9D0259A86E02C
:107E300020E33CEF91E0309385002093840096BBD3
:107E4000B09BFECF1D9AA8958150A9F7CC24DD24C4
:107E500088248394B5E0AB2EA1E19A2EF3E0BF2EE7
:107E6000A2D0813461F49FD0082FAFD0023811F036
:107E7000013811F484E001C083E08DD089C08234E0
:107E800011F484E103C0853419F485E0A6D080C0E4
:107E9000853579F488D0E82EFF2485D0082F10E0AE
:107EA000102F00270E291F29000F111F8ED06801E7
:107EB0006FC0863521F484E090D080E0DECF843638
:107EC00009F040C070D06FD0082F6DD080E0C81688
:107ED00080E7D80618F4F601B7BEE895C0E0D1E017
:107EE00062D089930C17E1F7F0E0CF16F0E7DF06D8
:107EF00018F0F601B7BEE89568D007B600FCFDCFD4
:107F0000A601A0E0B1E02C9130E011968C91119780
:107F100090E0982F8827822B932B1296FA010C0160
:107F200087BEE89511244E5F5F4FF1E0A038BF0790
:107F300051F7F601A7BEE89507B600FCFDCF97BE46
:107F4000E89526C08437B1F42ED02DD0F82E2BD052
:107F50003CD0F601EF2C8F010F5F1F4F84911BD097
:107F6000EA94F801C1F70894C11CD11CFA94CF0C13
:107F7000D11C0EC0853739F428D08EE10CD085E9AC
:107F80000AD08FE07ACF813511F488E018D01DD067
:107F900080E101D065CF982F8091C00085FFFCCF94
:107FA0009093C60008958091C00087FFFCCF809118
:107FB000C00084FD01C0A8958091C6000895E0E648
:107FC000F0E098E1908380830895EDDF803219F02E
:107FD00088E0F5DFFFCF84E1DECF1F93182FE3DFCA
:107FE0001150E9F7F2DF1F91089580E0E8DFEE27F6
:047FF000FF270994CA
:027FFE00040479
:00000001FF
