:020000040000FA
:100000000C9498000C94AD030C9486030C94C000DF
:100010000C94C0000C94C0000C94C0000C94C00060
:100020000C94C0000C94C0000C94C0000C94C00050
:100030000C94C0000C94C0000C94C0000C94C00040
:100040000C943C030C94C0000C94C0000C94C000B1
:100050000C94C0000C94C0000C94C0000C94C00020
:100060000C94C0000C94C000000000002400270085
:100070002A0000000000250028002B0000000000DE
:1000800023002600290004040404040404040202DA
:100090000202020203030303030301020408102007
:1000A0004080010204081020010204081020000012
:1000B0000008000201000003040700000000000027
:1000C00000005E01011F01030301008A02010A0111
:1000D0000202010064001E47040B0906007C0101B6
:1000E000060103030100F401060E0102020100C231
:1000F00001170101020201019600023E01060601FC
:1001000000C80003820710031000C8008207100710
:100110001003016D01120103010103010E0124010D
:1001200001020201014001240101020201018A05CC
:1001300011241FBECFEFD8E0DEBFCDBF11E0A0E09D
:10014000B1E0E4EFFBE002C005900D92A630B107EC
:10015000D9F721E0A6E0B1E001C01D92A03DB207B1
:10016000E1F710E0C8E9D0E004C02197FE010E9449
:10017000F205C739D107C9F70E94D4030C94F805DA
:100180000C940000833081F028F4813099F08230A3
:10019000A9F008958730A9F08830C9F08430B1F40F
:1001A000809180008F7D03C0809180008F77809345
:1001B0008000089584B58F7784BD089584B58F7DC0
:1001C000FBCF8091B0008F778093B000089580912D
:1001D000B0008F7DF9CFCF93DF93282F30E0F90166
:1001E000E255FF4F8491F901E656FF4FD491F90192
:1001F000EA57FF4FC491CC23A1F081110E94C200A5
:10020000EC2FF0E0EE0FFF1FE458FF4FA591B491E3
:10021000EC91ED2381E090E009F480E0DF91CF9153
:10022000089580E090E0FACF1F93CF93DF93282FBB
:1002300030E0F901E255FF4F8491F901E656FF4F96
:10024000D491F901EA57FF4FC491CC23A9F0162F9E
:1002500081110E94C200EC2FF0E0EE0FFF1FEE585C
:10026000FF4FA591B4918FB7F894EC91111108C08C
:10027000D095DE23DC938FBFDF91CF911F9108953E
:10028000DE2BF8CFCF93DF9390E0FC01E656FF4FD3
:1002900024918A579F4FFC0184918823C9F090E0F4
:1002A000880F991FFC01E859FF4FA591B491FC01FB
:1002B000EE58FF4FC591D49161110DC09FB7F894CE
:1002C0008C91209582238C938881282328839FBF3B
:1002D000DF91CF910895623051F49FB7F8943C912B
:1002E000822F809583238C93E8812E2BEFCF8FB7BD
:1002F000F894EC912E2B2C938FBFEACF3FB7F89454
:100300008091990190919A01A0919B01B0919C01DB
:1003100026B5A89B05C02F3F19F00196A11DB11D60
:100320003FBFBA2FA92F982F8827BC01CD01620F9C
:10033000711D811D911D42E0660F771F881F991F57
:100340004A95D1F708958F929F92AF92BF92CF9224
:10035000DF92EF92FF924B015C010E947E016B01E4
:100360007C010E947E016C197D098E099F09683EFF
:10037000734081059105A8F321E0821A9108A10834
:10038000B10888EEC80E83E0D81EE11CF11C811470
:100390009104A104B10429F7FF90EF90DF90CF9072
:1003A000BF90AF909F908F90089508952F923F92A5
:1003B0004F925F926F927F928F929F92AF92BF9275
:1003C000CF92DF92EF92FF920F931F93CF93DF9321
:1003D000CDB7DEB765970FB6F894DEBF0FBECDBFC1
:1003E0000E947E016B017C018091940190919501A6
:1003F0002601481A590A4DEC441640E1540608F407
:10040000E0C08091920190919301009789F0209132
:100410000C0130910D011201221A330A910137FEAD
:1004200003C0319521953109283C31050CF0C5C038
:1004300001969093930180939201029709F0BDC0B9
:1004400092EC692E90E0792E01E010E020900A01F4
:1004500030900B013B862A8649E050E0B301CE0183
:1004600001960E94D5058B816C81681708F4682F6E
:1004700070E080910C0190910D010E94DE059B01BE
:100480004091000150910101649FC001659F900D52
:10049000749F900D112464E670E00E94DE0589854A
:1004A000A1E0B0E0882311F0A2E0B0E08D81829F4E
:1004B000A001839F500D11245D874C878E81829F00
:1004C0001001839F300C11243F862E868F81829FDE
:1004D000A001839F500D1124598B488B8885829FE2
:1004E0001001839F300C11243B8A2A8AFD01EE0FF4
:1004F000FF1FE45FFE4F812C912C54014A855B85E0
:10050000415051095D8B4C8B8C899D89A817B90787
:1005100008F040C0880C991CAA1CBB1C80819181EA
:10052000AC012C843D844219530957FF03C05195F7
:10053000419551094617570770F4428153812E8423
:100540003F844219530957FF03C051954195510902
:1005500046175707E0F048895989841B950B97FF88
:1005600003C091958195910986179707C8F48281F8
:1005700093812A883B888219930997FF03C091953C
:10058000819591098617970758F4689480F8129618
:100590003496BACF4A855B854830510508F053C080
:1005A0000F5F1F4F59E0650E711C0D30110509F0EA
:1005B0004DCF109293011092920110920B01109264
:1005C0000A0180910A0190910B018334910540F05A
:1005D00010920B0110920A01109293011092920155
:1005E00080910A0190910B019C012F5F3F4F309346
:1005F0000B0120930A01880F991FFC01E45FFE4F55
:1006000051824082C0929401D0929501E09296016D
:10061000F092970165960FB6F894DEBF0FBECDBF7E
:10062000DF91CF911F910F91FF90EF90DF90CF90CE
:10063000BF90AF909F908F907F906F905F904F9002
:100640003F902F9008958092B9019092BA01A092A4
:10065000BB01B092BC012C883D883694279430921F
:100660009E0120929D01309309012093080110936F
:100670000701009306019DCF1F920F920FB60F92B4
:1006800011242F933F938F939F93AF93BF938091A8
:100690009F019091A001A091A101B091A201309180
:1006A000980123E0230F2D3758F50196A11DB11DA8
:1006B0002093980180939F019093A001A093A101A2
:1006C000B093A2018091990190919A01A0919B0110
:1006D000B0919C010196A11DB11D80939901909349
:1006E0009A01A0939B01B0939C01BF91AF919F9100
:1006F0008F913F912F910F900FBE0F901F901895E3
:1007000026E8230F0296A11DB11DD2CF1F920F9292
:100710000FB60F9211242F933F934F935F936F93D4
:100720007F938F939F93AF93BF93EF93FF93E0914A
:100730000401F09105010995FF91EF91BF91AF91EF
:100740009F918F917F916F915F914F913F912F91E9
:100750000F900FBE0F901F9018951F920F920FB61B
:100760000F9211242F933F934F935F936F937F9337
:100770008F939F93AF93BF93EF93FF93E091020109
:10078000F09103010995FF91EF91BF91AF919F9176
:100790008F917F916F915F914F913F912F910F902A
:1007A0000FBE0F901F901895789484B5826084BD19
:1007B00084B5816084BD85B5826085BD85B5816065
:1007C00085BD80916E00816080936E0010928100E3
:1007D000809181008260809381008091810081609E
:1007E000809381008091800081608093800080915F
:1007F000B10084608093B1008091B00081608093EB
:10080000B00080917A00846080937A0080917A00B1
:10081000826080937A0080917A00816080937A0070
:1008200080917A00806880937A001092C10062E023
:1008300086E00E9442018BE490E0A0E0B0E080936B
:10084000A5019093A601A093A701B093A80161E030
:1008500084E00E94420161E08DE00E94420160E07C
:1008600084E00E94140161E08DE00E94140164EFB5
:1008700071E080E090E00E94A3011092BE0110920E
:10088000BD011092B9011092BA011092BB011092F1
:10089000BC0110929E0110929D0186ED91E0909313
:1008A000030180930201809169008C7F81608093B5
:1008B0006900E89A49E050E062EC70E083EC91E076
:1008C0000E94D50587EB90E09093C4018093C3010B
:1008D00060E08DE00E94140100E010E0C1E0D0E093
:1008E0008091A3010E94EB002FB7F89440919F01E3
:1008F0005091A0016091A1017091A2012FBF2091A0
:10090000B3013091B4018217930761F04093B501B0
:100910005093B6016093B7017093B8019093B401FE
:100920008093B301C090B501D090B601E090B701BB
:10093000F090B8014C195D096E097F09C090A501BE
:10094000D090A601E090A701F090A8014C155D059C
:100950006E057F0560F02091B1013091B2013093B6
:10096000B0012093AF019093B2018093B101209127
:10097000AF013091B0018091B1019091B20128177F
:10098000390709F46DC04091AD015091AE0142307C
:100990005105D9F44091A9015091AA016091AB0190
:1009A0007091AC014F5F5F4F6F4F7F4F4093A90134
:1009B0005093AA016093AB017093AC0121303105D3
:1009C00009F04EC0892BF1F04BC04115510569F576
:1009D0002130310509F044C0892B09F041C08091D4
:1009E000A9019091AA01A091AB01B091AC0101962F
:1009F000A11DB11D8093A9019093AA01A093AB0101
:100A0000B093AC0181E090E02091CC013091CD0118
:100A1000232B11F090E080E09093CD018093CC01E6
:100A2000D093CF01C093CE011BC04130510531F6A8
:100A30002115310519F6019799F48091A90190913A
:100A4000AA01A091AB01B091AC010196A11DB11D0D
:100A50008093A9019093AA01A093AB01B093AC013C
:100A60008091B9019091BA01A091BB01B091BC01F4
:100A7000892B8A2B8B2BF9F08091B9019091BA01C7
:100A8000A091BB01B091BC018F3C2BEB92072CE0F5
:100A9000A207B10589F5D093CF01C093CE01D093C1
:100AA000CD01C093CC011092B9011092BA011092FD
:100AB000BB011092BC018091CE019091CF010197B2
:100AC000A1F4F090CC016F2D84E00E9414016F2DF1
:100AD0008DE00E94140164E670E080E090E00E94E6
:100AE000A3011092CF011092CE010115110509F456
:100AF000F7CE0E940000F4CE803D9B4BAC40B10588
:100B000091F6D093CF01C093CE011092CD011092F7
:100B1000CC01C9CF0F931F93CF93DF93CDEBD1E0DF
:100B20000FEF1FEF1B830A838AE090E09D838C8385
:100B300049E050E062EC70E083EC91E00E94D50562
:100B4000198308838CE390E0909301018093000166
:100B50001092B9011092BA011092BB011092BC011F
:100B6000C3EAD1E086E090E0998388831A821B82F1
:100B70001C821D821E821F82188619861B861A8679
:100B800062E00E94420188810E94EB009D878C8771
:100B90009F878E87998B888B1A8A1B8A1C8A1D8A4D
:100BA000DF91CF911F910F910895FB01DC0102C0ED
:100BB00005900D9241505040D8F70895AA1BBB1BD9
:100BC00051E107C0AA1FBB1FA617B70710F0A61B4D
:100BD000B70B881F991F5A95A9F780959095BC016E
:100BE000CD010895EE0FFF1F0590F491E02D0994BB
:0A0BF000F894FFCF3C00D501D501B9
:107E0000112484B714BE81FFF0D085E080938100F7
:107E100082E08093C00088E18093C10086E0809377
:107E2000C20080E18093C4008EE0C9D0259A86E02C
:107E300020E33CEF91E0309385002093840096BBD3
:107E4000B09BFECF1D9AA8958150A9F7CC24DD24C4
:107E500088248394B5E0AB2EA1E19A2EF3E0BF2EE7
:107E6000A2D0813461F49FD0082FAFD0023811F036
:107E7000013811F484E001C083E08DD089C08234E0
:107E800011F484E103C0853419F485E0A6D080C0E4
:107E9000853579F488D0E82EFF2485D0082F10E0AE
:107EA000102F00270E291F29000F111F8ED06801E7
:107EB0006FC0863521F484E090D080E0DECF843638
:107EC00009F040C070D06FD0082F6DD080E0C81688
:107ED00080E7D80618F4F601B7BEE895C0E0D1E017
:107EE00062D089930C17E1F7F0E0CF16F0E7DF06D8
:107EF00018F0F601B7BEE89568D007B600FCFDCFD4
:107F0000A601A0E0B1E02C9130E011968C91119780
:107F100090E0982F8827822B932B1296FA010C0160
:107F200087BEE89511244E5F5F4FF1E0A038BF0790
:107F300051F7F601A7BEE89507B600FCFDCF97BE46
:107F4000E89526C08437B1F42ED02DD0F82E2BD052
:107F50003CD0F601EF2C8F010F5F1F4F84911BD097
:107F6000EA94F801C1F70894C11CD11CFA94CF0C13
:107F7000D11C0EC0853739F428D08EE10CD085E9AC
:107F80000AD08FE07ACF813511F488E018D01DD067
:107F900080E101D065CF982F8091C00085FFFCCF94
:107FA0009093C60008958091C00087FFFCCF809118
:107FB000C00084FD01C0A8958091C6000895E0E648
:107FC000F0E098E1908380830895EDDF803219F02E
:107FD00088E0F5DFFFCF84E1DECF1F93182FE3DFCA
:107FE0001150E9F7F2DF1F91089580E0E8DFEE27F6
:047FF000FF270994CA
:027FFE00040479
:00000001FF
