:100000000C9498000C94AE030C9487030C94C000DD
:100010000C94C0000C94C0000C94C0000C94C00060
:100020000C94C0000C94C0000C94C0000C94C00050
:100030000C94C0000C94C0000C94C0000C94C00040
:100040000C943D030C94C0000C94C0000C94C000B0
:100050000C94C0000C94C0000C94C0000C94C00020
:100060000C94C0000C94C000000000002400270085
:100070002A0000000000250028002B0000000000DE
:1000800023002600290004040404040404040202DA
:100090000202020203030303030301020408102007
:1000A0004080010204081020010204081020000012
:1000B0000008000201000003040700000000000027
:1000C00000005E01011F01030301008A02010A0111
:1000D0000202010064001E47040B0906007C0101B6
:1000E000060103030100F401060E0102020100C231
:1000F00001170101020201019600023E01060601FC
:1001000000C80003820710031000C8008207100710
:100110001003016D01120103010103010E0124010D
:100120000102020101400124010102020101520504
:1001300011241FBECFEFD8E0DEBFCDBF11E0A0E09D
:10014000B1E0ECE6FBE002C005900D92A630B107ED
:10015000D9F721E0A6E0B1E001C01D92A23CB207B0
:10016000E1F710E0C8E9D0E004C02197FE010E9449
:10017000AE05C739D107C9F70E94D5030C94B40561
:100180000C940000833081F028F4813099F08230A3
:10019000A9F008958730A9F08830C9F08430B1F40F
:1001A000809180008F7D03C0809180008F77809345
:1001B0008000089584B58F7784BD089584B58F7DC0
:1001C000FBCF8091B0008F778093B000089580912D
:1001D000B0008F7DF9CFCF93DF93282F30E0F90166
:1001E000E255FF4F8491F901E656FF4FD491F90192
:1001F000EA57FF4FC491CC23A1F081110E94C200A5
:10020000EC2FF0E0EE0FFF1FE458FF4FA591B491E3
:10021000EC91ED2381E090E009F480E0DF91CF9153
:10022000089580E090E0FACF1F93CF93DF93282FBB
:1002300030E0F901E255FF4F8491F901E656FF4F96
:10024000D491F901EA57FF4FC491CC23A9F0162F9E
:1002500081110E94C200EC2FF0E0EE0FFF1FEE585C
:10026000FF4FA591B4918FB7F894EC91111108C08C
:10027000D095DE23DC938FBFDF91CF911F9108953E
:10028000DE2BF8CFCF93DF9390E0FC01E656FF4FD3
:1002900024918A579F4FFC0184918823D1F090E0EC
:1002A000880F991FFC01E859FF4FA591B491FC01FB
:1002B000EE58FF4FC591D491623071F49FB7F89416
:1002C0003C91822F809583238C93E8812E2B288369
:1002D0009FBFDF91CF9108958FB7F894EC912E2BAB
:1002E0002C938FBFF6CF3FB7F89480919D019091EA
:1002F0009E01A0919F01B091A00126B5A89B05C0C9
:100300002F3F19F00196A11DB11D3FBFBA2FA92F94
:10031000982F8827BC01CD01620F711D811D911D91
:1003200042E0660F771F881F991F4A95D1F70895FD
:100330008F929F92AF92BF92CF92DF92EF92FF92F5
:100340004B015C010E9473016B017C010E947301EF
:100350006C197D098E099F09683E734081059105DE
:10036000A8F321E0821A9108A108B10888EEC80E0E
:1003700083E0D81EE11CF11C81149104A104B10496
:1003800029F7FF90EF90DF90CF90BF90AF909F90B4
:100390008F9008952FB7F8946091990170919A0108
:1003A00080919B0190919C012FBF089508952F92F9
:1003B0003F924F925F926F927F928F929F92AF92F5
:1003C000BF92CF92DF92EF92FF920F931F93CF9342
:1003D000DF93CDB7DEB765970FB6F894DEBF0FBEDB
:1003E000CDBF0E9473016B017C01809194019091BB
:1003F00095012601481A590A4DEC441640E154066D
:1004000008F4E0C08091920190919301009789F0E7
:1004100020910C0130910D011201221A330A910131
:1004200037FE03C0319521953109283C31050CF088
:10043000C5C001969093930180939201029709F0B1
:10044000BDC092EC692E90E0792E01E010E0209082
:100450000A0130900B013B862A8649E050E0B30147
:10046000CE0101960E9491058B816C81681708F47A
:10047000682F70E080910C0190910D010E949A0507
:100480009B014091000150910101649FC001659F53
:10049000900D749F900D112464E670E00E949A05FF
:1004A0008985A1E0B0E0882311F0A2E0B0E08D8161
:1004B000829FA001839F500D11245D874C878E8100
:1004C000829F1001839F300C11243F862E868F81DE
:1004D000829FA001839F500D1124598B488B8885E2
:1004E000829F1001839F300C11243B8A2A8AFD01D0
:1004F000EE0FFF1FE45FFE4F812C912C54014A85C3
:100500005B85415051095D8B4C8B8C899D89A81767
:10051000B90708F040C0880C991CAA1CBB1C80813C
:100520009181AC012C843D844219530957FF03C0CB
:100530005195419551094617570770F442815381EF
:100540002E843F844219530957FF03C051954195AA
:10055000510946175707E0F048895989841B950BC4
:1005600097FF03C091958195910986179707C8F465
:10057000828193812A883B888219930997FF03C05F
:100580009195819591098617970758F4689480F89A
:1005900012963496BACF4A855B854830510508F0EB
:1005A00053C00F5F1F4F59E0650E711C0D301105D0
:1005B00009F04DCF109293011092920110920B010D
:1005C00010920A0180910A0190910B0183349105E8
:1005D00040F010920B0110920A01109293011092B8
:1005E000920180910A0190910B019C012F5F3F4F76
:1005F00030930B0120930A01880F991FFC01E45FDF
:10060000FE4F51824082C0929401D0929501E092B7
:100610009601F092970165960FB6F894DEBF0FBE73
:10062000CDBFDF91CF911F910F91FF90EF90DF90A1
:10063000CF90BF90AF909F908F907F906F905F9082
:100640004F903F902F9008958092A3019092A40123
:10065000A092A501B092A6012C883D8836942794DB
:100660003092A2012092A101309309012093080148
:1006700010930701009306019DCF1F920F920FB6B2
:100680000F9211242F933F938F939F93AF93BF9318
:100690008091990190919A01A0919B01B0919C0148
:1006A0003091980123E0230F2D3758F50196A11DB5
:1006B000B11D209398018093990190939A01A09382
:1006C0009B01B0939C0180919D0190919E01A0910E
:1006D0009F01B091A0010196A11DB11D80939D01C4
:1006E00090939E01A0939F01B093A001BF91AF9101
:1006F0009F918F913F912F910F900FBE0F901F9060
:10070000189526E8230F0296A11DB11DD2CF1F9286
:100710000F920FB60F9211242F933F934F935F9335
:100720006F937F938F939F93AF93BF93EF93FF93B9
:10073000E0910401F09105010995FF91EF91BF91BE
:10074000AF919F918F917F916F915F914F913F9169
:100750002F910F900FBE0F901F9018951F920F9220
:100760000FB60F9211242F933F934F935F936F9384
:100770007F938F939F93AF93BF93EF93FF93E091FA
:100780000201F09103010995FF91EF91BF91AF91A3
:100790009F918F917F916F915F914F913F912F9199
:1007A0000F900FBE0F901F901895789484B58260BB
:1007B00084BD84B5816084BD85B5826085BD85B505
:1007C000816085BD80916E00816080936E00109283
:1007D00081008091810082608093810080918100FE
:1007E000816080938100809180008160809380008F
:1007F0008091B10084608093B1008091B0008160ED
:100800008093B00080917A00846080937A00809118
:100810007A00826080937A0080917A008160809370
:100820007A0080917A00806880937A001092C100EB
:100830001092A8011092A7011092A3011092A40196
:100840001092A5011092A6011092A2011092A1018E
:1008500087ED91E0909303018093020180916900FC
:100860008C7F816080936900E89A49E050E062ECF7
:1008700070E08DEA91E00E94910587EB90E0909303
:10088000AE018093AD0161E089E00E94420161E028
:100890008AE00E94420161E08BE00E94420162E036
:1008A00085E00E94420162E086E00E94420160E031
:1008B00089E00E94140160E08AE00E94140160E077
:1008C0008BE00E941401C0E0D0E0FF24F39485E0A7
:1008D0000E94EB008C0181E00115110509F480E014
:1008E0008093C1010E94CA018090BD019090BE0119
:1008F000A090BF01B090C001681979098A099B09CD
:100900006536710581059105B8F08091BC01012B18
:1009100009F4A6C0811110C0F092BC010E94CA0166
:100920006093BD017093BE018093BF019093C0019D
:1009300061E089E00E94140186E00E94EB008C01D6
:1009400081E00115110509F480E08093BB010E944C
:10095000CA018090B7019090B801A090B901B09001
:10096000BA01681979098A099B09653671058105FB
:100970009105B8F08091B601012B09F482C0811174
:1009800010C0F092B6010E94CA016093B701709343
:10099000B8018093B9019093BA0161E08BE00E94A5
:1009A00014018091A3019091A401A091A501B0919F
:1009B000A601892B8A2B8B2B49F18091A301909161
:1009C000A401A091A501B091A60161E0853520E3C5
:1009D00092072DE0A207B10541F0863520E392078A
:1009E0002DE0A207B105C1F460E089E00E94140186
:1009F00064E670E080E090E00E9498011092A3010C
:100A00001092A4011092A5011092A601209709F45A
:100A10005ECF0E9400005BCF873520E392072DE078
:100A2000A207B10569F461E08AE00E94140163E164
:100A300071E080E090E00E94980160E08AE0D6CF0B
:100A400061E0893520E392072DE0A207B10531F07E
:100A50008A359043AD40B10589F660E08BE0C6CFA2
:100A6000882309F469CF1092BC010E94CA016093E7
:100A7000BD017093BE018093BF019093C00160E0FF
:100A800058CF882309F48DCF1092B6010E94CA0175
:100A90006093B7017093B8018093B9019093BA0144
:100AA00060E07CCF0F931F93CF93DF93C7EAD1E031
:100AB0000FEF1FEF1B830A838AE090E09D838C83F6
:100AC00049E050E062EC70E08DEA91E00E9491050F
:100AD000198308838CE390E09093010180930001D7
:100AE0001092A3011092A4011092A5011092A601E8
:100AF0000E94CA016093BD017093BE018093BF0143
:100B00009093C0010E94CA016093B7017093B8012D
:100B10008093B9019093BA01DF91CF911F910F910A
:100B20000895FB01DC0102C005900D924150504038
:100B3000D8F70895AA1BBB1B51E107C0AA1FBB1F12
:100B4000A617B70710F0A61BB70B881F991F5A9559
:100B5000A9F780959095BC01CD010895EE0FFF1F78
:0C0B60000590F491E02D0994F894FFCF6B
:060B6C003C00D601D60199
:107E0000112484B714BE81FFF0D085E080938100F7
:107E100082E08093C00088E18093C10086E0809377
:107E2000C20080E18093C4008EE0C9D0259A86E02C
:107E300020E33CEF91E0309385002093840096BBD3
:107E4000B09BFECF1D9AA8958150A9F7CC24DD24C4
:107E500088248394B5E0AB2EA1E19A2EF3E0BF2EE7
:107E6000A2D0813461F49FD0082FAFD0023811F036
:107E7000013811F484E001C083E08DD089C08234E0
:107E800011F484E103C0853419F485E0A6D080C0E4
:107E9000853579F488D0E82EFF2485D0082F10E0AE
:107EA000102F00270E291F29000F111F8ED06801E7
:107EB0006FC0863521F484E090D080E0DECF843638
:107EC00009F040C070D06FD0082F6DD080E0C81688
:107ED00080E7D80618F4F601B7BEE895C0E0D1E017
:107EE00062D089930C17E1F7F0E0CF16F0E7DF06D8
:107EF00018F0F601B7BEE89568D007B600FCFDCFD4
:107F0000A601A0E0B1E02C9130E011968C91119780
:107F100090E0982F8827822B932B1296FA010C0160
:107F200087BEE89511244E5F5F4FF1E0A038BF0790
:107F300051F7F601A7BEE89507B600FCFDCF97BE46
:107F4000E89526C08437B1F42ED02DD0F82E2BD052
:107F50003CD0F601EF2C8F010F5F1F4F84911BD097
:107F6000EA94F801C1F70894C11CD11CFA94CF0C13
:107F7000D11C0EC0853739F428D08EE10CD085E9AC
:107F80000AD08FE07ACF813511F488E018D01DD067
:107F900080E101D065CF982F8091C00085FFFCCF94
:107FA0009093C60008958091C00087FFFCCF809118
:107FB000C00084FD01C0A8958091C6000895E0E648
:107FC000F0E098E1908380830895EDDF803219F02E
:107FD00088E0F5DFFFCF84E1DECF1F93182FE3DFCA
:107FE0001150E9F7F2DF1F91089580E0E8DFEE27F6
:047FF000FF270994CA
:027FFE00040479
:0400000300007E007B
:00000001FF
