:100000000C94D5000C94E9140C94C2140C949B1419
:100010000C9474140C94FD000C94FD000C944D147D
:100020000C94FD000C94FD000C9462110C94D11101
:100030000C94FD000C94FD000C94FD000C94FD004C
:100040000C94FD000C94FD000C94FD000C94FD003C
:100050000C94FD000C94FD000C94FD000C94031412
:100060000C94FD000C94FD000C94FD000C94FD001C
:100070000C94FD000C94FD000C94FD000C94FD000C
:100080000C94FD000C94FD000C94FD000C94FD00FC
:100090000C94FD000C94FD000C94FD000C94FD00EC
:1000A0000C94FD000C9410150C94FD000000000051
:1000B0002300260029002C002F0000000002000968
:1000C0000F0000030401000C00000000000000000D
:1000D000000000000000000000080B000202020007
:1000E00000090400000102020000052400100105BF
:1000F00024010101042402060524060001070581EC
:100100000310004009040100020A00000007050274
:1001100002400000070583024000000403090412A6
:10012000010002EF02014041233780000101020378
:100130000141726475696E6F204C4C4300417264DA
:1001400075696E6F204D6963726F000000000025B5
:100150000028002B002E00310000000000240027A2
:10016000002A002D003000040404040403040502E6
:100170000202020403020202020606060606060442
:10018000040202020404040802011040804010200E
:10019000408040800802040180402010020110804D
:1001A000102040402000ED15311711241FBECFEF65
:1001B000DAE0DEBFCDBF26E0AEE5B4E001C01D92BF
:1001C000A438B207E1F714E0A0E0B1E0E0E4F6E320
:1001D00002C005900D92AE35B107D9F710E0C4ED1D
:1001E000D0E004C02197FE010E94D818C33DD1077A
:1001F000C9F70E9423160C94131B0C94000090E086
:10020000FC01EA57FE4F249189599E4FFC018491CD
:10021000882399F090E0880F991FFC01E75AFE4F60
:10022000A591B491FC01E55BFE4F859194918FB748
:10023000F894EC91E22BEC938FBF08950895FC01A4
:100240008091DE05882311F13FB7F89482E0809316
:10025000E9002091F200822F90E01816190614F49C
:1002600081E090E0882339F0289A44E64093DD0548
:100270004091F1004083222339F02091F2002111B6
:1002800003C02BE62093E8003FBF08958FEF9FEF58
:1002900008952FB7F89483E08093E9009091E800E7
:1002A000892F807295FF04C09091F20080E4891B31
:1002B0002FBF08958091D50581110DC082E08093F4
:1002C000D10584E08093D2051092D4051092D30515
:1002D00081E08093D50581ED95E008954091CB05AF
:1002E0005091CC052091C9053091CA05421753079A
:1002F000B4F49091E8009570E1F39091E80092FDDC
:1003000019C08093F1008091CB059091CC050196A6
:100310008F739927892B19F48EEF8093E8008091D1
:10032000CB059091CC0501969093CC058093CB059D
:1003300081E0089580E00895EF92FF920F931F935C
:10034000CF93DF93F82E192FE62E042F81E0860F2E
:10035000880F0E946E0183E00E946E01CF2DD12F85
:10036000EC0EFD2EF11CCE15DF05B9F007FF13C012
:10037000FE0184910E946E01182F80E00E946E01A0
:10038000812321968111EFCFDF91CF911F910F91A2
:10039000FF90EF9008958881EDCF81E0F5CFDF9257
:1003A000EF92FF920F931F93CF93DF93D82E8A0182
:1003B000EB017B01E40EF51ECE15DF0559F0D7FEEB
:1003C00012C0FE0184910E946E0121968111F4CF2A
:1003D0000FEF1FEFC801DF91CF911F910F91FF9099
:1003E000EF90DF9008958881EECF0F931F93CF9306
:1003F000DF931F92CDB7DEB782E0898342E450E0FD
:1004000069ED70E080E80E94CF010E945A01DC0192
:1004100012960D911C910115110589F0D801ED91ED
:10042000FC910280F381E02DBE016F5F7F4FC80118
:10043000099597FD04C0F80100851185ECCF8981ED
:100440000F90DF91CF911F910F910895615030F07F
:100450002091F100FC0120830196F8CF289A84E6D0
:100460008093DD050895CF93DF931F92CDB7DEB75C
:100470006983DC01ED91FC910280F381E02D41E084
:1004800050E0BE016F5F7F4F09950F90DF91CF91D4
:10049000089583E08093E9008091F200882319F0A9
:1004A0008AE38093E80008950E94490190E008954E
:1004B000CF93DF931F92CDB7DEB7FC01848595857E
:1004C00097FD08C02FEF3FEF358724870F90DF910E
:1004D000CF910895CE0101960E941F01019719F452
:1004E000898190E0F3CF8FEF9FEFF0CF0F931F93B1
:1004F000CF93DF931F92CDB7DEB78C01FC018485CB
:10050000958597FF0BC0CE0101960E941F010197B0
:1005100071F4898190E0F80195878487F8018485DA
:1005200095850F90DF91CF911F910F9108958FEFD7
:100530009FEFF1CFFC018485958597FD0BC09FB798
:10054000F89482E08093E9008091F2009FBF90E0F0
:10055000019608959FB7F89482E08093E900809116
:10056000F2009FBF90E0089581508F3008F047C09F
:10057000E82FF0E0E254FD4F0C94D818DB02DF02C4
:10058000CD02D302D702FF02FF02FF02E202E8021D
:10059000EC02F002F602FF02FA02809180008F77EF
:1005A000809380000895809180008F7DF9CF8091A5
:1005B0008000877FF5CF84B58F7784BD089584B59B
:1005C0008F7DFBCF809190008F778093900008956E
:1005D000809190008F7DF9CF80919000877FF5CF3B
:1005E0008091C0008F778093C00008958091C000F3
:1005F0008F7DF9CF8091C200877F8093C2000895DC
:100600001F93CF93DF93282F30E0F901E654FF4F7B
:100610008491F901EA57FE4FD491F901E959FE4F4F
:10062000C491CC23A9F0162F81110E94B402EC2FA3
:10063000F0E0EE0FFF1FE55BFE4FA591B4918FB781
:10064000F894EC91111108C0D095DE23DC938FBF94
:10065000DF91CF911F910895DE2BF8CF0F931F9359
:10066000CF93DF93EC01109272000EE716E0F801D1
:1006700080810E94FF0060E0F80180810E940003F9
:100680009E01DD0F440B550B60E47FE180E090E0BC
:100690000E94B918C90142E04093C00041E0409374
:1006A000C1001092C2004093C3001092C400EFEB4F
:1006B000F0E030832093D10063E070E00E94A51841
:1006C00070836093CF00DF91CF911F910F910895B8
:1006D000CF92DF92FF920F931F93CF93DF936C0122
:1006E0008091770690917806019609F47CC0C091BC
:1006F0007506D0917606F12CCF3FDC07E9F0C530C6
:1007000098F4FE01FF27C23009F47EC008F073C0E0
:10071000C13009F477C0E898EE0FFF1FE853FD4F92
:100720008EE191E0918380838FEF9FEF9093760627
:1007300080937506FF24F3948B0161E08091770626
:100740000E9400038091790690917A06C89E9001DC
:10075000C99E300DD89E300D11242230310540F055
:10076000C901880F991F880F991F05970197F1F705
:1007700060E0809177060E94000320917906309115
:100780007A06029FC001039F900D129F900D1124C5
:100790008230910538F0880F991F880F991F0597AF
:1007A0000197F1F7FF20F9F0D0937606C093750614
:1007B000CF3FDC07C1F08C2FC530A8F4DD27CC0F6C
:1007C000DD1FC853DD4F2AE935E0398328838230A5
:1007D00099F1F0F4813041F1809169008C7F816062
:1007E00080936900E89ADF91CF911F910F91FF905C
:1007F000DF90CF900895C33049F0C43009F08BCF1B
:10080000EE988ACFE99888CFEA9886CFEB9884CF84
:100810008330D1F0843001F780916A008F7C806151
:1008200080936A00EE9ADFCF80916900837F8460B5
:1008300080936900E99AD7CF809169008F7C8061AD
:1008400080936900EA9ACFCF809169008F738064AA
:1008500080936900EB9AC7CF0F931F93CF93DF93D9
:10086000EFEFF5E030E020E0A0E360FDA1E32F5FD3
:100870003F4FAF014F5D5540A19396958795779572
:100880006795611571058105910571F7EFEDF5E04B
:1008900088E190E0BC01621B730BC0E3DA01A21B8C
:1008A000B30B9D01AF014F5D55404617570758F1F7
:1008B000D901A80FB91FA152BA4F4C91408301979B
:1008C0003196009779F71092F705D0E0C0E080915B
:1008D0007B0690917C06C817D9070CF04AC00FED33
:1008E00015E0F80191918F0180917D06992379F1AE
:1008F000903359F09133A9F78130D9F461E070E079
:1009000083E090E00CC0C083DACF63E070E0813018
:1009100021F0823039F462E070E081E090E00E94E2
:100920006803DFCF8330E9F66BE070E084E090E0AD
:10093000F6CF823029F461E070E082E090E0EFCF02
:10094000833079F666E070E089E090E0E8CF6FE10F
:1009500070E0813041F06AE070E0823021F0833055
:1009600031F467E470E081E090E00E946803219632
:10097000AECFDF91CF911F910F9108953FB7F894BB
:100980008091C5059091C605A091C705B091C80595
:1009900026B5A89B05C02F3F19F00196A11DB11DDA
:1009A0003FBFBA2FA92F982F8827BC01CD01620F16
:1009B000711D811D911D42E0660F771F881F991FD1
:1009C0004A95D1F708958F929F92AF92BF92CF929E
:1009D000DF92EF92FF924B015C010E94BE046B011B
:1009E0007C010E94BE046C197D098E099F09683E36
:1009F000734081059105A8F321E0821A9108A108AE
:100A0000B10888EEC80E83E0D81EE11CF11C8114E9
:100A10009104A104B10429F7FF90EF90DF90CF90EB
:100A2000BF90AF909F908F9008958F929F92AF92BA
:100A3000BF92CF92DF92EF92FF920F931F93CF93CB
:100A4000DF936C017B018A018091C702882309F43E
:100A50005CC08091DE05882309F457C08091CF05E2
:100A600080FF05C08091E00082608093E000E80193
:100A7000B12C8AEFA82E93E0892E2AE3922E20979C
:100A800011F4BB20D9F10E94490181110AC0AA9436
:100A9000AA20D9F161E070E080E090E00E94E304D8
:100AA000EECF8C171D0611F00CF08C2F9FB7F89429
:100AB0008092E9002091E80025FD02C09FBFDFCFB2
:100AC000282F30E0C21BD30BF701815020F0419159
:100AD0004093F100FACFE20EF31EBB2021F090927A
:100AE000E800B12CEBCF8091E80085FDE7CF909234
:100AF000E800BB24B394209709F3F3CF5D9A84E612
:100B00008093CE05101611063CF081E090E0F601CE
:100B10009383828310E000E0C801DF91CF911F91A1
:100B20000F91FF90EF90DF90CF90BF90AF909F908C
:100B30008F9008952F923F924F925F926F927F9283
:100B40008F929F92AF92BF92CF92DF92EF92FF92DD
:100B50000F931F93CF93DF93CDB7DEB7A2970FB656
:100B6000F894DEBF0FBECDBF0E94BE046D877E87A6
:100B70008F87988B8091BC059091BD055B01A81A69
:100B8000B90AB092BB05A092BA0529E8A21623E1E2
:100B9000B20608F4AEC20091340510913505C801C3
:100BA000885C91098A159B0508F09FC280579E4F6B
:100BB000A816B90608F099C28091320590913305C4
:100BC0000196909333058093320520903005309044
:100BD000310531E0231A3108029709F086C2C801B5
:100BE0006FE170E00E94A5187A8369836B01F12C94
:100BF000E12C8090D2029090D3029B01D4010E94FC
:100C0000DE180E9435172AE037ED43E25CE30E94CC
:100C100072170E9476182B013C0129813A81A3E0CA
:100C2000B0E00E9467189B01AC0124193509460900
:100C3000570929833A834B835C83A3019201260FD2
:100C4000371F481F591F2D833E834F83588721E04C
:100C500030E080E090E0DC01B701A60144195509BD
:100C60006609770949875A876B877C87B701A60190
:100C7000440D551D661D771D498B5A8B6B8B7C8BE4
:100C80002215330508F073C0F901EE0FFF1FEC5C6D
:100C9000FA4F4081518170E060E049845A846B844E
:100CA0007C84441655066606770658F5C988DA88A6
:100CB000EB88FC884C155D056E057F0510F5F90184
:100CC000EE0FFF1FEA5CFA4F40805180712C612CBF
:100CD000C980DA80EB80FC80C414D504E604F704F4
:100CE00080F4CD80DE80EF80F8844C145D046E04C7
:100CF0007F0438F4880F991FAA1FBB1F2E5F3F4F38
:100D0000BFCF49805A806B807C80441655066606AA
:100D1000770640F5CD80DE80EF80F8844C155D05C8
:100D20006E057F05F8F4F901EE0FFF1FEA5CFA4F3C
:100D30004081518170E060E049845A846B847C84F6
:100D4000441655066606770668F4C988DA88EB8883
:100D5000FC884C155D056E057F0520F40196A11DEC
:100D6000B11DC8CF910180E090E0DC01C7CF892B95
:100D70008A2B8B2B09F0B5C1C8016AE070E00E9494
:100D8000A5189B016B01F12CE12CD4010E94DE1807
:100D90000E9435172AE037ED43E25CE30E947217A8
:100DA0000E9476182B013C01B701A601440F551F84
:100DB000661F771FDB01CA0184199509A609B709C7
:100DC0008D839E83AF83B887DB01CA01840D951D97
:100DD000A61DB71D898B9A8BAB8BBC8B80E090E0F6
:100DE000DC0121E030E0B701A6014419550966098C
:100DF000770949875A876B877C8749885A886B8827
:100E00007C884C185D086E087F084D8A5E8A6F8A60
:100E1000788E2215330508F079C0F901EE0FFF1F17
:100E2000EC5CFA4FC080D180F12CE12C49855A85C9
:100E30006B857C854C155D056E057F0588F54D88B5
:100E40005E886F88788CC414D504E604F70440F5F6
:100E5000F901EE0FFF1FEA5CFA4F0190F081E02DDF
:100E6000AF0170E060E049835A836B837C834D80DF
:100E70005E806F807884441655066606770680F497
:100E800049885A886B887C8844155505660577051E
:100E900038F4880F991FAA1FBB1F2E5F3F4FB9CF91
:100EA0004D815E816F8178854C155D056E057F05EE
:100EB00040F549885A886B887C88C414D504E604B8
:100EC000F704F8F4F901EE0FFF1FEA5CFA4FC08057
:100ED000D180F12CE12C49855A856B857C854C1598
:100EE0005D056E057F0568F44D885E886F88788C97
:100EF000C414D504E604F70420F40196A11DB11D25
:100F0000C8CF910180E090E0DC01C7CF892B8A2B0C
:100F10008B2B09F0E6C0C80167E470E00E94A518B9
:100F20007E8F6D8F9B01D4010E94DE180E943517C1
:100F30002AE037ED43E25CE30E9472170E947618C4
:100F40006B017C016D8C7E8CC301B0E0A0E072E08F
:100F5000880F991FAA1FBB1F7A95D1F7AC01BD015D
:100F60004C195D096E097F0949835A836B837C8321
:100F700026013701480E591E6A1E7B1E4D825E8275
:100F80006F8278862D8D3E8DABE0B0E00E946718B1
:100F90003B014C016C187D088E089F0869867A8693
:100FA0008B869C8626013701460E571E681E791EC9
:100FB000498A5A8A6B8A7C8AA9E0B0E00E94671845
:100FC0003B014C016C187D088E089F086D8A7E8A53
:100FD0008F8A988E26013701460E571E681E791E8D
:100FE000498E5A8E6B8E7C8EA6E0B0E00E94671808
:100FF0003B014C016C187D088E089F086F8E78A20B
:1010000089A29AA2DC01CB018C0D9D1DAE1DBF1DD6
:1010100021E030E02215330508F063C0F901EE0F3E
:10102000FF1FEC5CFA4FC080D180F12CE12C49818C
:101030005A816B817C814C155D056E057F0520F51D
:101040004D805E806F807884C414D504E604F70474
:10105000D8F4F901EE0FFF1FEA5CFA4F408151818D
:1010600070E060E069847A848B849C8464167506E1
:101070008606970648F449885A886B887C88441508
:1010800055056605770550F16D887E888F88988CA8
:101090006C147D048E049F0400F5498D5A8D6B8D70
:1010A0007C8DC416D506E606F706B8F4F901EE0FF6
:1010B000FF1FEA5CFA4FC080D180F12CE12C4F8CED
:1010C00058A069A07AA04C145D046E047F0428F433
:1010D000C816D906EA06FB0608F091012E5F3F4FBD
:1010E00099CF10923305109232051092310510926B
:1010F000300580913005909131058334910540F0A1
:10110000109231051092300510923305109232057D
:1011100080913005909131059C012F5F3F4F3093B6
:10112000310520933005880F991FFC01EC5CFA4FC4
:10113000B182A0826D847E848F8498886092BC0581
:101140007092BD058092BE059092BF05A2960FB623
:10115000F894DEBF0FBECDBFDF91CF911F910F91ED
:10116000FF90EF90DF90CF90BF90AF909F908F90C7
:101170007F906F905F904F903F902F9008958F9247
:101180009F92AF92BF92CF92DF92EF92FF926B014C
:101190007C010E94BE044B015C0184E0C81AD108A6
:1011A000E108F108C80CD91CEA1CFB1CC814D904BE
:1011B000EA04FB0438F40E94BE0486169706A806CB
:1011C000B906C8F30E94BE046C157D058E059F0507
:1011D000C8F3FF90EF90DF90CF90BF90AF909F90BB
:1011E0008F9008952091C0002F772093C000009722
:1011F00051F0BC0190E080E06530710581059105FA
:1012000010F00C94BF0808952091C000206820932E
:10121000C000009751F0BC0190E080E0653071059E
:101220008105910510F00C94BF0808950F931F934A
:10123000CF93DF93D82FC92F86E290E00E942E0330
:101240000D2F1C2FD0E0C0E0F801819191918F010A
:10125000C0FF15C00E94F2082196C532D105A1F742
:101260008091C0008F778093C00062E370E080E0DF
:1012700090E0DF91CF911F910F910C94E3040E94B5
:101280000409EACF8F929F92AF92BF92CF92DF92E2
:10129000EF92FF924B015C017A0188E290E00E949C
:1012A0002E0380E699E00E94040988E592E00E94FE
:1012B000F208C7010197C12CD12C7601C39404C058
:1012C000CC0CDD1CEE1CFF1C8A95D2F7D501C401A5
:1012D0008C219D21AE21BF21892B8A2B8B2BD1F014
:1012E00080EB94E00E94040988E592E00E94F208F5
:1012F000F694E794D794C794C114D104E104F1049F
:1013000029F7FF90EF90DF90CF90BF90AF909F9024
:101310008F90089588E592E0E5CF8F929F92AF92EB
:10132000BF92CF92DF92EF92FF92CF93DF934B0168
:101330005C0186E290E00E942E0388E293E20E9424
:10134000040984E991E10E94F208C0E2D0E0C12CD6
:10135000D12CE12C90E8F92ED501C4018C219D21DE
:10136000AE21BF21892B8A2B8B2B11F180E392E0D8
:101370000E9404098AE996E00E94F208F694E79434
:10138000D794C794219741F780E392E00E94040923
:101390008091C0008F778093C000DF91CF91FF9044
:1013A000EF90DF90CF90BF90AF909F908F90089577
:1013B00080E392E00E94040980E392E0DDCFCF93C6
:1013C000DF932091730630917406232B89F0FC0182
:1013D000C0916F06D091700660817181CE010E942C
:1013E000F91A009729F08C1B9D0BDF91CF9108957E
:1013F0008FEF9FEFFACF0F931F93CF93DF93EC0103
:1014000088819981009759F02A813B8126173707F7
:1014100030F081E0DF91CF911F910F9108958B0102
:101420006F5F7F4F0E942C1A009759F09983888331
:101430001B830A832C813D81232B59F7FC011082E9
:10144000E8CF80E0E7CFFC0180819181009711F027
:101450000C94A3190895EF92FF920F931F93CF93CB
:10146000DF93EC017B01198218821B821A821D8294
:101470001C82FB0101900020E9F731978F01061BC8
:10148000170BB8010E94FB0928813981811113C013
:101490002115310519F0C9010E94A319198218827A
:1014A0001D821C821B821A82DF91CF911F910F91A6
:1014B000FF90EF9008951D830C83B701C901DF9160
:1014C000CF911F910F91FF90EF900C94F21A0F9310
:1014D0001F93CF93DF9300D000D000D0CDB7DEB7FD
:1014E000409173065091740660916F06709170067A
:1014F0008FE196E00E94150542E050E063EF72E054
:101500008FE196E00E94150566EF72E0CE0101962C
:101510000E942B0ACE0101960E94DF098C01CE01A8
:1015200001960E94230A17FD0EC048E050E06BEFC1
:1015300072E08FE196E00E9415056EE170E080E0B8
:1015400090E00E94E30464E073E0CE0101960E9403
:101550002B0ACE0101960E94DF098C01CE01019673
:101560000E94230A17FD0EC044E150E067E47BE8C7
:101570008AE090E00E9442096EE170E080E090E035
:101580000E94E3046CE073E0CE0101960E942B0AF6
:10159000CE0101960E94DF098C01CE0101960E94C6
:1015A000230A17FD0EC044E150E067E47BE080E0D1
:1015B00090E00E9442096EE170E080E090E00E94BD
:1015C000E30460E173E0CE0101960E942B0ACE0194
:1015D00001960E94DF098C01CE0101960E94230A28
:1015E00017FD0EC044E150E067E47BE088E090E046
:1015F0000E9442096EE170E080E090E00E94E30406
:1016000064E173E0CE0101960E942B0ACE0101969F
:101610000E94DF098C01CE0101960E94230A17FD6A
:101620000EC044E150E067E47BE084E090E00E947B
:1016300042096EE170E080E090E00E94E3046AE11C
:1016400073E0CE0101960E942B0ACE0101960E9402
:10165000DF098C01CE0101960E94230A17FD0EC0FE
:1016600044E150E067E47BE881E090E00E944209B9
:101670006EE170E080E090E00E94E3046FE173E0CF
:10168000CE0101960E942B0ACE0101960E94DF092D
:101690008C01CE0101960E94230A17FD0EC044E181
:1016A00050E067E47BE88DE090E00E9442096EE143
:1016B00070E080E090E00E94E30464E273E0CE0119
:1016C00001960E942B0ACE0101960E94DF098C012F
:1016D000CE0101960E94230A17FD0EC044E150E09E
:1016E00067E47BE883E090E00E9442096EE170E0ED
:1016F00080E090E00E94E30468E273E0CE0101968E
:101700000E942B0ACE0101960E94DF098C01CE01B6
:1017100001960E94230A17FD0EC044E150E067E4E1
:101720007BEC85E090E00E9442096EE170E080E091
:1017300090E00E94E3046DE273E0CE0101960E9406
:101740002B0ACE0101960E94DF098C01CE01019681
:101750000E94230A17FD0EC044E150E067E47BECD1
:1017600089E090E00E9442096EE170E080E090E044
:101770000E94E30461E373E0CE0101960E942B0A0C
:10178000CE0101960E94DF098C01CE0101960E94D4
:10179000230A17FD0EC044E150E067E47BEC8DE0C6
:1017A00090E00E9442096EE170E080E090E00E94CB
:1017B000E30469E373E0CE0101960E942B0ACE0197
:1017C00001960E94DF098C01CE0101960E94230A36
:1017D00017FD0EC044E150E067E47BEC83E090E04D
:1017E0000E9442096EE170E080E090E00E94E30414
:1017F00062E473E0CE0101960E942B0ACE010196AD
:101800000E94DF098C01CE0101960E94230A17FD78
:101810000EC044E150E067E47BE288E090E00E9483
:1018200042096EE170E080E090E00E94E3046AE427
:1018300073E0CE0101960E942B0ACE0101960E9410
:10184000DF098C01CE0101960E94230A17FD0EC00C
:1018500044E150E067E47BE68CE090E00E944209BE
:101860006EE170E080E090E00E94E30464E573E0E4
:10187000CE0101960E942B0ACE0101960E94DF093B
:101880008C01CE0101960E94230A17FD0EC044E18F
:1018900050E067E47BE489E090E00E9442096EE159
:1018A00070E080E090E00E94E30469E573E0CE011F
:1018B00001960E942B0ACE0101960E94DF098C013D
:1018C000CE0101960E94230A17FD13C003E010E029
:1018D0004CE050E060E97AE080E090E00E9442094C
:1018E0006EE170E080E090E00E94E3040150110995
:1018F00079F76FE573E0CE0101960E942B0ACE01C5
:1019000001960E94DF098C01CE0101960E94230AF4
:1019100017FD13C003E010E04CE050E060E974E014
:1019200080E090E00E9442096EE170E080E090E08B
:101930000E94E3040150110979F767E673E0CE01D4
:1019400001960E942B0ACE0101960E94DF098C01AC
:10195000CE0101960E94230A17FD13C003E010E098
:101960004CE050E060E97CE080E090E00E944209B9
:101970006EE170E080E090E00E94E3040150110904
:1019800079F760E773E0CE0101960E942B0ACE0141
:1019900001960E94DF098C01CE0101960E94230A64
:1019A00017FD5EC003E010E04CE050E060E770E03F
:1019B00080E090E00E9442096EE170E080E090E0FB
:1019C0000E94E3040150110979F764EF71E080E0AF
:1019D00090E00E94E30403E010E04CE050E060EF90
:1019E0007AE080E090E00E9442096EE170E080E0E1
:1019F00090E00E94E3040150110979F764EF71E06F
:101A000080E090E00E94E30403E010E04CE050E04E
:101A100060E77AE080E090E00E9442096EE170E0C9
:101A200080E090E00E94E3040150110979F764EF2F
:101A300071E080E090E00E94E30403E010E04CE0FD
:101A400050E060E77AE080E090E00E9442096EE1B9
:101A500070E080E090E00E94E3040150110979F702
:101A600066E773E0CE0101960E942B0ACE01019633
:101A70000E94DF098C01CE0101960E94230A17FD06
:101A800077C003E010E04CE050E060E770E080E0F9
:101A900090E00E9442096EE170E080E090E00E94D8
:101AA000E3040150110979F764EF71E080E090E000
:101AB0000E94E30403E010E04CE050E060EF7AE0C5
:101AC00080E090E00E9442096EE170E080E090E0EA
:101AD0000E94E3040150110979F764EF71E080E09E
:101AE00090E00E94E30403E010E04CE050E060E787
:101AF0007AE080E090E00E9442096EE170E080E0D0
:101B000090E00E94E3040150110979F764EF71E05D
:101B100080E090E00E94E30403E010E04CE050E03D
:101B200060EF7AE080E090E00E9442096EE170E0B0
:101B300080E090E00E94E3040150110979F764EF1E
:101B400071E080E090E00E94E30403E010E04CE0EC
:101B500050E060E77AE080E090E00E9442096EE1A8
:101B600070E080E090E00E94E3040150110979F7F1
:101B70006CE773E0CE0101960E942B0ACE0101961C
:101B80000E94DF098C01CE0101960E94230A17FDF5
:101B900014C082E792E00E9416096EE571E080E0D1
:101BA00090E00E94E30488E292E00E9416096EE150
:101BB00070E080E090E00E94E30462E873E0CE0110
:101BC00001960E942B0ACE0101960E94DF098C012A
:101BD000CE0101960E94230A17FD0AC08EED91E006
:101BE0000E9416096EE170E080E090E00E94E3043C
:101BF0006AE873E0CE0101960E942B0ACE0101969D
:101C00000E94DF098C01CE0101960E94230A17FD74
:101C10000AC084E991E00E9416096EE170E080E05C
:101C200090E00E94E30463E973E0CE0101960E9414
:101C30002B0ACE0101960E94DF098C01CE0101968C
:101C40000E94230A17FD0AC08AE491E00E94160947
:101C50006EE170E080E090E00E94E3046BE973E0E5
:101C6000CE0101960E942B0ACE0101960E94DF0947
:101C70008C01CE0101960E94230A17FD0AC080E064
:101C800091E00E9416096EE170E080E090E00E9411
:101C9000E30464EA73E0CE0101960E942B0ACE01B0
:101CA00001960E94DF098C01CE0101960E94230A51
:101CB00017FD0CC067EF78E08DEF92E00E948D0970
:101CC0006EE170E080E090E00E94E3046BEA73E074
:101CD000CE0101960E942B0ACE0101960E94DF09D7
:101CE0008C01CE0101960E94230A17FD0CC06FEFF4
:101CF00070E08DEF92E00E948D096EE170E080E06F
:101D000090E00E94E30461EB73E0CE0101960E9433
:101D10002B0ACE0101960E94DF098C01CE010196AB
:101D20000E94230A17FD0CC06FE770E88DEF92E068
:101D30000E948D096EE170E080E090E00E94E30473
:101D400068EB73E0CE0101960E942B0ACE0101964A
:101D50000E94DF098C01CE0101960E94230A17FD23
:101D60000CC067EA78E58DEF92E00E948D096EE184
:101D700070E080E090E00E94E3046EEB73E0CE013F
:101D800001960E942B0ACE0101960E94DF098C0168
:101D9000CE0101960E94230A17FD0CC067E878E780
:101DA0008DEF92E00E948D096EE170E080E090E09E
:101DB0000E94E30465EC73E0CE0101960E942B0AB9
:101DC000CE0101960E94DF098C01CE0101960E948E
:101DD000230A17FD0CC065EF7AE081E19EEE0E94B8
:101DE0008D096EE170E080E090E00E94E30469EC10
:101DF00073E0CE0101960E942B0ACE0101960E944B
:101E0000DF098C01CE0101960E94230A17FD0CC048
:101E100067E178EE81E19EEE0E948D096EE170E04F
:101E200080E090E00E94E30461ED73E0CE01019652
:101E30000E942B0ACE0101960E94DF098C01CE017F
:101E400001960E94230A17FD0CC06DE072EF81E13C
:101E50009EEE0E948D096EE170E080E090E00E94AD
:101E6000E30469ED73E0CE0101960E942B0ACE01D6
:101E700001960E94DF098C01CE0101960E94230A7F
:101E800017FD0CC06BE574EA81E19EEE0E948D099E
:101E90006EE170E080E090E00E94E30460EE73E0A9
:101EA000CE0101960E942B0ACE0101960E94DF0905
:101EB0008C01CE0101960E94230A17FD0AC061E041
:101EC00086E00E9400036EE170E080E090E00E94F6
:101ED000E30467EE73E0CE0101960E942B0ACE0167
:101EE00001960E94DF098C01CE0101960E94230A0F
:101EF00017FD0AC060E086E00E9400036EE170E01A
:101F000080E090E00E94E3046FEE73E0CE01019662
:101F10000E942B0ACE0101960E94DF098C01CE019E
:101F200001960E94230A17FD0AC061E087E00E9423
:101F300000036EE170E080E090E00E94E30466EF51
:101F400073E0CE0101960E942B0ACE0101960E94F9
:101F5000DF098C01CE0101960E94230A17FD0AC0F9
:101F600060E087E00E9400036EE170E080E090E0B6
:101F70000E94E3046EEF73E0CE0101960E942B0AEB
:101F8000CE0101960E94DF098C01CE0101960E94CC
:101F9000230A17FD0AC061E085E00E9400036EE19C
:101FA00070E080E090E00E94E30465E074E0CE0120
:101FB00001960E942B0ACE0101960E94DF098C0136
:101FC000CE0101960E94230A17FD0AC060E085E059
:101FD0000E9400036EE170E080E090E00E94E30464
:101FE0006DE074E0CE0101960E942B0ACE010196AD
:101FF0000E94DF098C01CE0101960E94230A17FD81
:102000000CC06FE076E38BE090E00E942C046EE160
:1020100070E080E090E00E94E30464E174E0CE01AF
:1020200001960E942B0ACE0101960E94DF098C01C5
:10203000CE0101960E94230A17FD0CC060E176E3F1
:102040008BE090E00E942C046EE170E080E090E074
:102050000E94E3046CE174E0CE0101960E942B0A19
:10206000CE0101960E94DF098C01CE0101960E94EB
:10207000230A17FD0CC06BE076E38BE090E00E9432
:102080002C046EE170E080E090E00E94E30463E2E3
:1020900074E0CE0101960E942B0ACE0101960E94A7
:1020A000DF098C01CE0101960E94230A17FD0CC0A6
:1020B0006CE076E38BE090E00E942C046EE170E02F
:1020C00080E090E00E94E3046BE274E0CE010196B0
:1020D0000E942B0ACE0101960E94DF098C01CE01DD
:1020E00001960E94230A17FD0CC06DE076E38BE099
:1020F00090E00E942C046EE170E080E090E00E948D
:10210000E30462E374E0CE0101960E942B0ACE0143
:1021100001960E94DF098C01CE0101960E94230ADC
:1021200017FD0CC06EE076E38BE090E00E942C047B
:102130006EE170E080E090E00E94E3046AE374E006
:10214000CE0101960E942B0ACE0101960E94DF0962
:102150008C01CE0101960E94230A17FD0CC065E593
:1021600070E38DE090E00E942C046EE170E080E06E
:1021700090E00E94E30461E474E0CE0101960E94C5
:102180002B0ACE0101960E94DF098C01CE01019637
:102190000E94230A17FD0CC066E570E38DE090E015
:1021A0000E942C046EE170E080E090E00E94E30465
:1021B00069E474E0CE0101960E942B0ACE010196DB
:1021C0000E94DF098C01CE0101960E94230A17FDAF
:1021D0000CC069E570E38DE090E00E942C046EE194
:1021E00070E080E090E00E94E30460E574E0CE01DE
:1021F00001960E942B0ACE0101960E94DF098C01F4
:10220000CE0101960E94230A17FD0CC06AE570E317
:102210008DE090E00E942C046EE170E080E090E0A0
:102220000E94E30468E574E0CE0101960E942B0A47
:10223000CE0101960E94DF098C01CE0101960E9419
:10224000230A17FD0CC067E570E38DE090E00E9463
:102250002C046EE170E080E090E00E94E30470E006
:1022600060E08FE696E00E94FB0920916F063091B6
:10227000700681111DC02115310519F0C9010E9498
:10228000A3191092700610926F06109274061092A5
:102290007306109272061092710626960FB6F89485
:1022A000DEBF0FBECDBFDF91CF911F910F9108957B
:1022B000109274061092730665EF72E0C9010E94D5
:1022C000F21AEBCF1F920F920FB60F9211248F9339
:1022D0009F938091E1009091E100937F9093E100C2
:1022E00083FF0FC01092E90091E09093EB001092F1
:1022F000EC0092E39093ED001092DE0598E090934D
:10230000F00082FF22C093E09093E9009091F200E8
:10231000992319F09AE39093E8009091CE059923C0
:1023200041F09091CE0591509093CE05911101C04E
:102330005D989091DD05992341F09091DD059150D4
:102340009093DD05911101C0289884FF18C08091F9
:10235000E2008E7E81608093E2008091E1008F7EBA
:102360008093E1008091CF058E7E80618093CF05C0
:102370009F918F910F900FBE0F901F90189580FF27
:10238000F7CF8091E2008E7E80618093E2008091A1
:10239000E1008E7E8093E1008091CF058E7E81608A
:1023A000E5CF1F920F920FB60F921124CF92DF92BA
:1023B000EF92FF920F931F932F933F934F935F934F
:1023C0006F937F938F939F93AF93BF93EF93FF93FD
:1023D000CF93DF93CDB7DEB76C97DEBFCDBF109242
:1023E000E9008091E80083FF25C068E0CE014596B2
:1023F0000E94260282EF8093E8008D8987FF39C012
:102400009091E80090FFFCCF982F907609F034C1AE
:102410009E894F89588D2F89F88C911131C0803851
:1024200061F58091D0058093F1001092F1008EEF5C
:102430008093E8006C960FB6F894DEBF0FBECDBF58
:10244000DF91CF91FF91EF91BF91AF919F918F91CC
:102450007F916F915F914F913F912F911F910F91BC
:10246000FF90EF90DF90CF900F900FBE0F901F90D6
:1024700018959EEF9093E800C7CF1092F100D5CF4A
:10248000913059F48111D3CF4130510581F68091BB
:10249000D0058D7F8093D005CACF933049F4811148
:1024A000C6CF4130510519F68091D0058260F2CF38
:1024B000953041F48091E80080FFFCCF20682093A4
:1024C000E300B5CF963009F0A9C00B8D1C8D22E03A
:1024D0001092E9001092CC051092CB05F2122EC09A
:1024E0001092CA051092C9050E94F5011F8299E059
:1024F0009983FA8291E09E8390EA98879AEF998770
:102500002091CB053091CC05275F3F4F3C832B8337
:102510008D831092E9001092CC051092CB05109398
:10252000CA050093C90549E050E0BE016F5F7F4FC7
:1025300080E00E94CF010E94F50179CF1093CA0577
:102540000093C9050E945A01DC0112960D911C915D
:102550000115110509F451C1D801ED91FC910480D8
:10256000F581E02DBE016B5E7F4FC8010995009794
:1025700009F03EC1F80100851185EACFF3E0FF12B2
:102580000EC08F89882309F440C0823061F440E88E
:102590006DE08DE391E00E949C01811148CF81E2C2
:1025A0008093EB0047CF813029F440E86BE081E372
:1025B00091E0F1CF833099F70E945A01DC01129625
:1025C000ED90FC908E010F5F1F4F6801E114F10444
:1025D00079F0D701ED91FC910680F781E02DB801EB
:1025E000C7010995080F111DF701E084F184EECFB2
:1025F000D8011C92F60101900020E9F73197BF0144
:102600006C197D0940E0C601C6CF6BE171E0FB01AA
:10261000449150E080E80E94CF0109CF973009F43F
:10262000BECF983021F481E08093F10000CF993043
:1026300009F0FDCE837009F0B2CFEBEDF2E081E05E
:1026400031E096E32191222371F08093E9003093E9
:10265000EB00DF0111972C912093EC009093ED009B
:102660008F5F873079F78EE78093EA001092EA0057
:102670008F898093DE05DBCE8B8D9C8D1092E900D7
:102680001092CC051092CB059093CA058093C90592
:10269000898D811192C08E899D89913A49F4813248
:1026A00009F07DCF47E050E060EC72E080E0B3CF0E
:1026B000913209F074CF833269F48F89988DB0E03C
:1026C000A0E08093BC029093BD02A093BE02B093A1
:1026D000BF02ADCE803269F48091E80082FFFCCF6A
:1026E00067E080EC92E00E9426028BEF8093E80086
:1026F0009ECE823209F09BCE8F898093C702EEEF87
:10270000FFE7859194918B3F9C4D51F1E0E0F8E01B
:102710008091C0029091C102A091C202B091C30207
:10272000803B9440A105B105F1F48091C70280FD82
:102730001AC0EE3F8AE0F80789F587E797E79183AB
:102740008083809160008093CD0588E19BE00FB687
:10275000F894A895809360000FBE9093600067CEB8
:10276000EEEFFAE0D5CF808191818737974709F066
:102770005ECEA89580916000886180936000809112
:10278000CD0580936000EE3F2AE0F20789F080914A
:10279000FE0A9091FF0A9183808349CE80819181C6
:1027A0008737980751F29093FF0A8093FE0AC5CFAE
:1027B0001092FF0A1092FE0A3ACE0E945A01DC01E2
:1027C00012960D911C910115110509F4E8CED8015E
:1027D000ED91FC910190F081E02DBE016B5E7F4F89
:1027E000C8010995811123CEF80100851185EBCF31
:1027F000181619060CF41BCED2CEF1E0FF12BECE95
:102800006FE171E004CF1F920F920FB60F92112467
:102810002F933F938F939F93AF93BF938091C10565
:102820009091C205A091C305B091C4053091C00537
:1028300023E0230F2D3758F50196A11DB11D2093DC
:10284000C0058093C1059093C205A093C305B093C2
:10285000C4058091C5059091C605A091C705B091AA
:10286000C8050196A11DB11D8093C5059093C605AD
:10287000A093C705B093C805BF91AF919F918F9169
:102880003F912F910F900FBE0F901F90189526E843
:10289000230F0296A11DB11DD2CF1F920F920FB62A
:1028A0000F9211242F933F934F935F936F937F93D6
:1028B0008F939F93AF93BF93EF93FF93E091D002D9
:1028C000F091D1020995FF91EF91BF91AF919F9146
:1028D0008F917F916F915F914F913F912F910F90C9
:1028E0000FBE0F901F9018951F920F920FB60F9268
:1028F00011242F933F934F935F936F937F938F9305
:102900009F93AF93BF93EF93FF93E091CE02F0912B
:10291000CF020995FF91EF91BF91AF919F918F9158
:102920007F916F915F914F913F912F910F900FBECB
:102930000F901F9018951F920F920FB60F921124AF
:102940002F933F934F935F936F937F938F939F93B7
:10295000AF93BF93EF93FF93E091CC02F091CD0240
:102960000995FF91EF91BF91AF919F918F917F91C9
:102970006F915F914F913F912F910F900FBE0F90EC
:102980001F9018951F920F920FB60F9211242F933C
:102990003F934F935F936F937F938F939F93AF93E7
:1029A000BF93EF93FF93E091CA02F091CB02099598
:1029B000FF91EF91BF91AF919F918F917F916F9117
:1029C0005F914F913F912F910F900FBE0F901F90ED
:1029D00018951F920F920FB60F9211242F933F93C9
:1029E0004F935F936F937F938F939F93AF93BF9317
:1029F000EF93FF93E091C802F091C9020995FF910E
:102A0000EF91BF91AF919F918F917F916F915F9166
:102A10004F913F912F910F900FBE0F901F901895DF
:102A20001F920F920FB60F9211242F933F934F9343
:102A30005F936F937F938F939F93AF93BF93CF9346
:102A4000DF93EF93FF9320915F0430E0F901E654A8
:102A5000FF4F8491F901EA57FE4FD491F901E959EA
:102A6000FE4FC491CC2379F081110E94B402EC2F67
:102A7000F0E0EE0FFF1FE455FF4FA591B491EC91EC
:102A8000ED2381E009F480E0209163043091640437
:102A90002F5F3F4F3093640420936304909162044E
:102AA000953618F096E090935E0490915E04943011
:102AB00009F466C0B8F49230F1F0933009F444C0E0
:102AC00090916104992309F46BC081117CC08091BD
:102AD0006004882309F463C08091600461E00E946F
:102AE00000035EC0953009F457C0963049F791E075
:102AF00090932F054FC08111E3CF20916304309153
:102B000064042436310528F410926404109263049E
:102B1000D7CF10922F0510926204E091620491E0E9
:102B20009E0F90936204F0E020916304309164045E
:102B3000EE0FFF1FE25AFB4F308727831092640489
:102B40001092630493E019C0813009F0B9CFE0918D
:102B5000620491E09E0F90936204F0E02091630480
:102B600030916404EE0FFF1FE25AFB4F308727833A
:102B7000109264041092630494E090935E04A0CFDA
:102B8000882359F22091630430916404253631057D
:102B900008F496CF95E0F1CF811192CFB5CF2D9A61
:102BA000FF91EF91DF91CF91BF91AF919F918F9165
:102BB0007F916F915F914F913F912F910F900FBE39
:102BC0000F901F90189580916004882321F08091C8
:102BD000600460E084CF2D98E3CFEFE1F6E013824C
:102BE000128288EE93E0A0E0B0E084839583A68310
:102BF000B78385EE92E0918380838FEF9FEF958777
:102C000084872DE030E030937F0620937E06E5E751
:102C1000F6E0938382832EE531E0358324832AE036
:102C200030E03783268321E02087918380838CE303
:102C300090E09093D3028093D20265EF72E08FE62A
:102C400096E00C942B0ACF93DF9300D0CDB7DEB77C
:102C5000789484B5826084BD84B5816084BD85B577
:102C6000826085BD85B5816085BD80916E00816083
:102C700080936E0010928100809181008260809329
:102C8000810080918100816080938100809180002B
:102C90008160809380008091910082608093910098
:102CA000809191008160809391008091900081607B
:102CB000809390008091C10084608093C1008091D6
:102CC000C10082608093C1008091C10081608093C7
:102CD000C1008091C30081608093C3008091C000D7
:102CE00082608093C0008091C20081608093C200A6
:102CF00080917A00846080937A0080917A0082606B
:102D000080937A0080917A00816080937A0080912C
:102D10007A00806880937A001092DE051092D005C8
:102D20001092CF058091D70081608093D70080EA10
:102D30008093D80089B5806189BD89B5826089BDDD
:102D400009B400FEFDCF61E070E080E090E00E94F9
:102D5000E3048091D8008F7C80618093D8008091BB
:102D6000E000807F8093E0008091E1008E7E809380
:102D7000E1008DE08093E200559A209A5D982898B2
:102D80008FEF9FEF90932C0680932B0685E00E9497
:102D9000FF0060E085E00E94000386E00E94FF00E3
:102DA00060E086E00E94000387E00E94FF0061E08F
:102DB00087E00E9400038AE090E090937806809379
:102DC00077060E94FF0081E080937D068EE591E00A
:102DD00090937A068093790680E0E82E80E0F82EC2
:102DE0008FE196E00E949A02892B69F163E070E01E
:102DF00080E090E00E94E3048FE196E00E94580298
:102E000089831A8200917306109174060F5F1F4F19
:102E1000B8018FE696E00E94FB09882309F3209110
:102E20006F06309170068091730690917406BE0112
:102E30006F5F7F4F820F931F0E94F21A10937406E8
:102E400000937306CDCF8091730690917406892B01
:102E500011F00E94670AE114F10411F20E940000CF
:102E6000BFCF8FE696E00C94230AE89409C097FB45
:102E70003EF490958095709561957F4F8F4F9F4F51
:102E80009923A9F0F92F96E9BB279395F695879595
:102E900077956795B795F111F8CFFAF4BB0F11F458
:102EA00060FF1BC06F5F7F4F8F4F9F4F16C08823FF
:102EB00011F096E911C0772321F09EE8872F762F35
:102EC00005C0662371F096E8862F70E060E02AF076
:102ED0009A95660F771F881FDAF7880F9695879562
:102EE00097F908950E9485170C94F6170E94E81729
:102EF00038F00E94EF1720F0952311F00C94DF17A3
:102F00000C94E51711240C942A180E94071870F3EA
:102F1000959FC1F3950F50E0551F629FF001729F7E
:102F2000BB27F00DB11D639FAA27F00DB11DAA1F8D
:102F3000649F6627B00DA11D661F829F2227B00DDA
:102F4000A11D621F739FB00DA11D621F839FA00D65
:102F5000611D221F749F3327A00D611D231F849FB5
:102F6000600D211D822F762F6A2F11249F5750400C
:102F70009AF0F1F088234AF0EE0FFF1FBB1F661F87
:102F8000771F881F91505040A9F79E3F510580F050
:102F90000C94DF170C942A185F3FE4F3983ED4F3A7
:102FA000869577956795B795F795E7959F5FC1F7F4
:102FB000FE2B880F911D9695879597F9089597F99F
:102FC0009F6780E870E060E008959FEF80EC0895CF
:102FD00000240A94161617061806090608950024F8
:102FE0000A9412161306140605060895092E039472
:102FF000000C11F4882352F0BB0F40F4BF2B11F4E6
:1030000060FF04C06F5F7F4F8F4F9F4F089557FD44
:103010009058440F551F59F05F3F71F04795880F46
:1030200097FB991F61F09F3F79F0879508951216DD
:1030300013061406551FF2CF4695F1DF08C0161689
:1030400017061806991FF1CF86957105610508943A
:103050000895E894BB2766277727CB0197F9089551
:103060002F923F924F925F926F927F928F929F9298
:10307000AF92BF92CF92DF92EF92FF920F931F9386
:10308000CF93DF93CDB7DEB7CA1BDB0B0FB6F89437
:10309000DEBF0FBECDBF09942A88398848885F8477
:1030A0006E847D848C849B84AA84B984C884DF80E8
:1030B000EE80FD800C811B81AA81B981CE0FD11DCC
:1030C0000FB6F894DEBF0FBECDBFED010895A29FED
:1030D000B001B39FC001A39F700D811D1124911DEC
:1030E000B29F700D811D1124911D08950E940F182B
:1030F00088F09F5798F0B92F9927B751B0F0E1F0B9
:10310000660F771F881F991F1AF0BA95C9F714C068
:10311000B13091F00E942918B1E008950C9429185B
:10312000672F782F8827B85F39F0B93FCCF38695A1
:1031300077956795B395D9F73EF4909580957095FE
:1031400061957F4F8F4F9F4F0895AA1BBB1B51E185
:1031500007C0AA1FBB1FA617B70710F0A61BB70B07
:10316000881F991F5A95A9F780959095BC01CD01AC
:103170000895052E97FB1EF400940E94D01857FD69
:1031800007D00E94E51807FC03D04EF40C94D01829
:1031900050954095309521953F4F4F4F5F4F089583
:1031A00090958095709561957F4F8F4F9F4F0895B3
:1031B000EE0FFF1F0590F491E02D09940E9467180F
:1031C000B7FF0895821B930B0895A1E21A2EAA1B44
:1031D000BB1BFD010DC0AA1FBB1FEE1FFF1FA217C7
:1031E000B307E407F50720F0A21BB30BE40BF50BC4
:1031F000661F771F881F991F1A9469F7609570954D
:10320000809590959B01AC01BD01CF0108950F936E
:103210001F93CF93DF938230910510F482E090E00A
:10322000E0918206F091830630E020E0B0E0A0E07B
:10323000309799F42115310509F44AC0281B390B40
:1032400024303105D8F58A819B816115710589F19A
:10325000FB0193838283FE0111C040815181028171
:10326000138148175907E0F04817590799F4109748
:1032700061F012960C93129713961C933296CF011D
:10328000DF91CF911F910F910895009382061093C3
:103290008306F4CF2115310551F04217530738F05A
:1032A000A901DB019A01BD01DF01F801C1CFEF01E6
:1032B000F9CF9093830680938206CDCFFE01E20F73
:1032C000F31F819391932250310939832883D7CFFB
:1032D0002091800630918106232B41F42091D60263
:1032E0003091D70230938106209380062091D4023A
:1032F0003091D5022115310541F42DB73EB74091EB
:10330000D8025091D902241B350BE0918006F09130
:103310008106E217F307A0F42E1B3F0B281739078D
:1033200078F0AC014E5F5F4F2417350748F04E0F21
:103330005F1F5093810640938006819391939FCFA6
:10334000F0E0E0E09CCFCF93DF930097E9F0FC0141
:10335000329713821282A0918206B0918306ED010A
:1033600030E020E01097A1F420813181820F931F7B
:1033700020918006309181062817390709F061C035
:10338000F0938106E0938006DF91CF910895EA01E2
:10339000CE17DF07E8F54A815B819E014115510593
:1033A000B1F7E901FB83EA8349915991C40FD51F15
:1033B000EC17FD0761F4808191810296840F951FBF
:1033C000E90199838883828193819B838A83F0E0DA
:1033D000E0E012968D919C9113970097B9F52D918D
:1033E0003C911197CD010296820F931F2091800688
:1033F000309181062817390739F6309751F5109228
:10340000830610928206B0938106A0938006BCCFFB
:10341000D383C28340815181840F951FC817D90778
:1034200061F44E5F5F4F88819981480F591F518326
:1034300040838A819B81938382832115310509F022
:10344000B0CFF0938306E09382069ECFFD01DC01AE
:10345000C0CF13821282D7CFB0E0A0E0E2E3FAE15E
:103460000C9432188C01009751F4CB010E9407197B
:103470008C01C801CDB7DEB7E0E10C944E18FC0119
:10348000E60FF71F9C0122503109E217F30708F4F9
:103490009DC0D901CD91DC911197C617D70798F03F
:1034A000C530D10530F3CE0104978617970708F38E
:1034B000C61BD70B2297C193D1936D937C93CF01F9
:1034C0000E94A319D6CF5B01AC1ABD0A4C018C0E29
:1034D0009D1EA0918206B0918306512C412CF12CA7
:1034E000E12C109731F58091800690918106881526
:1034F000990509F05CC04616570608F058C080913F
:10350000D4029091D502009741F48DB79EB74091B7
:10351000D8025091D902841B950BE817F90708F0DF
:1035200055C0F0938106E0938006F90171836083B2
:10353000A0CF8D919C91119712966C901297139633
:103540007C901397A815B90559F56C0142E0C40E9B
:10355000D11CCA14DB0420F1AC014A195B09DA0161
:103560001296159780F06282738251834083D9014D
:103570006D937C93E114F10471F0D7011396FC93E1
:10358000EE93129776CF22968C0F9D1FF9019183AF
:103590008083F301EFCFF0938306E093820669CF37
:1035A0004816590608F42C017D01D3019ACFCB01AE
:1035B0000E9407197C01009749F0AE01B8010E94F2
:1035C000E91AC8010E94A319870153CF10E000E057
:1035D00050CFFB01DC0102C001900D9241505040E0
:1035E000D8F70895FB01DC0101900D920020E1F76E
:1035F0000895FB0151915523A9F0BF01DC014D91C4
:1036000045174111E1F759F4CD010190002049F02F
:103610004D9140154111C9F3FB014111EFCF81E0FC
:1036200090E00197089510E0C4EDD0E004C0FE01E1
:103630000E94D8182196C53DD107C9F7F894FFCF4D
:10364000D020041026020E0626020E0626020E06C2
:103650002602F4015802DC055802F40126020E0687
:1036600026020E06260204105802C2015802F40176
:1036700026020E062602F4012602F4012602F401B7
:103680002602F4015802F40158029E203610260248
:103690000E0626020E0626020E062602F401260259
:1036A0000E062602F40126020E0626020E06580217
:1036B000041026020E062602F40126020E06260239
:1036C000F4015802F4012602F4012602F401260254
:1036D000F4018A02D020041026020E0626020E06ED
:1036E00026020E062602F40126020E062602F40128
:1036F00058020E0626020E062602041026020E06A8
:103700002602F4015802F40126020E062602F401F4
:103710002602F4012602F4012602F4018A02D020D6
:10372000041026020E0626020E0626020E062602A9
:10373000F4015802DC055802F40126020E062602A6
:103740000E06260204105802C2015802F401260295
:10375000F40126020E062602F4012602F4012602D6
:10376000F4015802F4015802D020041026020E067B
:1037700026020E0626020E062602F4015802DC0579
:103780005802F40126020E0626020E062602041036
:103790005802DC055802DC055802F4012602F40147
:1037A0002602F4012602F4012602F4015802C201A5
:1037B0008A02D020041026020E065802DC055802A8
:1037C000DC055802F40126020E062602F401260248
:1037D0000E0626020E062602361026020E062602C7
:1037E0000E062602F40126020E062602F401260227
:1037F000F4012602F4015802F4015802FFFFFFFF12
:1038000000E10000000000001E011E011E011E015B
:103810001E013C0000008406800000C18081000081
:10382000000000000033021505540249029A0258B4
:103830000276020D0A00696E69740049522D586DB6
:1038400069742E007077726869666900646163004C
:103850006175780070686F6E6F006D7574650064D7
:10386000776E66007570660064776E6300757063CE
:10387000007072656C656674007072657269676865
:103880007400646973706C6179006261636B6C6968
:10389000676874006D656E75007077727476007479
:1038A00076766F6C7570007476766F6C64776E00E8
:1038B00068646D69310068646D69320070777261A7
:1038C00063006163746D707570006163746D706422
:1038D000776E00616366616E757000616366616E2C
:1038E00064776E00737562707772007375626F6EC5
:1038F000007375626F66660073756275700073752C
:103900006264776E0075736200636F617869616CE1
:10391000006F70746963616C00696E6175746F002B
:10392000666574306F6E00666574306F666600663B
:103930006574316F6E00666574316F66660066652A
:1039400074326F6E00666574326F6666007266610F
:10395000316F6E00726661316F6666007266613249
:103960006F6E00726661326F666600726661336FF9
:103970006E00726661336F666600726662316F6EEA
:1039800000726662316F666600726662326F6E0048
:0E399000726662326F66660072666233000015
:00000001FF
