:100000000C9463000C9459080C9432080C948B00E7
:100010000C948B000C948B000C948B000C94800837
:100020000C948B000C948B000C948B000C948B0024
:100030000C948B000C948B000C948B000C948B0014
:100040000C94E8070C948B000C94B6070C94900762
:100050000C948B000C948B000C948B000C948B00F4
:100060000C948B000C948B000000000023002600F1
:10007000290000000008000201000003040700003E
:1000800000000000000000000000250028002B00F8
:1000900000000000240027002A00040404040404D3
:1000A0000404020202020202030303030303010227
:1000B00004081020408001020408102001020408F6
:1000C00010205D09070D11241FBECFEFD8E0DEBF61
:1000D000CDBF23E0A2E8B1E001C01D92AF3DB20761
:1000E000E1F711E0A0E0B1E0E2EEF1E202C005903C
:1000F0000D92A238B107D9F710E0C2E6D0E004C0F3
:100100002197FE010E94D20EC136D107C9F70E9485
:10011000AD090C94E4100C94000090E0FC01E25551
:10012000FF4F249186569F4FFC018491882399F0BC
:1001300090E0880F991FFC01E057FF4FA591B49103
:10014000FC01EA57FF4F859194918FB7F894EC9199
:10015000E22BEC938FBF08950895AF92BF92CF9298
:10016000DF92EF92FF920F931F93CF93DF936C0177
:100170007B018B01040F151FEB015E01AE18BF0858
:10018000C017D10759F06991D601ED91FC9101900A
:10019000F081E02DC6010995892B79F7C501DF9122
:1001A000CF911F910F91FF90EF90DF90CF90BF9074
:1001B000AF900895FC01538D448D252F30E0842F9E
:1001C00090E0821B930B541710F0CF96089501977F
:1001D0000895FC01918D828D981761F0A28DAE0F6C
:1001E000BF2FB11D5D968C91928D9F5F9F73928FF3
:1001F00090E008958FEF9FEF0895FC01918D828D1F
:10020000981731F0828DE80FF11D858D90E00895EB
:100210008FEF9FEF0895FC01918D228D892F90E043
:10022000805C9F4F821B91098F73992708958DE2FF
:1002300093E00E940B0121E0892B09F420E0822F3A
:10024000089580E090E0892B29F00E941701811128
:100250000C9400000895FC01A48DA80FB92FB11DC6
:10026000A35ABF4F2C91848D90E001968F739927EC
:10027000848FA689B7892C93A089B1898C918370CA
:1002800080648C93938D848D981306C00288F389C3
:10029000E02D80818F7D80830895EF92FF920F93F0
:1002A0001F93CF93DF93EC0181E0888F9B8D8C8D22
:1002B00098131AC0E889F989808185FF15C09FB716
:1002C000F894EE89FF896083E889F98980818370D9
:1002D000806480839FBF81E090E0DF91CF911F9188
:1002E0000F91FF90EF900895F62E0B8D10E00F5FA9
:1002F0001F4F0F731127E02E8C8D8E110CC00FB67F
:1003000007FCFACFE889F989808185FFF5CFCE0116
:100310000E942B01F1CFEB8DEC0FFD2FF11DE35A65
:10032000FF4FF0829FB7F8940B8FEA89FB89808199
:100330008062CFCFCF93DF93EC01888D8823B9F013
:10034000AA89BB89E889F9898C9185FD03C08081E0
:1003500086FD0DC00FB607FCF7CF8C9185FFF2CF5D
:10036000808185FFEDCFCE010E942B01E9CFDF9187
:10037000CF910895833081F028F4813099F0823054
:10038000A9F008958730A9F08830C9F08430B1F41D
:10039000809180008F7D03C0809180008F77809353
:1003A0008000089584B58F7784BD089584B58F7DCE
:1003B000FBCF8091B0008F778093B000089580913B
:1003C000B0008F7DF9CF1F93CF93DF93282F30E0BC
:1003D000F901EE58FF4F8491F901E255FF4FD49196
:1003E000F901E656FF4FC491CC23A9F0162F8111D5
:1003F0000E94BA01EC2FF0E0EE0FFF1FEA57FF4F0B
:10040000A591B4918FB7F894EC91111108C0D095D3
:10041000DE23DC938FBFDF91CF911F910895DE2BF8
:10042000F8CFCF92DF92FF920F931F93CF93DF937A
:100430002091D2033091D3032F3F3F4F09F475C071
:10044000C091D003D091D103F12CCF3FDC07C1F094
:10045000C23070F4FE01FF27C13009F46EC0E89885
:10046000EE0FFF1FE050FF4F2CEA30E03183208376
:100470002FEF3FEF3093D1032093D003FF24F39469
:100480008B016C0161E08091D2030E94E3018091B5
:10049000D4039091D503C89E9001C99E300DD89E7B
:1004A000300D11242230310540F0C901880F991F09
:1004B000880F991F05970197F1F760E08091D203AB
:1004C0000E94E3012091D4033091D503029FC00123
:1004D000039F900D129F900D11248230910538F0EA
:1004E000880F991F880F991F05970197F1F7FF2033
:1004F000E1F0D093D103C093D003CF3FDC07A9F044
:100500008C2FC23090F4DD27CC0FDD1FC050DF4FA1
:100510002EEF32E039832883813089F080916900A1
:100520008C7F816080936900E89ADF91CF911F9161
:100530000F91FF90DF90CF900895E99891CF80912F
:100540006900837F846080936900E99AEECF3FB7AA
:10055000F8948091E9029091EA02A091EB02B091A7
:10056000EC0226B5A89B05C02F3F19F00196A11DEE
:10057000B11D3FBFBA2FA92F982F8827BC01CD01ED
:10058000620F711D811D911D42E0660F771F881F4C
:10059000991F4A95D1F708958F929F92AF92BF927B
:1005A000CF92DF92EF92FF924B015C010E94A70273
:1005B0006B017C010E94A7026C197D098E099F09BD
:1005C000683E734081059105A8F321E0821A9108E5
:1005D000A108B10888EEC80E83E0D81EE11CF11C0A
:1005E00081149104A104B10429F7FF90EF90DF90EA
:1005F000CF90BF90AF909F908F9008952F923F9291
:100600004F925F926F927F928F929F92AF92BF9222
:10061000CF92DF92EF92FF920F931F93CF93DF93CE
:10062000CDB7DEB7A2970FB6F894DEBF0FBECDBF31
:100630000E94A7026D877E878F87988B8091E0024A
:100640009091E1025B01A81AB90AB092DF02A09270
:10065000DE0229E8A21623E1B20608F4AEC2009138
:10066000580210915902C801885C91098A159B05AE
:1006700008F09FC280579E4FA816B90608F099C28D
:100680008091560290915702019690935702809361
:100690005602209054023090550231E0231A31085E
:1006A000029709F086C2C8016FE170E00E94B70EA0
:1006B0007A8369836B01F12CE12C80900401909086
:1006C00005019B01D4010E94CB0E0E94470D2AE038
:1006D00037ED43E25CE30E94840D0E94880E2B01FB
:1006E0003C0129813A81A3E0B0E00E94790E9B0190
:1006F000AC01241935094609570929833A834B83EC
:100700005C83A3019201260F371F481F591F2D83B9
:100710003E834F83588721E030E080E090E0DC01A9
:10072000B701A601441955096609770949875A870F
:100730006B877C87B701A601440D551D661D771D8B
:10074000498B5A8B6B8B7C8B2215330508F073C059
:10075000F901EE0FFF1FE85AFD4F4081518170E013
:1007600060E049845A846B847C844416550666068E
:10077000770658F5C988DA88EB88FC884C155D0542
:100780006E057F0510F5F901EE0FFF1FE65AFD4FCC
:1007900040805180712C612CC980DA80EB80FC8014
:1007A000C414D504E604F70480F4CD80DE80EF8025
:1007B000F8844C145D046E047F0438F4880F991F8C
:1007C000AA1FBB1F2E5F3F4FBFCF49805A806B804F
:1007D0007C80441655066606770640F5CD80DE809F
:1007E000EF80F8844C155D056E057F05F8F4F9017E
:1007F000EE0FFF1FE65AFD4F4081518170E060E02F
:1008000049845A846B847C844416550666067706B0
:1008100068F4C988DA88EB88FC884C155D056E059C
:100820007F0520F40196A11DB11DC8CF910180E084
:1008300090E0DC01C7CF892B8A2B8B2B09F0B5C147
:10084000C8016AE070E00E94B70E9B016B01F12CB9
:10085000E12CD4010E94CB0E0E94470D2AE037ED17
:1008600043E25CE30E94840D0E94880E2B013C0150
:10087000B701A601440F551F661F771FDB01CA0190
:1008800084199509A609B7098D839E83AF83B8871C
:10089000DB01CA01840D951DA61DB71D898B9A8B9E
:1008A000AB8BBC8B80E090E0DC0121E030E0B70155
:1008B000A601441955096609770949875A876B8744
:1008C0007C8749885A886B887C884C185D086E083C
:1008D0007F084D8A5E8A6F8A788E2215330508F06C
:1008E00079C0F901EE0FFF1FE85AFD4FC080D1809B
:1008F000F12CE12C49855A856B857C854C155D056D
:100900006E057F0588F54D885E886F88788CC414E5
:10091000D504E604F70440F5F901EE0FFF1FE65A8F
:10092000FD4F0190F081E02DAF0170E060E0498360
:100930005A836B837C834D805E806F8078844416FD
:1009400055066606770680F449885A886B887C8845
:10095000441555056605770538F4880F991FAA1FB9
:10096000BB1F2E5F3F4FB9CF4D815E816F81788570
:100970004C155D056E057F0540F549885A886B88E2
:100980007C88C414D504E604F704F8F4F901EE0FEA
:10099000FF1FE65AFD4FC080D180F12CE12C498524
:1009A0005A856B857C854C155D056E057F0568F461
:1009B0004D885E886F88788CC414D504E604F704EB
:1009C00020F40196A11DB11DC8CF910180E090E0F7
:1009D000DC01C7CF892B8A2B8B2B09F0E6C0C8011D
:1009E00067E470E00E94B70E7E8F6D8F9B01D4018B
:1009F0000E94CB0E0E94470D2AE037ED43E25CE3F4
:100A00000E94840D0E94880E6B017C016D8C7E8C8F
:100A1000C301B0E0A0E072E0880F991FAA1FBB1FBE
:100A20007A95D1F7AC01BD014C195D096E097F09BA
:100A300049835A836B837C8326013701480E591EF4
:100A40006A1E7B1E4D825E826F8278862D8D3E8D62
:100A5000ABE0B0E00E94790E3B014C016C187D08C0
:100A60008E089F0869867A868B869C8626013701C8
:100A7000460E571E681E791E498A5A8A6B8A7C8ADE
:100A8000A9E0B0E00E94790E3B014C016C187D0892
:100A90008E089F086D8A7E8A8F8A988E260137017C
:100AA000460E571E681E791E498E5A8E6B8E7C8E9E
:100AB000A6E0B0E00E94790E3B014C016C187D0865
:100AC0008E089F086F8E78A289A29AA2DC01CB01C2
:100AD0008C0D9D1DAE1DBF1D21E030E0221533059C
:100AE00008F063C0F901EE0FFF1FE85AFD4FC08008
:100AF000D180F12CE12C49815A816B817C814C158C
:100B00005D056E057F0520F54D805E806F807884E1
:100B1000C414D504E604F704D8F4F901EE0FFF1F5E
:100B2000E65AFD4F4081518170E060E069847A842B
:100B30008B849C84641675068606970648F449885B
:100B40005A886B887C88441555056605770550F1F1
:100B50006D887E888F88988C6C147D048E049F0429
:100B600000F5498D5A8D6B8D7C8DC416D506E60631
:100B7000F706B8F4F901EE0FFF1FE65AFD4FC080EB
:100B8000D180F12CE12C4F8C58A069A07AA04C1494
:100B90005D046E047F0428F4C816D906EA06FB0635
:100BA00008F091012E5F3F4F99CF1092570210929B
:100BB0005602109255021092540280915402909164
:100BC00055028334910540F0109255021092540260
:100BD0001092570210925602809154029091550241
:100BE0009C012F5F3F4F3093550220935402880F92
:100BF000991FFC01E85AFD4FB182A0826D847E846A
:100C00008F8498886092E0027092E1028092E20202
:100C10009092E302A2960FB6F894DEBF0FBECDBF4E
:100C2000DF91CF911F910F91FF90EF90DF90CF90C8
:100C3000BF90AF909F908F907F906F905F904F90FC
:100C40003F902F9008958F929F92AF92BF92CF9234
:100C5000DF92EF92FF926B017C010E94A7024B0191
:100C60005C0184E0C81AD108E108F108C80CD91C5D
:100C7000EA1CFB1CC814D904EA04FB0438F40E94E3
:100C8000A70286169706A806B906C8F30E94A7020F
:100C90006C157D058E059F05C8F3FF90EF90DF90E2
:100CA000CF90BF90AF909F908F9008952091B0000B
:100CB0002F7D2093B0008530910528F0BC0190E095
:100CC00080E00C9423060895E0EBF0E020812062A0
:100CD0002083BC0190E080E00C942306CF93DF9347
:100CE0002091CE033091CF03232B89F0FC01C091DA
:100CF000CA03D091CB0360817181CE010E94CA10DA
:100D0000009729F08C1B9D0BDF91CF9108958FEFF9
:100D10009FEFFACFFC0101900020E9F73197AF0176
:100D2000481B590BBC018DE293E00C94AD00CF93AE
:100D3000DF93FC0144815581608171818DE293E0F4
:100D40000E94AD00EC018EE191E00E948A068C0FBA
:100D50009D1FDF91CF910895CF93DF930E948A0664
:100D6000EC018EE191E00E948A068C0F9D1FDF91BD
:100D7000CF910895FC0180819181009711F00C942E
:100D8000740F0895FC0180819181009711F00C94FB
:100D90000B0D60E070E0CB0108950F931F93CF938C
:100DA000DF93EC0188819981009759F02A813B817A
:100DB0002617370730F081E0DF91CF911F910F9117
:100DC00008958B016F5F7F4F0E94FD0F009759F0D0
:100DD000998388831B830A832C813D81232B59F7B8
:100DE000FC011082E8CF80E0E7CFEF92FF920F93F3
:100DF0001F93CF93DF93EC017B018A01BA010E941C
:100E0000CD0628813981811114C02115310519F0D1
:100E1000C9010E94740F198218821D821C821B82D4
:100E20001A82CE01DF91CF911F910F91FF90EF9029
:100E300008951D830C83B701C9010E94C310F1CF2F
:100E4000FC01118210821382128215821482FB012E
:100E500001900020E9F73197AF01461B570B0C9426
:100E6000F506CF92DF92EF92FF920F931F93CF93ED
:100E7000DF93EC017B016A014617570730F48AE0E3
:100E8000C82ED12C99E0E92EF12C60E271E0CE0160
:100E90000E9420070091CE031091CF03E016F106C7
:100EA00040F5C016D10608F48601E091CA03F0911E
:100EB000CB03E00FF11FD08010826091CA037091C4
:100EC000CB036E0D7F1D61157105E9F0FB010190EB
:100ED0000020E9F73197AF01461B570BCE010E9466
:100EE000F5068091CA039091CB03080F191FF801F2
:100EF000D082CE01DF91CF911F910F91FF90EF90A3
:100F0000DF90CF90089588819981009711F00E9419
:100F1000740F198218821D821C821B821A82E1CFF3
:100F20001F920F920FB60F9211242F933F934F935E
:100F30005F936F937F938F939F93AF93BF93EF9341
:100F4000FF938DE293E00E942B01FF91EF91BF91FF
:100F5000AF919F918F917F916F915F914F913F9151
:100F60002F910F900FBE0F901F9018951F920F9208
:100F70000FB60F9211242F938F939F93EF93FF93AC
:100F8000E0913D03F0913E038081E0914303F091B5
:100F9000440382FD1BC09081809146038F5F8F7355
:100FA00020914703821741F0E0914603F0E0E35DB2
:100FB000FC4F958F80934603FF91EF919F918F9106
:100FC0002F910F900FBE0F901F9018958081F4CF36
:100FD0001F920F920FB60F9211242F933F938F936E
:100FE0009F93AF93BF938091E5029091E602A09109
:100FF000E702B091E8023091E40223E0230F2D379D
:1010000058F50196A11DB11D2093E4028093E502DD
:101010009093E602A093E702B093E8028091E90280
:101020009091EA02A091EB02B091EC020196A11D11
:10103000B11D8093E9029093EA02A093EB02B09372
:10104000EC02BF91AF919F918F913F912F910F90A3
:101050000FBE0F901F90189526E8230F0296A11D32
:10106000B11DD2CF1F920F920FB60F9211242F9362
:101070003F934F935F936F937F938F939F93AF9320
:10108000BF93EF93FF93E0910201F0910301099563
:10109000FF91EF91BF91AF919F918F917F916F9150
:1010A0005F914F913F912F910F900FBE0F901F9026
:1010B00018951F920F920FB60F9211242F933F9302
:1010C0004F935F936F937F938F939F93AF93BF9350
:1010D000EF93FF93E0910001F09101010995FF91D9
:1010E000EF91BF91AF919F918F917F916F915F91A0
:1010F0004F913F912F910F900FBE0F901F90189519
:101100001F920F920FB60F9211242F933F934F937C
:101110005F936F937F938F939F93AF93BF93CF937F
:10112000DF93EF93FF932091830130E0F901EE58B4
:10113000FF4F8491F901E255FF4FD491F901E65632
:10114000FF4FC491CC2379F081110E94BA01EC2F9A
:10115000F0E0EE0FFF1FE859FF4FA591B491EC911D
:10116000ED2381E009F480E020918701309188012E
:101170002F5F3F4F30938801209387019091860124
:10118000953618F096E09093820190918201943008
:1011900009F466C0B8F49230F1F0933009F444C019
:1011A00090918501992309F46BC081117CC08091D5
:1011B0008401882309F463C08091840161E00E9466
:1011C000E3015EC0953009F457C0963049F791E0CD
:1011D000909353024FC08111E3CF2091870130914A
:1011E00088012436310528F4109288011092870175
:1011F000D7CF1092530210928601E091860191E0C0
:101200009E0F90938601F0E0209187013091880134
:10121000EE0FFF1FEE57FE4F308727831092880195
:101220001092870193E019C0813009F0B9CFE091A5
:10123000860191E09E0F90938601F0E02091870156
:1012400030918801EE0FFF1FEE57FE4F3087278346
:10125000109288011092870194E090938201A0CFB0
:10126000882359F220918701309188012536310574
:1012700008F496CF95E0F1CF811192CFB5CF2D9A9A
:10128000FF91EF91DF91CF91BF91AF919F918F919E
:101290007F916F915F914F913F912F910F900FBE72
:1012A0000F901F90189580918401882321F08091E0
:1012B000840160E084CF2D98E3CFEDE2F3E0138268
:1012C000128288EE93E0A0E0B0E084839583A68349
:1012D000B78380E191E09183808385EC90E09587EE
:1012E000848784EC90E09787868780EC90E0918BF0
:1012F000808B81EC90E0938B828B82EC90E0958BDD
:10130000848B86EC90E0978B868B118E128E138ED9
:10131000148E83E090E09093DA038093D903E0ED9C
:10132000F3E08FEF9FEF938382832EE531E03583E7
:1013300024832AE030E03783268321E020879183CD
:1013400080838CE390E0909305018093040160E238
:1013500071E08AEC93E00C942007CF93DF9300D0E8
:1013600000D000D0CDB7DEB7789484B5826084BD5C
:1013700084B5816084BD85B5826085BD85B5816099
:1013800085BD80916E00816080936E001092810017
:1013900080918100826080938100809181008160D2
:1013A0008093810080918000816080938000809193
:1013B000B10084608093B1008091B000816080931F
:1013C000B00080917A00846080937A0080917A00E6
:1013D000826080937A0080917A00816080937A00A5
:1013E00080917A00806880937A001092C100E09129
:1013F0003D03F0913E0382E08083E0913903F09158
:101400003A031082E0913B03F0913C038FEC808320
:1014100010924503E0914103F091420386E08083FE
:10142000E0913F03F0914003808180618083E091EF
:101430003F03F0914003808188608083E0913F0307
:10144000F0914003808180688083E0913F03F091B8
:10145000400380818F7D80838DE00E948D0060E05D
:101460008DE00E94E30185E00E948D0060E085E050
:101470000E94E30186E00E948D0060E086E00E9409
:10148000E30187E00E948D0061E087E00E94E301B4
:101490008AE090E09093D3038093D2030E948D0062
:1014A00081E08093D8038EE591E09093D5038093FB
:1014B000D403F8E12F2E312CA0E0CA2EA0E0DA2EC2
:1014C0008DE293E00E940B018C01892B69F163E0AE
:1014D00070E080E090E00E94CC028DE293E00E94F8
:1014E000E90089831A820091CE031091CF030F5F28
:1014F0001F4FB8018AEC93E00E94CD06882301F3C8
:101500002091CA033091CB038091CE039091CF03F9
:10151000BE016F5F7F4F820F931F0E94C310109315
:10152000CF030093CE03CCCF8091CE039091CF0315
:10153000892B09F460C261E271E0CE0101960E943C
:101540002007CE0101960E946E067C01CE01019615
:101550000E94BA06F7FC01C187E291E00E948A0668
:1015600061E371E0CE0101960E942007CE01019651
:101570000E946E067C01CE0101960E94BA0644E0EC
:10158000E416F1040CF46FC045E150E069E070E04E
:10159000CE0101960E94310786E391E00E94AC06DD
:1015A000CE0101960E9497068FE191E00E94AC0661
:1015B000CE0101960E94C2062B013C0110927000E0
:1015C0008091D9030E948D0060E08091D9030E9430
:1015D000E30181E08093B00059E05093B10082EDC7
:1015E0008093B300E6E4E093B40088E293E20E94C3
:1015F000640684E991E10E94560670E2E72EF12C20
:10160000812C912CA12CE0E8BE2ED301C2018821AF
:101610009921AA21BB21892B8A2B8B2B09F461C12B
:1016200080E392E00E9464068AE996E00E945606F2
:10163000B694A79497948794F1E0EF1AF10829F7EC
:1016400080E392E00E9464068091B0008F7D8093D9
:10165000B0006EE170E080E090E00E94CC02CE012C
:1016600001960E94BA066AE371E0CE0101960E94DB
:101670002007CE0101960E946E067C01CE010196E4
:101680000E94BA0644E0E416F1040CF466C046E198
:1016900050E06AE070E0CE0101960E94310780E4DC
:1016A00091E00E94AC06CE0101960E9497068FE160
:1016B00091E00E94AC06CE0101960E94C2062B0169
:1016C0003C01109270008091D9030E948D0060E06F
:1016D0008091D9030E94E30181E08093B00059E03A
:1016E0005093B10088EC8093B300E2E4E093B4003F
:1016F00080E699E00E94640688E592E00E94560622
:1017000044E1E42EF12C812C912C58E0A52EB12C33
:10171000D301C20188219921AA21BB21892B8A2BBF
:101720008B2B09F4E5C080EB94E00E94640688E509
:1017300092E00E945606B694A79497948794F1E09D
:10174000EF1AF10829F76EE170E080E090E00E9466
:10175000CC02CE0101960E94BA0665E471E0CE018A
:1017600001960E942007CE0101960E946E067C0120
:10177000CE0101960E94BA06F7FC76C08AE491E099
:101780000E948A0668E571E0CE0101960E9420075A
:10179000CE0101960E946E067C01CE0101960E9448
:1017A000BA0643E0E416F10434F149E050E067E0A2
:1017B00070E0CE0101960E9431078CE591E00E9415
:1017C000AC06CE0101960E9497068FE191E00E943F
:1017D000AC06CE0101960E94C206862F61E00E94EF
:1017E000E3016EE170E080E090E00E94CC02CE0167
:1017F00001960E94BA0663E671E0CE0101960E944E
:101800002007CE0101960E946E067C01CE01019652
:101810000E94BA0653E0E516F10434F14AE050E0C4
:1018200068E070E0CE0101960E94310788E691E001
:101830000E94AC06CE0101960E9497068FE191E0CE
:101840000E94AC06CE0101960E94C206862F60E07F
:101850000E94E3016EE170E080E090E00E94CC0223
:10186000CE0101960E94BA0660E771E0CE010196B2
:101870000E942007CE0101960E946E067C01CE01D7
:1018800001960E94BA06F7FCAEC044E150E065E064
:1018900070E0CE0101960E94310786E791E00E9438
:1018A000AC06CE0101960E9497068FE191E00E945E
:1018B000AC06CE0101960E94C206EDEEF2E09F0159
:1018C0002D5E32406115710581059105A1F020E37F
:1018D00060FD21E320A396958795779567953196CE
:1018E000EECF80E392E00E94640680E392E09ECE19
:1018F00088E592E01ACFEDEEF2E0DF0190E080E0C3
:10190000A101421B530B9A018217930750F1D796FE
:101910004C91D79740830196119731968831910564
:1019200099F7109205038091D6039091D703081779
:1019300019070CF04EC08DEEE82E82E0F82EF7016C
:1019400091917F018091D803992381F1903361F0C7
:101950009133A9F78130E1F461E070E083E090E039
:101960000DC050E35083D7CF63E070E0813021F0A9
:10197000823039F462E070E081E090E00E94110270
:10198000DECF8330E1F66BE070E084E090E0F6CFEC
:10199000823029F461E070E082E090E0EFCF8330A4
:1019A00071F666E070E089E090E0E8CF6FE170E00A
:1019B000813041F06AE070E0823021F0833031F410
:1019C00067E470E081E090E00E9411020F5F1F4F1A
:1019D000AACF6EE170E080E090E00E94CC02CE01E0
:1019E00001960E94BA0650E040E060E271E08AECA5
:1019F00093E00E94F506C114D10409F461CD0E9460
:101A00001701882309F45CCD0E94000059CD8AECAF
:101A100093E00C94BA061F93FC0199278827BC0118
:101A2000E89411911032E9F3193010F01E30C8F328
:101A30001B3251F01D3249F4689406C00E94320DE9
:101A4000610F711D811D911D119110531A30B0F35A
:101A50003EF490958095709561957F4F8F4F9F4F85
:101A60001F910895592F482F372F262F660F771F64
:101A7000881F991F660F771F881F991F620F731F9A
:101A8000841F951F660F771F881F991F0895E8947C
:101A900009C097FB3EF490958095709561957F4FB6
:101AA0008F4F9F4F9923A9F0F92F96E9BB27939564
:101AB000F695879577956795B795F111F8CFFAF474
:101AC000BB0F11F460FF1BC06F5F7F4F8F4F9F4FA5
:101AD00016C0882311F096E911C0772321F09EE803
:101AE000872F762F05C0662371F096E8862F70E069
:101AF00060E02AF09A95660F771F881FDAF7880F43
:101B00009695879597F908950E94970D0C94080E65
:101B10000E94FA0D38F00E94010E20F0952311F07A
:101B20000C94F10D0C94F70D11240C943C0E0E94B2
:101B3000190E70F3959FC1F3950F50E0551F629FEA
:101B4000F001729FBB27F00DB11D639FAA27F00D16
:101B5000B11DAA1F649F6627B00DA11D661F829F3D
:101B60002227B00DA11D621F739FB00DA11D621F22
:101B7000839FA00D611D221F749F3327A00D611D3F
:101B8000231F849F600D211D822F762F6A2F112421
:101B90009F5750409AF0F1F088234AF0EE0FFF1F54
:101BA000BB1F661F771F881F91505040A9F79E3FAB
:101BB000510580F00C94F10D0C943C0E5F3FE4F362
:101BC000983ED4F3869577956795B795F795E79501
:101BD0009F5FC1F7FE2B880F911D9695879597F90A
:101BE000089597F99F6780E870E060E008959FEF9F
:101BF00080EC089500240A941616170618060906A4
:101C0000089500240A941216130614060506089572
:101C1000092E0394000C11F4882352F0BB0F40F4FA
:101C2000BF2B11F460FF04C06F5F7F4F8F4F9F4F3A
:101C3000089557FD9058440F551F59F05F3F71F0BC
:101C40004795880F97FB991F61F09F3F79F0879523
:101C50000895121613061406551FF2CF4695F1DFAC
:101C600008C0161617061806991FF1CF869571053C
:101C7000610508940895E894BB2766277727CB0170
:101C800097F908952F923F924F925F926F927F92B1
:101C90008F929F92AF92BF92CF92DF92EF92FF927C
:101CA0000F931F93CF93DF93CDB7DEB7CA1BDB0B28
:101CB0000FB6F894DEBF0FBECDBF09942A883988CD
:101CC00048885F846E847D848C849B84AA84B984D4
:101CD000C884DF80EE80FD800C811B81AA81B981E0
:101CE000CE0FD11D0FB6F894DEBF0FBECDBFED01F4
:101CF0000895A29FB001B39FC001A39F700D811DE5
:101D00001124911DB29F700D811D1124911D089504
:101D10000E94210E88F09F5798F0B92F9927B7514C
:101D2000B0F0E1F0660F771F881F991F1AF0BA957F
:101D3000C9F714C0B13091F00E943B0EB1E0089594
:101D40000C943B0E672F782F8827B85F39F0B93F86
:101D5000CCF3869577956795B395D9F73EF4909532
:101D60008095709561957F4F8F4F9F4F0895AA1B67
:101D7000BB1B51E107C0AA1FBB1FA617B70710F076
:101D8000A61BB70B881F991F5A95A9F780959095A8
:101D9000BC01CD0108950E94790EB7FF0895821B02
:101DA000930B0895EE0FFF1F0590F491E02D099419
:101DB0000F931F93CF93DF938230910510F482E04D
:101DC00090E0E091DD03F091DE0330E020E0B0E050
:101DD000A0E0309799F42115310509F44AC0281B79
:101DE000390B24303105D8F58A819B816115710545
:101DF00089F1FB0193838283FE0111C040815181EF
:101E00000281138148175907E0F04817590799F4E0
:101E1000109761F012960C93129713961C933296BA
:101E2000CF01DF91CF911F910F9108950093DD03B2
:101E30001093DE03F4CF2115310551F042175307FB
:101E400038F0A901DB019A01BD01DF01F801C1CF22
:101E5000EF01F9CF9093DE038093DD03CDCFFE0138
:101E6000E20FF31F81939193225031093983288324
:101E7000D7CF2091DB033091DC03232B41F4209159
:101E80000801309109013093DC032093DB0320919A
:101E90000601309107012115310541F42DB73EB7F8
:101EA00040910A0150910B01241B350BE091DB039B
:101EB000F091DC03E217F307A0F42E1B3F0B281769
:101EC000390778F0AC014E5F5F4F2417350748F0B3
:101ED0004E0F5F1F5093DC034093DB03819391937C
:101EE0009FCFF0E0E0E09CCFCF93DF930097E9F045
:101EF000FC01329713821282A091DD03B091DE03C0
:101F0000ED0130E020E01097A1F420813181820FB3
:101F1000931F2091DB033091DC032817390709F068
:101F200061C0F093DC03E093DB03DF91CF91089570
:101F3000EA01CE17DF07E8F54A815B819E01411572
:101F40005105B1F7E901FB83EA8349915991C40F27
:101F5000D51FEC17FD0761F4808191810296840FF3
:101F6000951FE90199838883828193819B838A836A
:101F7000F0E0E0E012968D919C9113970097B9F5EF
:101F80002D913C911197CD010296820F931F2091C4
:101F9000DB033091DC032817390739F6309751F508
:101FA0001092DE031092DD03B093DC03A093DB03F9
:101FB000BCCFD383C28340815181840F951FC81742
:101FC000D90761F44E5F5F4F88819981480F591F8F
:101FD000518340838A819B819383828321153105BC
:101FE00009F0B0CFF093DE03E093DD039ECFFD0157
:101FF000DC01C0CF13821282D7CFB0E0A0E0E3E0D3
:10200000F0E10C94440E8C01009751F4CB010E9436
:10201000D80E8C01C801CDB7DEB7E0E10C94600E9C
:10202000FC01E60FF71F9C0122503109E217F3076C
:1020300008F49DC0D901CD91DC911197C617D7073F
:1020400098F0C530D10530F3CE0104978617970775
:1020500008F3C61BD70B2297C193D1936D937C9342
:10206000CF010E94740FD6CF5B01AC1ABD0A4C01A0
:102070008C0E9D1EA091DD03B091DE03512C412CEE
:10208000F12CE12C109731F58091DB039091DC036A
:102090008815990509F05CC04616570608F058C027
:1020A0008091060190910701009741F48DB79EB78A
:1020B00040910A0150910B01841B950BE817F90719
:1020C00008F055C0F093DC03E093DB03F901718362
:1020D0006083A0CF8D919C91119712966C9012976E
:1020E00013967C901397A815B90559F56C0142E039
:1020F000C40ED11CCA14DB0420F1AC014A195B09DF
:10210000DA011296159780F06282738251834083C0
:10211000D9016D937C93E114F10471F0D70113960A
:10212000FC93EE93129776CF22968C0F9D1FF901A8
:1021300091838083F301EFCFF093DE03E093DD031F
:1021400069CF4816590608F42C017D01D3019ACFB6
:10215000CB010E94D80E7C01009749F0AE01B80176
:102160000E94BA10C8010E94740F870153CF10E07B
:1021700000E050CFFB01DC0102C001900D92415004
:102180005040D8F70895FB01DC0101900D9200202A
:10219000E1F70895FB0151915523A9F0BF01DC013E
:1021A0004D9145174111E1F759F4CD0101900020FF
:1021B00049F04D9140154111C9F3FB014111EFCF99
:1021C00081E090E00197089510E0C2E6D0E004C0FD
:1021D000FE010E94D20E2196C336D107C9F7F894AA
:0221E000FFCF2F
:1021E200AC00AC003C000000DF03800000000000F7
:1021F2004D01AD00DA009A010B01E900FD000D0A64
:1022020000697274782E0049522D586D69742E0A35
:10221200006E65632E004E454300736F6E792E008B
:10222200536F6E79006665742E0046455420436FE5
:102232006E74726F6C2E0A006F6E2E00464554202B
:102242006F6E006F66662E00464554206F6666000C
:10225200726674782E005246205472616E736D69F4
:02226200740006
:107E0000112484B714BE81FFF0D085E080938100F7
:107E100082E08093C00088E18093C10086E0809377
:107E2000C20080E18093C4008EE0C9D0259A86E02C
:107E300020E33CEF91E0309385002093840096BBD3
:107E4000B09BFECF1D9AA8958150A9F7CC24DD24C4
:107E500088248394B5E0AB2EA1E19A2EF3E0BF2EE7
:107E6000A2D0813461F49FD0082FAFD0023811F036
:107E7000013811F484E001C083E08DD089C08234E0
:107E800011F484E103C0853419F485E0A6D080C0E4
:107E9000853579F488D0E82EFF2485D0082F10E0AE
:107EA000102F00270E291F29000F111F8ED06801E7
:107EB0006FC0863521F484E090D080E0DECF843638
:107EC00009F040C070D06FD0082F6DD080E0C81688
:107ED00080E7D80618F4F601B7BEE895C0E0D1E017
:107EE00062D089930C17E1F7F0E0CF16F0E7DF06D8
:107EF00018F0F601B7BEE89568D007B600FCFDCFD4
:107F0000A601A0E0B1E02C9130E011968C91119780
:107F100090E0982F8827822B932B1296FA010C0160
:107F200087BEE89511244E5F5F4FF1E0A038BF0790
:107F300051F7F601A7BEE89507B600FCFDCF97BE46
:107F4000E89526C08437B1F42ED02DD0F82E2BD052
:107F50003CD0F601EF2C8F010F5F1F4F84911BD097
:107F6000EA94F801C1F70894C11CD11CFA94CF0C13
:107F7000D11C0EC0853739F428D08EE10CD085E9AC
:107F80000AD08FE07ACF813511F488E018D01DD067
:107F900080E101D065CF982F8091C00085FFFCCF94
:107FA0009093C60008958091C00087FFFCCF809118
:107FB000C00084FD01C0A8958091C6000895E0E648
:107FC000F0E098E1908380830895EDDF803219F02E
:107FD00088E0F5DFFFCF84E1DECF1F93182FE3DFCA
:107FE0001150E9F7F2DF1F91089580E0E8DFEE27F6
:047FF000FF270994CA
:027FFE00040479
:0400000300007E007B
:00000001FF
