:100000000C94D5000C943A0D0C94130D0C94EC0C3C
:100010000C94C50C0C94FD000C94FD000C949E0CEB
:100020000C94FD000C94FD000C94B3090C94220A6E
:100030000C94FD000C94FD000C94FD000C94FD004C
:100040000C94FD000C94FD000C94FD000C94FD003C
:100050000C94FD000C94FD000C94FD000C94540CC9
:100060000C94FD000C94FD000C94FD000C94FD001C
:100070000C94FD000C94FD000C94FD000C94FD000C
:100080000C94FD000C94FD000C94FD000C94FD00FC
:100090000C94FD000C94FD000C94FD000C94FD00EC
:1000A0000C94FD000C94610D0C94FD000000000008
:1000B0002300260029002C002F0000000002000968
:1000C0000F0000030401000C00000000000000000D
:1000D000000000000000000000080B000202020007
:1000E00000090400000102020000052400100105BF
:1000F00024010101042402060524060001070581EC
:100100000310004009040100020A00000007050274
:1001100002400000070583024000000403090412A6
:10012000010002EF02014041233780000101020378
:100130000141726475696E6F204C4C4300417264DA
:1001400075696E6F204D6963726F000000000025B5
:100150000028002B002E00310000000000240027A2
:10016000002A002D003000040404040403040502E6
:100170000202020403020202020606060606060442
:10018000040202020404040802011040804010200E
:10019000408040800802040180402010020110804D
:1001A0001020404020003E0E811111241FBECFEFD1
:1001B000DAE0DEBFCDBF23E0A6E6B1E001C01D92CC
:1001C000AC38B207E1F711E0A0E0B1E0E8E5FBE20E
:1001D00002C005900D92A636B107D9F710E0C4ED24
:1001E000D0E004C02197FE010E946413C33DD107F3
:1001F000C9F70E94740E0C949F150C94000090E0B7
:10020000FC01EA57FE4F249189599E4FFC018491CD
:10021000882399F090E0880F991FFC01E75AFE4F60
:10022000A591B491FC01E55BFE4F859194918FB748
:10023000F894EC91E22BEC938FBF08950895FC01A4
:1002400080912603882311F13FB7F89482E08093D0
:10025000E9002091F200822F90E01816190614F49C
:1002600081E090E0882339F0289A44E64093250302
:100270004091F1004083222339F02091F2002111B6
:1002800003C02BE62093E8003FBF08958FEF9FEF58
:1002900008952FB7F89483E08093E9009091E800E7
:1002A000892F807295FF04C09091F20080E4891B31
:1002B0002FBF089580911D0381110DC082E08093AE
:1002C000190384E080931A0310921C0310921B03FD
:1002D00081E080931D0389E193E008954091D3026A
:1002E0005091D4022091D1023091D202421753078B
:1002F000B4F49091E8009570E1F39091E80092FDDC
:1003000019C08093F1008091D3029091D40201969C
:100310008F739927892B19F48EEF8093E8008091D1
:10032000D3029091D40201969093D4028093D30289
:1003300081E0089580E00895EF92FF920F931F935C
:10034000CF93DF93F82E192FE62E042F81E0860F2E
:10035000880F0E946E0183E00E946E01CF2DD12F85
:10036000EC0EFD2EF11CCE15DF05B9F007FF13C012
:10037000FE0184910E946E01182F80E00E946E01A0
:10038000812321968111EFCFDF91CF911F910F91A2
:10039000FF90EF9008958881EDCF81E0F5CFDF9257
:1003A000EF92FF920F931F93CF93DF93D82E8A0182
:1003B000EB017B01E40EF51ECE15DF0559F0D7FEEB
:1003C00012C0FE0184910E946E0121968111F4CF2A
:1003D0000FEF1FEFC801DF91CF911F910F91FF9099
:1003E000EF90DF9008958881EECF0F931F93CF9306
:1003F000DF931F92CDB7DEB782E0898342E450E0FD
:1004000069ED70E080E80E94CF010E945A01DC0192
:1004100012960D911C910115110589F0D801ED91ED
:10042000FC910280F381E02DBE016F5F7F4FC80118
:10043000099597FD04C0F80100851185ECCF8981ED
:100440000F90DF91CF911F910F910895615030F07F
:100450002091F100FC0120830196F8CF289A84E6D0
:10046000809325030895CF93DF931F92CDB7DEB716
:100470006983DC01ED91FC910280F381E02D41E084
:1004800050E0BE016F5F7F4F09950F90DF91CF91D4
:10049000089583E08093E9008091F200882319F0A9
:1004A0008AE38093E80008950E94490190E008954E
:1004B000CF93DF931F92CDB7DEB7FC01848595857E
:1004C00097FD08C02FEF3FEF358724870F90DF910E
:1004D000CF910895CE0101960E941F01019719F452
:1004E000898190E0F3CF8FEF9FEFF0CF0F931F93B1
:1004F000CF93DF931F92CDB7DEB78C01FC018485CB
:10050000958597FF0BC0CE0101960E941F010197B0
:1005100071F4898190E0F80195878487F8018485DA
:1005200095850F90DF91CF911F910F9108958FEFD7
:100530009FEFF1CFFC018485958597FD0BC09FB798
:10054000F89482E08093E9008091F2009FBF90E0F0
:10055000019608959FB7F89482E08093E900809116
:10056000F2009FBF90E0089581508F3008F047C09F
:10057000E82FF0E0E254FD4F0C946413DB02DF023D
:10058000CD02D302D702FF02FF02FF02E202E8021D
:10059000EC02F002F602FF02FA02809180008F77EF
:1005A000809380000895809180008F7DF9CF8091A5
:1005B0008000877FF5CF84B58F7784BD089584B59B
:1005C0008F7DFBCF809190008F778093900008956E
:1005D000809190008F7DF9CF80919000877FF5CF3B
:1005E0008091C0008F778093C00008958091C000F3
:1005F0008F7DF9CF8091C200877F8093C2000895DC
:100600001F93CF93DF93282F30E0F901E654FF4F7B
:100610008491F901EA57FE4FD491F901E959FE4F4F
:10062000C491CC23A9F0162F81110E94B402EC2FA3
:10063000F0E0EE0FFF1FE55BFE4FA591B4918FB781
:10064000F894EC91111108C0D095DE23DC938FBF94
:10065000DF91CF911F910895DE2BF8CF0F931F9359
:10066000CF93DF93EC011092720006E813E0F801DB
:1006700080810E94FF0060E0F80180810E940003F9
:100680009E01DD0F440B550B60E47FE180E090E0BC
:100690000E94451382E08093C00081E08093C100F6
:1006A0001092C2008093C3001092C400EFEBF0E000
:1006B00010822093D1001082C90163E070E00E9493
:1006C00031136093CF00DF91CF911F910F91089567
:1006D000CF92DF92FF920F931F93CF93DF936C0122
:1006E00080917F0390918003019609F47CC0C091B2
:1006F0007D03D0917E03F12CCF3FDC07E9F0C530BC
:1007000098F4FE01FF27C23009F47EC008F073C0E0
:10071000C13009F477C0E898EE0FFF1FE45FFE4F89
:100720008EE191E0918380838FEF9FEF90937E0322
:1007300080937D03FF24F3948B0161E080917F031C
:100740000E9400038091810390918203C89E9001D2
:10075000C99E300DD89E300D11242230310540F055
:10076000C901880F991F880F991F05970197F1F705
:1007700060E080917F030E9400032091810330910B
:100780008203029FC001039F900D129F900D1124C0
:100790008230910538F0880F991F880F991F0597AF
:1007A0000197F1F7FF20F9F0D0937E03C0937D030A
:1007B000CF3FDC07C1F08C2FC530A8F4DD27CC0F6C
:1007C000DD1FC45FDE4F28E035E0398328838230A7
:1007D00099F1F0F4813041F1809169008C7F816062
:1007E00080936900E89ADF91CF911F910F91FF905C
:1007F000DF90CF900895C33049F0C43009F08BCF1B
:10080000EE988ACFE99888CFEA9886CFEB9884CF84
:100810008330D1F0843001F780916A008F7C806151
:1008200080936A00EE9ADFCF80916900837F8460B5
:1008300080936900E99AD7CF809169008F7C8061AD
:1008400080936900EA9ACFCF809169008F738064AA
:1008500080936900EB9AC7CF3FB7F8948091CD029F
:100860009091CE02A091CF02B091D00226B5A89B64
:1008700005C02F3F19F00196A11DB11D3FBFBA2F32
:10088000A92F982F8827BC01CD01620F711D811DF2
:10089000911D42E0660F771F881F991F4A95D1F777
:1008A00008958F929F92AF92BF92CF92DF92EF9274
:1008B000FF924B015C010E942C046B017C010E94A1
:1008C0002C046C197D098E099F09683E73408105CF
:1008D0009105A8F321E0821A9108A108B10888EED9
:1008E000C80E83E0D81EE11CF11C81149104A10400
:1008F000B10429F7FF90EF90DF90CF90BF90AF90B9
:100900009F908F9008958F929F92AF92BF92CF92B7
:10091000DF92EF92FF920F931F93CF93DF936C01BF
:100920007B018A0180910B01882309F45CC08091CE
:100930002603882309F457C08091D70280FF05C0A1
:100940008091E00082608093E000E801B12C8AEFA2
:10095000A82E93E0892E2AE3922E209711F4BB2033
:10096000D9F10E94490181110AC0AA94AA20D9F1A3
:1009700061E070E080E090E00E945104EECF8C17BF
:100980001D0611F00CF08C2F9FB7F8948092E900AF
:100990002091E80025FD02C09FBFDFCF282F30E067
:1009A000C21BD30BF701815020F041914093F1001D
:1009B000FACFE20EF31EBB2021F09092E800B12C9A
:1009C000EBCF8091E80085FDE7CF9092E800BB2453
:1009D000B394209709F3F3CF5D9A84E68093D6020F
:1009E000101611063CF081E090E0F60193838283BB
:1009F00010E000E0C801DF91CF911F910F91FF90AF
:100A0000EF90DF90CF90BF90AF909F908F90089520
:100A10002F923F924F925F926F927F928F929F920E
:100A2000AF92BF92CF92DF92EF92FF920F931F93FC
:100A3000CF93DF93CDB7DEB7A2970FB6F894DEBFA2
:100A40000FBECDBF0E942C046D877E878F87988B49
:100A50008091C4029091C5025B01A81AB90AB092B4
:100A6000C302A092C20229E8A21623E1B20608F44A
:100A7000AEC200913C0210913D02C801885C910910
:100A80008A159B0508F09FC280579E4FA816B9068D
:100A900008F099C280913A0290913B02019690939E
:100AA0003B0280933A02209038023090390231E0C4
:100AB000231A3108029709F086C2C8016FE170E07D
:100AC0000E9431137A8369836B01F12CE12C8090B1
:100AD0001601909017019B01D4010E946A130E9495
:100AE000C1112AE037ED43E25CE30E94FE110E944F
:100AF00002132B013C0129813A81A3E0B0E00E945E
:100B0000F3129B01AC0124193509460957092983C1
:100B10003A834B835C83A3019201260F371F481F42
:100B2000591F2D833E834F83588721E030E080E0BA
:100B300090E0DC01B701A60144195509660977095F
:100B400049875A876B877C87B701A601440D551DDD
:100B5000661D771D498B5A8B6B8B7C8B2215330559
:100B600008F073C0F901EE0FFF1FE45CFD4F4081F8
:100B7000518170E060E049845A846B847C8444161F
:100B800055066606770658F5C988DA88EB88FC882A
:100B90004C155D056E057F0510F5F901EE0FFF1F81
:100BA000E25CFD4F40805180712C612CC980DA805D
:100BB000EB80FC80C414D504E604F70480F4CD80F7
:100BC000DE80EF80F8844C145D046E047F0438F4FA
:100BD000880F991FAA1FBB1F2E5F3F4FBFCF4980B1
:100BE0005A806B807C80441655066606770640F571
:100BF000CD80DE80EF80F8844C155D056E057F05A5
:100C0000F8F4F901EE0FFF1FE25CFD4F40815181C6
:100C100070E060E049845A846B847C8444165506F5
:100C20006606770668F4C988DA88EB88FC884C1574
:100C30005D056E057F0520F40196A11DB11DC8CF8D
:100C4000910180E090E0DC01C7CF892B8A2B8B2BB0
:100C500009F0B5C1C8016AE070E00E9431139B0140
:100C60006B01F12CE12CD4010E946A130E94C11186
:100C70002AE037ED43E25CE30E94FE110E9402137A
:100C80002B013C01B701A601440F551F661F771FBA
:100C9000DB01CA0184199509A609B7098D839E83D2
:100CA000AF83B887DB01CA01840D951DA61DB71D52
:100CB000898B9A8BAB8BBC8B80E090E0DC0121E0D0
:100CC00030E0B701A601441955096609770949873B
:100CD0005A876B877C8749885A886B887C884C1830
:100CE0005D086E087F084D8A5E8A6F8A788E2215AD
:100CF000330508F079C0F901EE0FFF1FE45CFD4FEA
:100D0000C080D180F12CE12C49855A856B857C858A
:100D10004C155D056E057F0588F54D885E886F88EA
:100D2000788CC414D504E604F70440F5F901EE0FFD
:100D3000FF1FE25CFD4F0190F081E02DAF0170E0FC
:100D400060E049835A836B837C834D805E806F8033
:100D50007884441655066606770680F449885A88D2
:100D60006B887C88441555056605770538F4880F2F
:100D7000991FAA1FBB1F2E5F3F4FB9CF4D815E81C8
:100D80006F8178854C155D056E057F0540F54988B6
:100D90005A886B887C88C414D504E604F704F8F4F8
:100DA000F901EE0FFF1FE25CFD4FC080D180F12CF6
:100DB000E12C49855A856B857C854C155D056E0552
:100DC0007F0568F44D885E886F88788CC414D504DC
:100DD000E604F70420F40196A11DB11DC8CF9101CE
:100DE00080E090E0DC01C7CF892B8A2B8B2B09F0A8
:100DF000E6C0C80167E470E00E9431137E8F6D8FFA
:100E00009B01D4010E946A130E94C1112AE037EDB0
:100E100043E25CE30E94FE110E9402136B017C011D
:100E20006D8C7E8CC301B0E0A0E072E0880F991F4A
:100E3000AA1FBB1F7A95D1F7AC01BD014C195D0902
:100E40006E097F0949835A836B837C8326013701AE
:100E5000480E591E6A1E7B1E4D825E826F82788606
:100E60002D8D3E8DABE0B0E00E94F3123B014C01B2
:100E70006C187D088E089F0869867A868B869C860A
:100E800026013701460E571E681E791E498A5A8A66
:100E90006B8A7C8AA9E0B0E00E94F3123B014C010E
:100EA0006C187D088E089F086D8A7E8A8F8A988EBE
:100EB00026013701460E571E681E791E498E5A8E2E
:100EC0006B8E7C8EA6E0B0E00E94F3123B014C01D9
:100ED0006C187D088E089F086F8E78A289A29AA24E
:100EE000DC01CB018C0D9D1DAE1DBF1D21E030E04E
:100EF0002215330508F063C0F901EE0FFF1FE45C13
:100F0000FD4FC080D180F12CE12C49815A816B8149
:100F10007C814C155D056E057F0520F54D805E805A
:100F20006F807884C414D504E604F704D8F4F9017A
:100F3000EE0FFF1FE25CFD4F4081518170E060E0E9
:100F400069847A848B849C84641675068606970669
:100F500048F449885A886B887C884415550566058D
:100F6000770550F16D887E888F88988C6C147D048D
:100F70008E049F0400F5498D5A8D6B8D7C8DC416AF
:100F8000D506E606F706B8F4F901EE0FFF1FE25C9E
:100F9000FD4FC080D180F12CE12C4F8C58A069A06E
:100FA0007AA04C145D046E047F0428F4C816D90698
:100FB000EA06FB0608F091012E5F3F4F99CF109291
:100FC0003B0210923A02109239021092380280913C
:100FD0003802909139028334910540F01092390221
:100FE0001092380210923B0210923A02809138021D
:100FF000909139029C012F5F3F4F3093390220932B
:101000003802880F991FFC01E45CFD4FB182A08279
:101010006D847E848F8498886092C4027092C50229
:101020008092C6029092C702A2960FB6F894DEBFD5
:101030000FBECDBFDF91CF911F910F91FF90EF9029
:10104000DF90CF90BF90AF909F908F907F906F90E8
:101050005F904F903F902F9008958F929F92AF9204
:10106000BF92CF92DF92EF92FF926B017C010E94C0
:101070002C044B015C0184E0C81AD108E108F10896
:10108000C80CD91CEA1CFB1CC814D904EA04FB04D4
:1010900038F40E942C0486169706A806B906C8F3F1
:1010A0000E942C046C157D058E059F05C8F3FF90EA
:1010B000EF90DF90CF90BF90AF909F908F9008956A
:1010C0002091C0002F772093C0008530910528F033
:1010D000BC0190E080E00C942D080895E0ECF0E075
:1010E000208120682083BC0190E080E00C942D08D2
:1010F0008F929F92AF92BF92CF92DF92EF92FF9228
:101100004B015C017A0188E290E00E942E0380E6A8
:1011100099E00E946E0888E592E00E946008C7018D
:101120000197C12CD12C7601C39404C0CC0CDD1CDA
:10113000EE1CFF1C8A95D2F7D501C4018C219D219C
:10114000AE21BF21892B8A2B8B2BD1F080EB94E031
:101150000E946E0888E592E00E946008F694E79489
:10116000D794C794C114D104E104F10429F7FF9086
:10117000EF90DF90CF90BF90AF909F908F900895A9
:1011800088E592E0E5CFCF93DF9320917B03309108
:101190007C03232B89F0FC01C0917703D091780365
:1011A00060817181CE010E948515009729F08C1B0A
:1011B0009D0BDF91CF9108958FEF9FEFFACFFC0148
:1011C00080819181009711F00C942F140895FC01F7
:1011D00080819181009711F00C94851160E070E09E
:1011E000CB0108950F931F93CF93DF93EC01888178
:1011F0009981009759F02A813B812617370730F0F3
:1012000081E0DF91CF911F910F9108958B016F5F66
:101210007F4F0E94B814009759F0998388831B83ED
:101220000A832C813D81232B59F7FC011082E8CFE2
:1012300080E0E7CFEF92FF920F931F93CF93DF935E
:10124000EC017B018A01BA010E94F20828813981F0
:10125000811114C02115310519F0C9010E942F1404
:10126000198218821D821C821B821A82CE01DF9194
:10127000CF911F910F91FF90EF9008951D830C83E4
:10128000B701C9010E947E15F1CFFC0111821082C5
:101290001382128215821482FB0101900020E9F76B
:1012A0003197AF01461B570B0C941A09CF92DF926E
:1012B000EF92FF920F931F93CF93DF93EC016B019B
:1012C0007A014617570720F48D2D6A01E62EF82E75
:1012D00069E471E0CE010E94450900917B03109101
:1012E0007C03C016D10640F5E016F10608F487012C
:1012F000E0917703F0917803E00FF11FF080108206
:1013000060917703709178036C0D7D1D61157105F7
:10131000E9F0FB0101900020E9F73197AF01461B8E
:10132000570BCE010E941A098091770390917803A0
:10133000080F191FF801F082CE01DF91CF911F91A4
:101340000F91FF90EF90DF90CF9008958881998161
:10135000009711F00E942F14198218821D821C829E
:101360001B821A82E1CF1F920F920FB60F921124A7
:101370008F939F938091E1009091E100937F9093F0
:10138000E10083FF0FC01092E90091E09093EB0021
:101390001092EC0092E39093ED001092260398E0F7
:1013A0009093F00082FF22C093E09093E900909127
:1013B000F200992319F09AE39093E8009091D602F5
:1013C000992341F09091D60291509093D6029111B9
:1013D00001C05D9890912503992341F090912503D8
:1013E000915090932503911101C0289884FF18C053
:1013F0008091E2008E7E81608093E2008091E10026
:101400008F7E8093E1008091D7028E7E80618093F1
:10141000D7029F918F910F900FBE0F901F9018953C
:1014200080FFF7CF8091E2008E7E80618093E200A2
:101430008091E1008E7E8093E1008091D7028E7EC4
:101440008160E5CF1F920F920FB60F921124CF92B9
:10145000DF92EF92FF920F931F932F933F934F933F
:101460005F936F937F938F939F93AF93BF93EF930C
:10147000FF93CF93DF93CDB7DEB76C97DEBFCDBFC1
:101480001092E9008091E80083FF25C068E0CE015A
:1014900045960E94260282EF8093E8008D8987FF9F
:1014A00039C09091E80090FFFCCF982F907609F01A
:1014B00034C19E894F89588D2F89F88C911131C084
:1014C000803861F58091D8028093F1001092F1008C
:1014D0008EEF8093E8006C960FB6F894DEBF0FBED7
:1014E000CDBFDF91CF91FF91EF91BF91AF919F91D0
:1014F0008F917F916F915F914F913F912F911F91AC
:101500000F91FF90EF90DF90CF900F900FBE0F9054
:101510001F9018959EEF9093E800C7CF1092F100AE
:10152000D5CF913059F48111D3CF4130510581F697
:101530008091D8028D7F8093D802CACF933049F42E
:101540008111C6CF4130510519F68091D8028260D1
:10155000F2CF953041F48091E80080FFFCCF206805
:101560002093E300B5CF963009F0A9C00B8D1C8DF8
:1015700022E01092E9001092D4021092D302F212EB
:101580002EC01092D2021092D1020E94F5011F8249
:1015900099E09983FA8291E09E8390EA98879AEF86
:1015A00099872091D3023091D402275F3F4F3C832B
:1015B0002B838D831092E9001092D4021092D302F3
:1015C0001093D2020093D10249E050E0BE016F5F58
:1015D0007F4F80E00E94CF010E94F50179CF1093E8
:1015E000D2020093D1020E945A01DC0112960D91A1
:1015F0001C910115110509F451C1D801ED91FC911F
:101600000480F581E02DBE016B5E7F4FC801099516
:10161000009709F03EC1F80100851185EACFF3E09B
:10162000FF120EC08F89882309F440C0823061F414
:1016300040E86DE08DE391E00E949C01811148CF6C
:1016400081E28093EB0047CF813029F440E86BE0E2
:1016500081E391E0F1CF833099F70E945A01DC01D8
:101660001296ED90FC908E010F5F1F4F6801E11400
:10167000F10479F0D701ED91FC910680F781E02D1E
:10168000B801C7010995080F111DF701E084F18425
:10169000EECFD8011C92F60101900020E9F73197B6
:1016A000BF016C197D0940E0C601C6CF6BE171E056
:1016B000FB01449150E080E80E94CF0109CF9730B0
:1016C00009F4BECF983021F481E08093F10000CF7F
:1016D000993009F0FDCE837009F0B2CFEFE1F1E06F
:1016E00081E031E096E32191222371F08093E900BB
:1016F0003093EB00DF0111972C912093EC00909335
:10170000ED008F5F873079F78EE78093EA001092C3
:10171000EA008F8980932603DBCE8B8D9C8D1092FF
:10172000E9001092D4021092D3029093D2028093D7
:10173000D102898D811192C08E899D89913A49F497
:10174000813209F07DCF47E050E064E071E080E055
:10175000B3CF913209F074CF833269F48F89988DB9
:10176000B0E0A0E08093000190930101A0930201FA
:10177000B0930301ADCE803269F48091E80082FF1E
:10178000FCCF67E084E091E00E9426028BEF80931B
:10179000E8009ECE823209F09BCE8F8980930B01A8
:1017A000EEEFFFE7859194918B3F9C4D51F1E0E086
:1017B000F8E08091040190910501A0910601B0919B
:1017C0000701803B9440A105B105F1F480910B0124
:1017D00080FD1AC0EE3F8AE0F80789F587E797E7B2
:1017E00091838083809160008093D50288E19BE0A3
:1017F0000FB6F894A895809360000FBE9093600098
:1018000067CEEEEFFAE0D5CF808191818737974799
:1018100009F05ECEA8958091600088618093600099
:101820008091D50280936000EE3F2AE0F20789F0B4
:101830008091FE0A9091FF0A9183808349CE808136
:1018400091818737980751F29093FF0A8093FE0A9F
:10185000C5CF1092FF0A1092FE0A3ACE0E945A019A
:10186000DC0112960D911C910115110509F4E8CEC9
:10187000D801ED91FC910190F081E02DBE016B5EED
:101880007F4FC8010995811123CEF801008511858C
:10189000EBCF181619060CF41BCED2CEF1E0FF12D6
:1018A000BECE6FE171E004CF1F920F920FB60F9280
:1018B00011242F933F938F939F93AF93BF93809166
:1018C000C9029091CA02A091CB02B091CC02309192
:1018D000C80223E0230F2D3758F50196A11DB11D35
:1018E0002093C8028093C9029093CA02A093CB02AE
:1018F000B093CC028091CD029091CE02A091CF0204
:10190000B091D0020196A11DB11D8093CD0290939C
:10191000CE02A093CF02B093D002BF91AF919F911E
:101920008F913F912F910F900FBE0F901F901895A0
:1019300026E8230F0296A11DB11DD2CF1F920F9250
:101940000FB60F9211242F933F934F935F936F9392
:101950007F938F939F93AF93BF93EF93FF93E09108
:101960001401F09115010995FF91EF91BF91AF918D
:101970009F918F917F916F915F914F913F912F91A7
:101980000F900FBE0F901F9018951F920F920FB6D9
:101990000F9211242F933F934F935F936F937F93F5
:1019A0008F939F93AF93BF93EF93FF93E0911201B7
:1019B000F09113010995FF91EF91BF91AF919F9124
:1019C0008F917F916F915F914F913F912F910F90E8
:1019D0000FBE0F901F9018951F920F920FB60F9287
:1019E00011242F933F934F935F936F937F938F9324
:1019F0009F93AF93BF93EF93FF93E0911001F0910A
:101A000011010995FF91EF91BF91AF919F918F9136
:101A10007F916F915F914F913F912F910F900FBEEA
:101A20000F901F9018951F920F920FB60F921124CE
:101A30002F933F934F935F936F937F938F939F93D6
:101A4000AF93BF93EF93FF93E0910E01F0910F01DD
:101A50000995FF91EF91BF91AF919F918F917F91E8
:101A60006F915F914F913F912F910F900FBE0F900B
:101A70001F9018951F920F920FB60F9211242F935B
:101A80003F934F935F936F937F938F939F93AF9306
:101A9000BF93EF93FF93E0910C01F0910D01099535
:101AA000FF91EF91BF91AF919F918F917F916F9136
:101AB0005F914F913F912F910F900FBE0F901F900C
:101AC00018951F920F920FB60F9211242F933F93E8
:101AD0004F935F936F937F938F939F93AF93BF9336
:101AE000CF93DF93EF93FF932091670130E0F901EB
:101AF000E654FF4F8491F901EA57FE4FD491F90162
:101B0000E959FE4FC491CC2379F081110E94B402AF
:101B1000EC2FF0E0EE0FFF1FE455FF4FA591B491BD
:101B2000EC91ED2381E009F480E020916B0130918C
:101B30006C012F5F3F4F30936C0120936B019091AC
:101B40006A01953618F096E09093660190916601CF
:101B5000943009F466C0B8F49230F1F0933009F48F
:101B600044C090916901992309F46BC081117CC034
:101B700080916801882309F463C08091680161E065
:101B80000E9400035EC0953009F457C0963049F7B3
:101B900091E0909337024FC08111E3CF20916B0108
:101BA00030916C012436310528F410926C011092AA
:101BB0006B01D7CF1092370210926A01E0916A014F
:101BC00091E09E0F90936A01F0E020916B013091BB
:101BD0006C01EE0FFF1FEA59FE4F308727831092EA
:101BE0006C0110926B0193E019C0813009F0B9CFFC
:101BF000E0916A0191E09E0F90936A01F0E02091DC
:101C00006B0130916C01EE0FFF1FEA59FE4F3087D8
:101C1000278310926C0110926B0194E090936601FF
:101C2000A0CF882359F220916B0130916C012536A9
:101C3000310508F496CF95E0F1CF811192CFB5CF61
:101C40002D9AFF91EF91DF91CF91BF91AF919F912D
:101C50008F917F916F915F914F913F912F910F9055
:101C60000FBE0F901F90189580916801882321F076
:101C70008091680160E084CF2D98E3CFE7E2F3E044
:101C80001382128288EE93E0A0E0B0E08483958313
:101C9000A683B78389E291E0918380838FEF9FEFE2
:101CA000958784872DE030E0309387032093860367
:101CB000EDE7F3E0938382832EE531E035832483DF
:101CC0002AE030E03783268321E0208791838083D8
:101CD0008CE390E0909317018093160169E471E022
:101CE00087E793E00C944509CF93DF9300D000D0B1
:101CF00000D0CDB7DEB7789484B5826084BD84B55A
:101D0000816084BD85B5826085BD85B5816085BDF6
:101D100080916E00816080936E00109281008091AE
:101D20008100826080938100809181008160809336
:101D3000810080918000816080938000809191007B
:101D400082608093910080919100816080939100E6
:101D5000809190008160809390008091C1008460A8
:101D60008093C1008091C10082608093C100809106
:101D7000C10081608093C1008091C3008160809325
:101D8000C3008091C00082608093C0008091C20037
:101D900081608093C20080917A00846080937A0091
:101DA00080917A00826080937A0080917A008160CD
:101DB00080937A0080917A00806880937A001092F4
:101DC00026031092D8021092D7028091D70081602A
:101DD0008093D70080EA8093D80089B5806189BD5F
:101DE00089B5826089BD09B400FEFDCF61E070E075
:101DF00080E090E00E9451048091D8008F7C806147
:101E00008093D8008091E000807F8093E0008091F3
:101E1000E1008E7E8093E1008DE08093E200559A90
:101E2000209A5D9828988FEF9FEF909334038093CA
:101E300033038DE00E94FF0060E08DE00E9400030C
:101E400085E00E94FF0060E085E00E94000386E0DC
:101E50000E94FF0060E086E00E94000387E00E948D
:101E6000FF0061E087E00E9400038AE090E0909329
:101E7000800380937F030E94FF0081E080938503AD
:101E80008EE591E0909382038093810368E1262E92
:101E9000312C70E0C72E70E0D72E87E293E00E94CD
:101EA0009A028C01892B69F163E070E080E090E098
:101EB0000E94510487E293E00E94580289831A82AB
:101EC00000917B0310917C030F5F1F4FB80187E7E0
:101ED00093E00E94F208882301F320917703309168
:101EE000780380917B0390917C03BE016F5F7F4FED
:101EF000820F931F0E947E1510937C0300937B0337
:101F0000CCCF80917B0390917C03892B09F4F2C1A3
:101F100067E371E0CE0101960E944509CE0101966A
:101F20000E94C3087C01CE0101960E94DF08F7FCE5
:101F3000BEC06DE371E0CE0101960E944509CE015D
:101F400001960E94C3087C01CE0101960E94DF0821
:101F500044E0E416F1040CF450C04BE150E069E0B9
:101F600070E0CE0101960E945609CE0101960E94B2
:101F7000E7082B013C0186E290E00E942E0388E2F4
:101F800093E20E946E0884E991E10E94600840E2B9
:101F9000E42EF12C812C912CA12C50E8B52ED301EC
:101FA000C20188219921AA21BB21892B8A2B8B2B45
:101FB00009F419C180E392E00E946E088AE996E074
:101FC0000E946008B694A7949794879451E0E51A0C
:101FD000F10829F780E392E00E946E088091C0002A
:101FE0008F778093C0006EE170E080E090E00E9407
:101FF0005104CE0101960E94DF0862E471E0CE0137
:1020000001960E944509CE0101960E94C3087C01F9
:10201000CE0101960E94DF0884E0E816F104D4F0B6
:102020004EE150E06CE070E0CE0101960E9456094E
:10203000CE0101960E94E70844E150E00E94780832
:102040006EE170E080E090E00E945104CE010196C4
:102050000E94DF086AE471E0CE0101960E94450902
:10206000CE0101960E94C3087C01CE0101960E9418
:10207000DF08E4E0EE16F104D4F04EE150E06CE04D
:1020800070E0CE0101960E945609CE0101960E9491
:10209000E7084CE050E00E9478086EE170E080E0D4
:1020A00090E00E945104CE0101960E94DF0862E593
:1020B00071E0CE0101960E944509CE0101960E9471
:1020C000C3087C01CE0101960E94DF08F7FC5AC0CC
:1020D00067E571E0CE0101960E944509CE010196A7
:1020E0000E94C3087C01CE0101960E94DF08F3E044
:1020F000EF16F104D4F049E050E067E070E0CE0163
:1021000001960E945609CE0101960E94E708862F8B
:1021100061E00E9400036EE170E080E090E00E94C8
:102120005104CE0101960E94DF086BE571E0CE01FB
:1021300001960E944509CE0101960E94C3087C01C8
:10214000CE0101960E94DF0843E0E416F104D4F0CA
:102150004AE050E068E070E0CE0101960E94560926
:10216000CE0101960E94E708862F60E00E940003DE
:102170006EE170E080E090E00E945104CE01019693
:102180000E94DF0860E671E0CE0101960E944509D9
:10219000CE0101960E94C3087C01CE0101960E94E7
:1021A000DF08F7FC9FC044E150E065E070E0CE013D
:1021B00001960E945609CE0101960E94E708E9EDBA
:1021C000F2E09F01295D324061157105810591059D
:1021D00089F020E360FD21E320A39695879577950C
:1021E00067953196EECF80E392E00E946E0880E31F
:1021F00092E0E6CEE9EDF2E0DF0190E080E0A101BF
:10220000421B530B9A018217930750F1D7964C91BA
:10221000D79740830196119731968831910599F7A8
:102220001092F1028091830390918403081719079B
:102230000CF04EC089EDE82E82E0F82EF701919166
:102240007F0180918503992381F1903361F091336F
:10225000A9F78130E1F461E070E083E090E00DC027
:1022600050E35083D7CF63E070E0813021F08230BB
:1022700039F462E070E081E090E00E946803DECF14
:102280008330E1F66BE070E084E090E0F6CF8230DE
:1022900029F461E070E082E090E0EFCF833071F6E6
:1022A00066E070E089E090E0E8CF6FE170E08130B7
:1022B00041F06AE070E0823021F0833031F467E46D
:1022C00070E081E090E00E9468030F5F1F4FAACF8B
:1022D0006EE170E080E090E00E945104CE01019632
:1022E0000E94DF0850E040E069E471E087E793E096
:1022F0000E941A09C114D10409F4CFCD0E94000034
:10230000CCCD87E793E00C94DF081F93FC0199275D
:102310008827BC01E89411911032E9F3193010F0CC
:102320001E30C8F31B3251F01D3249F4689406C0C8
:102330000E94AC11610F711D811D911D11911053EF
:102340001A30B0F33EF490958095709561957F4F6B
:102350008F4F9F4F1F910895592F482F372F262FAA
:10236000660F771F881F991F660F771F881F991F99
:10237000620F731F841F951F660F771F881F991F99
:102380000895E89409C097FB3EF490958095709568
:1023900061957F4F8F4F9F4F9923A9F0F92F96E9B1
:1023A000BB279395F695879577956795B795F11126
:1023B000F8CFFAF4BB0F11F460FF1BC06F5F7F4FC3
:1023C0008F4F9F4F16C0882311F096E911C07723D5
:1023D00021F09EE8872F762F05C0662371F096E8DE
:1023E000862F70E060E02AF09A95660F771F881FAD
:1023F000DAF7880F9695879597F908950E9411123C
:102400000C9482120E94741238F00E947B1220F009
:10241000952311F00C946B120C94711211240C94EE
:10242000B6120E94931270F3959FC1F3950F50E07E
:10243000551F629FF001729FBB27F00DB11D639F76
:10244000AA27F00DB11DAA1F649F6627B00DA11D1C
:10245000661F829F2227B00DA11D621F739FB00DC2
:10246000A11D621F839FA00D611D221F749F332732
:10247000A00D611D231F849F600D211D822F762FCB
:102480006A2F11249F5750409AF0F1F088234AF0A8
:10249000EE0FFF1FBB1F661F771F881F9150504014
:1024A000A9F79E3F510580F00C946B120C94B61264
:1024B0005F3FE4F3983ED4F3869577956795B7959B
:1024C000F795E7959F5FC1F7FE2B880F911D9695B5
:1024D000879597F9089597F99F6780E870E060E025
:1024E00008959FEF80EC089500240A9416161706AD
:1024F00018060906089500240A94121613061406F5
:1025000005060895092E0394000C11F4882352F057
:10251000BB0F40F4BF2B11F460FF04C06F5F7F4F0F
:102520008F4F9F4F089557FD9058440F551F59F0F6
:102530005F3F71F04795880F97FB991F61F09F3FB0
:1025400079F087950895121613061406551FF2CFD9
:102550004695F1DF08C0161617061806991FF1CF29
:1025600086957105610508940895E894BB27662750
:102570007727CB0197F908952F923F924F925F9260
:102580006F927F928F929F92AF92BF92CF92DF9283
:10259000EF92FF920F931F93CF93DF93CDB7DEB7E8
:1025A000CA1BDB0B0FB6F894DEBF0FBECDBF09947C
:1025B0002A88398848885F846E847D848C849B84D3
:1025C000AA84B984C884DF80EE80FD800C811B81E1
:1025D000AA81B981CE0FD11D0FB6F894DEBF0FBE10
:1025E000CDBFED010895A29FB001B39FC001A39F8D
:1025F000700D811D1124911DB29F700D811D11243C
:10260000911D08950E949B1288F09F5798F0B92F52
:102610009927B751B0F0E1F0660F771F881F991F17
:102620001AF0BA95C9F714C0B13091F00E94B512F2
:10263000B1E008950C94B512672F782F8827B85F02
:1026400039F0B93FCCF3869577956795B395D9F76F
:102650003EF490958095709561957F4F8F4F9F4F79
:102660000895AA1BBB1B51E107C0AA1FBB1FA617D9
:10267000B70710F0A61BB70B881F991F5A95A9F72B
:1026800080959095BC01CD010895052E97FB1EF411
:1026900000940E945C1357FD07D00E94711307FC41
:1026A00003D04EF40C945C135095409530952195D1
:1026B0003F4F4F4F5F4F089590958095709561956E
:1026C0007F4F8F4F9F4F0895EE0FFF1F0590F4919E
:1026D000E02D09940E94F312B7FF0895821B930B1B
:1026E0000895A1E21A2EAA1BBB1BFD010DC0AA1F53
:1026F000BB1FEE1FFF1FA217B307E407F50720F06B
:10270000A21BB30BE40BF50B661F771F881F991FE5
:102710001A9469F760957095809590959B01AC012E
:10272000BD01CF0108950F931F93CF93DF938230A4
:10273000910510F482E090E0E0918A03F0918B0320
:1027400030E020E0B0E0A0E0309799F421153105A9
:1027500009F44AC0281B390B24303105D8F58A8189
:102760009B816115710589F1FB0193838283FE01D1
:1027700011C0408151810281138148175907E0F04F
:102780004817590799F4109761F012960C93129715
:1027900013961C933296CF01DF91CF911F910F9129
:1027A000089500938A0310938B03F4CF211531050C
:1027B00051F04217530738F0A901DB019A01BD011E
:1027C000DF01F801C1CFEF01F9CF90938B03809324
:1027D0008A03CDCFFE01E20FF31F81939193225024
:1027E000310939832883D7CF209188033091890319
:1027F000232B41F420911A0130911B01309389035E
:102800002093880320911801309119012115310579
:1028100041F42DB73EB740911C0150911D01241B7E
:10282000350BE0918803F0918903E217F307A0F4D8
:102830002E1B3F0B2817390778F0AC014E5F5F4F16
:102840002417350748F04E0F5F1F509389034093BC
:102850008803819391939FCFF0E0E0E09CCFCF93EA
:10286000DF930097E9F0FC01329713821282A09166
:102870008A03B0918B03ED0130E020E01097A1F4C2
:1028800020813181820F931F209188033091890329
:102890002817390709F061C0F0938903E093880392
:1028A000DF91CF910895EA01CE17DF07E8F54A815D
:1028B0005B819E0141155105B1F7E901FB83EA8374
:1028C00049915991C40FD51FEC17FD0761F4808120
:1028D00091810296840F951FE901998388838281F3
:1028E00093819B838A83F0E0E0E012968D919C9126
:1028F00013970097B9F52D913C911197CD01029650
:10290000820F931F2091880330918903281739077C
:1029100039F6309751F510928B0310928A03B093D9
:102920008903A0938803BCCFD383C28340815181A4
:10293000840F951FC817D90761F44E5F5F4F8881D8
:102940009981480F591F518340838A819B819383CA
:1029500082832115310509F0B0CFF0938B03E0930A
:102960008A039ECFFD01DC01C0CF13821282D7CF34
:10297000B0E0A0E0EEEBF4E10C94BE128C01009705
:1029800051F4CB010E9493138C01C801CDB7DEB77F
:10299000E0E10C94DA12FC01E60FF71F9C012250D3
:1029A0003109E217F30708F49DC0D901CD91DC91FC
:1029B0001197C617D70798F0C530D10530F3CE016F
:1029C00004978617970708F3C61BD70B2297C19366
:1029D000D1936D937C93CF010E942F14D6CF5B01CE
:1029E000AC1ABD0A4C018C0E9D1EA0918A03B091B9
:1029F0008B03512C412CF12CE12C109731F5809157
:102A00008803909189038815990509F05CC04616E2
:102A1000570608F058C0809118019091190100974D
:102A200041F48DB79EB740911C0150911D01841B4C
:102A3000950BE817F90708F055C0F0938903E09368
:102A40008803F90171836083A0CF8D919C911197C8
:102A500012966C90129713967C901397A815B9054F
:102A600059F56C0142E0C40ED11CCA14DB0420F1FC
:102A7000AC014A195B09DA011296159780F062825F
:102A8000738251834083D9016D937C93E114F104E7
:102A900071F0D7011396FC93EE93129776CF22969E
:102AA0008C0F9D1FF90191838083F301EFCFF09389
:102AB0008B03E0938A0369CF4816590608F42C016A
:102AC0007D01D3019ACFCB010E9493137C01009723
:102AD00049F0AE01B8010E947515C8010E942F147B
:102AE000870153CF10E000E050CFFB01DC0102C0B2
:102AF00001900D9241505040D8F70895FB01DC0140
:102B000001900D920020E1F70895FB0151915523AA
:102B1000A9F0BF01DC014D9145174111E1F759F4CE
:102B2000CD010190002049F04D9140154111C9F3AC
:102B3000FB014111EFCF81E090E00197089510E093
:102B4000C4EDD0E004C0FE010E9464132196C53D8F
:082B5000D107C9F7F894FFCF8B
:102B5800FFFFFFFF00E10000000000001E011E0152
:102B68001E011E011E013C0000008C03800000C1F4
:102B780080810000000000000033028304540249F1
:102B8800029A0258027602697274782E006E6563A2
:102B98002E00736F6E7932302E00736F6E7931327A
:102BA8002E006665742E006F6E2E006F66662E000E
:062BB800726674782E0025
:2070000055C000006EC000006CC000006AC0000068C0000066C0000064C0000062C0000043
:2070200060C000005EC00000F2C400005AC0000058C0000056C0000054C0000052C00000EE
:2070400050C0000078C000004CC000004AC0000048C0000046C0000044C0000042C00000BE
:2070600040C000003EC000003CC000003AC0000038C0000036C0000034C0000032C0000048
:2070800030C000002EC000002CC000002AC0000028C0000026C0000024C0000022C00000A8
:2070A00020C000001EC000001CC0000011241FBECFEFDAE0DEBFCDBF11E0A0E0B1E0E2E3BC
:2070C000FFE702C005900D92A83AB107D9F711E0A8EAB1E001C01D92AE3BB107E1F78FD30B
:2070E00026C78ECFF89410926F0010928100109285001092840081E085BF15BE47985D98ED
:2071000028980C94000008952091B2013091B3012F5F3F4F3093B3012093B201932F37FFA8
:2071200003C08EEF831B982F990F921710F447980895479A08951F920F920FB60F9211246E
:207140002F938F939F93EF93FF9310928500109284008091A8019091A901009741F00197D3
:207160009093A9018093A801892B09F45D988091AA019091AB01009741F001979093AB0128
:207180008093AA01892B09F42898E0E0F0E0859194918F5F9F4F49F08091AC019091AD0153
:2071A00001969093AD018093AC01FF91EF919F918F912F910F900FBE0F901F90189584E0BC
:2071C0008093E9000DC08091E8008B778093E80003C08EB3882351F08091E80082FFF9CFBE
:2071E0008091E80085FFEFCF8091F1000895982F83E08093E9008091E80085FD0DC0809136
:20720000E8008E778093E80003C08EB3882369F08091E80080FFF9CF9093F1005D9A84E6C9
:2072200090E09093A9018093A80108954F925F926F927F928F929F92AF92BF92CF92DF921E
:20724000EF92FF920F931F93CF93DF9384E08093E9008091E80082FF57C2289A84E690E065
:207260009093AB018093AA01AADF182F853481F48CE49DE19093AD018093AC0107B600FC4B
:20728000FDCFF999FECF81E180935700E89503C0843519F494DF8DE00DC28C34E1F38035F9
:2072A000D1F3843721F484E4A2DF80E003C2813611F489E5FFC18134B1F481DF182F7FDFE3
:2072C00090E0880F991FAA2797FDA095BA2F312F330F20E0442737FD4095542F822B932B68
:2072E000A42BB52BB8C1803711F483E5E3C1833549F4C0E0D1E089917ADF21E0C730D20714
:20730000D1F7D9C1863521F481E371DF80E3D2C1833731F487E86BDF85E969DF8EE1CAC149
:207320008536B9F4E0E0F0E093E085E090935700E89507B600FCFDCF80935700E89507B65D
:2073400000FCFDCFE058FF4FA0E7E030FA0771F7A2CF823739F4E1E0F0E089E08093570024
:207360008491A8C1863439F4E0E0F0E089E08093570084919FC18E3439F4E3E0F0E089E0E5
:2073800080935700849196C1813539F4E2E0F0E089E08093570084918DC1823631F489E521
:2073A00026DF80E024DF80E885C1823419F0873609F0E5C01092AD011092AC0100DF082FE8
:2073C000FEDEF82EFCDE682E8554823008F071C1902F80E0CF2DD0E0C82BD92B10926F00B3
:2073E000173609F04BC081E180935700E895DD24CC24C3943FC0E090AE01F090AF010091CC
:20740000B0011091B101B6E46B16D9F4ED2DF0E0EE29FF29E4918E2FEADEDD2081F082E08D
:2074200090E0A0E0B0E0E80EF91E0A1F1B1FE092AE01F092AF010093B0011093B101DC2470
:2074400018C0D801C701B695A7959795879559D5CEDE82E090E0A0E0B0E0E80EF91E0A1FF2
:207460001B1FE092AE01F092AF010093B0011093B1012197209709F0BECF7DC08090AE01F5
:207480009090AF01A090B001B090B10196E4691609F05DC083E0F40180935700E89507B63E
:2074A00000FCFDCF54C0F6E46F1661F5772031F1E090AE01F090AF010091B0011091B1019E
:2074C0007EDED82ECC24852D90E08C299D29F7010C0140925700E895112482E090E0A0E08B
:2074E000B0E0E80EF91E0A1F1B1FE092AE01F092AF010093B0011093B10102C060DE582E1A
:20750000742423C0E090AE01F090AF010091B0011091B10116950795F794E79450DE682FFA
:20752000C701F7D48091AE019091AF01A091B001B091B1010296A11DB11D8093AE01909349
:20754000AF01A093B001B093B101219704C05524772444244394209709F0A5CF96E46916B6
:2075600041F485E0F40180935700E89507B600FCFDCF8DE03CDE82E080936F009CC0833492
:2075800071F40091AE011091AF0119DE90E021E0F8010C0120935700E89511247CCE8336C8
:2075A00019F5E090AE01F090AF010091B0011091B10105DEF701E16090E021E00C0120938C
:2075C0005700E895112482E090E0A0E0B0E0E80EF91E0A1F1B1FE092AE01F092AF0100936A
:2075E000B0011093B10157CE8D3661F4E091AE01F091AF0185E080935700E89507B600FCF2
:20760000FDCF49CE823551F4E091AE01F091AF0105911491812FEBDD802F4CC0843421F5FE
:20762000E090AE01F090AF010091B0011091B10116950795F794E794C2DD682FC70169D4DE
:207640008091AE019091AF01A091B001B091B1010296A11DB11D8093AE019093AF01A093D8
:20766000B001B093B10117CE843609F5E090AE01F090AF010091B0011091B101D801C70142
:20768000B695A795979587953CD4B1DD82E090E0A0E0B0E0E80EF91E0A1F1B1FE092AE010A
:2076A000F092AF010093B0011093B10104C08B3111F08FE39CDD83E08093E9009091E8002B
:2076C0008091E8008E778093E80095FF04C010C08EB38823C9F08091E80080FFF9CF809193
:2076E000E8008E778093E80003C08EB3882361F08091E80080FFF9CF84E08093E9008091F1
:20770000E8008B778093E800DF91CF911F910F91FF90EF90DF90CF90BF90AF909F908F90AC
:207720007F906F905F904F9008959091B601892F8F77813249F58091B7018032A1F081328A
:2077400019F5913A09F58091E800877F8093E8008DE091E067E070E00BD28091E8008B770B
:207760008093E8000895913279F48091E800877F8093E8008DE091E067E070E05DD2809192
:20778000E8008E778093E800089582E061EC42E0B5D083E061E842E1B1D084E060E842E1EF
:2077A000ADC084B7877F84BF88E10FB6F89480936000109260000FBE20E880E090E00FB63F
:2077C000F89420936100809361000FBE81E085BF92E095BF3F9A209A559AE1E6F0E02083A1
:2077E000108247985D982898109289008AEF8093880090936F0083E080938100F0C040911A
:20780000000850910108109201081092000894B714BE88E10FB6F8948093600010926000D5
:207820000FBE292F30E0F901E270F07091FD18C090FF05C0859194918F5F9F4F81F423FFFF
:207840000FC08091090190910A014817590741F0E0E0F0E0859194918F5F9F4F09F042DC64
:20786000A0DF78941092AD011092AC010CC0DEDC36D38091AC019091AD0181549F4110F00D
:207880001092140141DC80911401882381F78091E00081608093E00025DC80E090E0089598
:2078A000FA01923049F0933061F09130F9F485E191E022E130E01EC087E291E02EE330E04D
:2078C00019C0882329F485E691E024E030E012C0813029F489E691E022E230E00BC0823006
:2078E00029F48DE891E028E130E004C080E090E020E030E091838083C90108958093E9004E
:207900008091EB0081608093EB001092ED006093EC004093ED008091EE00881F8827881F62
:2079200008958091B60188238CF403C08EB38823B1F08091E80082FFF9CF8091E8008B772A
:207940008093E80008958EB3882349F08091E80080FFF9CF8091E8008E778093E800089594
:20796000EF92FF920F931F9345D04CD008ED10E0F80180818F77808380818068808380819B
:207980008F7D808319BC1EBA1092B40180EEE82EF12CF70180818B7F8083F8018081816052
:2079A000808380E060E042E0A9DFE1EEF0E080818E7F8083E2EEF0E0808181608083808144
:2079C00088608083F70180818E7F8083F8018081806180831F910F91FF90EF900895E7ED06
:2079E000F0E08081816080838AE482BF81E08093B501B6CFE8EDF0E080818E7F808310921C
:207A0000E20008951092DA001092E10008951F920F920FB60F9211242F933F934F935F93F6
:207A20006F937F938F939F93AF93BF93EF93FF938091DA0080FF1BC08091D80080FF17C0B2
:207A40008091DA008E7F8093DA008091D90080FF0BC080E189BD82E189BD09B400FEFDCF36
:207A600081E08EBB3BD203C019BC1EBA37D28091E10080FF17C08091E20080FF13C0809138
:207A8000E2008E7F8093E2008091E20080618093E2008091D80080628093D80019BC85E049
:207AA0008EBB1CD28091E10084FF2CC08091E20084FF28C080E189BD82E189BD09B400FEC5
:207AC000FDCF8091D8008F7D8093D8008091E1008F7E8093E1008091E2008F7E8093E20012
:207AE0008091E20081608093E2008091B401882331F48091E30087FD02C081E001C084E067
:207B00008EBBECD18091E10083FF21C08091E20083FF1DC08091E100877F8093E10082E06A
:207B20008EBB1092B4018091E1008E7F8093E1008091E2008E7F8093E2008091E2008061E9
:207B40008093E20080E060E042E0D8DEC7D1FF91EF91BF91AF919F918F917F916F915F9130
:207B60004F913F912F910F900FBE0F901F9018959C014091BC015091BD014617570718F49D
:207B8000F90190E044C06115710511F0AB01F8CF8091E8008E778093E80040E050E0F0CF0F
:207BA0008EB3882309F444C0853009F443C08091E80083FF02C081E008958091E80082FD70
:207BC00031C08091E80080FF22C08091F3009091F200782F60E0292F30E0262B372B07C07A
:207BE00081918093F100415050402F5F3F4F4115510519F02830310598F390E02830310566
:207C000009F491E08091E8008E778093E8004115510531F6992321F605C08EB3882341F075
:207C2000853041F08091E80082FFF7CF80E0089582E0089583E008959C016115710529F47C
:207C40008091E8008B778093E800F90126C08EB3882391F1853091F18091E80083FF02C06C
:207C600081E008958091E80082FFF1CF06C08091F10081936150704059F02091F300809191
:207C8000F200322F20E090E0822B932B892B79F78091E8008B778093E80061157105B9F601
:207CA00005C08EB3882341F0853041F08091E80080FFF7CF80E0089582E0089583E00895C2
:207CC0000F931F93DF93CF9300D0CDB7DEB7E6EBF1E08091F100819381E0EE3BF807C9F792
:207CE00024DD8091E80083FFE4C08091B6019091B701953009F46DC0963040F4913081F1A7
:207D0000913070F0933009F0D4C02AC0983009F4A3C0993009F4B2C0963009F0CAC07CC023
:207D2000803809F4C6C0823809F0C3C08091BA0187708093E9008091EB001092E9002091DB
:207D4000E800277F2093E80090E025E0969587952A95E1F781708093F1001092F10087C0D8
:207D6000882319F0823009F0A4C08F71823009F0A0C08091B801882331F52091BA01277097
:207D800009F497C02093E9008091EB0080FF1BC0933021F48091EB00806213C08091EB0018
:207DA00080618093EB0081E090E002C0880F991F2A95E2F78093EA001092EA008091EB00E5
:207DC00088608093EB001092E9008091E800877F51C0882309F06DC01091B8011F770FB79B
:207DE000F8948091E800877F8093E8009ADD8091E80080FFFCCF8091E3008078812B809398
:207E0000E30080688093E300112311F482E001C083E08EBB0FBF4DC08058823008F049C033
:207E20008091B8019091B9016091BA01AE014F5F5F4F36DDBC01009709F43BC08091E8008E
:207E4000877F8093E80089819A8192DE8091E8008B778093E8002DC0803859F58091E800AA
:207E6000877F8093E8008091B4018093F1008091E8008E778093E80054DD1BC08823C9F4CA
:207E80009091B8019230A8F48091E800877F8093E8009093B40145DD8091B401882331F420
:207EA0008091E30087FD02C081E001C084E08EBB6CDC8091E80083FF0AC08091EB0080624E
:207EC0008093EB008091E800877F8093E8000F900F90CF91DF911F910F91089508951F9360
:207EE0008EB3882361F01091E9001092E9008091E80083FF01C0E4DE17701093E9001F916F
:207F00000895F999FECF92BD81BDF89A992780B50895262FF999FECF1FBA92BD81BD20BDBD
:207F20000FB6F894FA9AF99A0FBE01960895F894FFCF4341544552494E4100777700080031
:207F40000000000000080112011001020000084123370001000201000109023E00020100FE
:207F600080320904000001020201000524001001042402040524060001070582030800FF0C
:207F800009040100020A000000070504021000010705830210000104030904220341007216
:207FA000006400750069006E006F0020004D006900630072006F0020002000200000001810
:1A7FC00003410072006400750069006E006F0020004C004C004300000000D7
:00000001FF
