:100000000C94D4000C94430B0C941C0B0C94F50A28
:100010000C94CE0A0C94FC000C94FC000C94A70ADF
:100020000C94FC000C94FC000C94BC070C942B0862
:100030000C94FC000C94FC000C94FC000C94FC0050
:100040000C94FC000C94FC000C94FC000C94FC0040
:100050000C94FC000C94FC000C94FC000C945D0AC5
:100060000C94FC000C94FC000C94FC000C94FC0020
:100070000C94FC000C94FC000C94FC000C94FC0010
:100080000C94FC000C94FC000C94FC000C94FC0000
:100090000C94FC000C94FC000C94FC000C94FC00F0
:1000A0000C94FC000C94FC000C94FC00000000007C
:1000B000240027002A002D00300000000000250049
:1000C00028002B002E003100000000002300260035
:1000D00029002C002F000404040404030405020278
:1000E00002020403020202020606060606060404D1
:1000F0000202020404040802011040804010204063
:10010000804080080204018040201002011080100D
:10011000204040200000000200090F0000030401FD
:10012000000C0000000000000000000000000000C3
:10013000000000080B000202020000090400000198
:10014000020200000524001001052401010104241D
:10015000020605240600010705810310004009047A
:100160000100020A00000007050202400000070526
:1001700083024000000403090412010002EF02019F
:100180004041233780000101020301417264756917
:100190006E6F204C4C430041726475696E6F204D48
:1001A0006963726F00006A0B11241FBECFEFDAE0A3
:1001B000DEBFCDBF11E0A0E0B1E0E8EAFDE102C0A2
:1001C00005900D92A233B107D9F722E0A2E3B1E086
:1001D00001C01D92AA34B207E1F710E0C4EDD0E0EF
:1001E00004C02197FE010E94B60EC33DD107C9F796
:1001F0000E94B10B0C94D20E0C940000FC01809173
:10020000E401882311F13FB7F89482E08093E9007C
:100210002091F200822F90E01816190614F481E064
:1002200090E0882339F0289A44E64093E301409116
:10023000F1004083222339F02091F200211103C004
:100240002BE62093E8003FBF08958FEF9FEF0895BE
:100250002FB7F89483E08093E9009091E800892F0C
:10026000807295FF04C09091F20080E4891B2FBF3B
:1002700008958091DB0181110DC082E08093D70148
:1002800084E08093D8011092DA011092D90181E0C4
:100290008093DB0187ED91E008954091CD0150916D
:1002A000CE012091CB013091CC0142175307B4F419
:1002B0009091E8009570E1F39091E80092FD19C0EB
:1002C0008093F1008091CD019091CE0101968F73C2
:1002D0009927892B19F48EEF8093E8008091CD0146
:1002E0009091CE0101969093CE018093CD0181E053
:1002F000089580E00895EF92FF920F931F93CF939C
:10030000DF93F82E192FE62E042F81E0860F880F39
:100310000E944D0183E00E944D01CF2DD12FEC0EA4
:10032000FD2EF11CCE15DF05B9F007FF13C0FE014D
:1003300084910E944D01182F80E00E944D0181237D
:1003400021968111EFCFDF91CF911F910F91FF90F7
:10035000EF9008958881EDCF81E0F5CFDF92EF92A5
:10036000FF920F931F93CF93DF93D82E8A01EB0157
:100370007B01E40EF51ECE15DF0559F0D7FE12C045
:10038000FE0184910E944D0121968111F4CF0FEF5F
:100390001FEFC801DF91CF911F910F91FF90EF9058
:1003A000DF9008958881EECF0F931F93CF93DF9353
:1003B0001F92CDB7DEB782E0898342E450E063E369
:1003C00071E080E80E94AE010E943901DC011296C2
:1003D0000D911C910115110589F0D801ED91FC9149
:1003E0000280F381E02DBE016F5F7F4FC801099548
:1003F00097FD04C0F80100851185ECCF89810F902D
:10040000DF91CF911F910F910895615030F02091AD
:10041000F100FC0120830196F8CF289A84E68093AE
:10042000E3010895CF93DF931F92CDB7DEB76983C1
:10043000DC01ED91FC910280F381E02D41E050E080
:10044000BE016F5F7F4F09950F90DF91CF910895A7
:1004500083E08093E9008091F200882319F08AE319
:100460008093E80008950E94280190E00895CF93BA
:10047000DF931F92CDB7DEB7FC018485958597FD8C
:1004800008C02FEF3FEF358724870F90DF91CF9182
:100490000895CE0101960E94FE00019719F489810A
:1004A00090E0F3CF8FEF9FEFF0CF0F931F93CF9399
:1004B000DF931F92CDB7DEB78C01FC018485958553
:1004C00097FF0BC0CE0101960E94FE00019771F4C8
:1004D000898190E0F80195878487F8018485958566
:1004E0000F90DF91CF911F910F9108958FEF9FEFA4
:1004F000F1CFFC018485958597FD0BC09FB7F894DB
:1005000082E08093E9008091F2009FBF90E0019625
:1005100008959FB7F89482E08093E9008091F200FB
:100520009FBF90E0089581508F3008F047C0E82FBA
:10053000F0E0E356FD4F0C94B60EBA02BE02AC02D8
:10054000B202B602DE02DE02DE02C102C702CB0246
:10055000CF02D502DE02D902809180008F7780938E
:1005600080000895809180008F7DF9CF8091800078
:10057000877FF5CF84B58F7784BD089584B58F7D4F
:10058000FBCF809190008F778093900008958091A9
:1005900090008F7DF9CF80919000877FF5CF80917B
:1005A000C0008F778093C00008958091C0008F7D38
:1005B000F9CF8091C200877F8093C2000895CF93C6
:1005C000DF93282F30E0F901EC5EFE4F8491F901B2
:1005D000EB50FF4FD491F901EA52FF4FC491CC2365
:1005E000A1F081110E949302EC2FF0E0EE0FFF1FAB
:1005F000E853FF4FA591B491EC91ED2381E090E099
:1006000009F480E0DF91CF91089580E090E0FACF87
:100610001F93CF93DF93282F30E0F901EC5EFE4F5C
:100620008491F901EB50FF4FD491F901EA52FF4F49
:10063000C491CC23A9F0162F81110E949302EC2FB4
:10064000F0E0EE0FFF1FE654FF4FA591B4918FB776
:10065000F894EC91111108C0D095DE23DC938FBF84
:10066000DF91CF911F910895DE2BF8CFCF93DF93C9
:1006700090E0FC01EB50FF4F24918A529F4FFC0108
:1006800084918823D1F090E0880F991FFC01E455F4
:10069000FF4FA591B491FC01E654FF4FC591D49151
:1006A000623071F49FB7F8943C91822F8095832338
:1006B0008C93E8812E2B28839FBFDF91CF910895E3
:1006C0008FB7F894EC912E2B2C938FBFF6CF3FB7BA
:1006D000F8948091C7019091C801A091C901B0918F
:1006E000CA0126B5A89B05C02F3F19F00196A11D90
:1006F000B11D3FBFBA2FA92F982F8827BC01CD016C
:10070000620F711D811D911D42E0660F771F881FCA
:10071000991F4A95D1F708958F929F92AF92BF92F9
:10072000CF92DF92EF92FF924B015C010E94670330
:100730006B017C010E9467036C197D098E099F097A
:10074000683E734081059105A8F321E0821A910863
:10075000A108B10888EEC80E83E0D81EE11CF11C88
:1007600081149104A104B10429F7FF90EF90DF9068
:10077000CF90BF90AF909F908F9008958F929F924F
:10078000AF92BF92CF92DF92EF92FF920F931F939F
:10079000CF93DF936C017B018A0180910B01882349
:1007A00009F45CC08091E401882309F457C080916A
:1007B000D10180FF05C08091E00082608093E0005D
:1007C000E801B12C8AEFA82E93E0892E2AE3922E1D
:1007D000209711F4BB20D9F10E94280181110AC091
:1007E000AA94AA20D9F161E070E080E090E00E9434
:1007F0008C03EECF8C171D0611F00CF08C2F9FB7D9
:10080000F8948092E9002091E80025FD02C09FBF86
:10081000DFCF282F30E0C21BD30BF701815020F02F
:1008200041914093F100FACFE20EF31EBB2021F07C
:100830009092E800B12CEBCF8091E80085FDE7CFE6
:100840009092E800BB24B394209709F3F3CF5D9A0C
:1008500084E68093D001101611063CF081E090E010
:10086000F6019383828310E000E0C801DF91CF910D
:100870001F910F91FF90EF90DF90CF90BF90AF90BE
:100880009F908F9008952FB7F8946091C301709155
:10089000C4018091C5019091C6012FBF08950895AC
:1008A0002F923F924F925F926F927F928F929F9280
:1008B000AF92BF92CF92DF92EF92FF920F931F936E
:1008C000CF93DF93CDB7DEB7A4970FB6F894DEBF12
:1008D0000FBECDBF0E9467036D877E878F87988B81
:1008E0008091BE019091BF013B01681A790A709214
:1008F000BD016092BC0129E8621623E1720608F48A
:10090000F5C20091360110913701C801885C910948
:100910008615970508F0E6C280579E4F681679063F
:1009200008F0E0C2809134019091350101969093D6
:10093000350180933401209032013090330131E051
:10094000231A3108029709F0CDC2C8016FE170E0A7
:100950000E94A20E7A8369836B01F12CE12C4090F6
:100960001601509017019B01D2010E94CB0E0E94EC
:10097000A70D2AE037ED43E25CE30E940D0E0E94D2
:10098000780D4B015C0129813A81A3E0B0E00E941F
:10099000BC0E9B01AC01281939094A095B0929835E
:1009A0003A834B835C83A5019401260F371F481FB0
:1009B000591F2D833E834F83588721E030E080E02C
:1009C00090E0DC01B701A601481959096A097B09C1
:1009D00049875A876B877C87B701A601480D591D47
:1009E0006A1D7B1D498B5A8B6B8B7C8B22153305C3
:1009F00008F073C0F901EE0FFF1FEA5CFE4F408163
:100A0000518170E060E089849A84AB84BC84841650
:100A10009506A606B70658F5A988BA88CB88DC885B
:100A20004A155B056C057D0510F5F901EE0FFF1FFA
:100A3000E85CFE4F80809180B12CA12CC980DA80C7
:100A4000EB80FC80C814D904EA04FB0480F4CD8058
:100A5000DE80EF80F8848C149D04AE04BF0438F46B
:100A6000880F991FAA1FBB1F2E5F3F4FBFCF8980E2
:100A70009A80AB80BC8084169506A606B70640F522
:100A8000AD80BE80CF80D8844A155B056C057D059E
:100A9000F8F4F901EE0FFF1FE85CFE4F4081518131
:100AA00070E060E0C984DA84EB84FC84C416D50667
:100AB000E606F70668F489889A88AB88BC884815EA
:100AC00059056A057B0520F40196A11DB11DC8CF0B
:100AD000910180E090E0DC01C7CFB695A79597958E
:100AE000879527E02216310440F0809335029093D9
:100AF0003602A0933702B0933802892B8A2B8B2BB6
:100B000009F0ECC1C8016AE070E00E94A20E9B01EE
:100B10006B01F12CE12CD2010E94CB0E0E94A70D9B
:100B20002AE037ED43E25CE30E940D0E0E94780D4F
:100B30004B015C01B701A601440F551F661F771FCB
:100B4000DB01CA0188199909AA09BB098D839E8313
:100B5000AF83B887DB01CA01880D991DAA1DBB1D93
:100B6000898B9A8BAB8BBC8B80E090E0DC0121E021
:100B700030E0B701A601481959096A097B0949877C
:100B80005A876B877C8789889A88AB88BC888C1841
:100B90009D08AE08BF088D8A9E8AAF8AB88E22153E
:100BA000330508F079C0F901EE0FFF1FEA5CFE4F34
:100BB000C080D180F12CE12C49855A856B857C85DC
:100BC0004C155D056E057F0588F58D889E88AF887C
:100BD000B88CC814D904EA04FB0440F5F901EE0FFF
:100BE000FF1FE85CFE4F0190F081E02DAF0170E047
:100BF00060E049835A836B837C838D809E80AF80C5
:100C0000B88484169506A606B70680F489889A8863
:100C1000AB88BC88481559056A057B0538F4880FF0
:100C2000991FAA1FBB1F2E5F3F4FB9CF4D815E8119
:100C30006F8178854C155D056E057F0540F58988C7
:100C40009A88AB88BC88C814D904EA04FB04F8F479
:100C5000F901EE0FFF1FE85CFE4FC080D180F12C40
:100C6000E12C49855A856B857C854C155D056E05A3
:100C70007F0568F48D889E88AF88B88CC814D90425
:100C8000EA04FB0420F40196A11DB11DC8CF910117
:100C900080E090E0DC01C7CFB695A7959795879542
:100CA00027E02216310440F08093350290933602FB
:100CB000A0933702B0933802892B8A2B8B2B09F033
:100CC0000DC1C80167E470E00E94A20E7E8F6D8F97
:100CD0009B01D2010E94CB0E0E94A70D2AE037EDA6
:100CE00043E25CE30E940D0E0E94780D6B017C01D3
:100CF0008D8C9E8CC401B0E0A0E0E2E0880F991FCB
:100D0000AA1FBB1FEA95D1F7AC01BD014C195D09C3
:100D10006E097F0949835A836B837C83460157019F
:100D2000880E991EAA1EBB1E8D829E82AF82B88637
:100D30002D8D3E8DABE0B0E00E94BC0E4B015C01FE
:100D40008C189D08AE08BF0889869A86AB86BC863B
:100D500046015701860E971EA81EB91E898A9A8AD7
:100D6000AB8ABC8AA9E0B0E00E94BC0E4B015C01DA
:100D70008C189D08AE08BF088D8A9E8AAF8AB88EEF
:100D800046015701860E971EA81EB91E898E9A8E9F
:100D9000AB8EBC8EA6E0B0E00E94BC0E9B01AC0105
:100DA0002C193D094E095F0929A33AA34BA35CA363
:100DB00046015701860E971EA81EB91E8D8E9E8E67
:100DC000AF8EB8A280E090E0DC0121E030E0221597
:100DD000330508F073C0F901EE0FFF1FEA5CFE4F08
:100DE000C080D180F12CE12C49815A816B817C81BA
:100DF0004C155D056E057F0558F58D809E80AF8092
:100E0000B884C814D904EA04FB0410F5F901EE0F04
:100E1000FF1FE85CFE4F4081518170E060E08984F3
:100E20009A84AB84BC8484169506A606B70680F423
:100E300089889A88AB88BC88481559056A057B055E
:100E400038F4880F991FAA1FBB1F2E5F3F4FBFCFDB
:100E50004D895E896F89788D4C155D056E057F051E
:100E600040F5898C9A8CAB8CBC8CC814D904EA04EC
:100E7000FB04F8F4F901EE0FFF1FE85CFE4FC080A1
:100E8000D180F12CE12C49A15AA16BA17CA14C1578
:100E90005D056E057F0568F48D8C9E8CAF8CB8A0C7
:100EA000C814D904EA04FB0420F40196A11DB11D65
:100EB000C8CF910180E090E0DC01C7CF27E0221687
:100EC000310460F0B695A795979587958093350284
:100ED00090933602A0933702B093380210923501F6
:100EE000109234011092330110923201809132013C
:100EF000909133018334910540F0109233011092A8
:100F0000320110923501109234018091320190919A
:100F100033019C012F5F3F4F309333012093320107
:100F2000880F991FFC01EA5CFE4F718260828D84FC
:100F30009E84AF84B8888092BE019092BF01A09237
:100F4000C001B092C101A4960FB6F894DEBF0FBEE7
:100F5000CDBFDF91CF911F910F91FF90EF90DF9068
:100F6000CF90BF90AF909F908F907F906F905F9049
:100F70004F903F902F9008951F920F920FB60F92AF
:100F800011248F939F938091E1009091E100937FD2
:100F90009093E10083FF0FC01092E90091E09093DD
:100FA000EB001092EC0092E39093ED001092E401BC
:100FB00098E09093F00082FF22C093E09093E900C4
:100FC0009091F200992319F09AE39093E8009091A0
:100FD000D001992341F09091D00191509093D0018C
:100FE000911101C05D989091E301992341F0909196
:100FF000E30191509093E301911101C0289884FF7F
:1010000018C08091E2008E7E81608093E200809122
:10101000E1008F7E8093E1008091D1018E7E80611E
:101020008093D1019F918F910F900FBE0F901F90D1
:10103000189580FFF7CF8091E2008E7E80618093CB
:10104000E2008091E1008E7E8093E1008091D101E9
:101050008E7E8160E5CF1F920F920FB60F92112402
:10106000CF92DF92EF92FF920F931F932F933F93B4
:101070004F935F936F937F938F939F93AF93BF93A0
:10108000EF93FF93CF93DF93CDB7DEB76C97DEBFBF
:10109000CDBF1092E9008091E80083FF25C068E091
:1010A000CE0145960E94050282EF8093E8008D896B
:1010B00087FF39C09091E80090FFFCCF982F907681
:1010C00009F034C19E894F89588D2F89F88C911170
:1010D00031C0803861F58091D2018093F100109287
:1010E000F1008EEF8093E8006C960FB6F894DEBFA7
:1010F0000FBECDBFDF91CF91FF91EF91BF91AF9127
:101100009F918F917F916F915F914F913F912F911F
:101110001F910F91FF90EF90DF90CF900F900FBE37
:101120000F901F9018959EEF9093E800C7CF1092F4
:10113000F100D5CF913059F48111D3CF4130510511
:1011400081F68091D2018D7F8093D201CACF9330F6
:1011500049F48111C6CF4130510519F68091D20171
:101160008260F2CF953041F48091E80080FFFCCF9F
:1011700020682093E300B5CF963009F0A9C00B8D0D
:101180001C8D22E01092E9001092CE011092CD0148
:10119000F2122EC01092CC011092CB010E94D40109
:1011A0001F8299E09983FA8291E09E8390EA988762
:1011B0009AEF99872091CD013091CE01275F3F4F63
:1011C0003C832B838D831092E9001092CE01109204
:1011D000CD011093CC010093CB0149E050E0BE015A
:1011E0006F5F7F4F80E00E94AE010E94D40179CFF3
:1011F0001093CC010093CB010E943901DC011296BF
:101200000D911C910115110509F451C1D801ED9101
:10121000FC910480F581E02DBE016B5E7F4FC8011B
:101220000995009709F03EC1F80100851185EACFC4
:10123000F3E0FF120EC08F89882309F440C082308A
:1012400061F440E86DE087E991E00E947B01811143
:1012500048CF81E28093EB0047CF813029F440E80A
:101260006BE08BE891E0F1CF833099F70E94390170
:10127000DC011296ED90FC908E010F5F1F4F68010C
:10128000E114F10479F0D701ED91FC910680F7812A
:10129000E02DB801C7010995080F111DF701E08481
:1012A000F184EECFD8011C92F60101900020E9F7FD
:1012B0003197BF016C197D0940E0C601C6CF65E7D3
:1012C00071E0FB01449150E080E80E94AE0109CF3B
:1012D000973009F4BECF983021F481E08093F1007B
:1012E00000CF993009F0FDCE837009F0B2CFE9E16B
:1012F000F1E081E031E096E32191222371F08093C7
:10130000E9003093EB00DF0111972C912093EC0062
:101310009093ED008F5F873079F78EE78093EA0036
:101320001092EA008F898093E401DBCE8B8D9C8D37
:101330001092E9001092CE011092CD019093CC0151
:101340008093CB01898D811192C08E899D89913ABC
:1013500049F4813209F07DCF47E050E064E071E06C
:1013600080E0B3CF913209F074CF833269F48F8972
:10137000988DB0E0A0E08093000190930101A093CC
:101380000201B0930301ADCE803269F48091E80090
:1013900082FFFCCF67E084E091E00E9405028BEFC2
:1013A0008093E8009ECE823209F09BCE8F89809395
:1013B0000B01EEEFFFE7859194918B3F9C4D51F12E
:1013C000E0E0F8E08091040190910501A091060110
:1013D000B0910701803B9440A105B105F1F48091E3
:1013E0000B0180FD1AC0EE3F8AE0F80789F587E718
:1013F00097E791838083809160008093CF0188E19B
:101400009BE00FB6F894A895809360000FBE909370
:10141000600067CEEEEFFAE0D5CF8081918187370B
:10142000974709F05ECEA89580916000886180930F
:1014300060008091CF0180936000EE3F2AE0F207C8
:1014400089F08091FE0A9091FF0A9183808349CEB2
:10145000808191818737980751F29093FF0A80939A
:10146000FE0AC5CF1092FF0A1092FE0A3ACE0E94E1
:101470003901DC0112960D911C910115110509F439
:10148000E8CED801ED91FC910190F081E02DBE01F4
:101490006B5E7F4FC8010995811123CEF80100854D
:1014A0001185EBCF181619060CF41BCED2CEF1E045
:1014B000FF12BECE69E771E004CF1F920F920FB604
:1014C0000F9211242F933F938F939F93AF93BF93CA
:1014D0008091C3019091C401A091C501B091C60152
:1014E0003091C20123E0230F2D3758F50196A11D3D
:1014F000B11D2093C2018093C3019093C401A093B6
:10150000C501B093C6018091C7019091C801A09117
:10151000C901B091CA010196A11DB11D8093C701F7
:101520009093C801A093C901B093CA01BF91AF9134
:101530009F918F913F912F910F900FBE0F901F9011
:10154000189526E8230F0296A11DB11DD2CF1F9238
:101550000F920FB60F9211242F933F934F935F93E7
:101560006F937F938F939F93AF93BF93EF93FF936B
:10157000E0911401F09115010995FF91EF91BF9150
:10158000AF919F918F917F916F915F914F913F911B
:101590002F910F900FBE0F901F9018951F920F92D2
:1015A0000FB60F9211242F933F934F935F936F9336
:1015B0007F938F939F93AF93BF93EF93FF93E091AC
:1015C0001201F09113010995FF91EF91BF91AF9135
:1015D0009F918F917F916F915F914F913F912F914B
:1015E0000F900FBE0F901F9018951F920F920FB67D
:1015F0000F9211242F933F934F935F936F937F9399
:101600008F939F93AF93BF93EF93FF93E09110015C
:10161000F09111010995FF91EF91BF91AF919F91C9
:101620008F917F916F915F914F913F912F910F908B
:101630000FBE0F901F9018951F920F920FB60F922A
:1016400011242F933F934F935F936F937F938F93C7
:101650009F93AF93BF93EF93FF93E0910E01F091AF
:101660000F010995FF91EF91BF91AF919F918F91DC
:101670007F916F915F914F913F912F910F900FBE8E
:101680000F901F9018951F920F920FB60F92112472
:101690002F933F934F935F936F937F938F939F937A
:1016A000AF93BF93EF93FF93E0910C01F0910D0185
:1016B0000995FF91EF91BF91AF919F918F917F918C
:1016C0006F915F914F913F912F910F900FBE0F90AF
:1016D0001F901895E5EEF1E01382128288EE93E0F8
:1016E000A0E0B0E084839583A683B78383E291E092
:1016F000918380838FEF9FEF95878487E1E4F2E009
:10170000938382832EE531E0358324832AE030E021
:101710003783268321E02087918380838CE390E0C8
:1017200090931701809316011092350210923602A1
:1017300010923702109238020E94430460933D02D7
:1017400070933E0280933F02909340020E944304B4
:101750006093390270933A0280933B0290933C026B
:101760000895789484B5826084BD84B5816084BD19
:1017700085B5826085BD85B5816085BD80916E002F
:10178000816080936E001092810080918100826060
:10179000809381008091810081608093810080919D
:1017A00080008160809380008091910082608093AE
:1017B00091008091910081608093910080919000D0
:1017C0008160809390008091C10084608093C1000B
:1017D0008091C10082608093C1008091C1008160CE
:1017E0008093C1008091C30081608093C300809189
:1017F000C00082608093C0008091C20081608093AD
:10180000C20080917A00846080937A0080917A008F
:10181000826080937A0080917A00816080937A0060
:1018200080917A00806880937A001092E40110928F
:10183000D2011092D1018091D70081608093D700AE
:1018400080EA8093D80089B5806189BD89B58260BE
:1018500089BD09B400FEFDCF61E070E080E090E05A
:101860000E948C038091D8008F7C80618093D80087
:101870008091E000807F8093E0008091E1008E7E87
:101880008093E1008DE08093E200559A209A5D9864
:1018900028988FEF9FEF9093F2018093F1011092BF
:1018A00042021092410210923502109236021092BA
:1018B00037021092380280E594E090930D018093F6
:1018C0000C01809169008C7F816080936900E89AA7
:1018D00081E08093490287EB90E0909346028093E9
:1018E000450261E089E00E94360361E08AE00E94DF
:1018F000360361E08BE00E94360362E085E00E94DF
:10190000360362E086E00E94360360E089E00E94D0
:10191000080360E08AE00E94080360E08BE00E9418
:101920000803C0E0D0E0FF24F39485E00E94DF02CA
:101930008C0181E00115110509F480E08093D60146
:101940000E94430480903D0290903E02A0903F028E
:10195000B0904002681979098A099B0965367105BA
:1019600081059105B8F08091D501012B09F49EC045
:10197000811110C0F092D5010E94430460933D0292
:1019800070933E0280933F029093400261E089E0B1
:101990000E94080386E00E94DF028C0181E00115AD
:1019A000110509F480E08093D4010E9443048090E3
:1019B000390290903A02A0903B02B0903C02681924
:1019C00079098A099B096536710581059105B8F089
:1019D0008091D301012B09F47AC0811110C0F092DB
:1019E000D3010E9443046093390270933A028093BA
:1019F0003B0290933C0261E08BE00E9408038091DF
:101A0000350290913602A0913702B09138020097CA
:101A1000A105B10509F161E0853520E392072DE0CC
:101A2000A207B10541F0863520E392072DE0A20719
:101A3000B105C1F460E089E00E94080364E670E04B
:101A400080E090E00E948C031092350210923602E2
:101A50001092370210923802209709F466CF0E9444
:101A6000000063CF873520E392072DE0A207B10580
:101A700069F461E08AE00E94080363E171E080E0BC
:101A800090E00E948C0360E08AE0D6CF61E0893567
:101A900020E392072DE0A207B10531F08A3590438B
:101AA000AD40B10589F660E08BE0C6CF882309F42C
:101AB00071CF1092D5010E94430460933D02709350
:101AC0003E0280933F029093400260E060CF882303
:101AD00009F495CF1092D3010E9443046093390218
:101AE00070933A0280933B0290933C0260E084CF73
:101AF0000E94EC0D88F09F5798F0B92F9927B751A5
:101B0000B0F0E1F0660F771F881F991F1AF0BA95A1
:101B1000C9F714C0B13091F00E94060EB1E00895EB
:101B20000C94060E672F782F8827B85F39F0B93FDD
:101B3000CCF3869577956795B395D9F73EF4909554
:101B40008095709561957F4F8F4F9F4F0895E894D2
:101B500009C097FB3EF490958095709561957F4FF5
:101B60008F4F9F4F9923A9F0F92F96E9BB279395A3
:101B7000F695879577956795B795F111F8CFFAF4B3
:101B8000BB0F11F460FF1BC06F5F7F4F8F4F9F4FE4
:101B900016C0882311F096E911C0772321F09EE842
:101BA000872F762F05C0662371F096E8862F70E0A8
:101BB00060E02AF09A95660F771F881FDAF7880F82
:101BC0009695879597F9089557FD9058440F551F9E
:101BD00059F05F3F71F04795880F97FB991F61F0AF
:101BE0009F3F79F087950895121613061406551F26
:101BF000F2CF4695F1DF08C0161617061806991F92
:101C0000F1CF86957105610508940895E894BB2786
:101C100066277727CB0197F908950E94200E0C9430
:101C2000910E0E94830E38F00E948A0E20F09523B8
:101C300011F00C947A0E0C94800E11240C94070E63
:101C40000E94E40D70F3959FC1F3950F50E0551F6E
:101C5000629FF001729FBB27F00DB11D639FAA2701
:101C6000F00DB11DAA1F649F6627B00DA11D661F50
:101C7000829F2227B00DA11D621F739FB00DA11D71
:101C8000621F839FA00D611D221F749F3327A00D2B
:101C9000611D231F849F600D211D822F762F6A2FC7
:101CA00011249F5750409AF0F1F088234AF0EE0F2C
:101CB000FF1FBB1F661F771F881F91505040A9F759
:101CC0009E3F510580F00C947A0E0C94070E5F3FF6
:101CD000E4F3983ED4F3869577956795B795F79595
:101CE000E7959F5FC1F7FE2B880F911D969587950D
:101CF00097F9089597F99F6780E870E060E008958C
:101D00009FEF80EC089500240A9416161706180613
:101D10000906089500240A941216130614060506EF
:101D20000895092E0394000C11F4882352F0BB0F80
:101D300040F4BF2B11F460FF04C06F5F7F4F8F4FE3
:101D40009F4F0895AA1BBB1B51E107C0AA1FBB1FD1
:101D5000A617B70710F0A61BB70B881F991F5A9537
:101D6000A9F780959095BC01CD010895EE0FFF1F56
:101D70000590F491E02D0994A29FB001B39FC0019A
:101D8000A39F700D811D1124911DB29F700D811DA7
:101D90001124911D08950E94BC0EB7FF0895821B67
:081DA000930B0895F894FFCFA6
:101DA800FFFFFFFF00E10000000000004F044F04A8
:101DB8004F044F044F043C0000C180810000000024
:101DC8000000001202BE03330228027902370255CE
:021DD800020007
:2070000055C000006EC000006CC000006AC0000068C0000066C0000064C0000062C0000043
:2070200060C000005EC00000F2C400005AC0000058C0000056C0000054C0000052C00000EE
:2070400050C0000078C000004CC000004AC0000048C0000046C0000044C0000042C00000BE
:2070600040C000003EC000003CC000003AC0000038C0000036C0000034C0000032C0000048
:2070800030C000002EC000002CC000002AC0000028C0000026C0000024C0000022C00000A8
:2070A00020C000001EC000001CC0000011241FBECFEFDAE0DEBFCDBF11E0A0E0B1E0E2E3BC
:2070C000FFE702C005900D92A83AB107D9F711E0A8EAB1E001C01D92AE3BB107E1F78FD30B
:2070E00026C78ECFF89410926F0010928100109285001092840081E085BF15BE47985D98ED
:2071000028980C94000008952091B2013091B3012F5F3F4F3093B3012093B201932F37FFA8
:2071200003C08EEF831B982F990F921710F447980895479A08951F920F920FB60F9211246E
:207140002F938F939F93EF93FF9310928500109284008091A8019091A901009741F00197D3
:207160009093A9018093A801892B09F45D988091AA019091AB01009741F001979093AB0128
:207180008093AA01892B09F42898E0E0F0E0859194918F5F9F4F49F08091AC019091AD0153
:2071A00001969093AD018093AC01FF91EF919F918F912F910F900FBE0F901F90189584E0BC
:2071C0008093E9000DC08091E8008B778093E80003C08EB3882351F08091E80082FFF9CFBE
:2071E0008091E80085FFEFCF8091F1000895982F83E08093E9008091E80085FD0DC0809136
:20720000E8008E778093E80003C08EB3882369F08091E80080FFF9CF9093F1005D9A84E6C9
:2072200090E09093A9018093A80108954F925F926F927F928F929F92AF92BF92CF92DF921E
:20724000EF92FF920F931F93CF93DF9384E08093E9008091E80082FF57C2289A84E690E065
:207260009093AB018093AA01AADF182F853481F48CE49DE19093AD018093AC0107B600FC4B
:20728000FDCFF999FECF81E180935700E89503C0843519F494DF8DE00DC28C34E1F38035F9
:2072A000D1F3843721F484E4A2DF80E003C2813611F489E5FFC18134B1F481DF182F7FDFE3
:2072C00090E0880F991FAA2797FDA095BA2F312F330F20E0442737FD4095542F822B932B68
:2072E000A42BB52BB8C1803711F483E5E3C1833549F4C0E0D1E089917ADF21E0C730D20714
:20730000D1F7D9C1863521F481E371DF80E3D2C1833731F487E86BDF85E969DF8EE1CAC149
:207320008536B9F4E0E0F0E093E085E090935700E89507B600FCFDCF80935700E89507B65D
:2073400000FCFDCFE058FF4FA0E7E030FA0771F7A2CF823739F4E1E0F0E089E08093570024
:207360008491A8C1863439F4E0E0F0E089E08093570084919FC18E3439F4E3E0F0E089E0E5
:2073800080935700849196C1813539F4E2E0F0E089E08093570084918DC1823631F489E521
:2073A00026DF80E024DF80E885C1823419F0873609F0E5C01092AD011092AC0100DF082FE8
:2073C000FEDEF82EFCDE682E8554823008F071C1902F80E0CF2DD0E0C82BD92B10926F00B3
:2073E000173609F04BC081E180935700E895DD24CC24C3943FC0E090AE01F090AF010091CC
:20740000B0011091B101B6E46B16D9F4ED2DF0E0EE29FF29E4918E2FEADEDD2081F082E08D
:2074200090E0A0E0B0E0E80EF91E0A1F1B1FE092AE01F092AF010093B0011093B101DC2470
:2074400018C0D801C701B695A7959795879559D5CEDE82E090E0A0E0B0E0E80EF91E0A1FF2
:207460001B1FE092AE01F092AF010093B0011093B1012197209709F0BECF7DC08090AE01F5
:207480009090AF01A090B001B090B10196E4691609F05DC083E0F40180935700E89507B63E
:2074A00000FCFDCF54C0F6E46F1661F5772031F1E090AE01F090AF010091B0011091B1019E
:2074C0007EDED82ECC24852D90E08C299D29F7010C0140925700E895112482E090E0A0E08B
:2074E000B0E0E80EF91E0A1F1B1FE092AE01F092AF010093B0011093B10102C060DE582E1A
:20750000742423C0E090AE01F090AF010091B0011091B10116950795F794E79450DE682FFA
:20752000C701F7D48091AE019091AF01A091B001B091B1010296A11DB11D8093AE01909349
:20754000AF01A093B001B093B101219704C05524772444244394209709F0A5CF96E46916B6
:2075600041F485E0F40180935700E89507B600FCFDCF8DE03CDE82E080936F009CC0833492
:2075800071F40091AE011091AF0119DE90E021E0F8010C0120935700E89511247CCE8336C8
:2075A00019F5E090AE01F090AF010091B0011091B10105DEF701E16090E021E00C0120938C
:2075C0005700E895112482E090E0A0E0B0E0E80EF91E0A1F1B1FE092AE01F092AF0100936A
:2075E000B0011093B10157CE8D3661F4E091AE01F091AF0185E080935700E89507B600FCF2
:20760000FDCF49CE823551F4E091AE01F091AF0105911491812FEBDD802F4CC0843421F5FE
:20762000E090AE01F090AF010091B0011091B10116950795F794E794C2DD682FC70169D4DE
:207640008091AE019091AF01A091B001B091B1010296A11DB11D8093AE019093AF01A093D8
:20766000B001B093B10117CE843609F5E090AE01F090AF010091B0011091B101D801C70142
:20768000B695A795979587953CD4B1DD82E090E0A0E0B0E0E80EF91E0A1F1B1FE092AE010A
:2076A000F092AF010093B0011093B10104C08B3111F08FE39CDD83E08093E9009091E8002B
:2076C0008091E8008E778093E80095FF04C010C08EB38823C9F08091E80080FFF9CF809193
:2076E000E8008E778093E80003C08EB3882361F08091E80080FFF9CF84E08093E9008091F1
:20770000E8008B778093E800DF91CF911F910F91FF90EF90DF90CF90BF90AF909F908F90AC
:207720007F906F905F904F9008959091B601892F8F77813249F58091B7018032A1F081328A
:2077400019F5913A09F58091E800877F8093E8008DE091E067E070E00BD28091E8008B770B
:207760008093E8000895913279F48091E800877F8093E8008DE091E067E070E05DD2809192
:20778000E8008E778093E800089582E061EC42E0B5D083E061E842E1B1D084E060E842E1EF
:2077A000ADC084B7877F84BF88E10FB6F89480936000109260000FBE20E880E090E00FB63F
:2077C000F89420936100809361000FBE81E085BF92E095BF3F9A209A559AE1E6F0E02083A1
:2077E000108247985D982898109289008AEF8093880090936F0083E080938100F0C040911A
:20780000000850910108109201081092000894B714BE88E10FB6F8948093600010926000D5
:207820000FBE292F30E0F901E270F07091FD18C090FF05C0859194918F5F9F4F81F423FFFF
:207840000FC08091090190910A014817590741F0E0E0F0E0859194918F5F9F4F09F042DC64
:20786000A0DF78941092AD011092AC010CC0DEDC36D38091AC019091AD0181549F4110F00D
:207880001092140141DC80911401882381F78091E00081608093E00025DC80E090E0089598
:2078A000FA01923049F0933061F09130F9F485E191E022E130E01EC087E291E02EE330E04D
:2078C00019C0882329F485E691E024E030E012C0813029F489E691E022E230E00BC0823006
:2078E00029F48DE891E028E130E004C080E090E020E030E091838083C90108958093E9004E
:207900008091EB0081608093EB001092ED006093EC004093ED008091EE00881F8827881F62
:2079200008958091B60188238CF403C08EB38823B1F08091E80082FFF9CF8091E8008B772A
:207940008093E80008958EB3882349F08091E80080FFF9CF8091E8008E778093E800089594
:20796000EF92FF920F931F9345D04CD008ED10E0F80180818F77808380818068808380819B
:207980008F7D808319BC1EBA1092B40180EEE82EF12CF70180818B7F8083F8018081816052
:2079A000808380E060E042E0A9DFE1EEF0E080818E7F8083E2EEF0E0808181608083808144
:2079C00088608083F70180818E7F8083F8018081806180831F910F91FF90EF900895E7ED06
:2079E000F0E08081816080838AE482BF81E08093B501B6CFE8EDF0E080818E7F808310921C
:207A0000E20008951092DA001092E10008951F920F920FB60F9211242F933F934F935F93F6
:207A20006F937F938F939F93AF93BF93EF93FF938091DA0080FF1BC08091D80080FF17C0B2
:207A40008091DA008E7F8093DA008091D90080FF0BC080E189BD82E189BD09B400FEFDCF36
:207A600081E08EBB3BD203C019BC1EBA37D28091E10080FF17C08091E20080FF13C0809138
:207A8000E2008E7F8093E2008091E20080618093E2008091D80080628093D80019BC85E049
:207AA0008EBB1CD28091E10084FF2CC08091E20084FF28C080E189BD82E189BD09B400FEC5
:207AC000FDCF8091D8008F7D8093D8008091E1008F7E8093E1008091E2008F7E8093E20012
:207AE0008091E20081608093E2008091B401882331F48091E30087FD02C081E001C084E067
:207B00008EBBECD18091E10083FF21C08091E20083FF1DC08091E100877F8093E10082E06A
:207B20008EBB1092B4018091E1008E7F8093E1008091E2008E7F8093E2008091E2008061E9
:207B40008093E20080E060E042E0D8DEC7D1FF91EF91BF91AF919F918F917F916F915F9130
:207B60004F913F912F910F900FBE0F901F9018959C014091BC015091BD014617570718F49D
:207B8000F90190E044C06115710511F0AB01F8CF8091E8008E778093E80040E050E0F0CF0F
:207BA0008EB3882309F444C0853009F443C08091E80083FF02C081E008958091E80082FD70
:207BC00031C08091E80080FF22C08091F3009091F200782F60E0292F30E0262B372B07C07A
:207BE00081918093F100415050402F5F3F4F4115510519F02830310598F390E02830310566
:207C000009F491E08091E8008E778093E8004115510531F6992321F605C08EB3882341F075
:207C2000853041F08091E80082FFF7CF80E0089582E0089583E008959C016115710529F47C
:207C40008091E8008B778093E800F90126C08EB3882391F1853091F18091E80083FF02C06C
:207C600081E008958091E80082FFF1CF06C08091F10081936150704059F02091F300809191
:207C8000F200322F20E090E0822B932B892B79F78091E8008B778093E80061157105B9F601
:207CA00005C08EB3882341F0853041F08091E80080FFF7CF80E0089582E0089583E00895C2
:207CC0000F931F93DF93CF9300D0CDB7DEB7E6EBF1E08091F100819381E0EE3BF807C9F792
:207CE00024DD8091E80083FFE4C08091B6019091B701953009F46DC0963040F4913081F1A7
:207D0000913070F0933009F0D4C02AC0983009F4A3C0993009F4B2C0963009F0CAC07CC023
:207D2000803809F4C6C0823809F0C3C08091BA0187708093E9008091EB001092E9002091DB
:207D4000E800277F2093E80090E025E0969587952A95E1F781708093F1001092F10087C0D8
:207D6000882319F0823009F0A4C08F71823009F0A0C08091B801882331F52091BA01277097
:207D800009F497C02093E9008091EB0080FF1BC0933021F48091EB00806213C08091EB0018
:207DA00080618093EB0081E090E002C0880F991F2A95E2F78093EA001092EA008091EB00E5
:207DC00088608093EB001092E9008091E800877F51C0882309F06DC01091B8011F770FB79B
:207DE000F8948091E800877F8093E8009ADD8091E80080FFFCCF8091E3008078812B809398
:207E0000E30080688093E300112311F482E001C083E08EBB0FBF4DC08058823008F049C033
:207E20008091B8019091B9016091BA01AE014F5F5F4F36DDBC01009709F43BC08091E8008E
:207E4000877F8093E80089819A8192DE8091E8008B778093E8002DC0803859F58091E800AA
:207E6000877F8093E8008091B4018093F1008091E8008E778093E80054DD1BC08823C9F4CA
:207E80009091B8019230A8F48091E800877F8093E8009093B40145DD8091B401882331F420
:207EA0008091E30087FD02C081E001C084E08EBB6CDC8091E80083FF0AC08091EB0080624E
:207EC0008093EB008091E800877F8093E8000F900F90CF91DF911F910F91089508951F9360
:207EE0008EB3882361F01091E9001092E9008091E80083FF01C0E4DE17701093E9001F916F
:207F00000895F999FECF92BD81BDF89A992780B50895262FF999FECF1FBA92BD81BD20BDBD
:207F20000FB6F894FA9AF99A0FBE01960895F894FFCF4341544552494E4100777700080031
:207F40000000000000080112011001020000084123370001000201000109023E00020100FE
:207F600080320904000001020201000524001001042402040524060001070582030800FF0C
:207F800009040100020A000000070504021000010705830210000104030904220341007216
:207FA000006400750069006E006F0020004D006900630072006F0020002000200000001810
:1A7FC00003410072006400750069006E006F0020004C004C004300000000D7
:00000001FF
