:100000000C9483000C94AB000C94AB000C94AB00EC
:100010000C94AB000C94AB000C94AB000C94AB00B4
:100020000C94410D0C94AB000C94AB000C94AB0001
:100030000C94AB000C94AB000C94AB000C94AB0094
:100040000C94800B0C94AB000C94F00B0C94CA0B2A
:100050000C94AB000C94AB000C94AB000C94AB0074
:100060000C94220C0C94AB00202B00202D005D3A48
:100070002000726177446174615B0020520020525D
:1000800061773D30780020433D30780020413D309D
:1000900078002062697473207265636569766564AF
:1000A0000020233D307800503D0000000000240077
:1000B00027002A0000000000250028002B00000077
:1000C0000008000201000003040700000000000017
:1000D000000000000000230026002900040404049E
:1000E00004040404020202020202030303030303E2
:1000F00001020408102040800102040810200102BF
:10010000040810202A0E11241FBECFEFD8E0DEBF56
:10011000CDBF24E0AEE4B2E001C01D92AF3FB20714
:10012000E1F712E0A0E0B1E0E2E5F6E302C00590FD
:100130000D92AE34B107D9F710E0C3E8D0E004C0A7
:100140002197FE010E941C1BC238D107C9F70E94EB
:10015000910E0C94271B0C940000A2EDB3E01196B5
:100160008C93119790E0FC01E051FF4FE4911496BD
:10017000EC931497FC01E452FF4FE491F0E0EE0F92
:10018000FF1FEE52FF4F8591949113969C938E938F
:1001900012970895E091F204F091F3049C013695D2
:1001A000279536952795820F931F44E1489F90012C
:1001B000499F300D1124818592858217930728F479
:1001C0008091E50481608093E50408950F931F9367
:1001D000CF93DF93E091F204F091F3044091B802E1
:1001E000808510E0481708F064C0142F117000914A
:1001F000B70201114FC0842F90E0880F991FE80FBC
:10020000F91F0184F285E02D2CEE3FEF112311F050
:1002100024E130E0C091B502D091B6022C0F3D1F11
:10022000C90163E470E00E94BC1AE617F70760F0AA
:10023000C90168E270E00E94BC1A6F5F7F4F81E0E5
:1002400090E06E177F0710F52C0F3D1FC90163E486
:1002500070E00E94BC1AE617F70750F0C90168E287
:1002600070E00E94BC1A6F5F7F4F6E177F0760F4CB
:100270002C0F3D1FC90163E470E00E94BC1AE61711
:10028000F707E8F41FEF15C082E090E09093B40206
:100290008093B3020F5F0093B7028091B3029091F5
:1002A000B4020817190628F01092B7024F5F409366
:1002B000B802812FDF91CF911F910F910895C9014D
:1002C00068E270E00E94BC1A6F5F7F4F6E177F0775
:1002D000C8F283E090E0DACF2AE090E080E061E4C9
:1002E00060937C0030917A00306430937A003091D2
:1002F0007A0036FDFCCF3091780040917900542F80
:10030000432F840F951F215059F76AE070E00E9437
:10031000D01ACB01089590E0FC01E254FF4F2491E4
:10032000FC01E051FF4F3491FC01E452FF4FE49196
:10033000EE23C9F0222339F0233001F1A8F4213053
:1003400019F1223029F1F0E0EE0FFF1FEC54FF4FBE
:10035000A591B4918FB7F894EC91611126C03095B6
:100360003E233C938FBF08952730A9F02830C9F071
:10037000243049F7809180008F7D03C080918000F8
:100380008F7780938000DFCF84B58F7784BDDBCFFC
:1003900084B58F7DFBCF8091B0008F778093B000C4
:1003A000D2CF8091B0008F7DF9CF3E2BDACFCF93A3
:1003B000DF9390E0FC01E051FF4F249184529F4F66
:1003C000FC0184918823D1F090E0880F991FFC01F3
:1003D000E655FF4FA591B491FC01EC54FF4FC59138
:1003E000D49161110EC09FB7F8948C91E22FE095E3
:1003F0008E238C932881E223E8839FBFDF91CF91E6
:1004000008958FB7F894EC91E22BEC938FBFF6CF61
:100410003FB7F8948091AF029091B002A091B102E1
:10042000B091B20226B5A89B05C02F3F19F00196E6
:10043000A11DB11D3FBFBA2FA92F982F8827BC013E
:10044000CD01620F711D811D911D42E0660F771F66
:10045000881F991F4A95D1F708958F929F92AF9266
:10046000BF92CF92DF92EF92FF924B015C010E940C
:1004700008026B017C010E9408026C197D098E093B
:100480009F09683E734081059105A8F321E0821A17
:100490009108A108B10888EEC80E83E0D81EE11CBF
:1004A000F11C81149104A104B10429F7FF90EF908D
:1004B000DF90CF90BF90AF909F908F900895FC01F8
:1004C0009B0124513109C90163E470E00E94BC1A08
:1004D000E617F70758F0C90168E270E00E94BC1AFD
:1004E0006F5F7F4F81E06E177F0708F480E008950B
:1004F0002F923F924F925F926F927F928F929F9234
:10050000AF92BF92CF92DF92EF92FF920F931F9321
:10051000CF93DF9300D000D000D0CDB7DEB7382E18
:100520003C832B8348012E2C262F30E0220F331FD3
:10053000275F3F4F6091F2047091F304260F371F3D
:100540003E832D839A012C5E3F4FC90163E470E026
:100550000E94BC1A5B01C90168E270E00E94BC1AEB
:10056000CB0101969A838983C12CD12C7601C39447
:10057000412C512C3201332009F453C0ED81FE810E
:10058000808191818A159B0508F455C029813A81A3
:100590002817390708F44FC0222021F0440C551CBD
:1005A000661C771CED81FE81028113816B817C8149
:1005B000C8010E945F028823A9F0222071F068948C
:1005C00040F82D813E812C5F3F4F3E832D83CC0C24
:1005D000DD1CEE1CFF1C3A94CECF4C285D286E2803
:1005E0007F28EFCFB401C8010E945F028111E9CFDB
:1005F00026960FB6F894DEBF0FBECDBFDF91CF9128
:100600001F910F91FF90EF90DF90CF90BF90AF9030
:100610009F908F907F906F905F904F903F902F9022
:1006200008954092E6045092E7046092E8047092C4
:10063000E90481E0DDCF80E0DBCFEF920F931F93E1
:10064000FC01862F642F058516852185328547811B
:100650005085E7840E9478021F910F91EF900895D2
:100660000F931F93CF93DF93EC01E091F204F0918D
:10067000F304038514852B813C812C5E3F4FC90117
:1006800063E470E00E94BC1A06171707A0F0C901C6
:1006900068E270E00E94BC1A6F5F7F4F60177107BD
:1006A00050F06D817E8185859685DF91CF911F9178
:1006B0000F910C945F0280E0DF91CF911F910F9119
:1006C0000895AF92BF92CF92DF92EF92FF920F9375
:1006D0001F93CF93DF936C017B018B01040F151FD8
:1006E000EB015E01AE18BF08C017D10759F0699140
:1006F000D601ED91FC910190F081E02DC6010995A4
:10070000892B79F7C501DF91CF911F910F91FF9050
:10071000EF90DF90CF90BF90AF900895FC01538D84
:10072000448D252F30E0842F90E0821B930B5417CB
:1007300010F0CF96089501970895FC01918D828D58
:10074000981761F0A28DAE0FBF2FB11D5D968C91F1
:10075000928D9F5F9F73928F90E008958FEF9FEF30
:100760000895FC01918D828D981731F0828DE80FEC
:10077000F11D858D90E008958FEF9FEF0895FC01A6
:10078000918D228D892F90E0805C9F4F821B910973
:100790008F739927089589E293E00E94BF0321E0B7
:1007A000892B09F420E0822F089580E090E0892BC6
:1007B00029F00E94CB0381110C9400000895FC01E4
:1007C000A48DA80FB92FB11DA35ABF4F2C91848DB2
:1007D00090E001968F739927848FA689B7892C930F
:1007E000A089B1898C91837080648C93938D848D62
:1007F000981306C00288F389E02D80818F7D808365
:100800000895EF92FF920F931F93CF93DF93EC0124
:1008100081E0888F9B8D8C8D98131AC0E889F989A7
:10082000808185FF15C09FB7F894EE89FF896083AA
:10083000E889F98980818370806480839FBF81E02B
:1008400090E0DF91CF911F910F91FF90EF9008956D
:10085000F62E0B8D10E00F5F1F4F0F731127E02E48
:100860008C8D8E110CC00FB607FCFACFE889F98980
:10087000808185FFF5CFCE010E94DF03F1CFEB8DA4
:10088000EC0FFD2FF11DE35AFF4FF0829FB7F89454
:100890000B8FEA89FB8980818062CFCF0F931F93F2
:1008A000CF93DF938C01D0E0C0E0F801EC0FFD1F87
:1008B0006491662341F089E293E00E940104892B50
:1008C00011F02196F2CFCE01DF91CF911F910F91C0
:1008D0000895682F89E293E00C940104CF93DF938D
:1008E000EC01888D8823B9F0AA89BB89E889F98948
:1008F0008C9185FD03C0808186FD0DC00FB607FC7D
:10090000F7CF8C9185FFF2CF808185FFEDCFCE01AF
:100910000E94DF03E9CFDF91CF9108952091720209
:10092000260F3327331F21323105ECF42091FF02CB
:10093000FC0190E080E0243069F082E00895A0910D
:1009400072022191AC01405B5D4FA40FB52FB11D28
:100950002C930196861798F380917202680F60932A
:10096000720280E0089581E008951092FF0281E014
:100970008093FE021092D90261E082E10E948B0115
:1009800061E083E10E948B01E9EBF0E080818E7FE2
:10099000808380818D7F808388E48093B80085E4A4
:1009A0008093BC000895CF93DF9391E090934F0222
:1009B0008823B9F0C091B800D091BA008091BC00F2
:1009C0008A7B8093BC0060E082E10E948B0160E042
:1009D00083E10E948B010E94B504D093BA00C093BA
:1009E000B800DF91CF910895CF92DF92EF92FF92FE
:1009F0000F931F93CF93DF93D091280381E0D132DF
:100A000008F09CC0C09127030E9408026B017C0182
:100A10008091FF0281116CC082E08093FF0281E02F
:100A20008093FE028FEF8093FD021092FC02D09320
:100A3000FB02A7E0B3E0EBEDF2E080E0D8138DC05D
:100A40001092DA028091DA02CC0FC82BC093DA023E
:100A50008091D902813009F084C01092D9020E949D
:100A600008026B017C018091DA028093BB008091C7
:100A7000010390910203A0910303B0910403892B19
:100A80008A2B8B2BA1F00E94080200910103109188
:100A9000020320910303309104036C197D098E0930
:100AA0009F09061717072807390708F442C08091E5
:100AB000BC0083FDD8CF85EC8093BC000E94080267
:100AC0006B017C018091FF02823009F44CC080915F
:100AD000FD028F3F09F469C08091FD02803209F464
:100AE00066C08091FD02803309F463C084E026C0B3
:100AF0008091010390910203A0910303B09104033C
:100B0000892B8A2B8B2B09F483CF0E94080200913A
:100B100001031091020320910303309104036C1927
:100B20007D098E099F09061717072807390708F05E
:100B30006FCF809100030E94D30485E010920603DA
:100B40001092280310920503DF91CF911F910F910E
:100B5000FF90EF90DF90CF9008959D9191938F5FDC
:100B60006DCF85EEA9CF8091010390910203A091F2
:100B70000303B0910403892B8A2B8B2B09F4A2CF9A
:100B80000E940802009101031091020320910303C7
:100B9000309104036C197D098E099F090617170708
:100BA0002807390708F08ECFC4CF80E0C7CF82E096
:100BB000C5CF83E0C3CFCF92DF92EF92FF920F9326
:100BC0001F93CF93DF93D82FC62F613208F098C0C0
:100BD0000E9408026B017C018091FF0281116BC0B1
:100BE00081E08093FF028093FE029FEF9093FD02CD
:100BF0001092FC029C0F9093FB028093DA0280918A
:100C0000DA02DD0FD82BD093DA028091D90281303D
:100C100009F078C01092D9020E9408026B017C0191
:100C20008091DA028093BB008091010390910203CE
:100C3000A0910303B0910403892B8A2B8B2BA1F085
:100C40000E94080200910103109102032091030306
:100C5000309104036C197D098E099F090617170747
:100C60002807390708F448C08091BC0083FDD8CF1D
:100C700085EC8093BC000E9408026B017C0180918E
:100C8000FF02813009F440C08091FC028C1710F4FF
:100C9000C091FC02EBEDF2E0A9EBB2E080E08C1336
:100CA00055C08C2FDF91CF911F910F91FF90EF9046
:100CB000DF90CF9008958091010390910203A0915D
:100CC0000303B0910403892B8A2B8B2B09F484CF67
:100CD0000E94080200910103109102032091030376
:100CE000309104036C197D098E099F0906171707B7
:100CF0002807390708F070CF809100030E94D304C1
:100D0000C0E0CFCF85EEB5CF809101039091020373
:100D1000A0910303B0910403892B8A2B8B2B09F438
:100D2000AECF0E94080200910103109102032091AE
:100D30000303309104036C197D098E099F0906177E
:100D400017072807390708F09ACFD6CF91919D93BE
:100D50008F5FA5CF089508950895E0919E02809138
:100D60009D02E81730F4F0E0E754FD4F808190E0F9
:100D700008958FEF9FEF089590919E0280919D02BC
:100D80002FEF3FEF981748F4E92FF0E0E754FD4FBD
:100D9000208130E09F5F90939E02C9010895809169
:100DA0009D0290919E02891B990B0895CF92DF922C
:100DB000EF92FF920F931F93CF93DF937C01CB01B0
:100DC0008A0120910503222389F0EB016B01C40EF7
:100DD000D51ECC15DD0569F06991D701ED91FC9127
:100DE0000190F081E02DC7010995F3CF642F0E9497
:100DF0008E04C801DF91CF911F910F91FF90EF906A
:100E0000DF90CF900895CF93DF931F92CDB7DEB7D9
:100E10006983209105032223F9F0209128032032D1
:100E200058F021E030E0FC013383228390E080E041
:100E30000F90DF91CF91089580910603E82FF0E0A5
:100E4000E95FFC4F998190838F5F809306038093C5
:100E5000280381E090E0ECCF61E0CE0101960E9492
:100E60008E04F7CF682F86EC93E00C94030791E093
:100E70009093050380932703109206031092280392
:100E800086EC93E00E9403070C94F404CF93DF9365
:100E9000CBECD9E3CE010197F1F760E08FE30E943C
:100EA000370760E08EE30E9437072197F1F7DF9163
:100EB000CF910895CF93E0914E0290E0C0E025E0FD
:100EC00030E0A1E0B0E0AD01022E01C0440F0A9471
:100ED000EAF7782F7423FE2FF4237F1302C06130CA
:100EE00019F47723F1F0C42B2150310960F7692FF1
:100EF0008EE30E94370760E08FE30E9437070E946D
:100F000046076C2F8FE30E94370760E08EE30E9454
:100F100037070E94460780919F0280934E02CF912F
:100F20000895942BE1CF8F929F92AF92BF92CF9270
:100F3000DF92EF92FF924B015C010E9408026B016D
:100F40007C0124E0C21AD108E108F1080E940802DD
:100F50006C197D098E099F09681579058A059B051D
:100F6000A8F3FF90EF90DF90CF90BF90AF909F904D
:100F70008F90089521E001C0220F6A95EAF7DC0105
:100F80001C962C931C971A965C934E931997ED918F
:100F9000FC910484F585E02D60E00994DC01ED917D
:100FA000FC910684F785E02D41E0099581E090E011
:100FB0000895DC01ED91FC910684F785E02D40E079
:100FC00009940F931F93CF93DF93CDB7DEB7289784
:100FD0000FB6F894DEBF0FBECDBF0091D2011091C5
:100FE000D3012091D4013091D5010D831E832F832D
:100FF00038870091D6011091D7012091D801309106
:10100000D90109831A832B833C839091C204691709
:1010100010F06FEF690F262F30E04091C3042C0FC2
:101020003D1FF901403199F4943089F46181680FD2
:1010300060688BEB94E028960FB6F894DEBF0FBE85
:10104000CDBFDF91CF911F910F910C94D90765818E
:10105000EECF61E00E94D9078BE39FE10197F1F7A2
:1010600008950F931F93CF93DF93EC01423018F054
:101070008C8188608C834F836887222329F04130DC
:1010800019F48C8184608C8364E670E080E090E0E9
:101090000E942D026C8164FD50C0E881F9810684B4
:1010A000F785E02D42E063E0CE0109950BE416E4FC
:1010B000C8010197F1F7E881F9810684F785E02DF1
:1010C00042E063E0CE010995C8010197F1F7E8819C
:1010D000F9810684F785E02D42E063E0CE010995B1
:1010E00083E592E00197F1F7E881F9810684F785BD
:1010F000E02D42E062E0CE0109956C816062CE0194
:101100000E94D90784E08D836CE0CE010E94D9074C
:10111000CE010E94290882E08E8366E0CE010E9403
:10112000D907E881F9810484F585E02D6FEFCE01C0
:10113000DF91CF911F910F9109946062CE010E94BF
:10114000D9078BE496E40197F1F76C816062CE01D8
:101150000E94D90783E592E00197F1F76C81606204
:10116000CE010E94D907C9CF08950895089590E04F
:1011700080E00895CF93DF93FC012381222331F196
:10118000262FEC016181609562236083828191E06A
:10119000909305038093270310920603109228036F
:1011A00089E090E00E943207688186EC93E00E941B
:1011B00003070E94F404282F30E081E090E0232B05
:1011C00011F090E080E0DF91CF91089530E020E0D1
:1011D000F4CFEF92FF920F931F93CF938C01FC01FA
:1011E00084E0C0E0262F30E060FF02C09589C92B63
:1011F000B90175956795815031968111F3CF4130D2
:1012000011F4F8014489F8016585C62BC42B7801D7
:10121000FEE0EF0EF11CF80162896C2BC7010E9401
:10122000BA08F801628960956C23C701CF911F91BC
:101230000F91FF90EF900C94BA080F931F93CF93E8
:10124000DF93062F0F70423041F440E0602FDF91B2
:10125000CF911F910F910C94E908142FEC0170E0CD
:1012600084E0759567958A95E1F7CE010E94E908BB
:10127000412F602FCE01EBCFFC0184858823A1F0A4
:10128000218532852115310521F4611107C01586AC
:1012900006C021303105D9F76111F9CF8587658501
:1012A000CF010E960C94BA080895EF92FF920F9317
:1012B0001F93CF93DF93EC01062FF42EE22E8B8544
:1012C000888B10929E0210920603109228030E94AF
:1012D000B5048AEA96E090937102809370028BEADB
:1012E00096E09093750280937402888991E09093C0
:1012F00005038093270389E090E00E9432070E9453
:10130000F40461E088890E94DB0580939D0291E0EE
:10131000811101C090E0998B86EC93E00E94BC069D
:101320008E87888911E0109305038093270310921C
:1013300006031092280390E080E00E94320780E2CA
:1013400090E00E9432070E94F404888910930503FC
:1013500080932703109206031092280386E090E002
:101360000E94320780E290E00E9432070E94F4045B
:101370008989882311F01F861C822E2D4F2D602F06
:10138000CE01DF91CF911F910F91FF90EF900C94C0
:101390003108E6EDF4E08AE190E09283818385E014
:1013A00090E09483838361E080810C94D7018091E5
:1013B000D404882319F060E00C948B012D980895D3
:1013C000882349F08091D404882319F061E00C94BB
:1013D0008B012D9A08950C94D7094F925F926F92CA
:1013E0007F928F929F92AF92BF92CF92DF92EF92B5
:1013F000FF92CF93DF93CDB7DEB72D970FB6F8945A
:10140000DEBF0FBECDBF7C010E94080269837A83D4
:101410008B839C834B015C011D86B0E0A0E09701AB
:10142000AD0125523109410951092D833E834F8376
:1014300058879701AD012750310941095109298782
:101440003A874B875C87F89461E08091D6040E94CC
:101450008B018091D9049091DA048230910538F0A3
:10146000880F991F880F991F05970197F1F760E082
:101470008091D6040E948B0178943D85311107C07C
:101480008091D504823019F481E00E94E0098091B6
:10149000D7049091D804880E991EA11CB11C0E94FB
:1014A00008022B013C016B0149815A81C41AD50AFB
:1014B000F12CE12C8D819E81AF81B885C816D906AB
:1014C000EA06FB0634F08091D504823011F40E94C4
:1014D000D70929853A854B855C85C216D306E40673
:1014E000F50644F431E03D87481459046A047B044E
:1014F000B0F2A9CF2D960FB6F894DEBF0FBECDBFC8
:10150000DF91CF91FF90EF90DF90CF90BF90AF90A1
:101510009F908F907F906F905F904F9008950E9462
:10152000C90980E891E10E94ED0960E871E180E07D
:1015300090E00E94930780E392E00E94ED0960E34F
:1015400072E080E090E00E94930780E392E00C94C8
:10155000ED090E94C90980E093E20E94ED0960EC68
:1015600078E080E090E00E94930780E392E00C94A2
:10157000ED090E94221BFB0101900020E9F7319741
:10158000AF01461B570BDC01ED91FC910280F3810A
:10159000E02D09948F929F92AF92BF92EF92FF92AB
:1015A0000F931F93CF93DF93CDB7DEB7A1970FB6FD
:1015B000F894DEBF0FBECDBF7C01FA01CB0119A2AA
:1015C000223008F42AE08E010F5D1F4F822E912CED
:1015D000B12CA12CBF01A50194010E94801AF90130
:1015E000CA016A300CF5605DD8016E938D01232B22
:1015F000242B252B79F790E080E0109721F0BD0196
:10160000C7010E94BB0AA1960FB6F894DEBF0FBEB9
:10161000CDBFDF91CF911F910F91FF90EF90BF90C1
:10162000AF909F908F900895695CDECFCF92DF924C
:10163000EF92FF92CF93DF936C01990FEE08FF08B2
:10164000F7FE19C08DE20E946904EC01442755277A
:10165000BA014C195D096E097F092AE089E293E01D
:101660000E94CA0A8C0F9D1FDF91CF91FF90EF90CF
:10167000DF90CF9008952AE0B701A60189E293E0B8
:10168000DF91CF91FF90EF90DF90CF900C94CA0A3A
:1016900085ED8093BC008091010390910203A0919D
:1016A0000303B09104030796A11DB11D23E0B69575
:1016B000A795979587952A95D1F72091BC0024FD91
:1016C00003C01092FF02089540910103509102035C
:1016D0006091030370910403452B462B472B69F35C
:1016E0000097A105B10541F025E32A95F1F7000027
:1016F0000197A109B109E1CF809100030C94D304B3
:101700001F920F920FB60F9211242F933F938F9336
:101710009F93AF93BF938091AB029091AC02A09145
:10172000AD02B091AE023091AA0223E0230F2D3713
:1017300058F50196A11DB11D2093AA028093AB021A
:101740009093AC02A093AD02B093AE028091AF0231
:101750009091B002A091B102B091B2020196A11D88
:10176000B11D8093AF029093B002A093B102B093E9
:10177000B202BF91AF919F918F913F912F910F90A6
:101780000FBE0F901F90189526E8230F0296A11DFB
:10179000B11DD2CF1F920F920FB60F9211242F932B
:1017A0003F934F935F936F937F938F939F93AF93E9
:1017B000BF93EF93FF9389E293E00E94DF03FF91D1
:1017C000EF91BF91AF919F918F917F916F915F91B9
:1017D0004F913F912F910F900FBE0F901F90189532
:1017E0001F920F920FB60F9211242F938F939F93F6
:1017F000EF93FF93E0913903F0913A038081E091F8
:101800003F03F091400382FD1BC090818091420311
:101810008F5F8F7320914303821741F0E091420361
:10182000F0E0E75DFC4F958F80934203FF91EF91CD
:101830009F918F912F910F900FBE0F901F90189531
:101840008081F4CF1F920F920FB60F9211242F9325
:101850003F934F935F936F937F938F939F93AF9338
:10186000BF93EF93FF938091B900887F803609F48E
:101870004AC0F0F5883209F4A7C018F5803109F4A0
:101880009BC0B8F4882309F4F9C0883009F494C0E7
:10189000FF91EF91BF91AF919F918F917F916F9148
:1018A0005F914F913F912F910F900FBE0F901F901E
:1018B0001895883109F488C0803251F78093FD0271
:1018C00014C0803409F49DC040F48033B9F38833E8
:1018D000F9F68093FD0285ECB0C0803509F485C02F
:1018E000883509F496C0883499F60E94480BD0CF09
:1018F000883909F48CC038F5883729F050F48836D7
:1019000011F0803729F683E08093FF02109296024F
:1019100057C0883809F47BC0803919F0803809F045
:10192000B7CF80919602803208F071C0E0919602A4
:1019300081E08E0F809396028091BB00F0E0EA5820
:10194000FD4F80833DC0803B39F0E0F4803A09F4DC
:1019500079C0883A09F09CCF84E08093FF0210920E
:10196000730210927202E0917002F0917102099577
:101970008091720281110FC081E0809372021092F7
:10198000500209C0803C09F4A6CF883C09F4A3CFDB
:10199000883B09F07DCFE091730281E08E0F809348
:1019A0007302F0E0E05BFD4F80818093BB0090917B
:1019B00073028091720229C08091DA028093BB0089
:1019C00085EC8093BC0064CF9091FC028091FB0277
:1019D000981758F5E091FC0281E08E0F8093FC028D
:1019E000F0E0E552FD4F8081E9CFE091FC0281E01B
:1019F0008E0F8093FC028091BB00F0E0E552FD4F1A
:101A000080839091FC028091FB029817C8F285E8D0
:101A1000D8CFE091FC0281E08E0F8093FC02809190
:101A2000BB00F0E0E552FD4F80838091FE02811102
:101A30005CCF81E08093D90284EA8093BC0010924D
:101A4000FF0226CF85EC8093BC001092FF028091AC
:101A50009602803230F4E0919602F0E0EA58FD4FB1
:101A600010826091960270E0E0917402F09175022C
:101A700086E792E00995109296020ACF1092FD0235
:101A800034CF1F920F920FB60F9211242F933F93D2
:101A90004F935F936F937F938F939F93AF93BF9376
:101AA000EF93FF93E091D403F091D503908180915F
:101AB000D60398232091D7033091D8032F3F3207C4
:101AC00031F02F5F3F4F3093D8032093D70380919D
:101AD000D203811131C0911116C02091D7033091EA
:101AE000D8032536310558F01092D9033093DC0322
:101AF0002093DB0381E08093DA038093D20310927A
:101B0000D8031092D7038091D504813021F491112C
:101B100080E00E94E009FF91EF91BF91AF919F910A
:101B20008F917F916F915F914F913F912F910F9086
:101B30000FBE0F901F9018958091D2038130A1F4B1
:101B4000992309F3E091DA038E0F8093DA03F0E032
:101B5000EE0FFF1FEE52FC4F2091D7033091D803B8
:101B60003287218782E0C9CF8091D203823039F554
:101B7000911119C0E091DA0381E0E03720F0809301
:101B8000D90383E0BACF8E0F8093DA03F0E0EE0F33
:101B9000FF1FEE52FC4F2091D7033091D8033287BC
:101BA000218781E0AACF2091D7033091D803253631
:101BB000310508F4A8CF83E08093D203A4CF8091AD
:101BC000D203833009F09FCF992309F498CF9BCF9C
:101BD000EF92FF920F931F93CF93DF93EC01F62FB9
:101BE0008A01790190E080E030E0E0E0DE01AE0FB4
:101BF000B11D2C91222341F0320F2E9F800D911D9B
:101C000011241C92FE1315C0332399F0532F5695BF
:101C1000850F911D632F70E00E94BC1ADE01A60F94
:101C2000B11D3C93D8013C9131110EC06C9390E0F2
:101C300080E0EF5FFE17D0F681E0DF91CF911F913A
:101C40000F91FF90EF900895D7013C91332371F3EA
:101C500080E0F3CFE9E2F3E01382128288EE93E0B2
:101C6000A0E0B0E084839583A683B7832EED31E0B6
:101C70003183208325EC30E03587248724EC30E065
:101C80003787268720EC30E0318B208B21EC30E049
:101C9000338B228B22EC30E0358B248B26EC30E02A
:101CA000378B268B118E128E138E148EE6ECF3E09A
:101CB0001382128284839583A683B78380EF91E099
:101CC0009183808382ED93E09093F3048093F204F8
:101CD00080E00E94AD001092D4041092D604EBEB89
:101CE000F4E01382128282E092E091838083108A72
:101CF0008FEF87871686118A87E283871486158679
:101D00001286118680E8828B80E4838B80E1848B4D
:101D100081E0858B82E0868B84E0878B88E0808FF2
:101D20000895CF93DF93CDB7DEB7EC970FB6F89455
:101D3000DEBF0FBECDBF789484B5826084BD84B50C
:101D4000816084BD85B5826085BD85B5816085BDB6
:101D500080916E00816080936E001092810080916E
:101D600081008260809381008091810081608093F6
:101D70008100809180008160809380008091B1001B
:101D800084608093B1008091B00081608093B00046
:101D900080917A00846080937A0080917A008260DA
:101DA00080937A0080917A00816080937A0080919C
:101DB0007A00806880937A001092C100E091390324
:101DC000F0913A0312E01083E0913503F09136036D
:101DD0001082E0913703F09138038FEC80831092EA
:101DE0004103E0913D03F0913E0386E08083E09162
:101DF0003B03F0913C03808180618083E0913B0351
:101E0000F0913C03808188608083E0913B03F091F6
:101E10003C03808180688083E0913B03F0913C0328
:101E200080818F7D808388E00E94AD001092D40471
:101E300060E08091D3030E94D7011093B00010930B
:101E4000B10084E68093B3008093B4001092B20096
:101E50008091D203833011F41092D20384E08093F6
:101E6000700020E042E060E18BEB94E00E945509B5
:101E700061E080E10E94D70161E081E10E94D70129
:101E800060E080E10E948B0160E081E10E948B01B3
:101E900060E081E00E94D7018BEB94E00E9429086A
:101EA0000E94460764E670E080E090E00E942D0208
:101EB0009E012F5F3F4F1901FF24F394B2E34B2E95
:101EC00010E2C12ED12CF092A9028091D20383306E
:101ED00011F00C9470188091D903882309F45BC029
:101EE0001092D9031092DA0380E48093E5041092F3
:101EF000DC041092DB041092E0041092DF041092D4
:101F0000DE041092DD041092E6041092E7041092B1
:101F1000E8041092E9041092E4041092E304809122
:101F2000E50486FD23C4E091F204F091F3042085DA
:101F3000822F8F7B843009F0BFC0838594858658BB
:101F400091098C35910508F0B7C0858596852430B8
:101F500009F048C08197489708F0AEC087859089FE
:101F60000897089708F0A8C0F092E5048091F6045D
:101F70009091F7049093DE048093DD048091FA043D
:101F80009091FB049093E0048093DF048091F4042B
:101F90009091F50494C11092E5048091DB04909136
:101FA000DC049093F5048093F4048091DF04909115
:101FB000E004B0E0A0E08093FA049093FB04A093C7
:101FC000FC04B093FD048091DD049091DE04B0E048
:101FD000A0E08093F6049093F704A093F804B093E4
:101FE000F90485CF825491098F9708F065C043E0CA
:101FF00060E28DEB91E00E941D03882309F45CC030
:102000008091E6049091E7044091E8045091E9043E
:10201000242F30E03093E0042093DF049C012E3E17
:1020200067E8360731F582E090E09093DC04809316
:10203000DB04852F90E09093DE048093DD04D09242
:10204000E404C092E304E091F204F091F30481858A
:102050009285823B944008F089C388E090E0909399
:10206000DC048093DB048091E50481608093E504C7
:102070007DC39095891310C090E09093DE04809307
:10208000DD04852F809548130CC087E090E0909385
:10209000DC048093DB04D3CF3093DE042093DD0493
:1020A000F0CF89E090E09093DC048093DB044093D0
:1020B000DF045093E004C3CFE091F204F091F30405
:1020C0008085843609F08FC088EA91E00E94300351
:1020D000882309F488C043E060E188EA91E00E9427
:1020E0001D03882309F47FC09090E604092D109108
:1020F000E704FAE0AF2EB12C0230F0E21F07F9F04E
:10210000EDE0AE2EB12C0A3A2AE51207C1F07CE0D0
:10211000A72EB12C043532E3130789F06EE0A62E0A
:10212000B12C033041E0140751F0AFE0AA2EB12CDE
:1021300003325BEC150719F05BE0A52EB12C43E2EE
:1021400060E288EA91E00E941D03882309F44BC0F5
:1021500091268091E6049091E704A091E804B09163
:10216000E9049C0144E0369527954A95E1F73093C0
:10217000DE042093DD042A2F30E03093E004209326
:10218000DF04382F3A273927292D22952F7029254A
:102190002F70482F4F70241719F024E02093E50486
:1021A0006BE0A616B10449F42091E5042061209368
:1021B000E5041093E2040093E1043B1729F08091B9
:1021C000E50484608093E50480E390E09093E40468
:1021D0008093E304B092DC04A092DB048AE490E0F4
:1021E0000E94CA00C3C2E091F204F091F30480851A
:1021F000803209F06FC041E06FE083E991E00E9416
:102200001D03882309F466C0E091F204F091F30401
:10221000DF01A95BBF4F8D919C910497059708F052
:1022200059C080E88093E5048091E6049091E7042A
:10223000A091E804B091E904AC01BD01A2E076955B
:10224000679557954795AA95D1F75093DD0410925D
:10225000DE049A0133273093E0042093DF042185C4
:1022600032852536344080F52091FE042F5F20937F
:10227000FE0480FF11C032E83093E504E091FA04D7
:10228000F091FB0440954E1719F036E83093E504C1
:10229000E093DF04F093E004223028F02091E5047D
:1022A00021602093E5042FE030E03093E404209394
:1022B000E30483708150823050F484E190E0909385
:1022C000DC048093DB0452C21092FE04ECCF83E066
:1022D00090E0F5CF8EE791E00E943003882309F467
:1022E0004AC0A091F204B091F30418962C9118976B
:1022F0002A3121F02A3211F02032E9F530E0C9010B
:10230000019797FDC90195958795182FFD013F9677
:10231000220F331F275F3F4F2A0F3B1F812C912C29
:102320005401839440E050E0BA01112309F452C0F3
:10233000A081B181A231B105C8F09097E0F448299D
:1023400059296A297B29DF011296A217B30738F4AD
:10235000A281B3811897189770F4DF011496880C46
:10236000991CAA1CBB1C1150FD01DFCFA930B1057F
:1023700010F0519740F3F092B80229E733E0309320
:10238000B6022093B5021092B7020E94E600813097
:1023900009F08BC0812C912C540110E0E091F204E3
:1023A000F091F30490858091B802891708F043C03A
:1023B0000E94E600082F0E94E600011132C0813021
:1023C00009F073C0880C991CAA1CBB1C689480F887
:1023D0001F5FE4CF4093E6045093E7046093E80462
:1023E0007093E9049A012F7733273093E004209308
:1023F000DF0427E076956795579547952A95D1F79D
:102400005093DE044093DD048093E3049093E4044E
:1024100085E190E09093DC048093DB0488E190E018
:10242000DFCE013009F041C081113FC0880C991CFA
:10243000AA1CBB1CCDCF812F90E09093E404809325
:10244000E3048092E6049092E704A092E804B0923C
:10245000E904882D8F7390E09093E0048093DF046B
:10246000940116E0369527951A95E1F72F713327D9
:102470003093DE042093DD04940122273071232B56
:1024800031F4805C9F4F9093E0048093DF0480E8F8
:1024900093FC88E88093E50480E190E09093DC046D
:1024A0008093DB0484E690E09BCEE091F204F0910F
:1024B000F3048385948588974D9708F046C08585F9
:1024C00096850C970B9708F040C083E08093B80284
:1024D0008CEB91E09093B6028093B5021092B70214
:1024E0000E94E600813089F50E94E60081112DC02E
:1024F000812C912C540110E0E091F204F091F3044E
:1025000090858091B802891708F070C00E94E6009B
:10251000782E1330B1F00E94E600082F133021F41A
:102520000E94E600081311C031E0731255C001117A
:102530000CC0880C991CAA1CBB1C689480F81F5FF7
:10254000DBCF0E94E600781631F3E091F204F091BF
:10255000F30420852C3311F0243051F483859485C5
:102560008638910508F487C0833E910508F4A1C020
:10257000E091F204F091F3048085843209F4ACC157
:10258000823209F0D3C1818592858C3E9C4508F04A
:10259000EDC0838594850897079708F0E7C0E55B51
:1025A000FF4F808191810897079708F0DFC0F09274
:1025B000E5048091F6049091F7049093DE048093F3
:1025C000DD048091FA049091FB049093E0048093E1
:1025D000DF0484E090E073CE7110B7CF013009F0D2
:1025E000B4CF880C991CAA1CBB1CA9CF812F90E0EA
:1025F0009093E4048093E3048092E6049092E704CD
:10260000A092E804B092E904282D30E0892D14321C
:10261000F8F480E88093E5043093E0042093DF042D
:10262000892D90E09093DE048093DD04A0FE03C02A
:1026300088E88093E5048185928583379A4028F461
:102640008091E50481608093E50481E190E037CEDC
:1026500090E89093E50497FE03C098E89093E50412
:102660003093E0042093DF048F7790E09093DE04B2
:102670008093DD04E0CF8D32910508F479CF6CE1D1
:1026800075E206E010E08D34910508F071CF858584
:102690009685243099F44D97469708F069CF878541
:1026A00090890797089708F063CF81E88093E50445
:1026B0005DCC68E670E105E010E0E9CF0E945F02C2
:1026C000882309F455CF43E06CE180E091E00E945B
:1026D0001D03882309F44CCF80E88093E5048091A2
:1026E000E6049091E704A091E804B091E9044C015C
:1026F0005D01E4E0B694A79497948794EA95D1F7A6
:10270000A4019092E0048092DF044C015D01F4E1A9
:10271000B694A79497948794FA95D1F79092DE0493
:102720008092DD0424E030E060E0742F7F70670F5A
:1027300074E0569547957A95E1F721503109A9F74C
:1027400086278F709927AA27BB27892B8A2B8B2B4B
:1027500019F084E88093E5041093DC040093DB0413
:102760008CE190E09093E4048093E3048091A902CB
:10277000882309F43EC48091DB049091DC04892B0A
:1027800009F0FDC382E790E00E944E04E091F2045C
:10279000F091F304408550E070E060E02AE089E2C7
:1027A00093E00E94CA0A8EE690E00E944E0462E125
:1027B00072E089E293E00E94BB0A8BE690E00E94FF
:1027C0004E04E091F204F091F30421853285A2E3F6
:1027D000B0E00E94AD1AAB01BC012AE089E293E0AF
:1027E0000E94CA0A62E172E089E293E00E94BB0A99
:1027F0008091DB049091DC048330910531F08431C9
:10280000910519F006E0489709F400E0712C612C5D
:1028100011E0E091F204F091F3048085181708F0BC
:1028200090C3A12EB12CC501880F991FE80FF91F85
:1028300081859285489E4001499E900C1124940107
:1028400050E040E029AF3AAF4BAF5CAF680E791E65
:10285000312F3170532E10FD6FC38DE20E94690439
:1028600048EE841643E0940688F480E20E946904EE
:1028700054E68516910450F480E20E9469046AE0EF
:102880008616910418F480E20E9469042AE049AD9A
:102890005AAD6BAD7CAD89E293E00E94CA0A552027
:1028A00079F08FEFA81AB80AE091F204F091F304DE
:1028B00080858A151B0421F01CF08CE20E946904BB
:1028C000802F810F877031F462E172E089E293E03A
:1028D0000E94BB0A1F5F9DCF85E191E00E943003FB
:1028E000882321F143E060E185E191E00E941D032E
:1028F0008823E1F08091E6049091E704A091E80438
:10290000B091E904492F5A2F6B2F77275093E00499
:102910004093DF0499279093DE048093DD0480E1E7
:1029200090E09093E4048093E30453CEE091F204AA
:10293000F091F3041085812F8F7D843419F01630C7
:1029400009F079C08AE291E00E943003882309F4FB
:1029500072C01630A9F4F092E5048091F6049091CB
:10296000F7049093DE048093DD048091FA04909143
:10297000FB049093E0048093DF0483E190E09FCC1C
:1029800043E060E28AE291E00E941D03882309F49B
:1029900052C01091E8040091E9049091E6048091FE
:1029A000E7049093DD048093DE04E091F204F0915B
:1029B000F3048085843651F543E260E18AE291E0D8
:1029C0000E941D038823B9F19091E6048091E704E9
:1029D0001095011731F09095981719F094E09093A5
:1029E000E504982F802F9093E0048093DF0480E328
:1029F00090E09093E4048093E30482E190E090936C
:102A0000DC048093DB0487E390E0EACB802F8095A1
:102A100018130BC0812F90E09093E0048093DF04A3
:102A2000D092E404C092E304E8CFC8019093DF049D
:102A30008093E004F5CFE091F204F091F3048085F7
:102A40008434C1F48FE391E00E943003882391F035
:102A500043E060E28FE391E00E941D03882351F080
:102A600080E88093E504D092E404C092E30489E115
:102A700090E025CC84E591E00E943003E091F204DF
:102A8000F091F3049085882309F455C0943209F03D
:102A900052C043E060E184E591E00E941D03882379
:102AA00009F449C0E091F204F091F304DF01A15B65
:102AB000BF4F8D919C9102970497E8F580E8809331
:102AC000E5049091E6044091E704292F342F542F18
:102AD00052955F704F70A4E036952795AA95E1F75F
:102AE0002F709F708FE0852784278227981719F011
:102AF00084E88093E50481859285883F914128F49C
:102B00008091E50482608093E5045093DD04109287
:102B1000DE04E0E14E9FC0011124822B9093E0047B
:102B20008093DF0480E190E09093E4048093E304D9
:102B300087E190E0C4CB89E691E00E943003E09108
:102B4000F204F091F3049085882381F1943271F5B9
:102B500043E060E189E691E00E941D03882331F1A2
:102B6000E091F204F091F304E15BFF4F80819181E9
:102B700008970797D8F48091E6049091E704982786
:102B80009F3FA1F490E09093E0048093DF0480E104
:102B900090E09093E4048093E30486E190E09093C6
:102BA000DC048093DB0482E390E01ACBA091F20472
:102BB000B091F30418968C911897803709F076C07D
:102BC0005D0120E030E040E050E060E070E080E057
:102BD00090E0E12CF50183849484EE2DEE0FED5FFF
:102BE000E9AFF50105851685F7E3EF1641F0080D0D
:102BF000191D015111090E30110508F05AC001E0EC
:102C00000E94031B132F742E652E562E072FE8E00B
:102C10008E1A9108F8E08F16910408F42160E3946D
:102C2000E4E0AE0EB11CF8E3EF12D4CF88E190E0FF
:102C30009093DC048093DB04E9ADE695F0E0F0933B
:102C4000E404E093E30480E88093E504872D962D67
:102C5000A52DB02F472D210F270D260D250D200F57
:102C600019F024E82093E504212F30E03093E004AC
:102C70002093DF0440FF05C033953093E004209398
:102C8000DF04B695A795979587958093E604909372
:102C9000E704A093E804B093E9049093DE048093E2
:102CA000DD04B093E204A093E10460CD843108F424
:102CB000DDC0F101242D11922A95E9F718962C9187
:102CC00018972250330B60E043E0842F90E0821786
:102CD00093079CF4880F991FFD01E80FF91F818568
:102CE000823348F4F101E80FF11D90819F5F9083DA
:102CF000681708F4682F4E5FE8CF1EAA1DAA9E0130
:102D00002B5C3F4FAE014A5C5F4FC1010E94E80D52
:102D1000F101242D11922A95E9F7A091F204B091C6
:102D2000F30418962C9118972250330B60E044E07E
:102D3000842F90E0821793079CF4880F991FFD0160
:102D4000E80FF91F8185823348F4F101E80FF11D86
:102D500090819F5F9083681708F4682F4E5FE8CFDB
:102D60001CAA1BAA9E012D5C3F4FAE014C5C5F4F1D
:102D7000C1010E94E80D882309F478C0E091F204B3
:102D8000F091F304B0842B2D2695A22EB12CC50111
:102D900002979093E4048093E304338538AF1FAA2D
:102DA000858596854FA958AD842B952B9093E20489
:102DB0008093E1048EA990E0982F88273BA9AC016D
:102DC000432B5093DE044093DD044CA9842B909355
:102DD000E0048093DF0453E0A51AB10845E0B694FF
:102DE000A7944A95E1F73323F1F181E090E09093C5
:102DF000DC048093DB049EEFB92EB20E23E0822E1A
:102E0000912C0CA9049D800111242BA9249D9001D3
:102E100011244EA9449DA00111248B2D60E26B1555
:102E200008F480E2E12C682D0E9478028823F1F0FA
:102E300084E0989EF0011124E552FB4F8091E60456
:102E40009091E704A091E804B091E9048787908B02
:102E5000A18BB28B90E4890E9394E0EEBE0EA91480
:102E600080F680E103C98DA98111FBCFA090F20407
:102E7000B090F304F5010085063008F477CC99246E
:102E8000939425EC3DE94CE151E810E08AE0882E6E
:102E9000892D90E0BC016E5F7F4F60177107DCF5F4
:102EA000660F771FF501E60FF71F61857285880FA2
:102EB000991FF501E80FF91F81859285869ED00143
:102EC000879EB00D1124FC01EE0FFF1FEE0FFF1FB8
:102ED000EE0FFF1FAE17BF07D0F0889EF001899E4E
:102EE000F00D1124CB0163E0880F991F6A95E1F77B
:102EF000E817F90770F4E2E063E971E080E091E03F
:102F00000E94701A9B01AC012E279394C1CFE0E080
:102F1000F3CFE1E0F1CF2093E6043093E704409350
:102F2000E8045093E904D092E404C092E3041092C0
:102F3000DC041092DB041ACC88E690E00E944E0478
:102F40008FCC62E172E089E293E00E94BB0A65E106
:102F500072E089E293E00E94BB0A9301A2E3B0E031
:102F60000E94AD1AAB01BC012AE089E293E00E9405
:102F7000CA0A62E172E089E293E00E94BB0A87EA32
:102F800090E00E944E048091DB049091DC040E944A
:102F9000160B8091DB049091DC04892B09F09FC112
:102FA00081EA90E00E944E044091E6045091E704CB
:102FB0006091E8047091E90420E189E293E00E94C5
:102FC000CA0A80E20E946904E091F204F091F304DD
:102FD000808590E00196969587950E94160B82E970
:102FE00090E00E944E0462E172E089E293E00E9468
:102FF000BB0A8091DD049091DE048E3C910509F0BE
:103000006FC02091DF043091E0042330310539F4A2
:103010008091A2028F258093A2021092A10280913A
:10302000A202882309F450C02C30310509F58091A3
:103030009F02882359F0853008F48AC18450809318
:103040009F0260E080919F020E945A078BEB94E000
:103050000E94290860E087E00E94E10740919F02FA
:1030600050E070E060E02AE08BEB94E00E94CA0A36
:103070008091DF049091E0040A9731F580919F02DE
:103080008F3380F4909197029111109297028B33B5
:1030900008F061C18C5F80939F0260E080919F0285
:1030A0000E945A078BEB94E00E94290860E087E0B9
:1030B0000E94E10740919F0250E070E060E02AE04A
:1030C0008BEB94E00E94CA0A62E370E080E090E03B
:1030D0000E942D028091D203833011F41092D2030A
:1030E0008091A202882309F445C08091A0028150FA
:1030F000823008F03FC00E946C018C0180919A02DE
:1031000090919B02F801E81BF90BCF01F7FF03C078
:1031100091958195910904976CF1A0909F02B80157
:10312000012E000C880B990B26E0660F771F881F75
:10313000991F2A95D1F720E034E040E050E00E944A
:10314000E41AB22EA216B1F020939F02A21608F044
:1031500004C180919702882309F4FFC0109297025E
:1031600061E08B2D0E945A07B0929C0210939B0243
:1031700000939A028091A002823009F423C108F0E2
:10318000EEC0813009F416C18091CC04882309F483
:1031900075C18FEF8093CA048091CB04F092050330
:1031A00080932703109206031092280389E090E091
:1031B0000E9432070E94F40461E08091CB040E94D7
:1031C000DB0510929E0280939D021091CA0486EC4A
:1031D00093E00E94BC0681231091CA04812385FBE1
:1031E000882780F99091CC0491111092CA04982FED
:1031F0009F252091A802291799F02FB7F8944091A4
:10320000AB025091AC026091AD027091AE022FBF43
:103210004093A4025093A5026093A6027093A70264
:103220002FB7F8944091AB025091AC026091AD027F
:103230007091AE022FBF0091A4021091A5022091BF
:10324000A6023091A702401B510B620B730B433354
:1032500051056105710578F02091A302291759F0F5
:103260009093A302811107C08091A2028F258093C1
:10327000A2021092A1029093A8028091A102811152
:103280001EC08BEB94E00E9429080E9446078091A3
:10329000A20260E0882309F4F3C086E00E94E107FF
:1032A0006BE172E08BEB94E00E94BB0AF092A0020B
:1032B00061E080919F020E945A07F092A10280E093
:1032C00090E0892B11F40C94630F0E94CB038823A8
:1032D00011F40C945C0F0E9400000C945C0F8CE8BD
:1032E00090E00E944E044091DD045091DE0470E0B5
:1032F00060E020E189E293E00E94CA0A86E890E05B
:103300000E944E044091DF045091E00470E060E0C0
:1033100020E189E293E00E94CA0A8EE790E00E94D1
:103320004E044091E6045091E7046091E8047091E6
:10333000E90420E189E293E00E94CA0A8091E50451
:10334000837009F456CE8BE790E00E944E0451CE74
:1033500010929F0276CE8FE39ECE60E002CF833044
:1033600009F442C0843009F00FCF64E170E080E0DE
:1033700090E00E942D020E946C0120919A023091EF
:103380009B028217930709F074C020919802309134
:1033900099022F5F3F4F3093990220939802253076
:1033A00031051CF022E02093A00290939B028093B1
:1033B0009A02EACE82E08093A00280919F028093DD
:1033C0009C02E2CE10919F0280919C02181749F056
:1033D00083E08093A0020E946C0190939B028093F3
:1033E0009A0210939C02D0CE1092990210929802E9
:1033F00080909F02912CB12CA12C84E0880C991C08
:10340000AA1CBB1C8A95D1F784010E946C01881A02
:10341000990AF8E08F0E911C21E18216910490F434
:1034200060E081E10E948B0160E080E10E948B01FD
:1034300084E08093A00265E070E080E090E00E946C
:103440002D02A2CE801791074CF460E081E10E942A
:103450008B0161E080E10E948B0196CE081719076D
:103460000CF092CE60E080E10E948B0161E081E18E
:10347000F2CF109299021092980297CF80E0B2CECC
:1034800080E00E945A078BEB94E00E94290860E0DC
:1034900086E00E94E10764E272E08BEB94E00E9418
:1034A000BB0A64EF71E080E090E00E942D028BEB9C
:1034B00094E00E94290860E084E00E94E1076EE247
:1034C00072E08BEB94E00E94BB0A61E080E00E9416
:1034D000E1076AE372E08BEB94E00E94BB0AEDCE59
:1034E000DB018F939F930E94A21ABF91AF91A29F7D
:1034F000800D911DA39F900DB29F900D11240895F2
:10350000A1E21A2EAA1BBB1BFD010DC0AA1FBB1FE7
:10351000EE1FFF1FA217B307E407F50720F0A21B59
:10352000B30BE40BF50B661F771F881F991F1A94C6
:1035300069F760957095809590959B01AC01BD01F0
:10354000CF0108950E94AD1AA59F900DB49F900DD4
:10355000A49F800D911D11240895A29FB001B39FD7
:10356000C001A39F700D811D1124911DB29F700D8C
:10357000811D1124911D0895AA1BBB1B51E107C099
:10358000AA1FBB1FA617B70710F0A61BB70B881FF3
:10359000991F5A95A9F780959095BC01CD01089582
:1035A00097FB072E16F4009407D077FD09D00E94F0
:1035B000BC1A07FC05D03EF4909581959F4F089565
:1035C000709561957F4F0895052E97FB1EF400942A
:1035D0000E94FB1A57FD07D00E94801A07FC03D0F7
:1035E0004EF40C94FB1A50954095309521953F4F21
:1035F0004F4F5F4F089590958095709561957F4FDF
:103600008F4F9F4F0895002E083090F0982F872FEE
:10361000762F652F542F432F322F22270850F4CFB7
:10362000220F331F441F551F661F771F881F991FC6
:103630000A95B2F7002D0895EE0FFF1F0590F49143
:10364000E02D099481E090E0F8940C94271BF89405
:02365000FFCFAA
:1036520005002628236810F4012C06F40126020135
:10366200016E00A90A040026E02070100E022A064C
:103672000E020E020001410000001200268011809D
:1036820011300290063002300200016E008F0A19DA
:103692000026220B220BEE026608EE02EE02010168
:1036A2006E0000001700269E0002049E0029029E62
:1036B20000070100016E000000160026F603BC059B
:1036C2000802BC050802D40100014B0000001500ED
:1036D2002860095802B00458025802580200002D0E
:1036E20000000003002604010C0304011C0704016E
:1036F2000C0301016E0000000B0025800DC006B016
:10370200011005B001B0010001820000000700268F
:1037120000238011300290063002300200016E0058
:10372200A90A004014540040105000000000010497
:1037320061038E036E04BF039D03B103000000000A
:103742000307D606B708AC06CF06BC06AD060000D6
:103752000000CE076103B708B6085509BA073C094D
:103762001D090D0A0053756D3A2000506F7765727E
:10377200204F6E00506F776572204F666600507260
:1037820065616D702076312E300042656E20507278
:0E3792006F76656E7A616E6F204949490000BE
:00000001FF
